{
	"contracts/Banking-transactions.sol": {
		"Transactions": {
			"abi": [
				{
					"inputs": [],
					"stateMutability": "nonpayable",
					"type": "constructor"
				},
				{
					"anonymous": false,
					"inputs": [
						{
							"indexed": true,
							"internalType": "address",
							"name": "from",
							"type": "address"
						},
						{
							"indexed": true,
							"internalType": "address",
							"name": "to",
							"type": "address"
						},
						{
							"indexed": false,
							"internalType": "string",
							"name": "message",
							"type": "string"
						},
						{
							"indexed": false,
							"internalType": "uint256",
							"name": "amount",
							"type": "uint256"
						},
						{
							"indexed": false,
							"internalType": "uint256",
							"name": "timestamp",
							"type": "uint256"
						}
					],
					"name": "TranserComplete",
					"type": "event"
				},
				{
					"inputs": [
						{
							"internalType": "address",
							"name": "",
							"type": "address"
						},
						{
							"internalType": "uint256",
							"name": "",
							"type": "uint256"
						}
					],
					"name": "accounts",
					"outputs": [
						{
							"internalType": "uint256",
							"name": "balance",
							"type": "uint256"
						},
						{
							"internalType": "uint256",
							"name": "timestamp",
							"type": "uint256"
						},
						{
							"internalType": "address",
							"name": "id",
							"type": "address"
						}
					],
					"stateMutability": "view",
					"type": "function"
				},
				{
					"inputs": [
						{
							"internalType": "uint256",
							"name": "i",
							"type": "uint256"
						},
						{
							"internalType": "uint256",
							"name": "amount",
							"type": "uint256"
						}
					],
					"name": "deposit",
					"outputs": [],
					"stateMutability": "nonpayable",
					"type": "function"
				},
				{
					"inputs": [
						{
							"internalType": "uint256",
							"name": "i",
							"type": "uint256"
						}
					],
					"name": "getBalance",
					"outputs": [
						{
							"internalType": "uint256",
							"name": "",
							"type": "uint256"
						}
					],
					"stateMutability": "view",
					"type": "function"
				},
				{
					"inputs": [],
					"name": "owner",
					"outputs": [
						{
							"internalType": "address",
							"name": "",
							"type": "address"
						}
					],
					"stateMutability": "view",
					"type": "function"
				},
				{
					"inputs": [
						{
							"internalType": "uint256",
							"name": "i",
							"type": "uint256"
						},
						{
							"internalType": "address",
							"name": "receiver",
							"type": "address"
						},
						{
							"internalType": "uint256",
							"name": "amount",
							"type": "uint256"
						},
						{
							"internalType": "string",
							"name": "message",
							"type": "string"
						}
					],
					"name": "transfer",
					"outputs": [],
					"stateMutability": "nonpayable",
					"type": "function"
				},
				{
					"inputs": [
						{
							"internalType": "uint256",
							"name": "i",
							"type": "uint256"
						},
						{
							"internalType": "uint256",
							"name": "amount",
							"type": "uint256"
						}
					],
					"name": "withdraw",
					"outputs": [],
					"stateMutability": "nonpayable",
					"type": "function"
				}
			],
			"devdoc": {
				"kind": "dev",
				"methods": {},
				"version": 1
			},
			"evm": {
				"assembly": "    /* \"contracts/Banking-transactions.sol\":58:1521  contract Transactions{... */\n  mstore(0x40, 0x80)\n    /* \"contracts/Banking-transactions.sol\":387:437  constructor (){... */\n  callvalue\n  dup1\n  iszero\n  tag_1\n  jumpi\n  0x00\n  dup1\n  revert\ntag_1:\n  pop\n    /* \"contracts/Banking-transactions.sol\":420:430  msg.sender */\n  caller\n    /* \"contracts/Banking-transactions.sol\":411:430  owner == msg.sender */\n  0xffffffffffffffffffffffffffffffffffffffff\n  and\n    /* \"contracts/Banking-transactions.sol\":411:416  owner */\n  0x01\n  0x00\n  swap1\n  sload\n  swap1\n  0x0100\n  exp\n  swap1\n  pop\n  pop\n    /* \"contracts/Banking-transactions.sol\":411:430  owner == msg.sender */\n  pop\n    /* \"contracts/Banking-transactions.sol\":58:1521  contract Transactions{... */\n  dataSize(sub_0)\n  dup1\n  dataOffset(sub_0)\n  0x00\n  codecopy\n  0x00\n  return\nstop\n\nsub_0: assembly {\n        /* \"contracts/Banking-transactions.sol\":58:1521  contract Transactions{... */\n      mstore(0x40, 0x80)\n      callvalue\n      dup1\n      iszero\n      tag_1\n      jumpi\n      0x00\n      dup1\n      revert\n    tag_1:\n      pop\n      jumpi(tag_2, lt(calldatasize, 0x04))\n      shr(0xe0, calldataload(0x00))\n      dup1\n      0x1e010439\n      eq\n      tag_3\n      jumpi\n      dup1\n      0x441a3e70\n      eq\n      tag_4\n      jumpi\n      dup1\n      0x87524581\n      eq\n      tag_5\n      jumpi\n      dup1\n      0x8da5cb5b\n      eq\n      tag_6\n      jumpi\n      dup1\n      0xd1eafb23\n      eq\n      tag_7\n      jumpi\n      dup1\n      0xe2bbb158\n      eq\n      tag_8\n      jumpi\n    tag_2:\n      0x00\n      dup1\n      revert\n        /* \"contracts/Banking-transactions.sol\":1410:1518  function getBalance(uint i) public view returns(uint){... */\n    tag_3:\n      tag_9\n      0x04\n      dup1\n      calldatasize\n      sub\n      dup2\n      add\n      swap1\n      tag_10\n      swap2\n      swap1\n      tag_11\n      jump\t// in\n    tag_10:\n      tag_12\n      jump\t// in\n    tag_9:\n      mload(0x40)\n      tag_13\n      swap2\n      swap1\n      tag_14\n      jump\t// in\n    tag_13:\n      mload(0x40)\n      dup1\n      swap2\n      sub\n      swap1\n      return\n        /* \"contracts/Banking-transactions.sol\":655:849  function withdraw(uint i, uint amount) public OnlyOwner{... */\n    tag_4:\n      tag_15\n      0x04\n      dup1\n      calldatasize\n      sub\n      dup2\n      add\n      swap1\n      tag_16\n      swap2\n      swap1\n      tag_17\n      jump\t// in\n    tag_16:\n      tag_18\n      jump\t// in\n    tag_15:\n      stop\n        /* \"contracts/Banking-transactions.sol\":179:225  mapping (address => Account[]) public accounts */\n    tag_5:\n      tag_19\n      0x04\n      dup1\n      calldatasize\n      sub\n      dup2\n      add\n      swap1\n      tag_20\n      swap2\n      swap1\n      tag_21\n      jump\t// in\n    tag_20:\n      tag_22\n      jump\t// in\n    tag_19:\n      mload(0x40)\n      tag_23\n      swap4\n      swap3\n      swap2\n      swap1\n      tag_24\n      jump\t// in\n    tag_23:\n      mload(0x40)\n      dup1\n      swap2\n      sub\n      swap1\n      return\n        /* \"contracts/Banking-transactions.sol\":231:251  address public owner */\n    tag_6:\n      tag_25\n      tag_26\n      jump\t// in\n    tag_25:\n      mload(0x40)\n      tag_27\n      swap2\n      swap1\n      tag_28\n      jump\t// in\n    tag_27:\n      mload(0x40)\n      dup1\n      swap2\n      sub\n      swap1\n      return\n        /* \"contracts/Banking-transactions.sol\":855:1404  function transfer(uint i, address receiver, uint amount, string memory message) public OnlyOwner{... */\n    tag_7:\n      tag_29\n      0x04\n      dup1\n      calldatasize\n      sub\n      dup2\n      add\n      swap1\n      tag_30\n      swap2\n      swap1\n      tag_31\n      jump\t// in\n    tag_30:\n      tag_32\n      jump\t// in\n    tag_29:\n      stop\n        /* \"contracts/Banking-transactions.sol\":538:649  function deposit(uint i, uint amount) public OnlyOwner{... */\n    tag_8:\n      tag_33\n      0x04\n      dup1\n      calldatasize\n      sub\n      dup2\n      add\n      swap1\n      tag_34\n      swap2\n      swap1\n      tag_17\n      jump\t// in\n    tag_34:\n      tag_35\n      jump\t// in\n    tag_33:\n      stop\n        /* \"contracts/Banking-transactions.sol\":1410:1518  function getBalance(uint i) public view returns(uint){... */\n    tag_12:\n        /* \"contracts/Banking-transactions.sol\":1458:1462  uint */\n      0x00\n        /* \"contracts/Banking-transactions.sol\":1480:1488  accounts */\n      dup1\n        /* \"contracts/Banking-transactions.sol\":1480:1500  accounts[msg.sender] */\n      0x00\n        /* \"contracts/Banking-transactions.sol\":1489:1499  msg.sender */\n      caller\n        /* \"contracts/Banking-transactions.sol\":1480:1500  accounts[msg.sender] */\n      0xffffffffffffffffffffffffffffffffffffffff\n      and\n      0xffffffffffffffffffffffffffffffffffffffff\n      and\n      dup2\n      mstore\n      0x20\n      add\n      swap1\n      dup2\n      mstore\n      0x20\n      add\n      0x00\n      keccak256\n        /* \"contracts/Banking-transactions.sol\":1501:1502  i */\n      dup3\n        /* \"contracts/Banking-transactions.sol\":1480:1503  accounts[msg.sender][i] */\n      dup2\n      sload\n      dup2\n      lt\n      tag_37\n      jumpi\n      tag_38\n      tag_39\n      jump\t// in\n    tag_38:\n    tag_37:\n      swap1\n      0x00\n      mstore\n      keccak256(0x00, 0x20)\n      swap1\n      0x03\n      mul\n      add\n        /* \"contracts/Banking-transactions.sol\":1480:1511  accounts[msg.sender][i].balance */\n      0x00\n      add\n      sload\n        /* \"contracts/Banking-transactions.sol\":1473:1511  return accounts[msg.sender][i].balance */\n      swap1\n      pop\n        /* \"contracts/Banking-transactions.sol\":1410:1518  function getBalance(uint i) public view returns(uint){... */\n      swap2\n      swap1\n      pop\n      jump\t// out\n        /* \"contracts/Banking-transactions.sol\":655:849  function withdraw(uint i, uint amount) public OnlyOwner{... */\n    tag_18:\n        /* \"contracts/Banking-transactions.sol\":495:500  owner */\n      0x01\n      0x00\n      swap1\n      sload\n      swap1\n      0x0100\n      exp\n      swap1\n      div\n      0xffffffffffffffffffffffffffffffffffffffff\n      and\n        /* \"contracts/Banking-transactions.sol\":481:500  msg.sender == owner */\n      0xffffffffffffffffffffffffffffffffffffffff\n      and\n        /* \"contracts/Banking-transactions.sol\":481:491  msg.sender */\n      caller\n        /* \"contracts/Banking-transactions.sol\":481:500  msg.sender == owner */\n      0xffffffffffffffffffffffffffffffffffffffff\n      and\n      eq\n        /* \"contracts/Banking-transactions.sol\":473:514  require(msg.sender == owner, \"Not owner\") */\n      tag_42\n      jumpi\n      mload(0x40)\n      0x08c379a000000000000000000000000000000000000000000000000000000000\n      dup2\n      mstore\n      0x04\n      add\n      tag_43\n      swap1\n      tag_44\n      jump\t// in\n    tag_43:\n      mload(0x40)\n      dup1\n      swap2\n      sub\n      swap1\n      revert\n    tag_42:\n        /* \"contracts/Banking-transactions.sol\":763:769  amount */\n      dup1\n        /* \"contracts/Banking-transactions.sol\":728:736  accounts */\n      0x00\n        /* \"contracts/Banking-transactions.sol\":728:748  accounts[msg.sender] */\n      dup1\n        /* \"contracts/Banking-transactions.sol\":737:747  msg.sender */\n      caller\n        /* \"contracts/Banking-transactions.sol\":728:748  accounts[msg.sender] */\n      0xffffffffffffffffffffffffffffffffffffffff\n      and\n      0xffffffffffffffffffffffffffffffffffffffff\n      and\n      dup2\n      mstore\n      0x20\n      add\n      swap1\n      dup2\n      mstore\n      0x20\n      add\n      0x00\n      keccak256\n        /* \"contracts/Banking-transactions.sol\":749:750  i */\n      dup4\n        /* \"contracts/Banking-transactions.sol\":728:751  accounts[msg.sender][i] */\n      dup2\n      sload\n      dup2\n      lt\n      tag_46\n      jumpi\n      tag_47\n      tag_39\n      jump\t// in\n    tag_47:\n    tag_46:\n      swap1\n      0x00\n      mstore\n      keccak256(0x00, 0x20)\n      swap1\n      0x03\n      mul\n      add\n        /* \"contracts/Banking-transactions.sol\":728:759  accounts[msg.sender][i].balance */\n      0x00\n      add\n      sload\n        /* \"contracts/Banking-transactions.sol\":728:769  accounts[msg.sender][i].balance >= amount */\n      lt\n      iszero\n        /* \"contracts/Banking-transactions.sol\":720:791  require(accounts[msg.sender][i].balance >= amount, \"Insufficent funds\") */\n      tag_49\n      jumpi\n      mload(0x40)\n      0x08c379a000000000000000000000000000000000000000000000000000000000\n      dup2\n      mstore\n      0x04\n      add\n      tag_50\n      swap1\n      tag_51\n      jump\t// in\n    tag_50:\n      mload(0x40)\n      dup1\n      swap2\n      sub\n      swap1\n      revert\n    tag_49:\n        /* \"contracts/Banking-transactions.sol\":836:842  amount */\n      dup1\n        /* \"contracts/Banking-transactions.sol\":801:809  accounts */\n      0x00\n        /* \"contracts/Banking-transactions.sol\":801:821  accounts[msg.sender] */\n      dup1\n        /* \"contracts/Banking-transactions.sol\":810:820  msg.sender */\n      caller\n        /* \"contracts/Banking-transactions.sol\":801:821  accounts[msg.sender] */\n      0xffffffffffffffffffffffffffffffffffffffff\n      and\n      0xffffffffffffffffffffffffffffffffffffffff\n      and\n      dup2\n      mstore\n      0x20\n      add\n      swap1\n      dup2\n      mstore\n      0x20\n      add\n      0x00\n      keccak256\n        /* \"contracts/Banking-transactions.sol\":822:823  i */\n      dup4\n        /* \"contracts/Banking-transactions.sol\":801:824  accounts[msg.sender][i] */\n      dup2\n      sload\n      dup2\n      lt\n      tag_52\n      jumpi\n      tag_53\n      tag_39\n      jump\t// in\n    tag_53:\n    tag_52:\n      swap1\n      0x00\n      mstore\n      keccak256(0x00, 0x20)\n      swap1\n      0x03\n      mul\n      add\n        /* \"contracts/Banking-transactions.sol\":801:832  accounts[msg.sender][i].balance */\n      0x00\n      add\n      0x00\n        /* \"contracts/Banking-transactions.sol\":801:842  accounts[msg.sender][i].balance -= amount */\n      dup3\n      dup3\n      sload\n      tag_55\n      swap2\n      swap1\n      tag_56\n      jump\t// in\n    tag_55:\n      swap3\n      pop\n      pop\n      dup2\n      swap1\n      sstore\n      pop\n        /* \"contracts/Banking-transactions.sol\":655:849  function withdraw(uint i, uint amount) public OnlyOwner{... */\n      pop\n      pop\n      jump\t// out\n        /* \"contracts/Banking-transactions.sol\":179:225  mapping (address => Account[]) public accounts */\n    tag_22:\n      mstore(0x20, 0x00)\n      dup2\n      0x00\n      mstore\n      keccak256(0x00, 0x40)\n      dup2\n      dup2\n      sload\n      dup2\n      lt\n      tag_57\n      jumpi\n      0x00\n      dup1\n      revert\n    tag_57:\n      swap1\n      0x00\n      mstore\n      keccak256(0x00, 0x20)\n      swap1\n      0x03\n      mul\n      add\n      0x00\n      swap2\n      pop\n      swap2\n      pop\n      pop\n      dup1\n      0x00\n      add\n      sload\n      swap1\n      dup1\n      0x01\n      add\n      sload\n      swap1\n      dup1\n      0x02\n      add\n      0x00\n      swap1\n      sload\n      swap1\n      0x0100\n      exp\n      swap1\n      div\n      0xffffffffffffffffffffffffffffffffffffffff\n      and\n      swap1\n      pop\n      dup4\n      jump\t// out\n        /* \"contracts/Banking-transactions.sol\":231:251  address public owner */\n    tag_26:\n      0x01\n      0x00\n      swap1\n      sload\n      swap1\n      0x0100\n      exp\n      swap1\n      div\n      0xffffffffffffffffffffffffffffffffffffffff\n      and\n      dup2\n      jump\t// out\n        /* \"contracts/Banking-transactions.sol\":855:1404  function transfer(uint i, address receiver, uint amount, string memory message) public OnlyOwner{... */\n    tag_32:\n        /* \"contracts/Banking-transactions.sol\":495:500  owner */\n      0x01\n      0x00\n      swap1\n      sload\n      swap1\n      0x0100\n      exp\n      swap1\n      div\n      0xffffffffffffffffffffffffffffffffffffffff\n      and\n        /* \"contracts/Banking-transactions.sol\":481:500  msg.sender == owner */\n      0xffffffffffffffffffffffffffffffffffffffff\n      and\n        /* \"contracts/Banking-transactions.sol\":481:491  msg.sender */\n      caller\n        /* \"contracts/Banking-transactions.sol\":481:500  msg.sender == owner */\n      0xffffffffffffffffffffffffffffffffffffffff\n      and\n      eq\n        /* \"contracts/Banking-transactions.sol\":473:514  require(msg.sender == owner, \"Not owner\") */\n      tag_60\n      jumpi\n      mload(0x40)\n      0x08c379a000000000000000000000000000000000000000000000000000000000\n      dup2\n      mstore\n      0x04\n      add\n      tag_61\n      swap1\n      tag_44\n      jump\t// in\n    tag_61:\n      mload(0x40)\n      dup1\n      swap2\n      sub\n      swap1\n      revert\n    tag_60:\n        /* \"contracts/Banking-transactions.sol\":973:981  accounts */\n      0x00\n        /* \"contracts/Banking-transactions.sol\":973:993  accounts[msg.sender] */\n      dup1\n        /* \"contracts/Banking-transactions.sol\":982:992  msg.sender */\n      caller\n        /* \"contracts/Banking-transactions.sol\":973:993  accounts[msg.sender] */\n      0xffffffffffffffffffffffffffffffffffffffff\n      and\n      0xffffffffffffffffffffffffffffffffffffffff\n      and\n      dup2\n      mstore\n      0x20\n      add\n      swap1\n      dup2\n      mstore\n      0x20\n      add\n      0x00\n      keccak256\n        /* \"contracts/Banking-transactions.sol\":973:1000  accounts[msg.sender].length */\n      dup1\n      sload\n      swap1\n      pop\n        /* \"contracts/Banking-transactions.sol\":969:970  i */\n      dup5\n        /* \"contracts/Banking-transactions.sol\":969:1000  i < accounts[msg.sender].length */\n      lt\n        /* \"contracts/Banking-transactions.sol\":961:1023  require(i < accounts[msg.sender].length, \"Accound id invalid\") */\n      tag_63\n      jumpi\n      mload(0x40)\n      0x08c379a000000000000000000000000000000000000000000000000000000000\n      dup2\n      mstore\n      0x04\n      add\n      tag_64\n      swap1\n      tag_65\n      jump\t// in\n    tag_64:\n      mload(0x40)\n      dup1\n      swap2\n      sub\n      swap1\n      revert\n    tag_63:\n        /* \"contracts/Banking-transactions.sol\":1076:1082  amount */\n      dup2\n        /* \"contracts/Banking-transactions.sol\":1041:1049  accounts */\n      0x00\n        /* \"contracts/Banking-transactions.sol\":1041:1061  accounts[msg.sender] */\n      dup1\n        /* \"contracts/Banking-transactions.sol\":1050:1060  msg.sender */\n      caller\n        /* \"contracts/Banking-transactions.sol\":1041:1061  accounts[msg.sender] */\n      0xffffffffffffffffffffffffffffffffffffffff\n      and\n      0xffffffffffffffffffffffffffffffffffffffff\n      and\n      dup2\n      mstore\n      0x20\n      add\n      swap1\n      dup2\n      mstore\n      0x20\n      add\n      0x00\n      keccak256\n        /* \"contracts/Banking-transactions.sol\":1062:1063  i */\n      dup6\n        /* \"contracts/Banking-transactions.sol\":1041:1064  accounts[msg.sender][i] */\n      dup2\n      sload\n      dup2\n      lt\n      tag_66\n      jumpi\n      tag_67\n      tag_39\n      jump\t// in\n    tag_67:\n    tag_66:\n      swap1\n      0x00\n      mstore\n      keccak256(0x00, 0x20)\n      swap1\n      0x03\n      mul\n      add\n        /* \"contracts/Banking-transactions.sol\":1041:1072  accounts[msg.sender][i].balance */\n      0x00\n      add\n      sload\n        /* \"contracts/Banking-transactions.sol\":1041:1082  accounts[msg.sender][i].balance >= amount */\n      lt\n      iszero\n        /* \"contracts/Banking-transactions.sol\":1033:1105  require(accounts[msg.sender][i].balance >= amount, \"Insufficient funds\") */\n      tag_69\n      jumpi\n      mload(0x40)\n      0x08c379a000000000000000000000000000000000000000000000000000000000\n      dup2\n      mstore\n      0x04\n      add\n      tag_70\n      swap1\n      tag_71\n      jump\t// in\n    tag_70:\n      mload(0x40)\n      dup1\n      swap2\n      sub\n      swap1\n      revert\n    tag_69:\n        /* \"contracts/Banking-transactions.sol\":1135:1143  accounts */\n      0x00\n        /* \"contracts/Banking-transactions.sol\":1135:1155  accounts[msg.sender] */\n      dup1\n        /* \"contracts/Banking-transactions.sol\":1144:1154  msg.sender */\n      caller\n        /* \"contracts/Banking-transactions.sol\":1135:1155  accounts[msg.sender] */\n      0xffffffffffffffffffffffffffffffffffffffff\n      and\n      0xffffffffffffffffffffffffffffffffffffffff\n      and\n      dup2\n      mstore\n      0x20\n      add\n      swap1\n      dup2\n      mstore\n      0x20\n      add\n      0x00\n      keccak256\n        /* \"contracts/Banking-transactions.sol\":1156:1157  i */\n      dup5\n        /* \"contracts/Banking-transactions.sol\":1135:1158  accounts[msg.sender][i] */\n      dup2\n      sload\n      dup2\n      lt\n      tag_72\n      jumpi\n      tag_73\n      tag_39\n      jump\t// in\n    tag_73:\n    tag_72:\n      swap1\n      0x00\n      mstore\n      keccak256(0x00, 0x20)\n      swap1\n      0x03\n      mul\n      add\n        /* \"contracts/Banking-transactions.sol\":1135:1161  accounts[msg.sender][i].id */\n      0x02\n      add\n      0x00\n      swap1\n      sload\n      swap1\n      0x0100\n      exp\n      swap1\n      div\n      0xffffffffffffffffffffffffffffffffffffffff\n      and\n        /* \"contracts/Banking-transactions.sol\":1123:1161  receiver != accounts[msg.sender][i].id */\n      0xffffffffffffffffffffffffffffffffffffffff\n      and\n        /* \"contracts/Banking-transactions.sol\":1123:1131  receiver */\n      dup4\n        /* \"contracts/Banking-transactions.sol\":1123:1161  receiver != accounts[msg.sender][i].id */\n      0xffffffffffffffffffffffffffffffffffffffff\n      and\n      sub\n        /* \"contracts/Banking-transactions.sol\":1115:1181  require(receiver != accounts[msg.sender][i].id, \"Invalid account\") */\n      tag_75\n      jumpi\n      mload(0x40)\n      0x08c379a000000000000000000000000000000000000000000000000000000000\n      dup2\n      mstore\n      0x04\n      add\n      tag_76\n      swap1\n      tag_77\n      jump\t// in\n    tag_76:\n      mload(0x40)\n      dup1\n      swap2\n      sub\n      swap1\n      revert\n    tag_75:\n        /* \"contracts/Banking-transactions.sol\":1192:1211  withdraw(i, amount) */\n      tag_78\n        /* \"contracts/Banking-transactions.sol\":1201:1202  i */\n      dup5\n        /* \"contracts/Banking-transactions.sol\":1204:1210  amount */\n      dup4\n        /* \"contracts/Banking-transactions.sol\":1192:1200  withdraw */\n      tag_18\n        /* \"contracts/Banking-transactions.sol\":1192:1211  withdraw(i, amount) */\n      jump\t// in\n    tag_78:\n        /* \"contracts/Banking-transactions.sol\":1254:1260  amount */\n      dup2\n        /* \"contracts/Banking-transactions.sol\":1221:1229  accounts */\n      0x00\n        /* \"contracts/Banking-transactions.sol\":1221:1239  accounts[receiver] */\n      dup1\n        /* \"contracts/Banking-transactions.sol\":1230:1238  receiver */\n      dup6\n        /* \"contracts/Banking-transactions.sol\":1221:1239  accounts[receiver] */\n      0xffffffffffffffffffffffffffffffffffffffff\n      and\n      0xffffffffffffffffffffffffffffffffffffffff\n      and\n      dup2\n      mstore\n      0x20\n      add\n      swap1\n      dup2\n      mstore\n      0x20\n      add\n      0x00\n      keccak256\n        /* \"contracts/Banking-transactions.sol\":1240:1241  i */\n      dup6\n        /* \"contracts/Banking-transactions.sol\":1221:1242  accounts[receiver][i] */\n      dup2\n      sload\n      dup2\n      lt\n      tag_79\n      jumpi\n      tag_80\n      tag_39\n      jump\t// in\n    tag_80:\n    tag_79:\n      swap1\n      0x00\n      mstore\n      keccak256(0x00, 0x20)\n      swap1\n      0x03\n      mul\n      add\n        /* \"contracts/Banking-transactions.sol\":1221:1250  accounts[receiver][i].balance */\n      0x00\n      add\n      0x00\n        /* \"contracts/Banking-transactions.sol\":1221:1260  accounts[receiver][i].balance += amount */\n      dup3\n      dup3\n      sload\n      tag_82\n      swap2\n      swap1\n      tag_83\n      jump\t// in\n    tag_82:\n      swap3\n      pop\n      pop\n      dup2\n      swap1\n      sstore\n      pop\n        /* \"contracts/Banking-transactions.sol\":1319:1327  accounts */\n      0x00\n        /* \"contracts/Banking-transactions.sol\":1319:1337  accounts[receiver] */\n      dup1\n        /* \"contracts/Banking-transactions.sol\":1328:1336  receiver */\n      dup5\n        /* \"contracts/Banking-transactions.sol\":1319:1337  accounts[receiver] */\n      0xffffffffffffffffffffffffffffffffffffffff\n      and\n      0xffffffffffffffffffffffffffffffffffffffff\n      and\n      dup2\n      mstore\n      0x20\n      add\n      swap1\n      dup2\n      mstore\n      0x20\n      add\n      0x00\n      keccak256\n        /* \"contracts/Banking-transactions.sol\":1338:1339  i */\n      dup5\n        /* \"contracts/Banking-transactions.sol\":1319:1340  accounts[receiver][i] */\n      dup2\n      sload\n      dup2\n      lt\n      tag_84\n      jumpi\n      tag_85\n      tag_39\n      jump\t// in\n    tag_85:\n    tag_84:\n      swap1\n      0x00\n      mstore\n      keccak256(0x00, 0x20)\n      swap1\n      0x03\n      mul\n      add\n        /* \"contracts/Banking-transactions.sol\":1319:1343  accounts[receiver][i].id */\n      0x02\n      add\n      0x00\n      swap1\n      sload\n      swap1\n      0x0100\n      exp\n      swap1\n      div\n      0xffffffffffffffffffffffffffffffffffffffff\n      and\n        /* \"contracts/Banking-transactions.sol\":1275:1396  TranserComplete(accounts[msg.sender][i].id, accounts[receiver][i].id, message, amount, accounts[msg.sender][i].timestamp) */\n      0xffffffffffffffffffffffffffffffffffffffff\n      and\n        /* \"contracts/Banking-transactions.sol\":1291:1299  accounts */\n      0x00\n        /* \"contracts/Banking-transactions.sol\":1291:1311  accounts[msg.sender] */\n      dup1\n        /* \"contracts/Banking-transactions.sol\":1300:1310  msg.sender */\n      caller\n        /* \"contracts/Banking-transactions.sol\":1291:1311  accounts[msg.sender] */\n      0xffffffffffffffffffffffffffffffffffffffff\n      and\n      0xffffffffffffffffffffffffffffffffffffffff\n      and\n      dup2\n      mstore\n      0x20\n      add\n      swap1\n      dup2\n      mstore\n      0x20\n      add\n      0x00\n      keccak256\n        /* \"contracts/Banking-transactions.sol\":1312:1313  i */\n      dup6\n        /* \"contracts/Banking-transactions.sol\":1291:1314  accounts[msg.sender][i] */\n      dup2\n      sload\n      dup2\n      lt\n      tag_87\n      jumpi\n      tag_88\n      tag_39\n      jump\t// in\n    tag_88:\n    tag_87:\n      swap1\n      0x00\n      mstore\n      keccak256(0x00, 0x20)\n      swap1\n      0x03\n      mul\n      add\n        /* \"contracts/Banking-transactions.sol\":1291:1317  accounts[msg.sender][i].id */\n      0x02\n      add\n      0x00\n      swap1\n      sload\n      swap1\n      0x0100\n      exp\n      swap1\n      div\n      0xffffffffffffffffffffffffffffffffffffffff\n      and\n        /* \"contracts/Banking-transactions.sol\":1275:1396  TranserComplete(accounts[msg.sender][i].id, accounts[receiver][i].id, message, amount, accounts[msg.sender][i].timestamp) */\n      0xffffffffffffffffffffffffffffffffffffffff\n      and\n      0x651e25d1d5e28ea3d46c1e231de2f939b587f24374b637685abaf09e0598de64\n        /* \"contracts/Banking-transactions.sol\":1345:1352  message */\n      dup4\n        /* \"contracts/Banking-transactions.sol\":1354:1360  amount */\n      dup6\n        /* \"contracts/Banking-transactions.sol\":1362:1370  accounts */\n      0x00\n        /* \"contracts/Banking-transactions.sol\":1362:1382  accounts[msg.sender] */\n      dup1\n        /* \"contracts/Banking-transactions.sol\":1371:1381  msg.sender */\n      caller\n        /* \"contracts/Banking-transactions.sol\":1362:1382  accounts[msg.sender] */\n      0xffffffffffffffffffffffffffffffffffffffff\n      and\n      0xffffffffffffffffffffffffffffffffffffffff\n      and\n      dup2\n      mstore\n      0x20\n      add\n      swap1\n      dup2\n      mstore\n      0x20\n      add\n      0x00\n      keccak256\n        /* \"contracts/Banking-transactions.sol\":1383:1384  i */\n      dup10\n        /* \"contracts/Banking-transactions.sol\":1362:1385  accounts[msg.sender][i] */\n      dup2\n      sload\n      dup2\n      lt\n      tag_90\n      jumpi\n      tag_91\n      tag_39\n      jump\t// in\n    tag_91:\n    tag_90:\n      swap1\n      0x00\n      mstore\n      keccak256(0x00, 0x20)\n      swap1\n      0x03\n      mul\n      add\n        /* \"contracts/Banking-transactions.sol\":1362:1395  accounts[msg.sender][i].timestamp */\n      0x01\n      add\n      sload\n        /* \"contracts/Banking-transactions.sol\":1275:1396  TranserComplete(accounts[msg.sender][i].id, accounts[receiver][i].id, message, amount, accounts[msg.sender][i].timestamp) */\n      mload(0x40)\n      tag_93\n      swap4\n      swap3\n      swap2\n      swap1\n      tag_94\n      jump\t// in\n    tag_93:\n      mload(0x40)\n      dup1\n      swap2\n      sub\n      swap1\n      log3\n        /* \"contracts/Banking-transactions.sol\":855:1404  function transfer(uint i, address receiver, uint amount, string memory message) public OnlyOwner{... */\n      pop\n      pop\n      pop\n      pop\n      jump\t// out\n        /* \"contracts/Banking-transactions.sol\":538:649  function deposit(uint i, uint amount) public OnlyOwner{... */\n    tag_35:\n        /* \"contracts/Banking-transactions.sol\":495:500  owner */\n      0x01\n      0x00\n      swap1\n      sload\n      swap1\n      0x0100\n      exp\n      swap1\n      div\n      0xffffffffffffffffffffffffffffffffffffffff\n      and\n        /* \"contracts/Banking-transactions.sol\":481:500  msg.sender == owner */\n      0xffffffffffffffffffffffffffffffffffffffff\n      and\n        /* \"contracts/Banking-transactions.sol\":481:491  msg.sender */\n      caller\n        /* \"contracts/Banking-transactions.sol\":481:500  msg.sender == owner */\n      0xffffffffffffffffffffffffffffffffffffffff\n      and\n      eq\n        /* \"contracts/Banking-transactions.sol\":473:514  require(msg.sender == owner, \"Not owner\") */\n      tag_96\n      jumpi\n      mload(0x40)\n      0x08c379a000000000000000000000000000000000000000000000000000000000\n      dup2\n      mstore\n      0x04\n      add\n      tag_97\n      swap1\n      tag_44\n      jump\t// in\n    tag_97:\n      mload(0x40)\n      dup1\n      swap2\n      sub\n      swap1\n      revert\n    tag_96:\n        /* \"contracts/Banking-transactions.sol\":636:642  amount */\n      dup1\n        /* \"contracts/Banking-transactions.sol\":601:609  accounts */\n      0x00\n        /* \"contracts/Banking-transactions.sol\":601:621  accounts[msg.sender] */\n      dup1\n        /* \"contracts/Banking-transactions.sol\":610:620  msg.sender */\n      caller\n        /* \"contracts/Banking-transactions.sol\":601:621  accounts[msg.sender] */\n      0xffffffffffffffffffffffffffffffffffffffff\n      and\n      0xffffffffffffffffffffffffffffffffffffffff\n      and\n      dup2\n      mstore\n      0x20\n      add\n      swap1\n      dup2\n      mstore\n      0x20\n      add\n      0x00\n      keccak256\n        /* \"contracts/Banking-transactions.sol\":622:623  i */\n      dup4\n        /* \"contracts/Banking-transactions.sol\":601:624  accounts[msg.sender][i] */\n      dup2\n      sload\n      dup2\n      lt\n      tag_99\n      jumpi\n      tag_100\n      tag_39\n      jump\t// in\n    tag_100:\n    tag_99:\n      swap1\n      0x00\n      mstore\n      keccak256(0x00, 0x20)\n      swap1\n      0x03\n      mul\n      add\n        /* \"contracts/Banking-transactions.sol\":601:632  accounts[msg.sender][i].balance */\n      0x00\n      add\n      0x00\n        /* \"contracts/Banking-transactions.sol\":601:642  accounts[msg.sender][i].balance += amount */\n      dup3\n      dup3\n      sload\n      tag_102\n      swap2\n      swap1\n      tag_83\n      jump\t// in\n    tag_102:\n      swap3\n      pop\n      pop\n      dup2\n      swap1\n      sstore\n      pop\n        /* \"contracts/Banking-transactions.sol\":538:649  function deposit(uint i, uint amount) public OnlyOwner{... */\n      pop\n      pop\n      jump\t// out\n        /* \"#utility.yul\":7:82   */\n    tag_103:\n        /* \"#utility.yul\":40:46   */\n      0x00\n        /* \"#utility.yul\":73:75   */\n      0x40\n        /* \"#utility.yul\":67:76   */\n      mload\n        /* \"#utility.yul\":57:76   */\n      swap1\n      pop\n        /* \"#utility.yul\":7:82   */\n      swap1\n      jump\t// out\n        /* \"#utility.yul\":88:205   */\n    tag_104:\n        /* \"#utility.yul\":197:198   */\n      0x00\n        /* \"#utility.yul\":194:195   */\n      dup1\n        /* \"#utility.yul\":187:199   */\n      revert\n        /* \"#utility.yul\":211:328   */\n    tag_105:\n        /* \"#utility.yul\":320:321   */\n      0x00\n        /* \"#utility.yul\":317:318   */\n      dup1\n        /* \"#utility.yul\":310:322   */\n      revert\n        /* \"#utility.yul\":334:411   */\n    tag_106:\n        /* \"#utility.yul\":371:378   */\n      0x00\n        /* \"#utility.yul\":400:405   */\n      dup2\n        /* \"#utility.yul\":389:405   */\n      swap1\n      pop\n        /* \"#utility.yul\":334:411   */\n      swap2\n      swap1\n      pop\n      jump\t// out\n        /* \"#utility.yul\":417:539   */\n    tag_107:\n        /* \"#utility.yul\":490:514   */\n      tag_146\n        /* \"#utility.yul\":508:513   */\n      dup2\n        /* \"#utility.yul\":490:514   */\n      tag_106\n      jump\t// in\n    tag_146:\n        /* \"#utility.yul\":483:488   */\n      dup2\n        /* \"#utility.yul\":480:515   */\n      eq\n        /* \"#utility.yul\":470:533   */\n      tag_147\n      jumpi\n        /* \"#utility.yul\":529:530   */\n      0x00\n        /* \"#utility.yul\":526:527   */\n      dup1\n        /* \"#utility.yul\":519:531   */\n      revert\n        /* \"#utility.yul\":470:533   */\n    tag_147:\n        /* \"#utility.yul\":417:539   */\n      pop\n      jump\t// out\n        /* \"#utility.yul\":545:684   */\n    tag_108:\n        /* \"#utility.yul\":591:596   */\n      0x00\n        /* \"#utility.yul\":629:635   */\n      dup2\n        /* \"#utility.yul\":616:636   */\n      calldataload\n        /* \"#utility.yul\":607:636   */\n      swap1\n      pop\n        /* \"#utility.yul\":645:678   */\n      tag_149\n        /* \"#utility.yul\":672:677   */\n      dup2\n        /* \"#utility.yul\":645:678   */\n      tag_107\n      jump\t// in\n    tag_149:\n        /* \"#utility.yul\":545:684   */\n      swap3\n      swap2\n      pop\n      pop\n      jump\t// out\n        /* \"#utility.yul\":690:1019   */\n    tag_11:\n        /* \"#utility.yul\":749:755   */\n      0x00\n        /* \"#utility.yul\":798:800   */\n      0x20\n        /* \"#utility.yul\":786:795   */\n      dup3\n        /* \"#utility.yul\":777:784   */\n      dup5\n        /* \"#utility.yul\":773:796   */\n      sub\n        /* \"#utility.yul\":769:801   */\n      slt\n        /* \"#utility.yul\":766:885   */\n      iszero\n      tag_151\n      jumpi\n        /* \"#utility.yul\":804:883   */\n      tag_152\n      tag_104\n      jump\t// in\n    tag_152:\n        /* \"#utility.yul\":766:885   */\n    tag_151:\n        /* \"#utility.yul\":924:925   */\n      0x00\n        /* \"#utility.yul\":949:1002   */\n      tag_153\n        /* \"#utility.yul\":994:1001   */\n      dup5\n        /* \"#utility.yul\":985:991   */\n      dup3\n        /* \"#utility.yul\":974:983   */\n      dup6\n        /* \"#utility.yul\":970:992   */\n      add\n        /* \"#utility.yul\":949:1002   */\n      tag_108\n      jump\t// in\n    tag_153:\n        /* \"#utility.yul\":939:1002   */\n      swap2\n      pop\n        /* \"#utility.yul\":895:1012   */\n      pop\n        /* \"#utility.yul\":690:1019   */\n      swap3\n      swap2\n      pop\n      pop\n      jump\t// out\n        /* \"#utility.yul\":1025:1143   */\n    tag_109:\n        /* \"#utility.yul\":1112:1136   */\n      tag_155\n        /* \"#utility.yul\":1130:1135   */\n      dup2\n        /* \"#utility.yul\":1112:1136   */\n      tag_106\n      jump\t// in\n    tag_155:\n        /* \"#utility.yul\":1107:1110   */\n      dup3\n        /* \"#utility.yul\":1100:1137   */\n      mstore\n        /* \"#utility.yul\":1025:1143   */\n      pop\n      pop\n      jump\t// out\n        /* \"#utility.yul\":1149:1371   */\n    tag_14:\n        /* \"#utility.yul\":1242:1246   */\n      0x00\n        /* \"#utility.yul\":1280:1282   */\n      0x20\n        /* \"#utility.yul\":1269:1278   */\n      dup3\n        /* \"#utility.yul\":1265:1283   */\n      add\n        /* \"#utility.yul\":1257:1283   */\n      swap1\n      pop\n        /* \"#utility.yul\":1293:1364   */\n      tag_157\n        /* \"#utility.yul\":1361:1362   */\n      0x00\n        /* \"#utility.yul\":1350:1359   */\n      dup4\n        /* \"#utility.yul\":1346:1363   */\n      add\n        /* \"#utility.yul\":1337:1343   */\n      dup5\n        /* \"#utility.yul\":1293:1364   */\n      tag_109\n      jump\t// in\n    tag_157:\n        /* \"#utility.yul\":1149:1371   */\n      swap3\n      swap2\n      pop\n      pop\n      jump\t// out\n        /* \"#utility.yul\":1377:1851   */\n    tag_17:\n        /* \"#utility.yul\":1445:1451   */\n      0x00\n        /* \"#utility.yul\":1453:1459   */\n      dup1\n        /* \"#utility.yul\":1502:1504   */\n      0x40\n        /* \"#utility.yul\":1490:1499   */\n      dup4\n        /* \"#utility.yul\":1481:1488   */\n      dup6\n        /* \"#utility.yul\":1477:1500   */\n      sub\n        /* \"#utility.yul\":1473:1505   */\n      slt\n        /* \"#utility.yul\":1470:1589   */\n      iszero\n      tag_159\n      jumpi\n        /* \"#utility.yul\":1508:1587   */\n      tag_160\n      tag_104\n      jump\t// in\n    tag_160:\n        /* \"#utility.yul\":1470:1589   */\n    tag_159:\n        /* \"#utility.yul\":1628:1629   */\n      0x00\n        /* \"#utility.yul\":1653:1706   */\n      tag_161\n        /* \"#utility.yul\":1698:1705   */\n      dup6\n        /* \"#utility.yul\":1689:1695   */\n      dup3\n        /* \"#utility.yul\":1678:1687   */\n      dup7\n        /* \"#utility.yul\":1674:1696   */\n      add\n        /* \"#utility.yul\":1653:1706   */\n      tag_108\n      jump\t// in\n    tag_161:\n        /* \"#utility.yul\":1643:1706   */\n      swap3\n      pop\n        /* \"#utility.yul\":1599:1716   */\n      pop\n        /* \"#utility.yul\":1755:1757   */\n      0x20\n        /* \"#utility.yul\":1781:1834   */\n      tag_162\n        /* \"#utility.yul\":1826:1833   */\n      dup6\n        /* \"#utility.yul\":1817:1823   */\n      dup3\n        /* \"#utility.yul\":1806:1815   */\n      dup7\n        /* \"#utility.yul\":1802:1824   */\n      add\n        /* \"#utility.yul\":1781:1834   */\n      tag_108\n      jump\t// in\n    tag_162:\n        /* \"#utility.yul\":1771:1834   */\n      swap2\n      pop\n        /* \"#utility.yul\":1726:1844   */\n      pop\n        /* \"#utility.yul\":1377:1851   */\n      swap3\n      pop\n      swap3\n      swap1\n      pop\n      jump\t// out\n        /* \"#utility.yul\":1857:1983   */\n    tag_110:\n        /* \"#utility.yul\":1894:1901   */\n      0x00\n        /* \"#utility.yul\":1934:1976   */\n      0xffffffffffffffffffffffffffffffffffffffff\n        /* \"#utility.yul\":1927:1932   */\n      dup3\n        /* \"#utility.yul\":1923:1977   */\n      and\n        /* \"#utility.yul\":1912:1977   */\n      swap1\n      pop\n        /* \"#utility.yul\":1857:1983   */\n      swap2\n      swap1\n      pop\n      jump\t// out\n        /* \"#utility.yul\":1989:2085   */\n    tag_111:\n        /* \"#utility.yul\":2026:2033   */\n      0x00\n        /* \"#utility.yul\":2055:2079   */\n      tag_165\n        /* \"#utility.yul\":2073:2078   */\n      dup3\n        /* \"#utility.yul\":2055:2079   */\n      tag_110\n      jump\t// in\n    tag_165:\n        /* \"#utility.yul\":2044:2079   */\n      swap1\n      pop\n        /* \"#utility.yul\":1989:2085   */\n      swap2\n      swap1\n      pop\n      jump\t// out\n        /* \"#utility.yul\":2091:2213   */\n    tag_112:\n        /* \"#utility.yul\":2164:2188   */\n      tag_167\n        /* \"#utility.yul\":2182:2187   */\n      dup2\n        /* \"#utility.yul\":2164:2188   */\n      tag_111\n      jump\t// in\n    tag_167:\n        /* \"#utility.yul\":2157:2162   */\n      dup2\n        /* \"#utility.yul\":2154:2189   */\n      eq\n        /* \"#utility.yul\":2144:2207   */\n      tag_168\n      jumpi\n        /* \"#utility.yul\":2203:2204   */\n      0x00\n        /* \"#utility.yul\":2200:2201   */\n      dup1\n        /* \"#utility.yul\":2193:2205   */\n      revert\n        /* \"#utility.yul\":2144:2207   */\n    tag_168:\n        /* \"#utility.yul\":2091:2213   */\n      pop\n      jump\t// out\n        /* \"#utility.yul\":2219:2358   */\n    tag_113:\n        /* \"#utility.yul\":2265:2270   */\n      0x00\n        /* \"#utility.yul\":2303:2309   */\n      dup2\n        /* \"#utility.yul\":2290:2310   */\n      calldataload\n        /* \"#utility.yul\":2281:2310   */\n      swap1\n      pop\n        /* \"#utility.yul\":2319:2352   */\n      tag_170\n        /* \"#utility.yul\":2346:2351   */\n      dup2\n        /* \"#utility.yul\":2319:2352   */\n      tag_112\n      jump\t// in\n    tag_170:\n        /* \"#utility.yul\":2219:2358   */\n      swap3\n      swap2\n      pop\n      pop\n      jump\t// out\n        /* \"#utility.yul\":2364:2838   */\n    tag_21:\n        /* \"#utility.yul\":2432:2438   */\n      0x00\n        /* \"#utility.yul\":2440:2446   */\n      dup1\n        /* \"#utility.yul\":2489:2491   */\n      0x40\n        /* \"#utility.yul\":2477:2486   */\n      dup4\n        /* \"#utility.yul\":2468:2475   */\n      dup6\n        /* \"#utility.yul\":2464:2487   */\n      sub\n        /* \"#utility.yul\":2460:2492   */\n      slt\n        /* \"#utility.yul\":2457:2576   */\n      iszero\n      tag_172\n      jumpi\n        /* \"#utility.yul\":2495:2574   */\n      tag_173\n      tag_104\n      jump\t// in\n    tag_173:\n        /* \"#utility.yul\":2457:2576   */\n    tag_172:\n        /* \"#utility.yul\":2615:2616   */\n      0x00\n        /* \"#utility.yul\":2640:2693   */\n      tag_174\n        /* \"#utility.yul\":2685:2692   */\n      dup6\n        /* \"#utility.yul\":2676:2682   */\n      dup3\n        /* \"#utility.yul\":2665:2674   */\n      dup7\n        /* \"#utility.yul\":2661:2683   */\n      add\n        /* \"#utility.yul\":2640:2693   */\n      tag_113\n      jump\t// in\n    tag_174:\n        /* \"#utility.yul\":2630:2693   */\n      swap3\n      pop\n        /* \"#utility.yul\":2586:2703   */\n      pop\n        /* \"#utility.yul\":2742:2744   */\n      0x20\n        /* \"#utility.yul\":2768:2821   */\n      tag_175\n        /* \"#utility.yul\":2813:2820   */\n      dup6\n        /* \"#utility.yul\":2804:2810   */\n      dup3\n        /* \"#utility.yul\":2793:2802   */\n      dup7\n        /* \"#utility.yul\":2789:2811   */\n      add\n        /* \"#utility.yul\":2768:2821   */\n      tag_108\n      jump\t// in\n    tag_175:\n        /* \"#utility.yul\":2758:2821   */\n      swap2\n      pop\n        /* \"#utility.yul\":2713:2831   */\n      pop\n        /* \"#utility.yul\":2364:2838   */\n      swap3\n      pop\n      swap3\n      swap1\n      pop\n      jump\t// out\n        /* \"#utility.yul\":2844:2962   */\n    tag_114:\n        /* \"#utility.yul\":2931:2955   */\n      tag_177\n        /* \"#utility.yul\":2949:2954   */\n      dup2\n        /* \"#utility.yul\":2931:2955   */\n      tag_111\n      jump\t// in\n    tag_177:\n        /* \"#utility.yul\":2926:2929   */\n      dup3\n        /* \"#utility.yul\":2919:2956   */\n      mstore\n        /* \"#utility.yul\":2844:2962   */\n      pop\n      pop\n      jump\t// out\n        /* \"#utility.yul\":2968:3410   */\n    tag_24:\n        /* \"#utility.yul\":3117:3121   */\n      0x00\n        /* \"#utility.yul\":3155:3157   */\n      0x60\n        /* \"#utility.yul\":3144:3153   */\n      dup3\n        /* \"#utility.yul\":3140:3158   */\n      add\n        /* \"#utility.yul\":3132:3158   */\n      swap1\n      pop\n        /* \"#utility.yul\":3168:3239   */\n      tag_179\n        /* \"#utility.yul\":3236:3237   */\n      0x00\n        /* \"#utility.yul\":3225:3234   */\n      dup4\n        /* \"#utility.yul\":3221:3238   */\n      add\n        /* \"#utility.yul\":3212:3218   */\n      dup7\n        /* \"#utility.yul\":3168:3239   */\n      tag_109\n      jump\t// in\n    tag_179:\n        /* \"#utility.yul\":3249:3321   */\n      tag_180\n        /* \"#utility.yul\":3317:3319   */\n      0x20\n        /* \"#utility.yul\":3306:3315   */\n      dup4\n        /* \"#utility.yul\":3302:3320   */\n      add\n        /* \"#utility.yul\":3293:3299   */\n      dup6\n        /* \"#utility.yul\":3249:3321   */\n      tag_109\n      jump\t// in\n    tag_180:\n        /* \"#utility.yul\":3331:3403   */\n      tag_181\n        /* \"#utility.yul\":3399:3401   */\n      0x40\n        /* \"#utility.yul\":3388:3397   */\n      dup4\n        /* \"#utility.yul\":3384:3402   */\n      add\n        /* \"#utility.yul\":3375:3381   */\n      dup5\n        /* \"#utility.yul\":3331:3403   */\n      tag_114\n      jump\t// in\n    tag_181:\n        /* \"#utility.yul\":2968:3410   */\n      swap5\n      swap4\n      pop\n      pop\n      pop\n      pop\n      jump\t// out\n        /* \"#utility.yul\":3416:3638   */\n    tag_28:\n        /* \"#utility.yul\":3509:3513   */\n      0x00\n        /* \"#utility.yul\":3547:3549   */\n      0x20\n        /* \"#utility.yul\":3536:3545   */\n      dup3\n        /* \"#utility.yul\":3532:3550   */\n      add\n        /* \"#utility.yul\":3524:3550   */\n      swap1\n      pop\n        /* \"#utility.yul\":3560:3631   */\n      tag_183\n        /* \"#utility.yul\":3628:3629   */\n      0x00\n        /* \"#utility.yul\":3617:3626   */\n      dup4\n        /* \"#utility.yul\":3613:3630   */\n      add\n        /* \"#utility.yul\":3604:3610   */\n      dup5\n        /* \"#utility.yul\":3560:3631   */\n      tag_114\n      jump\t// in\n    tag_183:\n        /* \"#utility.yul\":3416:3638   */\n      swap3\n      swap2\n      pop\n      pop\n      jump\t// out\n        /* \"#utility.yul\":3644:3761   */\n    tag_115:\n        /* \"#utility.yul\":3753:3754   */\n      0x00\n        /* \"#utility.yul\":3750:3751   */\n      dup1\n        /* \"#utility.yul\":3743:3755   */\n      revert\n        /* \"#utility.yul\":3767:3884   */\n    tag_116:\n        /* \"#utility.yul\":3876:3877   */\n      0x00\n        /* \"#utility.yul\":3873:3874   */\n      dup1\n        /* \"#utility.yul\":3866:3878   */\n      revert\n        /* \"#utility.yul\":3890:3992   */\n    tag_117:\n        /* \"#utility.yul\":3931:3937   */\n      0x00\n        /* \"#utility.yul\":3982:3984   */\n      0x1f\n        /* \"#utility.yul\":3978:3985   */\n      not\n        /* \"#utility.yul\":3973:3975   */\n      0x1f\n        /* \"#utility.yul\":3966:3971   */\n      dup4\n        /* \"#utility.yul\":3962:3976   */\n      add\n        /* \"#utility.yul\":3958:3986   */\n      and\n        /* \"#utility.yul\":3948:3986   */\n      swap1\n      pop\n        /* \"#utility.yul\":3890:3992   */\n      swap2\n      swap1\n      pop\n      jump\t// out\n        /* \"#utility.yul\":3998:4178   */\n    tag_118:\n        /* \"#utility.yul\":4046:4123   */\n      0x4e487b7100000000000000000000000000000000000000000000000000000000\n        /* \"#utility.yul\":4043:4044   */\n      0x00\n        /* \"#utility.yul\":4036:4124   */\n      mstore\n        /* \"#utility.yul\":4143:4147   */\n      0x41\n        /* \"#utility.yul\":4140:4141   */\n      0x04\n        /* \"#utility.yul\":4133:4148   */\n      mstore\n        /* \"#utility.yul\":4167:4171   */\n      0x24\n        /* \"#utility.yul\":4164:4165   */\n      0x00\n        /* \"#utility.yul\":4157:4172   */\n      revert\n        /* \"#utility.yul\":4184:4465   */\n    tag_119:\n        /* \"#utility.yul\":4267:4294   */\n      tag_189\n        /* \"#utility.yul\":4289:4293   */\n      dup3\n        /* \"#utility.yul\":4267:4294   */\n      tag_117\n      jump\t// in\n    tag_189:\n        /* \"#utility.yul\":4259:4265   */\n      dup2\n        /* \"#utility.yul\":4255:4295   */\n      add\n        /* \"#utility.yul\":4397:4403   */\n      dup2\n        /* \"#utility.yul\":4385:4395   */\n      dup2\n        /* \"#utility.yul\":4382:4404   */\n      lt\n        /* \"#utility.yul\":4361:4379   */\n      0xffffffffffffffff\n        /* \"#utility.yul\":4349:4359   */\n      dup3\n        /* \"#utility.yul\":4346:4380   */\n      gt\n        /* \"#utility.yul\":4343:4405   */\n      or\n        /* \"#utility.yul\":4340:4428   */\n      iszero\n      tag_190\n      jumpi\n        /* \"#utility.yul\":4408:4426   */\n      tag_191\n      tag_118\n      jump\t// in\n    tag_191:\n        /* \"#utility.yul\":4340:4428   */\n    tag_190:\n        /* \"#utility.yul\":4448:4458   */\n      dup1\n        /* \"#utility.yul\":4444:4446   */\n      0x40\n        /* \"#utility.yul\":4437:4459   */\n      mstore\n        /* \"#utility.yul\":4227:4465   */\n      pop\n        /* \"#utility.yul\":4184:4465   */\n      pop\n      pop\n      jump\t// out\n        /* \"#utility.yul\":4471:4600   */\n    tag_120:\n        /* \"#utility.yul\":4505:4511   */\n      0x00\n        /* \"#utility.yul\":4532:4552   */\n      tag_193\n      tag_103\n      jump\t// in\n    tag_193:\n        /* \"#utility.yul\":4522:4552   */\n      swap1\n      pop\n        /* \"#utility.yul\":4561:4594   */\n      tag_194\n        /* \"#utility.yul\":4589:4593   */\n      dup3\n        /* \"#utility.yul\":4581:4587   */\n      dup3\n        /* \"#utility.yul\":4561:4594   */\n      tag_119\n      jump\t// in\n    tag_194:\n        /* \"#utility.yul\":4471:4600   */\n      swap2\n      swap1\n      pop\n      jump\t// out\n        /* \"#utility.yul\":4606:4914   */\n    tag_121:\n        /* \"#utility.yul\":4668:4672   */\n      0x00\n        /* \"#utility.yul\":4758:4776   */\n      0xffffffffffffffff\n        /* \"#utility.yul\":4750:4756   */\n      dup3\n        /* \"#utility.yul\":4747:4777   */\n      gt\n        /* \"#utility.yul\":4744:4800   */\n      iszero\n      tag_196\n      jumpi\n        /* \"#utility.yul\":4780:4798   */\n      tag_197\n      tag_118\n      jump\t// in\n    tag_197:\n        /* \"#utility.yul\":4744:4800   */\n    tag_196:\n        /* \"#utility.yul\":4818:4847   */\n      tag_198\n        /* \"#utility.yul\":4840:4846   */\n      dup3\n        /* \"#utility.yul\":4818:4847   */\n      tag_117\n      jump\t// in\n    tag_198:\n        /* \"#utility.yul\":4810:4847   */\n      swap1\n      pop\n        /* \"#utility.yul\":4902:4906   */\n      0x20\n        /* \"#utility.yul\":4896:4900   */\n      dup2\n        /* \"#utility.yul\":4892:4907   */\n      add\n        /* \"#utility.yul\":4884:4907   */\n      swap1\n      pop\n        /* \"#utility.yul\":4606:4914   */\n      swap2\n      swap1\n      pop\n      jump\t// out\n        /* \"#utility.yul\":4920:5068   */\n    tag_122:\n        /* \"#utility.yul\":5018:5024   */\n      dup3\n        /* \"#utility.yul\":5013:5016   */\n      dup2\n        /* \"#utility.yul\":5008:5011   */\n      dup4\n        /* \"#utility.yul\":4995:5025   */\n      calldatacopy\n        /* \"#utility.yul\":5059:5060   */\n      0x00\n        /* \"#utility.yul\":5050:5056   */\n      dup4\n        /* \"#utility.yul\":5045:5048   */\n      dup4\n        /* \"#utility.yul\":5041:5057   */\n      add\n        /* \"#utility.yul\":5034:5061   */\n      mstore\n        /* \"#utility.yul\":4920:5068   */\n      pop\n      pop\n      pop\n      jump\t// out\n        /* \"#utility.yul\":5074:5499   */\n    tag_123:\n        /* \"#utility.yul\":5152:5157   */\n      0x00\n        /* \"#utility.yul\":5177:5243   */\n      tag_201\n        /* \"#utility.yul\":5193:5242   */\n      tag_202\n        /* \"#utility.yul\":5235:5241   */\n      dup5\n        /* \"#utility.yul\":5193:5242   */\n      tag_121\n      jump\t// in\n    tag_202:\n        /* \"#utility.yul\":5177:5243   */\n      tag_120\n      jump\t// in\n    tag_201:\n        /* \"#utility.yul\":5168:5243   */\n      swap1\n      pop\n        /* \"#utility.yul\":5266:5272   */\n      dup3\n        /* \"#utility.yul\":5259:5264   */\n      dup2\n        /* \"#utility.yul\":5252:5273   */\n      mstore\n        /* \"#utility.yul\":5304:5308   */\n      0x20\n        /* \"#utility.yul\":5297:5302   */\n      dup2\n        /* \"#utility.yul\":5293:5309   */\n      add\n        /* \"#utility.yul\":5342:5345   */\n      dup5\n        /* \"#utility.yul\":5333:5339   */\n      dup5\n        /* \"#utility.yul\":5328:5331   */\n      dup5\n        /* \"#utility.yul\":5324:5340   */\n      add\n        /* \"#utility.yul\":5321:5346   */\n      gt\n        /* \"#utility.yul\":5318:5430   */\n      iszero\n      tag_203\n      jumpi\n        /* \"#utility.yul\":5349:5428   */\n      tag_204\n      tag_116\n      jump\t// in\n    tag_204:\n        /* \"#utility.yul\":5318:5430   */\n    tag_203:\n        /* \"#utility.yul\":5439:5493   */\n      tag_205\n        /* \"#utility.yul\":5486:5492   */\n      dup5\n        /* \"#utility.yul\":5481:5484   */\n      dup3\n        /* \"#utility.yul\":5476:5479   */\n      dup6\n        /* \"#utility.yul\":5439:5493   */\n      tag_122\n      jump\t// in\n    tag_205:\n        /* \"#utility.yul\":5158:5499   */\n      pop\n        /* \"#utility.yul\":5074:5499   */\n      swap4\n      swap3\n      pop\n      pop\n      pop\n      jump\t// out\n        /* \"#utility.yul\":5519:5859   */\n    tag_124:\n        /* \"#utility.yul\":5575:5580   */\n      0x00\n        /* \"#utility.yul\":5624:5627   */\n      dup3\n        /* \"#utility.yul\":5617:5621   */\n      0x1f\n        /* \"#utility.yul\":5609:5615   */\n      dup4\n        /* \"#utility.yul\":5605:5622   */\n      add\n        /* \"#utility.yul\":5601:5628   */\n      slt\n        /* \"#utility.yul\":5591:5713   */\n      tag_207\n      jumpi\n        /* \"#utility.yul\":5632:5711   */\n      tag_208\n      tag_115\n      jump\t// in\n    tag_208:\n        /* \"#utility.yul\":5591:5713   */\n    tag_207:\n        /* \"#utility.yul\":5749:5755   */\n      dup2\n        /* \"#utility.yul\":5736:5756   */\n      calldataload\n        /* \"#utility.yul\":5774:5853   */\n      tag_209\n        /* \"#utility.yul\":5849:5852   */\n      dup5\n        /* \"#utility.yul\":5841:5847   */\n      dup3\n        /* \"#utility.yul\":5834:5838   */\n      0x20\n        /* \"#utility.yul\":5826:5832   */\n      dup7\n        /* \"#utility.yul\":5822:5839   */\n      add\n        /* \"#utility.yul\":5774:5853   */\n      tag_123\n      jump\t// in\n    tag_209:\n        /* \"#utility.yul\":5765:5853   */\n      swap2\n      pop\n        /* \"#utility.yul\":5581:5859   */\n      pop\n        /* \"#utility.yul\":5519:5859   */\n      swap3\n      swap2\n      pop\n      pop\n      jump\t// out\n        /* \"#utility.yul\":5865:6810   */\n    tag_31:\n        /* \"#utility.yul\":5961:5967   */\n      0x00\n        /* \"#utility.yul\":5969:5975   */\n      dup1\n        /* \"#utility.yul\":5977:5983   */\n      0x00\n        /* \"#utility.yul\":5985:5991   */\n      dup1\n        /* \"#utility.yul\":6034:6037   */\n      0x80\n        /* \"#utility.yul\":6022:6031   */\n      dup6\n        /* \"#utility.yul\":6013:6020   */\n      dup8\n        /* \"#utility.yul\":6009:6032   */\n      sub\n        /* \"#utility.yul\":6005:6038   */\n      slt\n        /* \"#utility.yul\":6002:6122   */\n      iszero\n      tag_211\n      jumpi\n        /* \"#utility.yul\":6041:6120   */\n      tag_212\n      tag_104\n      jump\t// in\n    tag_212:\n        /* \"#utility.yul\":6002:6122   */\n    tag_211:\n        /* \"#utility.yul\":6161:6162   */\n      0x00\n        /* \"#utility.yul\":6186:6239   */\n      tag_213\n        /* \"#utility.yul\":6231:6238   */\n      dup8\n        /* \"#utility.yul\":6222:6228   */\n      dup3\n        /* \"#utility.yul\":6211:6220   */\n      dup9\n        /* \"#utility.yul\":6207:6229   */\n      add\n        /* \"#utility.yul\":6186:6239   */\n      tag_108\n      jump\t// in\n    tag_213:\n        /* \"#utility.yul\":6176:6239   */\n      swap5\n      pop\n        /* \"#utility.yul\":6132:6249   */\n      pop\n        /* \"#utility.yul\":6288:6290   */\n      0x20\n        /* \"#utility.yul\":6314:6367   */\n      tag_214\n        /* \"#utility.yul\":6359:6366   */\n      dup8\n        /* \"#utility.yul\":6350:6356   */\n      dup3\n        /* \"#utility.yul\":6339:6348   */\n      dup9\n        /* \"#utility.yul\":6335:6357   */\n      add\n        /* \"#utility.yul\":6314:6367   */\n      tag_113\n      jump\t// in\n    tag_214:\n        /* \"#utility.yul\":6304:6367   */\n      swap4\n      pop\n        /* \"#utility.yul\":6259:6377   */\n      pop\n        /* \"#utility.yul\":6416:6418   */\n      0x40\n        /* \"#utility.yul\":6442:6495   */\n      tag_215\n        /* \"#utility.yul\":6487:6494   */\n      dup8\n        /* \"#utility.yul\":6478:6484   */\n      dup3\n        /* \"#utility.yul\":6467:6476   */\n      dup9\n        /* \"#utility.yul\":6463:6485   */\n      add\n        /* \"#utility.yul\":6442:6495   */\n      tag_108\n      jump\t// in\n    tag_215:\n        /* \"#utility.yul\":6432:6495   */\n      swap3\n      pop\n        /* \"#utility.yul\":6387:6505   */\n      pop\n        /* \"#utility.yul\":6572:6574   */\n      0x60\n        /* \"#utility.yul\":6561:6570   */\n      dup6\n        /* \"#utility.yul\":6557:6575   */\n      add\n        /* \"#utility.yul\":6544:6576   */\n      calldataload\n        /* \"#utility.yul\":6603:6621   */\n      0xffffffffffffffff\n        /* \"#utility.yul\":6595:6601   */\n      dup2\n        /* \"#utility.yul\":6592:6622   */\n      gt\n        /* \"#utility.yul\":6589:6706   */\n      iszero\n      tag_216\n      jumpi\n        /* \"#utility.yul\":6625:6704   */\n      tag_217\n      tag_105\n      jump\t// in\n    tag_217:\n        /* \"#utility.yul\":6589:6706   */\n    tag_216:\n        /* \"#utility.yul\":6730:6793   */\n      tag_218\n        /* \"#utility.yul\":6785:6792   */\n      dup8\n        /* \"#utility.yul\":6776:6782   */\n      dup3\n        /* \"#utility.yul\":6765:6774   */\n      dup9\n        /* \"#utility.yul\":6761:6783   */\n      add\n        /* \"#utility.yul\":6730:6793   */\n      tag_124\n      jump\t// in\n    tag_218:\n        /* \"#utility.yul\":6720:6793   */\n      swap2\n      pop\n        /* \"#utility.yul\":6515:6803   */\n      pop\n        /* \"#utility.yul\":5865:6810   */\n      swap3\n      swap6\n      swap2\n      swap5\n      pop\n      swap3\n      pop\n      jump\t// out\n        /* \"#utility.yul\":6816:6996   */\n    tag_39:\n        /* \"#utility.yul\":6864:6941   */\n      0x4e487b7100000000000000000000000000000000000000000000000000000000\n        /* \"#utility.yul\":6861:6862   */\n      0x00\n        /* \"#utility.yul\":6854:6942   */\n      mstore\n        /* \"#utility.yul\":6961:6965   */\n      0x32\n        /* \"#utility.yul\":6958:6959   */\n      0x04\n        /* \"#utility.yul\":6951:6966   */\n      mstore\n        /* \"#utility.yul\":6985:6989   */\n      0x24\n        /* \"#utility.yul\":6982:6983   */\n      0x00\n        /* \"#utility.yul\":6975:6990   */\n      revert\n        /* \"#utility.yul\":7002:7171   */\n    tag_125:\n        /* \"#utility.yul\":7086:7097   */\n      0x00\n        /* \"#utility.yul\":7120:7126   */\n      dup3\n        /* \"#utility.yul\":7115:7118   */\n      dup3\n        /* \"#utility.yul\":7108:7127   */\n      mstore\n        /* \"#utility.yul\":7160:7164   */\n      0x20\n        /* \"#utility.yul\":7155:7158   */\n      dup3\n        /* \"#utility.yul\":7151:7165   */\n      add\n        /* \"#utility.yul\":7136:7165   */\n      swap1\n      pop\n        /* \"#utility.yul\":7002:7171   */\n      swap3\n      swap2\n      pop\n      pop\n      jump\t// out\n        /* \"#utility.yul\":7177:7336   */\n    tag_126:\n        /* \"#utility.yul\":7317:7328   */\n      0x4e6f74206f776e65720000000000000000000000000000000000000000000000\n        /* \"#utility.yul\":7313:7314   */\n      0x00\n        /* \"#utility.yul\":7305:7311   */\n      dup3\n        /* \"#utility.yul\":7301:7315   */\n      add\n        /* \"#utility.yul\":7294:7329   */\n      mstore\n        /* \"#utility.yul\":7177:7336   */\n      pop\n      jump\t// out\n        /* \"#utility.yul\":7342:7707   */\n    tag_127:\n        /* \"#utility.yul\":7484:7487   */\n      0x00\n        /* \"#utility.yul\":7505:7571   */\n      tag_223\n        /* \"#utility.yul\":7569:7570   */\n      0x09\n        /* \"#utility.yul\":7564:7567   */\n      dup4\n        /* \"#utility.yul\":7505:7571   */\n      tag_125\n      jump\t// in\n    tag_223:\n        /* \"#utility.yul\":7498:7571   */\n      swap2\n      pop\n        /* \"#utility.yul\":7580:7673   */\n      tag_224\n        /* \"#utility.yul\":7669:7672   */\n      dup3\n        /* \"#utility.yul\":7580:7673   */\n      tag_126\n      jump\t// in\n    tag_224:\n        /* \"#utility.yul\":7698:7700   */\n      0x20\n        /* \"#utility.yul\":7693:7696   */\n      dup3\n        /* \"#utility.yul\":7689:7701   */\n      add\n        /* \"#utility.yul\":7682:7701   */\n      swap1\n      pop\n        /* \"#utility.yul\":7342:7707   */\n      swap2\n      swap1\n      pop\n      jump\t// out\n        /* \"#utility.yul\":7713:8132   */\n    tag_44:\n        /* \"#utility.yul\":7879:7883   */\n      0x00\n        /* \"#utility.yul\":7917:7919   */\n      0x20\n        /* \"#utility.yul\":7906:7915   */\n      dup3\n        /* \"#utility.yul\":7902:7920   */\n      add\n        /* \"#utility.yul\":7894:7920   */\n      swap1\n      pop\n        /* \"#utility.yul\":7966:7975   */\n      dup2\n        /* \"#utility.yul\":7960:7964   */\n      dup2\n        /* \"#utility.yul\":7956:7976   */\n      sub\n        /* \"#utility.yul\":7952:7953   */\n      0x00\n        /* \"#utility.yul\":7941:7950   */\n      dup4\n        /* \"#utility.yul\":7937:7954   */\n      add\n        /* \"#utility.yul\":7930:7977   */\n      mstore\n        /* \"#utility.yul\":7994:8125   */\n      tag_226\n        /* \"#utility.yul\":8120:8124   */\n      dup2\n        /* \"#utility.yul\":7994:8125   */\n      tag_127\n      jump\t// in\n    tag_226:\n        /* \"#utility.yul\":7986:8125   */\n      swap1\n      pop\n        /* \"#utility.yul\":7713:8132   */\n      swap2\n      swap1\n      pop\n      jump\t// out\n        /* \"#utility.yul\":8138:8305   */\n    tag_128:\n        /* \"#utility.yul\":8278:8297   */\n      0x496e737566666963656e742066756e6473000000000000000000000000000000\n        /* \"#utility.yul\":8274:8275   */\n      0x00\n        /* \"#utility.yul\":8266:8272   */\n      dup3\n        /* \"#utility.yul\":8262:8276   */\n      add\n        /* \"#utility.yul\":8255:8298   */\n      mstore\n        /* \"#utility.yul\":8138:8305   */\n      pop\n      jump\t// out\n        /* \"#utility.yul\":8311:8677   */\n    tag_129:\n        /* \"#utility.yul\":8453:8456   */\n      0x00\n        /* \"#utility.yul\":8474:8541   */\n      tag_229\n        /* \"#utility.yul\":8538:8540   */\n      0x11\n        /* \"#utility.yul\":8533:8536   */\n      dup4\n        /* \"#utility.yul\":8474:8541   */\n      tag_125\n      jump\t// in\n    tag_229:\n        /* \"#utility.yul\":8467:8541   */\n      swap2\n      pop\n        /* \"#utility.yul\":8550:8643   */\n      tag_230\n        /* \"#utility.yul\":8639:8642   */\n      dup3\n        /* \"#utility.yul\":8550:8643   */\n      tag_128\n      jump\t// in\n    tag_230:\n        /* \"#utility.yul\":8668:8670   */\n      0x20\n        /* \"#utility.yul\":8663:8666   */\n      dup3\n        /* \"#utility.yul\":8659:8671   */\n      add\n        /* \"#utility.yul\":8652:8671   */\n      swap1\n      pop\n        /* \"#utility.yul\":8311:8677   */\n      swap2\n      swap1\n      pop\n      jump\t// out\n        /* \"#utility.yul\":8683:9102   */\n    tag_51:\n        /* \"#utility.yul\":8849:8853   */\n      0x00\n        /* \"#utility.yul\":8887:8889   */\n      0x20\n        /* \"#utility.yul\":8876:8885   */\n      dup3\n        /* \"#utility.yul\":8872:8890   */\n      add\n        /* \"#utility.yul\":8864:8890   */\n      swap1\n      pop\n        /* \"#utility.yul\":8936:8945   */\n      dup2\n        /* \"#utility.yul\":8930:8934   */\n      dup2\n        /* \"#utility.yul\":8926:8946   */\n      sub\n        /* \"#utility.yul\":8922:8923   */\n      0x00\n        /* \"#utility.yul\":8911:8920   */\n      dup4\n        /* \"#utility.yul\":8907:8924   */\n      add\n        /* \"#utility.yul\":8900:8947   */\n      mstore\n        /* \"#utility.yul\":8964:9095   */\n      tag_232\n        /* \"#utility.yul\":9090:9094   */\n      dup2\n        /* \"#utility.yul\":8964:9095   */\n      tag_129\n      jump\t// in\n    tag_232:\n        /* \"#utility.yul\":8956:9095   */\n      swap1\n      pop\n        /* \"#utility.yul\":8683:9102   */\n      swap2\n      swap1\n      pop\n      jump\t// out\n        /* \"#utility.yul\":9108:9288   */\n    tag_130:\n        /* \"#utility.yul\":9156:9233   */\n      0x4e487b7100000000000000000000000000000000000000000000000000000000\n        /* \"#utility.yul\":9153:9154   */\n      0x00\n        /* \"#utility.yul\":9146:9234   */\n      mstore\n        /* \"#utility.yul\":9253:9257   */\n      0x11\n        /* \"#utility.yul\":9250:9251   */\n      0x04\n        /* \"#utility.yul\":9243:9258   */\n      mstore\n        /* \"#utility.yul\":9277:9281   */\n      0x24\n        /* \"#utility.yul\":9274:9275   */\n      0x00\n        /* \"#utility.yul\":9267:9282   */\n      revert\n        /* \"#utility.yul\":9294:9488   */\n    tag_56:\n        /* \"#utility.yul\":9334:9338   */\n      0x00\n        /* \"#utility.yul\":9354:9374   */\n      tag_235\n        /* \"#utility.yul\":9372:9373   */\n      dup3\n        /* \"#utility.yul\":9354:9374   */\n      tag_106\n      jump\t// in\n    tag_235:\n        /* \"#utility.yul\":9349:9374   */\n      swap2\n      pop\n        /* \"#utility.yul\":9388:9408   */\n      tag_236\n        /* \"#utility.yul\":9406:9407   */\n      dup4\n        /* \"#utility.yul\":9388:9408   */\n      tag_106\n      jump\t// in\n    tag_236:\n        /* \"#utility.yul\":9383:9408   */\n      swap3\n      pop\n        /* \"#utility.yul\":9432:9433   */\n      dup3\n        /* \"#utility.yul\":9429:9430   */\n      dup3\n        /* \"#utility.yul\":9425:9434   */\n      sub\n        /* \"#utility.yul\":9417:9434   */\n      swap1\n      pop\n        /* \"#utility.yul\":9456:9457   */\n      dup2\n        /* \"#utility.yul\":9450:9454   */\n      dup2\n        /* \"#utility.yul\":9447:9458   */\n      gt\n        /* \"#utility.yul\":9444:9481   */\n      iszero\n      tag_237\n      jumpi\n        /* \"#utility.yul\":9461:9479   */\n      tag_238\n      tag_130\n      jump\t// in\n    tag_238:\n        /* \"#utility.yul\":9444:9481   */\n    tag_237:\n        /* \"#utility.yul\":9294:9488   */\n      swap3\n      swap2\n      pop\n      pop\n      jump\t// out\n        /* \"#utility.yul\":9494:9662   */\n    tag_131:\n        /* \"#utility.yul\":9634:9654   */\n      0x4163636f756e6420696420696e76616c69640000000000000000000000000000\n        /* \"#utility.yul\":9630:9631   */\n      0x00\n        /* \"#utility.yul\":9622:9628   */\n      dup3\n        /* \"#utility.yul\":9618:9632   */\n      add\n        /* \"#utility.yul\":9611:9655   */\n      mstore\n        /* \"#utility.yul\":9494:9662   */\n      pop\n      jump\t// out\n        /* \"#utility.yul\":9668:10034   */\n    tag_132:\n        /* \"#utility.yul\":9810:9813   */\n      0x00\n        /* \"#utility.yul\":9831:9898   */\n      tag_241\n        /* \"#utility.yul\":9895:9897   */\n      0x12\n        /* \"#utility.yul\":9890:9893   */\n      dup4\n        /* \"#utility.yul\":9831:9898   */\n      tag_125\n      jump\t// in\n    tag_241:\n        /* \"#utility.yul\":9824:9898   */\n      swap2\n      pop\n        /* \"#utility.yul\":9907:10000   */\n      tag_242\n        /* \"#utility.yul\":9996:9999   */\n      dup3\n        /* \"#utility.yul\":9907:10000   */\n      tag_131\n      jump\t// in\n    tag_242:\n        /* \"#utility.yul\":10025:10027   */\n      0x20\n        /* \"#utility.yul\":10020:10023   */\n      dup3\n        /* \"#utility.yul\":10016:10028   */\n      add\n        /* \"#utility.yul\":10009:10028   */\n      swap1\n      pop\n        /* \"#utility.yul\":9668:10034   */\n      swap2\n      swap1\n      pop\n      jump\t// out\n        /* \"#utility.yul\":10040:10459   */\n    tag_65:\n        /* \"#utility.yul\":10206:10210   */\n      0x00\n        /* \"#utility.yul\":10244:10246   */\n      0x20\n        /* \"#utility.yul\":10233:10242   */\n      dup3\n        /* \"#utility.yul\":10229:10247   */\n      add\n        /* \"#utility.yul\":10221:10247   */\n      swap1\n      pop\n        /* \"#utility.yul\":10293:10302   */\n      dup2\n        /* \"#utility.yul\":10287:10291   */\n      dup2\n        /* \"#utility.yul\":10283:10303   */\n      sub\n        /* \"#utility.yul\":10279:10280   */\n      0x00\n        /* \"#utility.yul\":10268:10277   */\n      dup4\n        /* \"#utility.yul\":10264:10281   */\n      add\n        /* \"#utility.yul\":10257:10304   */\n      mstore\n        /* \"#utility.yul\":10321:10452   */\n      tag_244\n        /* \"#utility.yul\":10447:10451   */\n      dup2\n        /* \"#utility.yul\":10321:10452   */\n      tag_132\n      jump\t// in\n    tag_244:\n        /* \"#utility.yul\":10313:10452   */\n      swap1\n      pop\n        /* \"#utility.yul\":10040:10459   */\n      swap2\n      swap1\n      pop\n      jump\t// out\n        /* \"#utility.yul\":10465:10633   */\n    tag_133:\n        /* \"#utility.yul\":10605:10625   */\n      0x496e73756666696369656e742066756e64730000000000000000000000000000\n        /* \"#utility.yul\":10601:10602   */\n      0x00\n        /* \"#utility.yul\":10593:10599   */\n      dup3\n        /* \"#utility.yul\":10589:10603   */\n      add\n        /* \"#utility.yul\":10582:10626   */\n      mstore\n        /* \"#utility.yul\":10465:10633   */\n      pop\n      jump\t// out\n        /* \"#utility.yul\":10639:11005   */\n    tag_134:\n        /* \"#utility.yul\":10781:10784   */\n      0x00\n        /* \"#utility.yul\":10802:10869   */\n      tag_247\n        /* \"#utility.yul\":10866:10868   */\n      0x12\n        /* \"#utility.yul\":10861:10864   */\n      dup4\n        /* \"#utility.yul\":10802:10869   */\n      tag_125\n      jump\t// in\n    tag_247:\n        /* \"#utility.yul\":10795:10869   */\n      swap2\n      pop\n        /* \"#utility.yul\":10878:10971   */\n      tag_248\n        /* \"#utility.yul\":10967:10970   */\n      dup3\n        /* \"#utility.yul\":10878:10971   */\n      tag_133\n      jump\t// in\n    tag_248:\n        /* \"#utility.yul\":10996:10998   */\n      0x20\n        /* \"#utility.yul\":10991:10994   */\n      dup3\n        /* \"#utility.yul\":10987:10999   */\n      add\n        /* \"#utility.yul\":10980:10999   */\n      swap1\n      pop\n        /* \"#utility.yul\":10639:11005   */\n      swap2\n      swap1\n      pop\n      jump\t// out\n        /* \"#utility.yul\":11011:11430   */\n    tag_71:\n        /* \"#utility.yul\":11177:11181   */\n      0x00\n        /* \"#utility.yul\":11215:11217   */\n      0x20\n        /* \"#utility.yul\":11204:11213   */\n      dup3\n        /* \"#utility.yul\":11200:11218   */\n      add\n        /* \"#utility.yul\":11192:11218   */\n      swap1\n      pop\n        /* \"#utility.yul\":11264:11273   */\n      dup2\n        /* \"#utility.yul\":11258:11262   */\n      dup2\n        /* \"#utility.yul\":11254:11274   */\n      sub\n        /* \"#utility.yul\":11250:11251   */\n      0x00\n        /* \"#utility.yul\":11239:11248   */\n      dup4\n        /* \"#utility.yul\":11235:11252   */\n      add\n        /* \"#utility.yul\":11228:11275   */\n      mstore\n        /* \"#utility.yul\":11292:11423   */\n      tag_250\n        /* \"#utility.yul\":11418:11422   */\n      dup2\n        /* \"#utility.yul\":11292:11423   */\n      tag_134\n      jump\t// in\n    tag_250:\n        /* \"#utility.yul\":11284:11423   */\n      swap1\n      pop\n        /* \"#utility.yul\":11011:11430   */\n      swap2\n      swap1\n      pop\n      jump\t// out\n        /* \"#utility.yul\":11436:11601   */\n    tag_135:\n        /* \"#utility.yul\":11576:11593   */\n      0x496e76616c6964206163636f756e740000000000000000000000000000000000\n        /* \"#utility.yul\":11572:11573   */\n      0x00\n        /* \"#utility.yul\":11564:11570   */\n      dup3\n        /* \"#utility.yul\":11560:11574   */\n      add\n        /* \"#utility.yul\":11553:11594   */\n      mstore\n        /* \"#utility.yul\":11436:11601   */\n      pop\n      jump\t// out\n        /* \"#utility.yul\":11607:11973   */\n    tag_136:\n        /* \"#utility.yul\":11749:11752   */\n      0x00\n        /* \"#utility.yul\":11770:11837   */\n      tag_253\n        /* \"#utility.yul\":11834:11836   */\n      0x0f\n        /* \"#utility.yul\":11829:11832   */\n      dup4\n        /* \"#utility.yul\":11770:11837   */\n      tag_125\n      jump\t// in\n    tag_253:\n        /* \"#utility.yul\":11763:11837   */\n      swap2\n      pop\n        /* \"#utility.yul\":11846:11939   */\n      tag_254\n        /* \"#utility.yul\":11935:11938   */\n      dup3\n        /* \"#utility.yul\":11846:11939   */\n      tag_135\n      jump\t// in\n    tag_254:\n        /* \"#utility.yul\":11964:11966   */\n      0x20\n        /* \"#utility.yul\":11959:11962   */\n      dup3\n        /* \"#utility.yul\":11955:11967   */\n      add\n        /* \"#utility.yul\":11948:11967   */\n      swap1\n      pop\n        /* \"#utility.yul\":11607:11973   */\n      swap2\n      swap1\n      pop\n      jump\t// out\n        /* \"#utility.yul\":11979:12398   */\n    tag_77:\n        /* \"#utility.yul\":12145:12149   */\n      0x00\n        /* \"#utility.yul\":12183:12185   */\n      0x20\n        /* \"#utility.yul\":12172:12181   */\n      dup3\n        /* \"#utility.yul\":12168:12186   */\n      add\n        /* \"#utility.yul\":12160:12186   */\n      swap1\n      pop\n        /* \"#utility.yul\":12232:12241   */\n      dup2\n        /* \"#utility.yul\":12226:12230   */\n      dup2\n        /* \"#utility.yul\":12222:12242   */\n      sub\n        /* \"#utility.yul\":12218:12219   */\n      0x00\n        /* \"#utility.yul\":12207:12216   */\n      dup4\n        /* \"#utility.yul\":12203:12220   */\n      add\n        /* \"#utility.yul\":12196:12243   */\n      mstore\n        /* \"#utility.yul\":12260:12391   */\n      tag_256\n        /* \"#utility.yul\":12386:12390   */\n      dup2\n        /* \"#utility.yul\":12260:12391   */\n      tag_136\n      jump\t// in\n    tag_256:\n        /* \"#utility.yul\":12252:12391   */\n      swap1\n      pop\n        /* \"#utility.yul\":11979:12398   */\n      swap2\n      swap1\n      pop\n      jump\t// out\n        /* \"#utility.yul\":12404:12595   */\n    tag_83:\n        /* \"#utility.yul\":12444:12447   */\n      0x00\n        /* \"#utility.yul\":12463:12483   */\n      tag_258\n        /* \"#utility.yul\":12481:12482   */\n      dup3\n        /* \"#utility.yul\":12463:12483   */\n      tag_106\n      jump\t// in\n    tag_258:\n        /* \"#utility.yul\":12458:12483   */\n      swap2\n      pop\n        /* \"#utility.yul\":12497:12517   */\n      tag_259\n        /* \"#utility.yul\":12515:12516   */\n      dup4\n        /* \"#utility.yul\":12497:12517   */\n      tag_106\n      jump\t// in\n    tag_259:\n        /* \"#utility.yul\":12492:12517   */\n      swap3\n      pop\n        /* \"#utility.yul\":12540:12541   */\n      dup3\n        /* \"#utility.yul\":12537:12538   */\n      dup3\n        /* \"#utility.yul\":12533:12542   */\n      add\n        /* \"#utility.yul\":12526:12542   */\n      swap1\n      pop\n        /* \"#utility.yul\":12561:12564   */\n      dup1\n        /* \"#utility.yul\":12558:12559   */\n      dup3\n        /* \"#utility.yul\":12555:12565   */\n      gt\n        /* \"#utility.yul\":12552:12588   */\n      iszero\n      tag_260\n      jumpi\n        /* \"#utility.yul\":12568:12586   */\n      tag_261\n      tag_130\n      jump\t// in\n    tag_261:\n        /* \"#utility.yul\":12552:12588   */\n    tag_260:\n        /* \"#utility.yul\":12404:12595   */\n      swap3\n      swap2\n      pop\n      pop\n      jump\t// out\n        /* \"#utility.yul\":12601:12700   */\n    tag_137:\n        /* \"#utility.yul\":12653:12659   */\n      0x00\n        /* \"#utility.yul\":12687:12692   */\n      dup2\n        /* \"#utility.yul\":12681:12693   */\n      mload\n        /* \"#utility.yul\":12671:12693   */\n      swap1\n      pop\n        /* \"#utility.yul\":12601:12700   */\n      swap2\n      swap1\n      pop\n      jump\t// out\n        /* \"#utility.yul\":12706:12845   */\n    tag_138:\n        /* \"#utility.yul\":12795:12801   */\n      dup3\n        /* \"#utility.yul\":12790:12793   */\n      dup2\n        /* \"#utility.yul\":12785:12788   */\n      dup4\n        /* \"#utility.yul\":12779:12802   */\n      mcopy\n        /* \"#utility.yul\":12836:12837   */\n      0x00\n        /* \"#utility.yul\":12827:12833   */\n      dup4\n        /* \"#utility.yul\":12822:12825   */\n      dup4\n        /* \"#utility.yul\":12818:12834   */\n      add\n        /* \"#utility.yul\":12811:12838   */\n      mstore\n        /* \"#utility.yul\":12706:12845   */\n      pop\n      pop\n      pop\n      jump\t// out\n        /* \"#utility.yul\":12851:13228   */\n    tag_139:\n        /* \"#utility.yul\":12939:12942   */\n      0x00\n        /* \"#utility.yul\":12967:13006   */\n      tag_265\n        /* \"#utility.yul\":13000:13005   */\n      dup3\n        /* \"#utility.yul\":12967:13006   */\n      tag_137\n      jump\t// in\n    tag_265:\n        /* \"#utility.yul\":13022:13093   */\n      tag_266\n        /* \"#utility.yul\":13086:13092   */\n      dup2\n        /* \"#utility.yul\":13081:13084   */\n      dup6\n        /* \"#utility.yul\":13022:13093   */\n      tag_125\n      jump\t// in\n    tag_266:\n        /* \"#utility.yul\":13015:13093   */\n      swap4\n      pop\n        /* \"#utility.yul\":13102:13167   */\n      tag_267\n        /* \"#utility.yul\":13160:13166   */\n      dup2\n        /* \"#utility.yul\":13155:13158   */\n      dup6\n        /* \"#utility.yul\":13148:13152   */\n      0x20\n        /* \"#utility.yul\":13141:13146   */\n      dup7\n        /* \"#utility.yul\":13137:13153   */\n      add\n        /* \"#utility.yul\":13102:13167   */\n      tag_138\n      jump\t// in\n    tag_267:\n        /* \"#utility.yul\":13192:13221   */\n      tag_268\n        /* \"#utility.yul\":13214:13220   */\n      dup2\n        /* \"#utility.yul\":13192:13221   */\n      tag_117\n      jump\t// in\n    tag_268:\n        /* \"#utility.yul\":13187:13190   */\n      dup5\n        /* \"#utility.yul\":13183:13222   */\n      add\n        /* \"#utility.yul\":13176:13222   */\n      swap2\n      pop\n        /* \"#utility.yul\":12943:13228   */\n      pop\n        /* \"#utility.yul\":12851:13228   */\n      swap3\n      swap2\n      pop\n      pop\n      jump\t// out\n        /* \"#utility.yul\":13234:13767   */\n    tag_94:\n        /* \"#utility.yul\":13403:13407   */\n      0x00\n        /* \"#utility.yul\":13441:13443   */\n      0x60\n        /* \"#utility.yul\":13430:13439   */\n      dup3\n        /* \"#utility.yul\":13426:13444   */\n      add\n        /* \"#utility.yul\":13418:13444   */\n      swap1\n      pop\n        /* \"#utility.yul\":13490:13499   */\n      dup2\n        /* \"#utility.yul\":13484:13488   */\n      dup2\n        /* \"#utility.yul\":13480:13500   */\n      sub\n        /* \"#utility.yul\":13476:13477   */\n      0x00\n        /* \"#utility.yul\":13465:13474   */\n      dup4\n        /* \"#utility.yul\":13461:13478   */\n      add\n        /* \"#utility.yul\":13454:13501   */\n      mstore\n        /* \"#utility.yul\":13518:13596   */\n      tag_270\n        /* \"#utility.yul\":13591:13595   */\n      dup2\n        /* \"#utility.yul\":13582:13588   */\n      dup7\n        /* \"#utility.yul\":13518:13596   */\n      tag_139\n      jump\t// in\n    tag_270:\n        /* \"#utility.yul\":13510:13596   */\n      swap1\n      pop\n        /* \"#utility.yul\":13606:13678   */\n      tag_271\n        /* \"#utility.yul\":13674:13676   */\n      0x20\n        /* \"#utility.yul\":13663:13672   */\n      dup4\n        /* \"#utility.yul\":13659:13677   */\n      add\n        /* \"#utility.yul\":13650:13656   */\n      dup6\n        /* \"#utility.yul\":13606:13678   */\n      tag_109\n      jump\t// in\n    tag_271:\n        /* \"#utility.yul\":13688:13760   */\n      tag_272\n        /* \"#utility.yul\":13756:13758   */\n      0x40\n        /* \"#utility.yul\":13745:13754   */\n      dup4\n        /* \"#utility.yul\":13741:13759   */\n      add\n        /* \"#utility.yul\":13732:13738   */\n      dup5\n        /* \"#utility.yul\":13688:13760   */\n      tag_109\n      jump\t// in\n    tag_272:\n        /* \"#utility.yul\":13234:13767   */\n      swap5\n      swap4\n      pop\n      pop\n      pop\n      pop\n      jump\t// out\n\n    auxdata: 0xa2646970667358221220337890df2c557b5ad9048ebe2be76e52bf92979adaa9b9793c94289c7997dd0c64736f6c634300081a0033\n}\n",
				"bytecode": {
					"linkReferences": {},
					"object": "6080604052348015600e575f80fd5b503373ffffffffffffffffffffffffffffffffffffffff1660015f9054906101000a905050506110c2806100415f395ff3fe608060405234801561000f575f80fd5b5060043610610060575f3560e01c80631e01043914610064578063441a3e701461009457806387524581146100b05780638da5cb5b146100e2578063d1eafb2314610100578063e2bbb1581461011c575b5f80fd5b61007e600480360381019061007991906109e6565b610138565b60405161008b9190610a20565b60405180910390f35b6100ae60048036038101906100a99190610a39565b61019d565b005b6100ca60048036038101906100c59190610ad1565b610341565b6040516100d993929190610b1e565b60405180910390f35b6100ea61039f565b6040516100f79190610b53565b60405180910390f35b61011a60048036038101906101159190610ca8565b6103c4565b005b61013660048036038101906101319190610a39565b61089d565b005b5f805f3373ffffffffffffffffffffffffffffffffffffffff1673ffffffffffffffffffffffffffffffffffffffff1681526020019081526020015f20828154811061018757610186610d28565b5b905f5260205f2090600302015f01549050919050565b60015f9054906101000a900473ffffffffffffffffffffffffffffffffffffffff1673ffffffffffffffffffffffffffffffffffffffff163373ffffffffffffffffffffffffffffffffffffffff161461022c576040517f08c379a000000000000000000000000000000000000000000000000000000000815260040161022390610daf565b60405180910390fd5b805f803373ffffffffffffffffffffffffffffffffffffffff1673ffffffffffffffffffffffffffffffffffffffff1681526020019081526020015f20838154811061027b5761027a610d28565b5b905f5260205f2090600302015f015410156102cb576040517f08c379a00000000000000000000000000000000000000000000000000000000081526004016102c290610e17565b60405180910390fd5b805f803373ffffffffffffffffffffffffffffffffffffffff1673ffffffffffffffffffffffffffffffffffffffff1681526020019081526020015f20838154811061031a57610319610d28565b5b905f5260205f2090600302015f015f8282546103369190610e62565b925050819055505050565b5f602052815f5260405f208181548110610359575f80fd5b905f5260205f2090600302015f9150915050805f015490806001015490806002015f9054906101000a900473ffffffffffffffffffffffffffffffffffffffff16905083565b60015f9054906101000a900473ffffffffffffffffffffffffffffffffffffffff1681565b60015f9054906101000a900473ffffffffffffffffffffffffffffffffffffffff1673ffffffffffffffffffffffffffffffffffffffff163373ffffffffffffffffffffffffffffffffffffffff1614610453576040517f08c379a000000000000000000000000000000000000000000000000000000000815260040161044a90610daf565b60405180910390fd5b5f803373ffffffffffffffffffffffffffffffffffffffff1673ffffffffffffffffffffffffffffffffffffffff1681526020019081526020015f208054905084106104d4576040517f08c379a00000000000000000000000000000000000000000000000000000000081526004016104cb90610edf565b60405180910390fd5b815f803373ffffffffffffffffffffffffffffffffffffffff1673ffffffffffffffffffffffffffffffffffffffff1681526020019081526020015f20858154811061052357610522610d28565b5b905f5260205f2090600302015f01541015610573576040517f08c379a000000000000000000000000000000000000000000000000000000000815260040161056a90610f47565b60405180910390fd5b5f803373ffffffffffffffffffffffffffffffffffffffff1673ffffffffffffffffffffffffffffffffffffffff1681526020019081526020015f2084815481106105c1576105c0610d28565b5b905f5260205f2090600302016002015f9054906101000a900473ffffffffffffffffffffffffffffffffffffffff1673ffffffffffffffffffffffffffffffffffffffff168373ffffffffffffffffffffffffffffffffffffffff160361065d576040517f08c379a000000000000000000000000000000000000000000000000000000000815260040161065490610faf565b60405180910390fd5b610667848361019d565b815f808573ffffffffffffffffffffffffffffffffffffffff1673ffffffffffffffffffffffffffffffffffffffff1681526020019081526020015f2085815481106106b6576106b5610d28565b5b905f5260205f2090600302015f015f8282546106d29190610fcd565b925050819055505f808473ffffffffffffffffffffffffffffffffffffffff1673ffffffffffffffffffffffffffffffffffffffff1681526020019081526020015f20848154811061072757610726610d28565b5b905f5260205f2090600302016002015f9054906101000a900473ffffffffffffffffffffffffffffffffffffffff1673ffffffffffffffffffffffffffffffffffffffff165f803373ffffffffffffffffffffffffffffffffffffffff1673ffffffffffffffffffffffffffffffffffffffff1681526020019081526020015f2085815481106107ba576107b9610d28565b5b905f5260205f2090600302016002015f9054906101000a900473ffffffffffffffffffffffffffffffffffffffff1673ffffffffffffffffffffffffffffffffffffffff167f651e25d1d5e28ea3d46c1e231de2f939b587f24374b637685abaf09e0598de6483855f803373ffffffffffffffffffffffffffffffffffffffff1673ffffffffffffffffffffffffffffffffffffffff1681526020019081526020015f2089815481106108705761086f610d28565b5b905f5260205f2090600302016001015460405161088f93929190611050565b60405180910390a350505050565b60015f9054906101000a900473ffffffffffffffffffffffffffffffffffffffff1673ffffffffffffffffffffffffffffffffffffffff163373ffffffffffffffffffffffffffffffffffffffff161461092c576040517f08c379a000000000000000000000000000000000000000000000000000000000815260040161092390610daf565b60405180910390fd5b805f803373ffffffffffffffffffffffffffffffffffffffff1673ffffffffffffffffffffffffffffffffffffffff1681526020019081526020015f20838154811061097b5761097a610d28565b5b905f5260205f2090600302015f015f8282546109979190610fcd565b925050819055505050565b5f604051905090565b5f80fd5b5f80fd5b5f819050919050565b6109c5816109b3565b81146109cf575f80fd5b50565b5f813590506109e0816109bc565b92915050565b5f602082840312156109fb576109fa6109ab565b5b5f610a08848285016109d2565b91505092915050565b610a1a816109b3565b82525050565b5f602082019050610a335f830184610a11565b92915050565b5f8060408385031215610a4f57610a4e6109ab565b5b5f610a5c858286016109d2565b9250506020610a6d858286016109d2565b9150509250929050565b5f73ffffffffffffffffffffffffffffffffffffffff82169050919050565b5f610aa082610a77565b9050919050565b610ab081610a96565b8114610aba575f80fd5b50565b5f81359050610acb81610aa7565b92915050565b5f8060408385031215610ae757610ae66109ab565b5b5f610af485828601610abd565b9250506020610b05858286016109d2565b9150509250929050565b610b1881610a96565b82525050565b5f606082019050610b315f830186610a11565b610b3e6020830185610a11565b610b4b6040830184610b0f565b949350505050565b5f602082019050610b665f830184610b0f565b92915050565b5f80fd5b5f80fd5b5f601f19601f8301169050919050565b7f4e487b71000000000000000000000000000000000000000000000000000000005f52604160045260245ffd5b610bba82610b74565b810181811067ffffffffffffffff82111715610bd957610bd8610b84565b5b80604052505050565b5f610beb6109a2565b9050610bf78282610bb1565b919050565b5f67ffffffffffffffff821115610c1657610c15610b84565b5b610c1f82610b74565b9050602081019050919050565b828183375f83830152505050565b5f610c4c610c4784610bfc565b610be2565b905082815260208101848484011115610c6857610c67610b70565b5b610c73848285610c2c565b509392505050565b5f82601f830112610c8f57610c8e610b6c565b5b8135610c9f848260208601610c3a565b91505092915050565b5f805f8060808587031215610cc057610cbf6109ab565b5b5f610ccd878288016109d2565b9450506020610cde87828801610abd565b9350506040610cef878288016109d2565b925050606085013567ffffffffffffffff811115610d1057610d0f6109af565b5b610d1c87828801610c7b565b91505092959194509250565b7f4e487b71000000000000000000000000000000000000000000000000000000005f52603260045260245ffd5b5f82825260208201905092915050565b7f4e6f74206f776e657200000000000000000000000000000000000000000000005f82015250565b5f610d99600983610d55565b9150610da482610d65565b602082019050919050565b5f6020820190508181035f830152610dc681610d8d565b9050919050565b7f496e737566666963656e742066756e64730000000000000000000000000000005f82015250565b5f610e01601183610d55565b9150610e0c82610dcd565b602082019050919050565b5f6020820190508181035f830152610e2e81610df5565b9050919050565b7f4e487b71000000000000000000000000000000000000000000000000000000005f52601160045260245ffd5b5f610e6c826109b3565b9150610e77836109b3565b9250828203905081811115610e8f57610e8e610e35565b5b92915050565b7f4163636f756e6420696420696e76616c696400000000000000000000000000005f82015250565b5f610ec9601283610d55565b9150610ed482610e95565b602082019050919050565b5f6020820190508181035f830152610ef681610ebd565b9050919050565b7f496e73756666696369656e742066756e647300000000000000000000000000005f82015250565b5f610f31601283610d55565b9150610f3c82610efd565b602082019050919050565b5f6020820190508181035f830152610f5e81610f25565b9050919050565b7f496e76616c6964206163636f756e7400000000000000000000000000000000005f82015250565b5f610f99600f83610d55565b9150610fa482610f65565b602082019050919050565b5f6020820190508181035f830152610fc681610f8d565b9050919050565b5f610fd7826109b3565b9150610fe2836109b3565b9250828201905080821115610ffa57610ff9610e35565b5b92915050565b5f81519050919050565b8281835e5f83830152505050565b5f61102282611000565b61102c8185610d55565b935061103c81856020860161100a565b61104581610b74565b840191505092915050565b5f6060820190508181035f8301526110688186611018565b90506110776020830185610a11565b6110846040830184610a11565b94935050505056fea2646970667358221220337890df2c557b5ad9048ebe2be76e52bf92979adaa9b9793c94289c7997dd0c64736f6c634300081a0033",
					"opcodes": "PUSH1 0x80 PUSH1 0x40 MSTORE CALLVALUE DUP1 ISZERO PUSH1 0xE JUMPI PUSH0 DUP1 REVERT JUMPDEST POP CALLER PUSH20 0xFFFFFFFFFFFFFFFFFFFFFFFFFFFFFFFFFFFFFFFF AND PUSH1 0x1 PUSH0 SWAP1 SLOAD SWAP1 PUSH2 0x100 EXP SWAP1 POP POP POP PUSH2 0x10C2 DUP1 PUSH2 0x41 PUSH0 CODECOPY PUSH0 RETURN INVALID PUSH1 0x80 PUSH1 0x40 MSTORE CALLVALUE DUP1 ISZERO PUSH2 0xF JUMPI PUSH0 DUP1 REVERT JUMPDEST POP PUSH1 0x4 CALLDATASIZE LT PUSH2 0x60 JUMPI PUSH0 CALLDATALOAD PUSH1 0xE0 SHR DUP1 PUSH4 0x1E010439 EQ PUSH2 0x64 JUMPI DUP1 PUSH4 0x441A3E70 EQ PUSH2 0x94 JUMPI DUP1 PUSH4 0x87524581 EQ PUSH2 0xB0 JUMPI DUP1 PUSH4 0x8DA5CB5B EQ PUSH2 0xE2 JUMPI DUP1 PUSH4 0xD1EAFB23 EQ PUSH2 0x100 JUMPI DUP1 PUSH4 0xE2BBB158 EQ PUSH2 0x11C JUMPI JUMPDEST PUSH0 DUP1 REVERT JUMPDEST PUSH2 0x7E PUSH1 0x4 DUP1 CALLDATASIZE SUB DUP2 ADD SWAP1 PUSH2 0x79 SWAP2 SWAP1 PUSH2 0x9E6 JUMP JUMPDEST PUSH2 0x138 JUMP JUMPDEST PUSH1 0x40 MLOAD PUSH2 0x8B SWAP2 SWAP1 PUSH2 0xA20 JUMP JUMPDEST PUSH1 0x40 MLOAD DUP1 SWAP2 SUB SWAP1 RETURN JUMPDEST PUSH2 0xAE PUSH1 0x4 DUP1 CALLDATASIZE SUB DUP2 ADD SWAP1 PUSH2 0xA9 SWAP2 SWAP1 PUSH2 0xA39 JUMP JUMPDEST PUSH2 0x19D JUMP JUMPDEST STOP JUMPDEST PUSH2 0xCA PUSH1 0x4 DUP1 CALLDATASIZE SUB DUP2 ADD SWAP1 PUSH2 0xC5 SWAP2 SWAP1 PUSH2 0xAD1 JUMP JUMPDEST PUSH2 0x341 JUMP JUMPDEST PUSH1 0x40 MLOAD PUSH2 0xD9 SWAP4 SWAP3 SWAP2 SWAP1 PUSH2 0xB1E JUMP JUMPDEST PUSH1 0x40 MLOAD DUP1 SWAP2 SUB SWAP1 RETURN JUMPDEST PUSH2 0xEA PUSH2 0x39F JUMP JUMPDEST PUSH1 0x40 MLOAD PUSH2 0xF7 SWAP2 SWAP1 PUSH2 0xB53 JUMP JUMPDEST PUSH1 0x40 MLOAD DUP1 SWAP2 SUB SWAP1 RETURN JUMPDEST PUSH2 0x11A PUSH1 0x4 DUP1 CALLDATASIZE SUB DUP2 ADD SWAP1 PUSH2 0x115 SWAP2 SWAP1 PUSH2 0xCA8 JUMP JUMPDEST PUSH2 0x3C4 JUMP JUMPDEST STOP JUMPDEST PUSH2 0x136 PUSH1 0x4 DUP1 CALLDATASIZE SUB DUP2 ADD SWAP1 PUSH2 0x131 SWAP2 SWAP1 PUSH2 0xA39 JUMP JUMPDEST PUSH2 0x89D JUMP JUMPDEST STOP JUMPDEST PUSH0 DUP1 PUSH0 CALLER PUSH20 0xFFFFFFFFFFFFFFFFFFFFFFFFFFFFFFFFFFFFFFFF AND PUSH20 0xFFFFFFFFFFFFFFFFFFFFFFFFFFFFFFFFFFFFFFFF AND DUP2 MSTORE PUSH1 0x20 ADD SWAP1 DUP2 MSTORE PUSH1 0x20 ADD PUSH0 KECCAK256 DUP3 DUP2 SLOAD DUP2 LT PUSH2 0x187 JUMPI PUSH2 0x186 PUSH2 0xD28 JUMP JUMPDEST JUMPDEST SWAP1 PUSH0 MSTORE PUSH1 0x20 PUSH0 KECCAK256 SWAP1 PUSH1 0x3 MUL ADD PUSH0 ADD SLOAD SWAP1 POP SWAP2 SWAP1 POP JUMP JUMPDEST PUSH1 0x1 PUSH0 SWAP1 SLOAD SWAP1 PUSH2 0x100 EXP SWAP1 DIV PUSH20 0xFFFFFFFFFFFFFFFFFFFFFFFFFFFFFFFFFFFFFFFF AND PUSH20 0xFFFFFFFFFFFFFFFFFFFFFFFFFFFFFFFFFFFFFFFF AND CALLER PUSH20 0xFFFFFFFFFFFFFFFFFFFFFFFFFFFFFFFFFFFFFFFF AND EQ PUSH2 0x22C JUMPI PUSH1 0x40 MLOAD PUSH32 0x8C379A000000000000000000000000000000000000000000000000000000000 DUP2 MSTORE PUSH1 0x4 ADD PUSH2 0x223 SWAP1 PUSH2 0xDAF JUMP JUMPDEST PUSH1 0x40 MLOAD DUP1 SWAP2 SUB SWAP1 REVERT JUMPDEST DUP1 PUSH0 DUP1 CALLER PUSH20 0xFFFFFFFFFFFFFFFFFFFFFFFFFFFFFFFFFFFFFFFF AND PUSH20 0xFFFFFFFFFFFFFFFFFFFFFFFFFFFFFFFFFFFFFFFF AND DUP2 MSTORE PUSH1 0x20 ADD SWAP1 DUP2 MSTORE PUSH1 0x20 ADD PUSH0 KECCAK256 DUP4 DUP2 SLOAD DUP2 LT PUSH2 0x27B JUMPI PUSH2 0x27A PUSH2 0xD28 JUMP JUMPDEST JUMPDEST SWAP1 PUSH0 MSTORE PUSH1 0x20 PUSH0 KECCAK256 SWAP1 PUSH1 0x3 MUL ADD PUSH0 ADD SLOAD LT ISZERO PUSH2 0x2CB JUMPI PUSH1 0x40 MLOAD PUSH32 0x8C379A000000000000000000000000000000000000000000000000000000000 DUP2 MSTORE PUSH1 0x4 ADD PUSH2 0x2C2 SWAP1 PUSH2 0xE17 JUMP JUMPDEST PUSH1 0x40 MLOAD DUP1 SWAP2 SUB SWAP1 REVERT JUMPDEST DUP1 PUSH0 DUP1 CALLER PUSH20 0xFFFFFFFFFFFFFFFFFFFFFFFFFFFFFFFFFFFFFFFF AND PUSH20 0xFFFFFFFFFFFFFFFFFFFFFFFFFFFFFFFFFFFFFFFF AND DUP2 MSTORE PUSH1 0x20 ADD SWAP1 DUP2 MSTORE PUSH1 0x20 ADD PUSH0 KECCAK256 DUP4 DUP2 SLOAD DUP2 LT PUSH2 0x31A JUMPI PUSH2 0x319 PUSH2 0xD28 JUMP JUMPDEST JUMPDEST SWAP1 PUSH0 MSTORE PUSH1 0x20 PUSH0 KECCAK256 SWAP1 PUSH1 0x3 MUL ADD PUSH0 ADD PUSH0 DUP3 DUP3 SLOAD PUSH2 0x336 SWAP2 SWAP1 PUSH2 0xE62 JUMP JUMPDEST SWAP3 POP POP DUP2 SWAP1 SSTORE POP POP POP JUMP JUMPDEST PUSH0 PUSH1 0x20 MSTORE DUP2 PUSH0 MSTORE PUSH1 0x40 PUSH0 KECCAK256 DUP2 DUP2 SLOAD DUP2 LT PUSH2 0x359 JUMPI PUSH0 DUP1 REVERT JUMPDEST SWAP1 PUSH0 MSTORE PUSH1 0x20 PUSH0 KECCAK256 SWAP1 PUSH1 0x3 MUL ADD PUSH0 SWAP2 POP SWAP2 POP POP DUP1 PUSH0 ADD SLOAD SWAP1 DUP1 PUSH1 0x1 ADD SLOAD SWAP1 DUP1 PUSH1 0x2 ADD PUSH0 SWAP1 SLOAD SWAP1 PUSH2 0x100 EXP SWAP1 DIV PUSH20 0xFFFFFFFFFFFFFFFFFFFFFFFFFFFFFFFFFFFFFFFF AND SWAP1 POP DUP4 JUMP JUMPDEST PUSH1 0x1 PUSH0 SWAP1 SLOAD SWAP1 PUSH2 0x100 EXP SWAP1 DIV PUSH20 0xFFFFFFFFFFFFFFFFFFFFFFFFFFFFFFFFFFFFFFFF AND DUP2 JUMP JUMPDEST PUSH1 0x1 PUSH0 SWAP1 SLOAD SWAP1 PUSH2 0x100 EXP SWAP1 DIV PUSH20 0xFFFFFFFFFFFFFFFFFFFFFFFFFFFFFFFFFFFFFFFF AND PUSH20 0xFFFFFFFFFFFFFFFFFFFFFFFFFFFFFFFFFFFFFFFF AND CALLER PUSH20 0xFFFFFFFFFFFFFFFFFFFFFFFFFFFFFFFFFFFFFFFF AND EQ PUSH2 0x453 JUMPI PUSH1 0x40 MLOAD PUSH32 0x8C379A000000000000000000000000000000000000000000000000000000000 DUP2 MSTORE PUSH1 0x4 ADD PUSH2 0x44A SWAP1 PUSH2 0xDAF JUMP JUMPDEST PUSH1 0x40 MLOAD DUP1 SWAP2 SUB SWAP1 REVERT JUMPDEST PUSH0 DUP1 CALLER PUSH20 0xFFFFFFFFFFFFFFFFFFFFFFFFFFFFFFFFFFFFFFFF AND PUSH20 0xFFFFFFFFFFFFFFFFFFFFFFFFFFFFFFFFFFFFFFFF AND DUP2 MSTORE PUSH1 0x20 ADD SWAP1 DUP2 MSTORE PUSH1 0x20 ADD PUSH0 KECCAK256 DUP1 SLOAD SWAP1 POP DUP5 LT PUSH2 0x4D4 JUMPI PUSH1 0x40 MLOAD PUSH32 0x8C379A000000000000000000000000000000000000000000000000000000000 DUP2 MSTORE PUSH1 0x4 ADD PUSH2 0x4CB SWAP1 PUSH2 0xEDF JUMP JUMPDEST PUSH1 0x40 MLOAD DUP1 SWAP2 SUB SWAP1 REVERT JUMPDEST DUP2 PUSH0 DUP1 CALLER PUSH20 0xFFFFFFFFFFFFFFFFFFFFFFFFFFFFFFFFFFFFFFFF AND PUSH20 0xFFFFFFFFFFFFFFFFFFFFFFFFFFFFFFFFFFFFFFFF AND DUP2 MSTORE PUSH1 0x20 ADD SWAP1 DUP2 MSTORE PUSH1 0x20 ADD PUSH0 KECCAK256 DUP6 DUP2 SLOAD DUP2 LT PUSH2 0x523 JUMPI PUSH2 0x522 PUSH2 0xD28 JUMP JUMPDEST JUMPDEST SWAP1 PUSH0 MSTORE PUSH1 0x20 PUSH0 KECCAK256 SWAP1 PUSH1 0x3 MUL ADD PUSH0 ADD SLOAD LT ISZERO PUSH2 0x573 JUMPI PUSH1 0x40 MLOAD PUSH32 0x8C379A000000000000000000000000000000000000000000000000000000000 DUP2 MSTORE PUSH1 0x4 ADD PUSH2 0x56A SWAP1 PUSH2 0xF47 JUMP JUMPDEST PUSH1 0x40 MLOAD DUP1 SWAP2 SUB SWAP1 REVERT JUMPDEST PUSH0 DUP1 CALLER PUSH20 0xFFFFFFFFFFFFFFFFFFFFFFFFFFFFFFFFFFFFFFFF AND PUSH20 0xFFFFFFFFFFFFFFFFFFFFFFFFFFFFFFFFFFFFFFFF AND DUP2 MSTORE PUSH1 0x20 ADD SWAP1 DUP2 MSTORE PUSH1 0x20 ADD PUSH0 KECCAK256 DUP5 DUP2 SLOAD DUP2 LT PUSH2 0x5C1 JUMPI PUSH2 0x5C0 PUSH2 0xD28 JUMP JUMPDEST JUMPDEST SWAP1 PUSH0 MSTORE PUSH1 0x20 PUSH0 KECCAK256 SWAP1 PUSH1 0x3 MUL ADD PUSH1 0x2 ADD PUSH0 SWAP1 SLOAD SWAP1 PUSH2 0x100 EXP SWAP1 DIV PUSH20 0xFFFFFFFFFFFFFFFFFFFFFFFFFFFFFFFFFFFFFFFF AND PUSH20 0xFFFFFFFFFFFFFFFFFFFFFFFFFFFFFFFFFFFFFFFF AND DUP4 PUSH20 0xFFFFFFFFFFFFFFFFFFFFFFFFFFFFFFFFFFFFFFFF AND SUB PUSH2 0x65D JUMPI PUSH1 0x40 MLOAD PUSH32 0x8C379A000000000000000000000000000000000000000000000000000000000 DUP2 MSTORE PUSH1 0x4 ADD PUSH2 0x654 SWAP1 PUSH2 0xFAF JUMP JUMPDEST PUSH1 0x40 MLOAD DUP1 SWAP2 SUB SWAP1 REVERT JUMPDEST PUSH2 0x667 DUP5 DUP4 PUSH2 0x19D JUMP JUMPDEST DUP2 PUSH0 DUP1 DUP6 PUSH20 0xFFFFFFFFFFFFFFFFFFFFFFFFFFFFFFFFFFFFFFFF AND PUSH20 0xFFFFFFFFFFFFFFFFFFFFFFFFFFFFFFFFFFFFFFFF AND DUP2 MSTORE PUSH1 0x20 ADD SWAP1 DUP2 MSTORE PUSH1 0x20 ADD PUSH0 KECCAK256 DUP6 DUP2 SLOAD DUP2 LT PUSH2 0x6B6 JUMPI PUSH2 0x6B5 PUSH2 0xD28 JUMP JUMPDEST JUMPDEST SWAP1 PUSH0 MSTORE PUSH1 0x20 PUSH0 KECCAK256 SWAP1 PUSH1 0x3 MUL ADD PUSH0 ADD PUSH0 DUP3 DUP3 SLOAD PUSH2 0x6D2 SWAP2 SWAP1 PUSH2 0xFCD JUMP JUMPDEST SWAP3 POP POP DUP2 SWAP1 SSTORE POP PUSH0 DUP1 DUP5 PUSH20 0xFFFFFFFFFFFFFFFFFFFFFFFFFFFFFFFFFFFFFFFF AND PUSH20 0xFFFFFFFFFFFFFFFFFFFFFFFFFFFFFFFFFFFFFFFF AND DUP2 MSTORE PUSH1 0x20 ADD SWAP1 DUP2 MSTORE PUSH1 0x20 ADD PUSH0 KECCAK256 DUP5 DUP2 SLOAD DUP2 LT PUSH2 0x727 JUMPI PUSH2 0x726 PUSH2 0xD28 JUMP JUMPDEST JUMPDEST SWAP1 PUSH0 MSTORE PUSH1 0x20 PUSH0 KECCAK256 SWAP1 PUSH1 0x3 MUL ADD PUSH1 0x2 ADD PUSH0 SWAP1 SLOAD SWAP1 PUSH2 0x100 EXP SWAP1 DIV PUSH20 0xFFFFFFFFFFFFFFFFFFFFFFFFFFFFFFFFFFFFFFFF AND PUSH20 0xFFFFFFFFFFFFFFFFFFFFFFFFFFFFFFFFFFFFFFFF AND PUSH0 DUP1 CALLER PUSH20 0xFFFFFFFFFFFFFFFFFFFFFFFFFFFFFFFFFFFFFFFF AND PUSH20 0xFFFFFFFFFFFFFFFFFFFFFFFFFFFFFFFFFFFFFFFF AND DUP2 MSTORE PUSH1 0x20 ADD SWAP1 DUP2 MSTORE PUSH1 0x20 ADD PUSH0 KECCAK256 DUP6 DUP2 SLOAD DUP2 LT PUSH2 0x7BA JUMPI PUSH2 0x7B9 PUSH2 0xD28 JUMP JUMPDEST JUMPDEST SWAP1 PUSH0 MSTORE PUSH1 0x20 PUSH0 KECCAK256 SWAP1 PUSH1 0x3 MUL ADD PUSH1 0x2 ADD PUSH0 SWAP1 SLOAD SWAP1 PUSH2 0x100 EXP SWAP1 DIV PUSH20 0xFFFFFFFFFFFFFFFFFFFFFFFFFFFFFFFFFFFFFFFF AND PUSH20 0xFFFFFFFFFFFFFFFFFFFFFFFFFFFFFFFFFFFFFFFF AND PUSH32 0x651E25D1D5E28EA3D46C1E231DE2F939B587F24374B637685ABAF09E0598DE64 DUP4 DUP6 PUSH0 DUP1 CALLER PUSH20 0xFFFFFFFFFFFFFFFFFFFFFFFFFFFFFFFFFFFFFFFF AND PUSH20 0xFFFFFFFFFFFFFFFFFFFFFFFFFFFFFFFFFFFFFFFF AND DUP2 MSTORE PUSH1 0x20 ADD SWAP1 DUP2 MSTORE PUSH1 0x20 ADD PUSH0 KECCAK256 DUP10 DUP2 SLOAD DUP2 LT PUSH2 0x870 JUMPI PUSH2 0x86F PUSH2 0xD28 JUMP JUMPDEST JUMPDEST SWAP1 PUSH0 MSTORE PUSH1 0x20 PUSH0 KECCAK256 SWAP1 PUSH1 0x3 MUL ADD PUSH1 0x1 ADD SLOAD PUSH1 0x40 MLOAD PUSH2 0x88F SWAP4 SWAP3 SWAP2 SWAP1 PUSH2 0x1050 JUMP JUMPDEST PUSH1 0x40 MLOAD DUP1 SWAP2 SUB SWAP1 LOG3 POP POP POP POP JUMP JUMPDEST PUSH1 0x1 PUSH0 SWAP1 SLOAD SWAP1 PUSH2 0x100 EXP SWAP1 DIV PUSH20 0xFFFFFFFFFFFFFFFFFFFFFFFFFFFFFFFFFFFFFFFF AND PUSH20 0xFFFFFFFFFFFFFFFFFFFFFFFFFFFFFFFFFFFFFFFF AND CALLER PUSH20 0xFFFFFFFFFFFFFFFFFFFFFFFFFFFFFFFFFFFFFFFF AND EQ PUSH2 0x92C JUMPI PUSH1 0x40 MLOAD PUSH32 0x8C379A000000000000000000000000000000000000000000000000000000000 DUP2 MSTORE PUSH1 0x4 ADD PUSH2 0x923 SWAP1 PUSH2 0xDAF JUMP JUMPDEST PUSH1 0x40 MLOAD DUP1 SWAP2 SUB SWAP1 REVERT JUMPDEST DUP1 PUSH0 DUP1 CALLER PUSH20 0xFFFFFFFFFFFFFFFFFFFFFFFFFFFFFFFFFFFFFFFF AND PUSH20 0xFFFFFFFFFFFFFFFFFFFFFFFFFFFFFFFFFFFFFFFF AND DUP2 MSTORE PUSH1 0x20 ADD SWAP1 DUP2 MSTORE PUSH1 0x20 ADD PUSH0 KECCAK256 DUP4 DUP2 SLOAD DUP2 LT PUSH2 0x97B JUMPI PUSH2 0x97A PUSH2 0xD28 JUMP JUMPDEST JUMPDEST SWAP1 PUSH0 MSTORE PUSH1 0x20 PUSH0 KECCAK256 SWAP1 PUSH1 0x3 MUL ADD PUSH0 ADD PUSH0 DUP3 DUP3 SLOAD PUSH2 0x997 SWAP2 SWAP1 PUSH2 0xFCD JUMP JUMPDEST SWAP3 POP POP DUP2 SWAP1 SSTORE POP POP POP JUMP JUMPDEST PUSH0 PUSH1 0x40 MLOAD SWAP1 POP SWAP1 JUMP JUMPDEST PUSH0 DUP1 REVERT JUMPDEST PUSH0 DUP1 REVERT JUMPDEST PUSH0 DUP2 SWAP1 POP SWAP2 SWAP1 POP JUMP JUMPDEST PUSH2 0x9C5 DUP2 PUSH2 0x9B3 JUMP JUMPDEST DUP2 EQ PUSH2 0x9CF JUMPI PUSH0 DUP1 REVERT JUMPDEST POP JUMP JUMPDEST PUSH0 DUP2 CALLDATALOAD SWAP1 POP PUSH2 0x9E0 DUP2 PUSH2 0x9BC JUMP JUMPDEST SWAP3 SWAP2 POP POP JUMP JUMPDEST PUSH0 PUSH1 0x20 DUP3 DUP5 SUB SLT ISZERO PUSH2 0x9FB JUMPI PUSH2 0x9FA PUSH2 0x9AB JUMP JUMPDEST JUMPDEST PUSH0 PUSH2 0xA08 DUP5 DUP3 DUP6 ADD PUSH2 0x9D2 JUMP JUMPDEST SWAP2 POP POP SWAP3 SWAP2 POP POP JUMP JUMPDEST PUSH2 0xA1A DUP2 PUSH2 0x9B3 JUMP JUMPDEST DUP3 MSTORE POP POP JUMP JUMPDEST PUSH0 PUSH1 0x20 DUP3 ADD SWAP1 POP PUSH2 0xA33 PUSH0 DUP4 ADD DUP5 PUSH2 0xA11 JUMP JUMPDEST SWAP3 SWAP2 POP POP JUMP JUMPDEST PUSH0 DUP1 PUSH1 0x40 DUP4 DUP6 SUB SLT ISZERO PUSH2 0xA4F JUMPI PUSH2 0xA4E PUSH2 0x9AB JUMP JUMPDEST JUMPDEST PUSH0 PUSH2 0xA5C DUP6 DUP3 DUP7 ADD PUSH2 0x9D2 JUMP JUMPDEST SWAP3 POP POP PUSH1 0x20 PUSH2 0xA6D DUP6 DUP3 DUP7 ADD PUSH2 0x9D2 JUMP JUMPDEST SWAP2 POP POP SWAP3 POP SWAP3 SWAP1 POP JUMP JUMPDEST PUSH0 PUSH20 0xFFFFFFFFFFFFFFFFFFFFFFFFFFFFFFFFFFFFFFFF DUP3 AND SWAP1 POP SWAP2 SWAP1 POP JUMP JUMPDEST PUSH0 PUSH2 0xAA0 DUP3 PUSH2 0xA77 JUMP JUMPDEST SWAP1 POP SWAP2 SWAP1 POP JUMP JUMPDEST PUSH2 0xAB0 DUP2 PUSH2 0xA96 JUMP JUMPDEST DUP2 EQ PUSH2 0xABA JUMPI PUSH0 DUP1 REVERT JUMPDEST POP JUMP JUMPDEST PUSH0 DUP2 CALLDATALOAD SWAP1 POP PUSH2 0xACB DUP2 PUSH2 0xAA7 JUMP JUMPDEST SWAP3 SWAP2 POP POP JUMP JUMPDEST PUSH0 DUP1 PUSH1 0x40 DUP4 DUP6 SUB SLT ISZERO PUSH2 0xAE7 JUMPI PUSH2 0xAE6 PUSH2 0x9AB JUMP JUMPDEST JUMPDEST PUSH0 PUSH2 0xAF4 DUP6 DUP3 DUP7 ADD PUSH2 0xABD JUMP JUMPDEST SWAP3 POP POP PUSH1 0x20 PUSH2 0xB05 DUP6 DUP3 DUP7 ADD PUSH2 0x9D2 JUMP JUMPDEST SWAP2 POP POP SWAP3 POP SWAP3 SWAP1 POP JUMP JUMPDEST PUSH2 0xB18 DUP2 PUSH2 0xA96 JUMP JUMPDEST DUP3 MSTORE POP POP JUMP JUMPDEST PUSH0 PUSH1 0x60 DUP3 ADD SWAP1 POP PUSH2 0xB31 PUSH0 DUP4 ADD DUP7 PUSH2 0xA11 JUMP JUMPDEST PUSH2 0xB3E PUSH1 0x20 DUP4 ADD DUP6 PUSH2 0xA11 JUMP JUMPDEST PUSH2 0xB4B PUSH1 0x40 DUP4 ADD DUP5 PUSH2 0xB0F JUMP JUMPDEST SWAP5 SWAP4 POP POP POP POP JUMP JUMPDEST PUSH0 PUSH1 0x20 DUP3 ADD SWAP1 POP PUSH2 0xB66 PUSH0 DUP4 ADD DUP5 PUSH2 0xB0F JUMP JUMPDEST SWAP3 SWAP2 POP POP JUMP JUMPDEST PUSH0 DUP1 REVERT JUMPDEST PUSH0 DUP1 REVERT JUMPDEST PUSH0 PUSH1 0x1F NOT PUSH1 0x1F DUP4 ADD AND SWAP1 POP SWAP2 SWAP1 POP JUMP JUMPDEST PUSH32 0x4E487B7100000000000000000000000000000000000000000000000000000000 PUSH0 MSTORE PUSH1 0x41 PUSH1 0x4 MSTORE PUSH1 0x24 PUSH0 REVERT JUMPDEST PUSH2 0xBBA DUP3 PUSH2 0xB74 JUMP JUMPDEST DUP2 ADD DUP2 DUP2 LT PUSH8 0xFFFFFFFFFFFFFFFF DUP3 GT OR ISZERO PUSH2 0xBD9 JUMPI PUSH2 0xBD8 PUSH2 0xB84 JUMP JUMPDEST JUMPDEST DUP1 PUSH1 0x40 MSTORE POP POP POP JUMP JUMPDEST PUSH0 PUSH2 0xBEB PUSH2 0x9A2 JUMP JUMPDEST SWAP1 POP PUSH2 0xBF7 DUP3 DUP3 PUSH2 0xBB1 JUMP JUMPDEST SWAP2 SWAP1 POP JUMP JUMPDEST PUSH0 PUSH8 0xFFFFFFFFFFFFFFFF DUP3 GT ISZERO PUSH2 0xC16 JUMPI PUSH2 0xC15 PUSH2 0xB84 JUMP JUMPDEST JUMPDEST PUSH2 0xC1F DUP3 PUSH2 0xB74 JUMP JUMPDEST SWAP1 POP PUSH1 0x20 DUP2 ADD SWAP1 POP SWAP2 SWAP1 POP JUMP JUMPDEST DUP3 DUP2 DUP4 CALLDATACOPY PUSH0 DUP4 DUP4 ADD MSTORE POP POP POP JUMP JUMPDEST PUSH0 PUSH2 0xC4C PUSH2 0xC47 DUP5 PUSH2 0xBFC JUMP JUMPDEST PUSH2 0xBE2 JUMP JUMPDEST SWAP1 POP DUP3 DUP2 MSTORE PUSH1 0x20 DUP2 ADD DUP5 DUP5 DUP5 ADD GT ISZERO PUSH2 0xC68 JUMPI PUSH2 0xC67 PUSH2 0xB70 JUMP JUMPDEST JUMPDEST PUSH2 0xC73 DUP5 DUP3 DUP6 PUSH2 0xC2C JUMP JUMPDEST POP SWAP4 SWAP3 POP POP POP JUMP JUMPDEST PUSH0 DUP3 PUSH1 0x1F DUP4 ADD SLT PUSH2 0xC8F JUMPI PUSH2 0xC8E PUSH2 0xB6C JUMP JUMPDEST JUMPDEST DUP2 CALLDATALOAD PUSH2 0xC9F DUP5 DUP3 PUSH1 0x20 DUP7 ADD PUSH2 0xC3A JUMP JUMPDEST SWAP2 POP POP SWAP3 SWAP2 POP POP JUMP JUMPDEST PUSH0 DUP1 PUSH0 DUP1 PUSH1 0x80 DUP6 DUP8 SUB SLT ISZERO PUSH2 0xCC0 JUMPI PUSH2 0xCBF PUSH2 0x9AB JUMP JUMPDEST JUMPDEST PUSH0 PUSH2 0xCCD DUP8 DUP3 DUP9 ADD PUSH2 0x9D2 JUMP JUMPDEST SWAP5 POP POP PUSH1 0x20 PUSH2 0xCDE DUP8 DUP3 DUP9 ADD PUSH2 0xABD JUMP JUMPDEST SWAP4 POP POP PUSH1 0x40 PUSH2 0xCEF DUP8 DUP3 DUP9 ADD PUSH2 0x9D2 JUMP JUMPDEST SWAP3 POP POP PUSH1 0x60 DUP6 ADD CALLDATALOAD PUSH8 0xFFFFFFFFFFFFFFFF DUP2 GT ISZERO PUSH2 0xD10 JUMPI PUSH2 0xD0F PUSH2 0x9AF JUMP JUMPDEST JUMPDEST PUSH2 0xD1C DUP8 DUP3 DUP9 ADD PUSH2 0xC7B JUMP JUMPDEST SWAP2 POP POP SWAP3 SWAP6 SWAP2 SWAP5 POP SWAP3 POP JUMP JUMPDEST PUSH32 0x4E487B7100000000000000000000000000000000000000000000000000000000 PUSH0 MSTORE PUSH1 0x32 PUSH1 0x4 MSTORE PUSH1 0x24 PUSH0 REVERT JUMPDEST PUSH0 DUP3 DUP3 MSTORE PUSH1 0x20 DUP3 ADD SWAP1 POP SWAP3 SWAP2 POP POP JUMP JUMPDEST PUSH32 0x4E6F74206F776E65720000000000000000000000000000000000000000000000 PUSH0 DUP3 ADD MSTORE POP JUMP JUMPDEST PUSH0 PUSH2 0xD99 PUSH1 0x9 DUP4 PUSH2 0xD55 JUMP JUMPDEST SWAP2 POP PUSH2 0xDA4 DUP3 PUSH2 0xD65 JUMP JUMPDEST PUSH1 0x20 DUP3 ADD SWAP1 POP SWAP2 SWAP1 POP JUMP JUMPDEST PUSH0 PUSH1 0x20 DUP3 ADD SWAP1 POP DUP2 DUP2 SUB PUSH0 DUP4 ADD MSTORE PUSH2 0xDC6 DUP2 PUSH2 0xD8D JUMP JUMPDEST SWAP1 POP SWAP2 SWAP1 POP JUMP JUMPDEST PUSH32 0x496E737566666963656E742066756E6473000000000000000000000000000000 PUSH0 DUP3 ADD MSTORE POP JUMP JUMPDEST PUSH0 PUSH2 0xE01 PUSH1 0x11 DUP4 PUSH2 0xD55 JUMP JUMPDEST SWAP2 POP PUSH2 0xE0C DUP3 PUSH2 0xDCD JUMP JUMPDEST PUSH1 0x20 DUP3 ADD SWAP1 POP SWAP2 SWAP1 POP JUMP JUMPDEST PUSH0 PUSH1 0x20 DUP3 ADD SWAP1 POP DUP2 DUP2 SUB PUSH0 DUP4 ADD MSTORE PUSH2 0xE2E DUP2 PUSH2 0xDF5 JUMP JUMPDEST SWAP1 POP SWAP2 SWAP1 POP JUMP JUMPDEST PUSH32 0x4E487B7100000000000000000000000000000000000000000000000000000000 PUSH0 MSTORE PUSH1 0x11 PUSH1 0x4 MSTORE PUSH1 0x24 PUSH0 REVERT JUMPDEST PUSH0 PUSH2 0xE6C DUP3 PUSH2 0x9B3 JUMP JUMPDEST SWAP2 POP PUSH2 0xE77 DUP4 PUSH2 0x9B3 JUMP JUMPDEST SWAP3 POP DUP3 DUP3 SUB SWAP1 POP DUP2 DUP2 GT ISZERO PUSH2 0xE8F JUMPI PUSH2 0xE8E PUSH2 0xE35 JUMP JUMPDEST JUMPDEST SWAP3 SWAP2 POP POP JUMP JUMPDEST PUSH32 0x4163636F756E6420696420696E76616C69640000000000000000000000000000 PUSH0 DUP3 ADD MSTORE POP JUMP JUMPDEST PUSH0 PUSH2 0xEC9 PUSH1 0x12 DUP4 PUSH2 0xD55 JUMP JUMPDEST SWAP2 POP PUSH2 0xED4 DUP3 PUSH2 0xE95 JUMP JUMPDEST PUSH1 0x20 DUP3 ADD SWAP1 POP SWAP2 SWAP1 POP JUMP JUMPDEST PUSH0 PUSH1 0x20 DUP3 ADD SWAP1 POP DUP2 DUP2 SUB PUSH0 DUP4 ADD MSTORE PUSH2 0xEF6 DUP2 PUSH2 0xEBD JUMP JUMPDEST SWAP1 POP SWAP2 SWAP1 POP JUMP JUMPDEST PUSH32 0x496E73756666696369656E742066756E64730000000000000000000000000000 PUSH0 DUP3 ADD MSTORE POP JUMP JUMPDEST PUSH0 PUSH2 0xF31 PUSH1 0x12 DUP4 PUSH2 0xD55 JUMP JUMPDEST SWAP2 POP PUSH2 0xF3C DUP3 PUSH2 0xEFD JUMP JUMPDEST PUSH1 0x20 DUP3 ADD SWAP1 POP SWAP2 SWAP1 POP JUMP JUMPDEST PUSH0 PUSH1 0x20 DUP3 ADD SWAP1 POP DUP2 DUP2 SUB PUSH0 DUP4 ADD MSTORE PUSH2 0xF5E DUP2 PUSH2 0xF25 JUMP JUMPDEST SWAP1 POP SWAP2 SWAP1 POP JUMP JUMPDEST PUSH32 0x496E76616C6964206163636F756E740000000000000000000000000000000000 PUSH0 DUP3 ADD MSTORE POP JUMP JUMPDEST PUSH0 PUSH2 0xF99 PUSH1 0xF DUP4 PUSH2 0xD55 JUMP JUMPDEST SWAP2 POP PUSH2 0xFA4 DUP3 PUSH2 0xF65 JUMP JUMPDEST PUSH1 0x20 DUP3 ADD SWAP1 POP SWAP2 SWAP1 POP JUMP JUMPDEST PUSH0 PUSH1 0x20 DUP3 ADD SWAP1 POP DUP2 DUP2 SUB PUSH0 DUP4 ADD MSTORE PUSH2 0xFC6 DUP2 PUSH2 0xF8D JUMP JUMPDEST SWAP1 POP SWAP2 SWAP1 POP JUMP JUMPDEST PUSH0 PUSH2 0xFD7 DUP3 PUSH2 0x9B3 JUMP JUMPDEST SWAP2 POP PUSH2 0xFE2 DUP4 PUSH2 0x9B3 JUMP JUMPDEST SWAP3 POP DUP3 DUP3 ADD SWAP1 POP DUP1 DUP3 GT ISZERO PUSH2 0xFFA JUMPI PUSH2 0xFF9 PUSH2 0xE35 JUMP JUMPDEST JUMPDEST SWAP3 SWAP2 POP POP JUMP JUMPDEST PUSH0 DUP2 MLOAD SWAP1 POP SWAP2 SWAP1 POP JUMP JUMPDEST DUP3 DUP2 DUP4 MCOPY PUSH0 DUP4 DUP4 ADD MSTORE POP POP POP JUMP JUMPDEST PUSH0 PUSH2 0x1022 DUP3 PUSH2 0x1000 JUMP JUMPDEST PUSH2 0x102C DUP2 DUP6 PUSH2 0xD55 JUMP JUMPDEST SWAP4 POP PUSH2 0x103C DUP2 DUP6 PUSH1 0x20 DUP7 ADD PUSH2 0x100A JUMP JUMPDEST PUSH2 0x1045 DUP2 PUSH2 0xB74 JUMP JUMPDEST DUP5 ADD SWAP2 POP POP SWAP3 SWAP2 POP POP JUMP JUMPDEST PUSH0 PUSH1 0x60 DUP3 ADD SWAP1 POP DUP2 DUP2 SUB PUSH0 DUP4 ADD MSTORE PUSH2 0x1068 DUP2 DUP7 PUSH2 0x1018 JUMP JUMPDEST SWAP1 POP PUSH2 0x1077 PUSH1 0x20 DUP4 ADD DUP6 PUSH2 0xA11 JUMP JUMPDEST PUSH2 0x1084 PUSH1 0x40 DUP4 ADD DUP5 PUSH2 0xA11 JUMP JUMPDEST SWAP5 SWAP4 POP POP POP POP JUMP INVALID LOG2 PUSH5 0x6970667358 0x22 SLT KECCAK256 CALLER PUSH25 0x90DF2C557B5AD9048EBE2BE76E52BF92979ADAA9B9793C9428 SWAP13 PUSH26 0x97DD0C64736F6C634300081A0033000000000000000000000000 "
				},
				"gasEstimates": {
					"creation": {
						"codeDepositCost": "858000",
						"executionCost": "3035",
						"totalCost": "861035"
					},
					"external": {
						"accounts(address,uint256)": "infinite",
						"deposit(uint256,uint256)": "infinite",
						"getBalance(uint256)": "infinite",
						"owner()": "2552",
						"transfer(uint256,address,uint256,string)": "infinite",
						"withdraw(uint256,uint256)": "infinite"
					}
				},
				"methodIdentifiers": {
					"accounts(address,uint256)": "87524581",
					"deposit(uint256,uint256)": "e2bbb158",
					"getBalance(uint256)": "1e010439",
					"owner()": "8da5cb5b",
					"transfer(uint256,address,uint256,string)": "d1eafb23",
					"withdraw(uint256,uint256)": "441a3e70"
				}
			},
			"storageLayout": {
				"storage": [
					{
						"astId": 14,
						"contract": "contracts/Banking-transactions.sol:Transactions",
						"label": "accounts",
						"offset": 0,
						"slot": "0",
						"type": "t_mapping(t_address,t_array(t_struct(Account)8_storage)dyn_storage)"
					},
					{
						"astId": 16,
						"contract": "contracts/Banking-transactions.sol:Transactions",
						"label": "owner",
						"offset": 0,
						"slot": "1",
						"type": "t_address"
					}
				],
				"types": {
					"t_address": {
						"encoding": "inplace",
						"label": "address",
						"numberOfBytes": "20"
					},
					"t_array(t_struct(Account)8_storage)dyn_storage": {
						"base": "t_struct(Account)8_storage",
						"encoding": "dynamic_array",
						"label": "struct Transactions.Account[]",
						"numberOfBytes": "32"
					},
					"t_mapping(t_address,t_array(t_struct(Account)8_storage)dyn_storage)": {
						"encoding": "mapping",
						"key": "t_address",
						"label": "mapping(address => struct Transactions.Account[])",
						"numberOfBytes": "32",
						"value": "t_array(t_struct(Account)8_storage)dyn_storage"
					},
					"t_struct(Account)8_storage": {
						"encoding": "inplace",
						"label": "struct Transactions.Account",
						"members": [
							{
								"astId": 3,
								"contract": "contracts/Banking-transactions.sol:Transactions",
								"label": "balance",
								"offset": 0,
								"slot": "0",
								"type": "t_uint256"
							},
							{
								"astId": 5,
								"contract": "contracts/Banking-transactions.sol:Transactions",
								"label": "timestamp",
								"offset": 0,
								"slot": "1",
								"type": "t_uint256"
							},
							{
								"astId": 7,
								"contract": "contracts/Banking-transactions.sol:Transactions",
								"label": "id",
								"offset": 0,
								"slot": "2",
								"type": "t_address"
							}
						],
						"numberOfBytes": "96"
					},
					"t_uint256": {
						"encoding": "inplace",
						"label": "uint256",
						"numberOfBytes": "32"
					}
				}
			},
			"userdoc": {
				"kind": "user",
				"methods": {},
				"version": 1
			}
		}
	}
}