{
	"contracts/Banking-transactions.sol": {
		"Transactions": {
			"abi": [
				{
					"inputs": [],
					"stateMutability": "nonpayable",
					"type": "constructor"
				},
				{
					"inputs": [
						{
							"internalType": "address",
							"name": "",
							"type": "address"
						},
						{
							"internalType": "uint256",
							"name": "",
							"type": "uint256"
						}
					],
					"name": "accounts",
					"outputs": [
						{
							"internalType": "uint256",
							"name": "balance",
							"type": "uint256"
						},
						{
							"internalType": "uint256",
							"name": "timestamp",
							"type": "uint256"
						},
						{
							"internalType": "address",
							"name": "id",
							"type": "address"
						}
					],
					"stateMutability": "view",
					"type": "function"
				},
				{
					"inputs": [
						{
							"internalType": "uint256",
							"name": "i",
							"type": "uint256"
						},
						{
							"internalType": "uint256",
							"name": "amount",
							"type": "uint256"
						}
					],
					"name": "deposit",
					"outputs": [],
					"stateMutability": "nonpayable",
					"type": "function"
				},
				{
					"inputs": [
						{
							"internalType": "uint256",
							"name": "i",
							"type": "uint256"
						}
					],
					"name": "getBalance",
					"outputs": [
						{
							"internalType": "uint256",
							"name": "",
							"type": "uint256"
						}
					],
					"stateMutability": "view",
					"type": "function"
				},
				{
					"inputs": [],
					"name": "owner",
					"outputs": [
						{
							"internalType": "address",
							"name": "",
							"type": "address"
						}
					],
					"stateMutability": "view",
					"type": "function"
				},
				{
					"inputs": [
						{
							"internalType": "uint256",
							"name": "i",
							"type": "uint256"
						},
						{
							"internalType": "address",
							"name": "receiver",
							"type": "address"
						},
						{
							"internalType": "uint256",
							"name": "amount",
							"type": "uint256"
						}
					],
					"name": "transfer",
					"outputs": [],
					"stateMutability": "nonpayable",
					"type": "function"
				},
				{
					"inputs": [
						{
							"internalType": "uint256",
							"name": "i",
							"type": "uint256"
						},
						{
							"internalType": "uint256",
							"name": "amount",
							"type": "uint256"
						}
					],
					"name": "withdraw",
					"outputs": [],
					"stateMutability": "nonpayable",
					"type": "function"
				}
			],
			"devdoc": {
				"kind": "dev",
				"methods": {},
				"version": 1
			},
			"evm": {
				"assembly": "    /* \"contracts/Banking-transactions.sol\":58:931  contract Transactions{... */\n  mstore(0x40, 0x80)\n    /* \"contracts/Banking-transactions.sol\":258:308  constructor (){... */\n  callvalue\n  dup1\n  iszero\n  tag_1\n  jumpi\n  0x00\n  dup1\n  revert\ntag_1:\n  pop\n    /* \"contracts/Banking-transactions.sol\":291:301  msg.sender */\n  caller\n    /* \"contracts/Banking-transactions.sol\":282:301  owner == msg.sender */\n  0xffffffffffffffffffffffffffffffffffffffff\n  and\n    /* \"contracts/Banking-transactions.sol\":282:287  owner */\n  0x01\n  0x00\n  swap1\n  sload\n  swap1\n  0x0100\n  exp\n  swap1\n  pop\n  pop\n    /* \"contracts/Banking-transactions.sol\":282:301  owner == msg.sender */\n  pop\n    /* \"contracts/Banking-transactions.sol\":58:931  contract Transactions{... */\n  dataSize(sub_0)\n  dup1\n  dataOffset(sub_0)\n  0x00\n  codecopy\n  0x00\n  return\nstop\n\nsub_0: assembly {\n        /* \"contracts/Banking-transactions.sol\":58:931  contract Transactions{... */\n      mstore(0x40, 0x80)\n      callvalue\n      dup1\n      iszero\n      tag_1\n      jumpi\n      0x00\n      dup1\n      revert\n    tag_1:\n      pop\n      jumpi(tag_2, lt(calldatasize, 0x04))\n      shr(0xe0, calldataload(0x00))\n      dup1\n      0x1e010439\n      eq\n      tag_3\n      jumpi\n      dup1\n      0x441a3e70\n      eq\n      tag_4\n      jumpi\n      dup1\n      0x87524581\n      eq\n      tag_5\n      jumpi\n      dup1\n      0x8da5cb5b\n      eq\n      tag_6\n      jumpi\n      dup1\n      0xe2bbb158\n      eq\n      tag_7\n      jumpi\n      dup1\n      0xf8548e36\n      eq\n      tag_8\n      jumpi\n    tag_2:\n      0x00\n      dup1\n      revert\n        /* \"contracts/Banking-transactions.sol\":820:928  function getBalance(uint i) public view returns(uint){... */\n    tag_3:\n      tag_9\n      0x04\n      dup1\n      calldatasize\n      sub\n      dup2\n      add\n      swap1\n      tag_10\n      swap2\n      swap1\n      tag_11\n      jump\t// in\n    tag_10:\n      tag_12\n      jump\t// in\n    tag_9:\n      mload(0x40)\n      tag_13\n      swap2\n      swap1\n      tag_14\n      jump\t// in\n    tag_13:\n      mload(0x40)\n      dup1\n      swap2\n      sub\n      swap1\n      return\n        /* \"contracts/Banking-transactions.sol\":526:719  function withdraw(uint i, uint amount) public OnlyOwner{... */\n    tag_4:\n      tag_15\n      0x04\n      dup1\n      calldatasize\n      sub\n      dup2\n      add\n      swap1\n      tag_16\n      swap2\n      swap1\n      tag_17\n      jump\t// in\n    tag_16:\n      tag_18\n      jump\t// in\n    tag_15:\n      stop\n        /* \"contracts/Banking-transactions.sol\":179:225  mapping (address => Account[]) public accounts */\n    tag_5:\n      tag_19\n      0x04\n      dup1\n      calldatasize\n      sub\n      dup2\n      add\n      swap1\n      tag_20\n      swap2\n      swap1\n      tag_21\n      jump\t// in\n    tag_20:\n      tag_22\n      jump\t// in\n    tag_19:\n      mload(0x40)\n      tag_23\n      swap4\n      swap3\n      swap2\n      swap1\n      tag_24\n      jump\t// in\n    tag_23:\n      mload(0x40)\n      dup1\n      swap2\n      sub\n      swap1\n      return\n        /* \"contracts/Banking-transactions.sol\":231:251  address public owner */\n    tag_6:\n      tag_25\n      tag_26\n      jump\t// in\n    tag_25:\n      mload(0x40)\n      tag_27\n      swap2\n      swap1\n      tag_28\n      jump\t// in\n    tag_27:\n      mload(0x40)\n      dup1\n      swap2\n      sub\n      swap1\n      return\n        /* \"contracts/Banking-transactions.sol\":409:520  function deposit(uint i, uint amount) public OnlyOwner{... */\n    tag_7:\n      tag_29\n      0x04\n      dup1\n      calldatasize\n      sub\n      dup2\n      add\n      swap1\n      tag_30\n      swap2\n      swap1\n      tag_17\n      jump\t// in\n    tag_30:\n      tag_31\n      jump\t// in\n    tag_29:\n      stop\n        /* \"contracts/Banking-transactions.sol\":725:814  function transfer(uint i, address receiver, uint amount) public OnlyOwner{... */\n    tag_8:\n      tag_32\n      0x04\n      dup1\n      calldatasize\n      sub\n      dup2\n      add\n      swap1\n      tag_33\n      swap2\n      swap1\n      tag_34\n      jump\t// in\n    tag_33:\n      tag_35\n      jump\t// in\n    tag_32:\n      stop\n        /* \"contracts/Banking-transactions.sol\":820:928  function getBalance(uint i) public view returns(uint){... */\n    tag_12:\n        /* \"contracts/Banking-transactions.sol\":868:872  uint */\n      0x00\n        /* \"contracts/Banking-transactions.sol\":890:898  accounts */\n      dup1\n        /* \"contracts/Banking-transactions.sol\":890:910  accounts[msg.sender] */\n      0x00\n        /* \"contracts/Banking-transactions.sol\":899:909  msg.sender */\n      caller\n        /* \"contracts/Banking-transactions.sol\":890:910  accounts[msg.sender] */\n      0xffffffffffffffffffffffffffffffffffffffff\n      and\n      0xffffffffffffffffffffffffffffffffffffffff\n      and\n      dup2\n      mstore\n      0x20\n      add\n      swap1\n      dup2\n      mstore\n      0x20\n      add\n      0x00\n      keccak256\n        /* \"contracts/Banking-transactions.sol\":911:912  i */\n      dup3\n        /* \"contracts/Banking-transactions.sol\":890:913  accounts[msg.sender][i] */\n      dup2\n      sload\n      dup2\n      lt\n      tag_37\n      jumpi\n      tag_38\n      tag_39\n      jump\t// in\n    tag_38:\n    tag_37:\n      swap1\n      0x00\n      mstore\n      keccak256(0x00, 0x20)\n      swap1\n      0x03\n      mul\n      add\n        /* \"contracts/Banking-transactions.sol\":890:921  accounts[msg.sender][i].balance */\n      0x00\n      add\n      sload\n        /* \"contracts/Banking-transactions.sol\":883:921  return accounts[msg.sender][i].balance */\n      swap1\n      pop\n        /* \"contracts/Banking-transactions.sol\":820:928  function getBalance(uint i) public view returns(uint){... */\n      swap2\n      swap1\n      pop\n      jump\t// out\n        /* \"contracts/Banking-transactions.sol\":526:719  function withdraw(uint i, uint amount) public OnlyOwner{... */\n    tag_18:\n        /* \"contracts/Banking-transactions.sol\":366:371  owner */\n      0x01\n      0x00\n      swap1\n      sload\n      swap1\n      0x0100\n      exp\n      swap1\n      div\n      0xffffffffffffffffffffffffffffffffffffffff\n      and\n        /* \"contracts/Banking-transactions.sol\":352:371  msg.sender == owner */\n      0xffffffffffffffffffffffffffffffffffffffff\n      and\n        /* \"contracts/Banking-transactions.sol\":352:362  msg.sender */\n      caller\n        /* \"contracts/Banking-transactions.sol\":352:371  msg.sender == owner */\n      0xffffffffffffffffffffffffffffffffffffffff\n      and\n      eq\n        /* \"contracts/Banking-transactions.sol\":344:385  require(msg.sender == owner, \"Not owner\") */\n      tag_42\n      jumpi\n      mload(0x40)\n      0x08c379a000000000000000000000000000000000000000000000000000000000\n      dup2\n      mstore\n      0x04\n      add\n      tag_43\n      swap1\n      tag_44\n      jump\t// in\n    tag_43:\n      mload(0x40)\n      dup1\n      swap2\n      sub\n      swap1\n      revert\n    tag_42:\n        /* \"contracts/Banking-transactions.sol\":634:640  amount */\n      dup1\n        /* \"contracts/Banking-transactions.sol\":599:607  accounts */\n      0x00\n        /* \"contracts/Banking-transactions.sol\":599:619  accounts[msg.sender] */\n      dup1\n        /* \"contracts/Banking-transactions.sol\":608:618  msg.sender */\n      caller\n        /* \"contracts/Banking-transactions.sol\":599:619  accounts[msg.sender] */\n      0xffffffffffffffffffffffffffffffffffffffff\n      and\n      0xffffffffffffffffffffffffffffffffffffffff\n      and\n      dup2\n      mstore\n      0x20\n      add\n      swap1\n      dup2\n      mstore\n      0x20\n      add\n      0x00\n      keccak256\n        /* \"contracts/Banking-transactions.sol\":620:621  i */\n      dup4\n        /* \"contracts/Banking-transactions.sol\":599:622  accounts[msg.sender][i] */\n      dup2\n      sload\n      dup2\n      lt\n      tag_46\n      jumpi\n      tag_47\n      tag_39\n      jump\t// in\n    tag_47:\n    tag_46:\n      swap1\n      0x00\n      mstore\n      keccak256(0x00, 0x20)\n      swap1\n      0x03\n      mul\n      add\n        /* \"contracts/Banking-transactions.sol\":599:630  accounts[msg.sender][i].balance */\n      0x00\n      add\n      sload\n        /* \"contracts/Banking-transactions.sol\":599:640  accounts[msg.sender][i].balance >= amount */\n      lt\n      iszero\n        /* \"contracts/Banking-transactions.sol\":591:661  require(accounts[msg.sender][i].balance >= amount, \"Insuffient funds\") */\n      tag_49\n      jumpi\n      mload(0x40)\n      0x08c379a000000000000000000000000000000000000000000000000000000000\n      dup2\n      mstore\n      0x04\n      add\n      tag_50\n      swap1\n      tag_51\n      jump\t// in\n    tag_50:\n      mload(0x40)\n      dup1\n      swap2\n      sub\n      swap1\n      revert\n    tag_49:\n        /* \"contracts/Banking-transactions.sol\":706:712  amount */\n      dup1\n        /* \"contracts/Banking-transactions.sol\":671:679  accounts */\n      0x00\n        /* \"contracts/Banking-transactions.sol\":671:691  accounts[msg.sender] */\n      dup1\n        /* \"contracts/Banking-transactions.sol\":680:690  msg.sender */\n      caller\n        /* \"contracts/Banking-transactions.sol\":671:691  accounts[msg.sender] */\n      0xffffffffffffffffffffffffffffffffffffffff\n      and\n      0xffffffffffffffffffffffffffffffffffffffff\n      and\n      dup2\n      mstore\n      0x20\n      add\n      swap1\n      dup2\n      mstore\n      0x20\n      add\n      0x00\n      keccak256\n        /* \"contracts/Banking-transactions.sol\":692:693  i */\n      dup4\n        /* \"contracts/Banking-transactions.sol\":671:694  accounts[msg.sender][i] */\n      dup2\n      sload\n      dup2\n      lt\n      tag_52\n      jumpi\n      tag_53\n      tag_39\n      jump\t// in\n    tag_53:\n    tag_52:\n      swap1\n      0x00\n      mstore\n      keccak256(0x00, 0x20)\n      swap1\n      0x03\n      mul\n      add\n        /* \"contracts/Banking-transactions.sol\":671:702  accounts[msg.sender][i].balance */\n      0x00\n      add\n      0x00\n        /* \"contracts/Banking-transactions.sol\":671:712  accounts[msg.sender][i].balance -= amount */\n      dup3\n      dup3\n      sload\n      tag_55\n      swap2\n      swap1\n      tag_56\n      jump\t// in\n    tag_55:\n      swap3\n      pop\n      pop\n      dup2\n      swap1\n      sstore\n      pop\n        /* \"contracts/Banking-transactions.sol\":526:719  function withdraw(uint i, uint amount) public OnlyOwner{... */\n      pop\n      pop\n      jump\t// out\n        /* \"contracts/Banking-transactions.sol\":179:225  mapping (address => Account[]) public accounts */\n    tag_22:\n      mstore(0x20, 0x00)\n      dup2\n      0x00\n      mstore\n      keccak256(0x00, 0x40)\n      dup2\n      dup2\n      sload\n      dup2\n      lt\n      tag_57\n      jumpi\n      0x00\n      dup1\n      revert\n    tag_57:\n      swap1\n      0x00\n      mstore\n      keccak256(0x00, 0x20)\n      swap1\n      0x03\n      mul\n      add\n      0x00\n      swap2\n      pop\n      swap2\n      pop\n      pop\n      dup1\n      0x00\n      add\n      sload\n      swap1\n      dup1\n      0x01\n      add\n      sload\n      swap1\n      dup1\n      0x02\n      add\n      0x00\n      swap1\n      sload\n      swap1\n      0x0100\n      exp\n      swap1\n      div\n      0xffffffffffffffffffffffffffffffffffffffff\n      and\n      swap1\n      pop\n      dup4\n      jump\t// out\n        /* \"contracts/Banking-transactions.sol\":231:251  address public owner */\n    tag_26:\n      0x01\n      0x00\n      swap1\n      sload\n      swap1\n      0x0100\n      exp\n      swap1\n      div\n      0xffffffffffffffffffffffffffffffffffffffff\n      and\n      dup2\n      jump\t// out\n        /* \"contracts/Banking-transactions.sol\":409:520  function deposit(uint i, uint amount) public OnlyOwner{... */\n    tag_31:\n        /* \"contracts/Banking-transactions.sol\":366:371  owner */\n      0x01\n      0x00\n      swap1\n      sload\n      swap1\n      0x0100\n      exp\n      swap1\n      div\n      0xffffffffffffffffffffffffffffffffffffffff\n      and\n        /* \"contracts/Banking-transactions.sol\":352:371  msg.sender == owner */\n      0xffffffffffffffffffffffffffffffffffffffff\n      and\n        /* \"contracts/Banking-transactions.sol\":352:362  msg.sender */\n      caller\n        /* \"contracts/Banking-transactions.sol\":352:371  msg.sender == owner */\n      0xffffffffffffffffffffffffffffffffffffffff\n      and\n      eq\n        /* \"contracts/Banking-transactions.sol\":344:385  require(msg.sender == owner, \"Not owner\") */\n      tag_60\n      jumpi\n      mload(0x40)\n      0x08c379a000000000000000000000000000000000000000000000000000000000\n      dup2\n      mstore\n      0x04\n      add\n      tag_61\n      swap1\n      tag_44\n      jump\t// in\n    tag_61:\n      mload(0x40)\n      dup1\n      swap2\n      sub\n      swap1\n      revert\n    tag_60:\n        /* \"contracts/Banking-transactions.sol\":507:513  amount */\n      dup1\n        /* \"contracts/Banking-transactions.sol\":472:480  accounts */\n      0x00\n        /* \"contracts/Banking-transactions.sol\":472:492  accounts[msg.sender] */\n      dup1\n        /* \"contracts/Banking-transactions.sol\":481:491  msg.sender */\n      caller\n        /* \"contracts/Banking-transactions.sol\":472:492  accounts[msg.sender] */\n      0xffffffffffffffffffffffffffffffffffffffff\n      and\n      0xffffffffffffffffffffffffffffffffffffffff\n      and\n      dup2\n      mstore\n      0x20\n      add\n      swap1\n      dup2\n      mstore\n      0x20\n      add\n      0x00\n      keccak256\n        /* \"contracts/Banking-transactions.sol\":493:494  i */\n      dup4\n        /* \"contracts/Banking-transactions.sol\":472:495  accounts[msg.sender][i] */\n      dup2\n      sload\n      dup2\n      lt\n      tag_63\n      jumpi\n      tag_64\n      tag_39\n      jump\t// in\n    tag_64:\n    tag_63:\n      swap1\n      0x00\n      mstore\n      keccak256(0x00, 0x20)\n      swap1\n      0x03\n      mul\n      add\n        /* \"contracts/Banking-transactions.sol\":472:503  accounts[msg.sender][i].balance */\n      0x00\n      add\n      0x00\n        /* \"contracts/Banking-transactions.sol\":472:513  accounts[msg.sender][i].balance += amount */\n      dup3\n      dup3\n      sload\n      tag_66\n      swap2\n      swap1\n      tag_67\n      jump\t// in\n    tag_66:\n      swap3\n      pop\n      pop\n      dup2\n      swap1\n      sstore\n      pop\n        /* \"contracts/Banking-transactions.sol\":409:520  function deposit(uint i, uint amount) public OnlyOwner{... */\n      pop\n      pop\n      jump\t// out\n        /* \"contracts/Banking-transactions.sol\":725:814  function transfer(uint i, address receiver, uint amount) public OnlyOwner{... */\n    tag_35:\n        /* \"contracts/Banking-transactions.sol\":366:371  owner */\n      0x01\n      0x00\n      swap1\n      sload\n      swap1\n      0x0100\n      exp\n      swap1\n      div\n      0xffffffffffffffffffffffffffffffffffffffff\n      and\n        /* \"contracts/Banking-transactions.sol\":352:371  msg.sender == owner */\n      0xffffffffffffffffffffffffffffffffffffffff\n      and\n        /* \"contracts/Banking-transactions.sol\":352:362  msg.sender */\n      caller\n        /* \"contracts/Banking-transactions.sol\":352:371  msg.sender == owner */\n      0xffffffffffffffffffffffffffffffffffffffff\n      and\n      eq\n        /* \"contracts/Banking-transactions.sol\":344:385  require(msg.sender == owner, \"Not owner\") */\n      tag_69\n      jumpi\n      mload(0x40)\n      0x08c379a000000000000000000000000000000000000000000000000000000000\n      dup2\n      mstore\n      0x04\n      add\n      tag_70\n      swap1\n      tag_44\n      jump\t// in\n    tag_70:\n      mload(0x40)\n      dup1\n      swap2\n      sub\n      swap1\n      revert\n    tag_69:\n        /* \"contracts/Banking-transactions.sol\":725:814  function transfer(uint i, address receiver, uint amount) public OnlyOwner{... */\n      pop\n      pop\n      pop\n      jump\t// out\n        /* \"#utility.yul\":88:205   */\n    tag_73:\n        /* \"#utility.yul\":197:198   */\n      0x00\n        /* \"#utility.yul\":194:195   */\n      dup1\n        /* \"#utility.yul\":187:199   */\n      revert\n        /* \"#utility.yul\":334:411   */\n    tag_75:\n        /* \"#utility.yul\":371:378   */\n      0x00\n        /* \"#utility.yul\":400:405   */\n      dup2\n        /* \"#utility.yul\":389:405   */\n      swap1\n      pop\n        /* \"#utility.yul\":334:411   */\n      swap2\n      swap1\n      pop\n      jump\t// out\n        /* \"#utility.yul\":417:539   */\n    tag_76:\n        /* \"#utility.yul\":490:514   */\n      tag_96\n        /* \"#utility.yul\":508:513   */\n      dup2\n        /* \"#utility.yul\":490:514   */\n      tag_75\n      jump\t// in\n    tag_96:\n        /* \"#utility.yul\":483:488   */\n      dup2\n        /* \"#utility.yul\":480:515   */\n      eq\n        /* \"#utility.yul\":470:533   */\n      tag_97\n      jumpi\n        /* \"#utility.yul\":529:530   */\n      0x00\n        /* \"#utility.yul\":526:527   */\n      dup1\n        /* \"#utility.yul\":519:531   */\n      revert\n        /* \"#utility.yul\":470:533   */\n    tag_97:\n        /* \"#utility.yul\":417:539   */\n      pop\n      jump\t// out\n        /* \"#utility.yul\":545:684   */\n    tag_77:\n        /* \"#utility.yul\":591:596   */\n      0x00\n        /* \"#utility.yul\":629:635   */\n      dup2\n        /* \"#utility.yul\":616:636   */\n      calldataload\n        /* \"#utility.yul\":607:636   */\n      swap1\n      pop\n        /* \"#utility.yul\":645:678   */\n      tag_99\n        /* \"#utility.yul\":672:677   */\n      dup2\n        /* \"#utility.yul\":645:678   */\n      tag_76\n      jump\t// in\n    tag_99:\n        /* \"#utility.yul\":545:684   */\n      swap3\n      swap2\n      pop\n      pop\n      jump\t// out\n        /* \"#utility.yul\":690:1019   */\n    tag_11:\n        /* \"#utility.yul\":749:755   */\n      0x00\n        /* \"#utility.yul\":798:800   */\n      0x20\n        /* \"#utility.yul\":786:795   */\n      dup3\n        /* \"#utility.yul\":777:784   */\n      dup5\n        /* \"#utility.yul\":773:796   */\n      sub\n        /* \"#utility.yul\":769:801   */\n      slt\n        /* \"#utility.yul\":766:885   */\n      iszero\n      tag_101\n      jumpi\n        /* \"#utility.yul\":804:883   */\n      tag_102\n      tag_73\n      jump\t// in\n    tag_102:\n        /* \"#utility.yul\":766:885   */\n    tag_101:\n        /* \"#utility.yul\":924:925   */\n      0x00\n        /* \"#utility.yul\":949:1002   */\n      tag_103\n        /* \"#utility.yul\":994:1001   */\n      dup5\n        /* \"#utility.yul\":985:991   */\n      dup3\n        /* \"#utility.yul\":974:983   */\n      dup6\n        /* \"#utility.yul\":970:992   */\n      add\n        /* \"#utility.yul\":949:1002   */\n      tag_77\n      jump\t// in\n    tag_103:\n        /* \"#utility.yul\":939:1002   */\n      swap2\n      pop\n        /* \"#utility.yul\":895:1012   */\n      pop\n        /* \"#utility.yul\":690:1019   */\n      swap3\n      swap2\n      pop\n      pop\n      jump\t// out\n        /* \"#utility.yul\":1025:1143   */\n    tag_78:\n        /* \"#utility.yul\":1112:1136   */\n      tag_105\n        /* \"#utility.yul\":1130:1135   */\n      dup2\n        /* \"#utility.yul\":1112:1136   */\n      tag_75\n      jump\t// in\n    tag_105:\n        /* \"#utility.yul\":1107:1110   */\n      dup3\n        /* \"#utility.yul\":1100:1137   */\n      mstore\n        /* \"#utility.yul\":1025:1143   */\n      pop\n      pop\n      jump\t// out\n        /* \"#utility.yul\":1149:1371   */\n    tag_14:\n        /* \"#utility.yul\":1242:1246   */\n      0x00\n        /* \"#utility.yul\":1280:1282   */\n      0x20\n        /* \"#utility.yul\":1269:1278   */\n      dup3\n        /* \"#utility.yul\":1265:1283   */\n      add\n        /* \"#utility.yul\":1257:1283   */\n      swap1\n      pop\n        /* \"#utility.yul\":1293:1364   */\n      tag_107\n        /* \"#utility.yul\":1361:1362   */\n      0x00\n        /* \"#utility.yul\":1350:1359   */\n      dup4\n        /* \"#utility.yul\":1346:1363   */\n      add\n        /* \"#utility.yul\":1337:1343   */\n      dup5\n        /* \"#utility.yul\":1293:1364   */\n      tag_78\n      jump\t// in\n    tag_107:\n        /* \"#utility.yul\":1149:1371   */\n      swap3\n      swap2\n      pop\n      pop\n      jump\t// out\n        /* \"#utility.yul\":1377:1851   */\n    tag_17:\n        /* \"#utility.yul\":1445:1451   */\n      0x00\n        /* \"#utility.yul\":1453:1459   */\n      dup1\n        /* \"#utility.yul\":1502:1504   */\n      0x40\n        /* \"#utility.yul\":1490:1499   */\n      dup4\n        /* \"#utility.yul\":1481:1488   */\n      dup6\n        /* \"#utility.yul\":1477:1500   */\n      sub\n        /* \"#utility.yul\":1473:1505   */\n      slt\n        /* \"#utility.yul\":1470:1589   */\n      iszero\n      tag_109\n      jumpi\n        /* \"#utility.yul\":1508:1587   */\n      tag_110\n      tag_73\n      jump\t// in\n    tag_110:\n        /* \"#utility.yul\":1470:1589   */\n    tag_109:\n        /* \"#utility.yul\":1628:1629   */\n      0x00\n        /* \"#utility.yul\":1653:1706   */\n      tag_111\n        /* \"#utility.yul\":1698:1705   */\n      dup6\n        /* \"#utility.yul\":1689:1695   */\n      dup3\n        /* \"#utility.yul\":1678:1687   */\n      dup7\n        /* \"#utility.yul\":1674:1696   */\n      add\n        /* \"#utility.yul\":1653:1706   */\n      tag_77\n      jump\t// in\n    tag_111:\n        /* \"#utility.yul\":1643:1706   */\n      swap3\n      pop\n        /* \"#utility.yul\":1599:1716   */\n      pop\n        /* \"#utility.yul\":1755:1757   */\n      0x20\n        /* \"#utility.yul\":1781:1834   */\n      tag_112\n        /* \"#utility.yul\":1826:1833   */\n      dup6\n        /* \"#utility.yul\":1817:1823   */\n      dup3\n        /* \"#utility.yul\":1806:1815   */\n      dup7\n        /* \"#utility.yul\":1802:1824   */\n      add\n        /* \"#utility.yul\":1781:1834   */\n      tag_77\n      jump\t// in\n    tag_112:\n        /* \"#utility.yul\":1771:1834   */\n      swap2\n      pop\n        /* \"#utility.yul\":1726:1844   */\n      pop\n        /* \"#utility.yul\":1377:1851   */\n      swap3\n      pop\n      swap3\n      swap1\n      pop\n      jump\t// out\n        /* \"#utility.yul\":1857:1983   */\n    tag_79:\n        /* \"#utility.yul\":1894:1901   */\n      0x00\n        /* \"#utility.yul\":1934:1976   */\n      0xffffffffffffffffffffffffffffffffffffffff\n        /* \"#utility.yul\":1927:1932   */\n      dup3\n        /* \"#utility.yul\":1923:1977   */\n      and\n        /* \"#utility.yul\":1912:1977   */\n      swap1\n      pop\n        /* \"#utility.yul\":1857:1983   */\n      swap2\n      swap1\n      pop\n      jump\t// out\n        /* \"#utility.yul\":1989:2085   */\n    tag_80:\n        /* \"#utility.yul\":2026:2033   */\n      0x00\n        /* \"#utility.yul\":2055:2079   */\n      tag_115\n        /* \"#utility.yul\":2073:2078   */\n      dup3\n        /* \"#utility.yul\":2055:2079   */\n      tag_79\n      jump\t// in\n    tag_115:\n        /* \"#utility.yul\":2044:2079   */\n      swap1\n      pop\n        /* \"#utility.yul\":1989:2085   */\n      swap2\n      swap1\n      pop\n      jump\t// out\n        /* \"#utility.yul\":2091:2213   */\n    tag_81:\n        /* \"#utility.yul\":2164:2188   */\n      tag_117\n        /* \"#utility.yul\":2182:2187   */\n      dup2\n        /* \"#utility.yul\":2164:2188   */\n      tag_80\n      jump\t// in\n    tag_117:\n        /* \"#utility.yul\":2157:2162   */\n      dup2\n        /* \"#utility.yul\":2154:2189   */\n      eq\n        /* \"#utility.yul\":2144:2207   */\n      tag_118\n      jumpi\n        /* \"#utility.yul\":2203:2204   */\n      0x00\n        /* \"#utility.yul\":2200:2201   */\n      dup1\n        /* \"#utility.yul\":2193:2205   */\n      revert\n        /* \"#utility.yul\":2144:2207   */\n    tag_118:\n        /* \"#utility.yul\":2091:2213   */\n      pop\n      jump\t// out\n        /* \"#utility.yul\":2219:2358   */\n    tag_82:\n        /* \"#utility.yul\":2265:2270   */\n      0x00\n        /* \"#utility.yul\":2303:2309   */\n      dup2\n        /* \"#utility.yul\":2290:2310   */\n      calldataload\n        /* \"#utility.yul\":2281:2310   */\n      swap1\n      pop\n        /* \"#utility.yul\":2319:2352   */\n      tag_120\n        /* \"#utility.yul\":2346:2351   */\n      dup2\n        /* \"#utility.yul\":2319:2352   */\n      tag_81\n      jump\t// in\n    tag_120:\n        /* \"#utility.yul\":2219:2358   */\n      swap3\n      swap2\n      pop\n      pop\n      jump\t// out\n        /* \"#utility.yul\":2364:2838   */\n    tag_21:\n        /* \"#utility.yul\":2432:2438   */\n      0x00\n        /* \"#utility.yul\":2440:2446   */\n      dup1\n        /* \"#utility.yul\":2489:2491   */\n      0x40\n        /* \"#utility.yul\":2477:2486   */\n      dup4\n        /* \"#utility.yul\":2468:2475   */\n      dup6\n        /* \"#utility.yul\":2464:2487   */\n      sub\n        /* \"#utility.yul\":2460:2492   */\n      slt\n        /* \"#utility.yul\":2457:2576   */\n      iszero\n      tag_122\n      jumpi\n        /* \"#utility.yul\":2495:2574   */\n      tag_123\n      tag_73\n      jump\t// in\n    tag_123:\n        /* \"#utility.yul\":2457:2576   */\n    tag_122:\n        /* \"#utility.yul\":2615:2616   */\n      0x00\n        /* \"#utility.yul\":2640:2693   */\n      tag_124\n        /* \"#utility.yul\":2685:2692   */\n      dup6\n        /* \"#utility.yul\":2676:2682   */\n      dup3\n        /* \"#utility.yul\":2665:2674   */\n      dup7\n        /* \"#utility.yul\":2661:2683   */\n      add\n        /* \"#utility.yul\":2640:2693   */\n      tag_82\n      jump\t// in\n    tag_124:\n        /* \"#utility.yul\":2630:2693   */\n      swap3\n      pop\n        /* \"#utility.yul\":2586:2703   */\n      pop\n        /* \"#utility.yul\":2742:2744   */\n      0x20\n        /* \"#utility.yul\":2768:2821   */\n      tag_125\n        /* \"#utility.yul\":2813:2820   */\n      dup6\n        /* \"#utility.yul\":2804:2810   */\n      dup3\n        /* \"#utility.yul\":2793:2802   */\n      dup7\n        /* \"#utility.yul\":2789:2811   */\n      add\n        /* \"#utility.yul\":2768:2821   */\n      tag_77\n      jump\t// in\n    tag_125:\n        /* \"#utility.yul\":2758:2821   */\n      swap2\n      pop\n        /* \"#utility.yul\":2713:2831   */\n      pop\n        /* \"#utility.yul\":2364:2838   */\n      swap3\n      pop\n      swap3\n      swap1\n      pop\n      jump\t// out\n        /* \"#utility.yul\":2844:2962   */\n    tag_83:\n        /* \"#utility.yul\":2931:2955   */\n      tag_127\n        /* \"#utility.yul\":2949:2954   */\n      dup2\n        /* \"#utility.yul\":2931:2955   */\n      tag_80\n      jump\t// in\n    tag_127:\n        /* \"#utility.yul\":2926:2929   */\n      dup3\n        /* \"#utility.yul\":2919:2956   */\n      mstore\n        /* \"#utility.yul\":2844:2962   */\n      pop\n      pop\n      jump\t// out\n        /* \"#utility.yul\":2968:3410   */\n    tag_24:\n        /* \"#utility.yul\":3117:3121   */\n      0x00\n        /* \"#utility.yul\":3155:3157   */\n      0x60\n        /* \"#utility.yul\":3144:3153   */\n      dup3\n        /* \"#utility.yul\":3140:3158   */\n      add\n        /* \"#utility.yul\":3132:3158   */\n      swap1\n      pop\n        /* \"#utility.yul\":3168:3239   */\n      tag_129\n        /* \"#utility.yul\":3236:3237   */\n      0x00\n        /* \"#utility.yul\":3225:3234   */\n      dup4\n        /* \"#utility.yul\":3221:3238   */\n      add\n        /* \"#utility.yul\":3212:3218   */\n      dup7\n        /* \"#utility.yul\":3168:3239   */\n      tag_78\n      jump\t// in\n    tag_129:\n        /* \"#utility.yul\":3249:3321   */\n      tag_130\n        /* \"#utility.yul\":3317:3319   */\n      0x20\n        /* \"#utility.yul\":3306:3315   */\n      dup4\n        /* \"#utility.yul\":3302:3320   */\n      add\n        /* \"#utility.yul\":3293:3299   */\n      dup6\n        /* \"#utility.yul\":3249:3321   */\n      tag_78\n      jump\t// in\n    tag_130:\n        /* \"#utility.yul\":3331:3403   */\n      tag_131\n        /* \"#utility.yul\":3399:3401   */\n      0x40\n        /* \"#utility.yul\":3388:3397   */\n      dup4\n        /* \"#utility.yul\":3384:3402   */\n      add\n        /* \"#utility.yul\":3375:3381   */\n      dup5\n        /* \"#utility.yul\":3331:3403   */\n      tag_83\n      jump\t// in\n    tag_131:\n        /* \"#utility.yul\":2968:3410   */\n      swap5\n      swap4\n      pop\n      pop\n      pop\n      pop\n      jump\t// out\n        /* \"#utility.yul\":3416:3638   */\n    tag_28:\n        /* \"#utility.yul\":3509:3513   */\n      0x00\n        /* \"#utility.yul\":3547:3549   */\n      0x20\n        /* \"#utility.yul\":3536:3545   */\n      dup3\n        /* \"#utility.yul\":3532:3550   */\n      add\n        /* \"#utility.yul\":3524:3550   */\n      swap1\n      pop\n        /* \"#utility.yul\":3560:3631   */\n      tag_133\n        /* \"#utility.yul\":3628:3629   */\n      0x00\n        /* \"#utility.yul\":3617:3626   */\n      dup4\n        /* \"#utility.yul\":3613:3630   */\n      add\n        /* \"#utility.yul\":3604:3610   */\n      dup5\n        /* \"#utility.yul\":3560:3631   */\n      tag_83\n      jump\t// in\n    tag_133:\n        /* \"#utility.yul\":3416:3638   */\n      swap3\n      swap2\n      pop\n      pop\n      jump\t// out\n        /* \"#utility.yul\":3644:4263   */\n    tag_34:\n        /* \"#utility.yul\":3721:3727   */\n      0x00\n        /* \"#utility.yul\":3729:3735   */\n      dup1\n        /* \"#utility.yul\":3737:3743   */\n      0x00\n        /* \"#utility.yul\":3786:3788   */\n      0x60\n        /* \"#utility.yul\":3774:3783   */\n      dup5\n        /* \"#utility.yul\":3765:3772   */\n      dup7\n        /* \"#utility.yul\":3761:3784   */\n      sub\n        /* \"#utility.yul\":3757:3789   */\n      slt\n        /* \"#utility.yul\":3754:3873   */\n      iszero\n      tag_135\n      jumpi\n        /* \"#utility.yul\":3792:3871   */\n      tag_136\n      tag_73\n      jump\t// in\n    tag_136:\n        /* \"#utility.yul\":3754:3873   */\n    tag_135:\n        /* \"#utility.yul\":3912:3913   */\n      0x00\n        /* \"#utility.yul\":3937:3990   */\n      tag_137\n        /* \"#utility.yul\":3982:3989   */\n      dup7\n        /* \"#utility.yul\":3973:3979   */\n      dup3\n        /* \"#utility.yul\":3962:3971   */\n      dup8\n        /* \"#utility.yul\":3958:3980   */\n      add\n        /* \"#utility.yul\":3937:3990   */\n      tag_77\n      jump\t// in\n    tag_137:\n        /* \"#utility.yul\":3927:3990   */\n      swap4\n      pop\n        /* \"#utility.yul\":3883:4000   */\n      pop\n        /* \"#utility.yul\":4039:4041   */\n      0x20\n        /* \"#utility.yul\":4065:4118   */\n      tag_138\n        /* \"#utility.yul\":4110:4117   */\n      dup7\n        /* \"#utility.yul\":4101:4107   */\n      dup3\n        /* \"#utility.yul\":4090:4099   */\n      dup8\n        /* \"#utility.yul\":4086:4108   */\n      add\n        /* \"#utility.yul\":4065:4118   */\n      tag_82\n      jump\t// in\n    tag_138:\n        /* \"#utility.yul\":4055:4118   */\n      swap3\n      pop\n        /* \"#utility.yul\":4010:4128   */\n      pop\n        /* \"#utility.yul\":4167:4169   */\n      0x40\n        /* \"#utility.yul\":4193:4246   */\n      tag_139\n        /* \"#utility.yul\":4238:4245   */\n      dup7\n        /* \"#utility.yul\":4229:4235   */\n      dup3\n        /* \"#utility.yul\":4218:4227   */\n      dup8\n        /* \"#utility.yul\":4214:4236   */\n      add\n        /* \"#utility.yul\":4193:4246   */\n      tag_77\n      jump\t// in\n    tag_139:\n        /* \"#utility.yul\":4183:4246   */\n      swap2\n      pop\n        /* \"#utility.yul\":4138:4256   */\n      pop\n        /* \"#utility.yul\":3644:4263   */\n      swap3\n      pop\n      swap3\n      pop\n      swap3\n      jump\t// out\n        /* \"#utility.yul\":4269:4449   */\n    tag_39:\n        /* \"#utility.yul\":4317:4394   */\n      0x4e487b7100000000000000000000000000000000000000000000000000000000\n        /* \"#utility.yul\":4314:4315   */\n      0x00\n        /* \"#utility.yul\":4307:4395   */\n      mstore\n        /* \"#utility.yul\":4414:4418   */\n      0x32\n        /* \"#utility.yul\":4411:4412   */\n      0x04\n        /* \"#utility.yul\":4404:4419   */\n      mstore\n        /* \"#utility.yul\":4438:4442   */\n      0x24\n        /* \"#utility.yul\":4435:4436   */\n      0x00\n        /* \"#utility.yul\":4428:4443   */\n      revert\n        /* \"#utility.yul\":4455:4624   */\n    tag_84:\n        /* \"#utility.yul\":4539:4550   */\n      0x00\n        /* \"#utility.yul\":4573:4579   */\n      dup3\n        /* \"#utility.yul\":4568:4571   */\n      dup3\n        /* \"#utility.yul\":4561:4580   */\n      mstore\n        /* \"#utility.yul\":4613:4617   */\n      0x20\n        /* \"#utility.yul\":4608:4611   */\n      dup3\n        /* \"#utility.yul\":4604:4618   */\n      add\n        /* \"#utility.yul\":4589:4618   */\n      swap1\n      pop\n        /* \"#utility.yul\":4455:4624   */\n      swap3\n      swap2\n      pop\n      pop\n      jump\t// out\n        /* \"#utility.yul\":4630:4789   */\n    tag_85:\n        /* \"#utility.yul\":4770:4781   */\n      0x4e6f74206f776e65720000000000000000000000000000000000000000000000\n        /* \"#utility.yul\":4766:4767   */\n      0x00\n        /* \"#utility.yul\":4758:4764   */\n      dup3\n        /* \"#utility.yul\":4754:4768   */\n      add\n        /* \"#utility.yul\":4747:4782   */\n      mstore\n        /* \"#utility.yul\":4630:4789   */\n      pop\n      jump\t// out\n        /* \"#utility.yul\":4795:5160   */\n    tag_86:\n        /* \"#utility.yul\":4937:4940   */\n      0x00\n        /* \"#utility.yul\":4958:5024   */\n      tag_144\n        /* \"#utility.yul\":5022:5023   */\n      0x09\n        /* \"#utility.yul\":5017:5020   */\n      dup4\n        /* \"#utility.yul\":4958:5024   */\n      tag_84\n      jump\t// in\n    tag_144:\n        /* \"#utility.yul\":4951:5024   */\n      swap2\n      pop\n        /* \"#utility.yul\":5033:5126   */\n      tag_145\n        /* \"#utility.yul\":5122:5125   */\n      dup3\n        /* \"#utility.yul\":5033:5126   */\n      tag_85\n      jump\t// in\n    tag_145:\n        /* \"#utility.yul\":5151:5153   */\n      0x20\n        /* \"#utility.yul\":5146:5149   */\n      dup3\n        /* \"#utility.yul\":5142:5154   */\n      add\n        /* \"#utility.yul\":5135:5154   */\n      swap1\n      pop\n        /* \"#utility.yul\":4795:5160   */\n      swap2\n      swap1\n      pop\n      jump\t// out\n        /* \"#utility.yul\":5166:5585   */\n    tag_44:\n        /* \"#utility.yul\":5332:5336   */\n      0x00\n        /* \"#utility.yul\":5370:5372   */\n      0x20\n        /* \"#utility.yul\":5359:5368   */\n      dup3\n        /* \"#utility.yul\":5355:5373   */\n      add\n        /* \"#utility.yul\":5347:5373   */\n      swap1\n      pop\n        /* \"#utility.yul\":5419:5428   */\n      dup2\n        /* \"#utility.yul\":5413:5417   */\n      dup2\n        /* \"#utility.yul\":5409:5429   */\n      sub\n        /* \"#utility.yul\":5405:5406   */\n      0x00\n        /* \"#utility.yul\":5394:5403   */\n      dup4\n        /* \"#utility.yul\":5390:5407   */\n      add\n        /* \"#utility.yul\":5383:5430   */\n      mstore\n        /* \"#utility.yul\":5447:5578   */\n      tag_147\n        /* \"#utility.yul\":5573:5577   */\n      dup2\n        /* \"#utility.yul\":5447:5578   */\n      tag_86\n      jump\t// in\n    tag_147:\n        /* \"#utility.yul\":5439:5578   */\n      swap1\n      pop\n        /* \"#utility.yul\":5166:5585   */\n      swap2\n      swap1\n      pop\n      jump\t// out\n        /* \"#utility.yul\":5591:5757   */\n    tag_87:\n        /* \"#utility.yul\":5731:5749   */\n      0x496e7375666669656e742066756e647300000000000000000000000000000000\n        /* \"#utility.yul\":5727:5728   */\n      0x00\n        /* \"#utility.yul\":5719:5725   */\n      dup3\n        /* \"#utility.yul\":5715:5729   */\n      add\n        /* \"#utility.yul\":5708:5750   */\n      mstore\n        /* \"#utility.yul\":5591:5757   */\n      pop\n      jump\t// out\n        /* \"#utility.yul\":5763:6129   */\n    tag_88:\n        /* \"#utility.yul\":5905:5908   */\n      0x00\n        /* \"#utility.yul\":5926:5993   */\n      tag_150\n        /* \"#utility.yul\":5990:5992   */\n      0x10\n        /* \"#utility.yul\":5985:5988   */\n      dup4\n        /* \"#utility.yul\":5926:5993   */\n      tag_84\n      jump\t// in\n    tag_150:\n        /* \"#utility.yul\":5919:5993   */\n      swap2\n      pop\n        /* \"#utility.yul\":6002:6095   */\n      tag_151\n        /* \"#utility.yul\":6091:6094   */\n      dup3\n        /* \"#utility.yul\":6002:6095   */\n      tag_87\n      jump\t// in\n    tag_151:\n        /* \"#utility.yul\":6120:6122   */\n      0x20\n        /* \"#utility.yul\":6115:6118   */\n      dup3\n        /* \"#utility.yul\":6111:6123   */\n      add\n        /* \"#utility.yul\":6104:6123   */\n      swap1\n      pop\n        /* \"#utility.yul\":5763:6129   */\n      swap2\n      swap1\n      pop\n      jump\t// out\n        /* \"#utility.yul\":6135:6554   */\n    tag_51:\n        /* \"#utility.yul\":6301:6305   */\n      0x00\n        /* \"#utility.yul\":6339:6341   */\n      0x20\n        /* \"#utility.yul\":6328:6337   */\n      dup3\n        /* \"#utility.yul\":6324:6342   */\n      add\n        /* \"#utility.yul\":6316:6342   */\n      swap1\n      pop\n        /* \"#utility.yul\":6388:6397   */\n      dup2\n        /* \"#utility.yul\":6382:6386   */\n      dup2\n        /* \"#utility.yul\":6378:6398   */\n      sub\n        /* \"#utility.yul\":6374:6375   */\n      0x00\n        /* \"#utility.yul\":6363:6372   */\n      dup4\n        /* \"#utility.yul\":6359:6376   */\n      add\n        /* \"#utility.yul\":6352:6399   */\n      mstore\n        /* \"#utility.yul\":6416:6547   */\n      tag_153\n        /* \"#utility.yul\":6542:6546   */\n      dup2\n        /* \"#utility.yul\":6416:6547   */\n      tag_88\n      jump\t// in\n    tag_153:\n        /* \"#utility.yul\":6408:6547   */\n      swap1\n      pop\n        /* \"#utility.yul\":6135:6554   */\n      swap2\n      swap1\n      pop\n      jump\t// out\n        /* \"#utility.yul\":6560:6740   */\n    tag_89:\n        /* \"#utility.yul\":6608:6685   */\n      0x4e487b7100000000000000000000000000000000000000000000000000000000\n        /* \"#utility.yul\":6605:6606   */\n      0x00\n        /* \"#utility.yul\":6598:6686   */\n      mstore\n        /* \"#utility.yul\":6705:6709   */\n      0x11\n        /* \"#utility.yul\":6702:6703   */\n      0x04\n        /* \"#utility.yul\":6695:6710   */\n      mstore\n        /* \"#utility.yul\":6729:6733   */\n      0x24\n        /* \"#utility.yul\":6726:6727   */\n      0x00\n        /* \"#utility.yul\":6719:6734   */\n      revert\n        /* \"#utility.yul\":6746:6940   */\n    tag_56:\n        /* \"#utility.yul\":6786:6790   */\n      0x00\n        /* \"#utility.yul\":6806:6826   */\n      tag_156\n        /* \"#utility.yul\":6824:6825   */\n      dup3\n        /* \"#utility.yul\":6806:6826   */\n      tag_75\n      jump\t// in\n    tag_156:\n        /* \"#utility.yul\":6801:6826   */\n      swap2\n      pop\n        /* \"#utility.yul\":6840:6860   */\n      tag_157\n        /* \"#utility.yul\":6858:6859   */\n      dup4\n        /* \"#utility.yul\":6840:6860   */\n      tag_75\n      jump\t// in\n    tag_157:\n        /* \"#utility.yul\":6835:6860   */\n      swap3\n      pop\n        /* \"#utility.yul\":6884:6885   */\n      dup3\n        /* \"#utility.yul\":6881:6882   */\n      dup3\n        /* \"#utility.yul\":6877:6886   */\n      sub\n        /* \"#utility.yul\":6869:6886   */\n      swap1\n      pop\n        /* \"#utility.yul\":6908:6909   */\n      dup2\n        /* \"#utility.yul\":6902:6906   */\n      dup2\n        /* \"#utility.yul\":6899:6910   */\n      gt\n        /* \"#utility.yul\":6896:6933   */\n      iszero\n      tag_158\n      jumpi\n        /* \"#utility.yul\":6913:6931   */\n      tag_159\n      tag_89\n      jump\t// in\n    tag_159:\n        /* \"#utility.yul\":6896:6933   */\n    tag_158:\n        /* \"#utility.yul\":6746:6940   */\n      swap3\n      swap2\n      pop\n      pop\n      jump\t// out\n        /* \"#utility.yul\":6946:7137   */\n    tag_67:\n        /* \"#utility.yul\":6986:6989   */\n      0x00\n        /* \"#utility.yul\":7005:7025   */\n      tag_161\n        /* \"#utility.yul\":7023:7024   */\n      dup3\n        /* \"#utility.yul\":7005:7025   */\n      tag_75\n      jump\t// in\n    tag_161:\n        /* \"#utility.yul\":7000:7025   */\n      swap2\n      pop\n        /* \"#utility.yul\":7039:7059   */\n      tag_162\n        /* \"#utility.yul\":7057:7058   */\n      dup4\n        /* \"#utility.yul\":7039:7059   */\n      tag_75\n      jump\t// in\n    tag_162:\n        /* \"#utility.yul\":7034:7059   */\n      swap3\n      pop\n        /* \"#utility.yul\":7082:7083   */\n      dup3\n        /* \"#utility.yul\":7079:7080   */\n      dup3\n        /* \"#utility.yul\":7075:7084   */\n      add\n        /* \"#utility.yul\":7068:7084   */\n      swap1\n      pop\n        /* \"#utility.yul\":7103:7106   */\n      dup1\n        /* \"#utility.yul\":7100:7101   */\n      dup3\n        /* \"#utility.yul\":7097:7107   */\n      gt\n        /* \"#utility.yul\":7094:7130   */\n      iszero\n      tag_163\n      jumpi\n        /* \"#utility.yul\":7110:7128   */\n      tag_164\n      tag_89\n      jump\t// in\n    tag_164:\n        /* \"#utility.yul\":7094:7130   */\n    tag_163:\n        /* \"#utility.yul\":6946:7137   */\n      swap3\n      swap2\n      pop\n      pop\n      jump\t// out\n\n    auxdata: 0xa2646970667358221220513638c37d28231833f0542818ae7ebd070a2a262c492c38016c2825314ea9da64736f6c634300081a0033\n}\n",
				"bytecode": {
					"linkReferences": {},
					"object": "6080604052348015600e575f80fd5b503373ffffffffffffffffffffffffffffffffffffffff1660015f9054906101000a90505050610940806100415f395ff3fe608060405234801561000f575f80fd5b5060043610610060575f3560e01c80631e01043914610064578063441a3e701461009457806387524581146100b05780638da5cb5b146100e2578063e2bbb15814610100578063f8548e361461011c575b5f80fd5b61007e60048036038101906100799190610594565b610138565b60405161008b91906105ce565b60405180910390f35b6100ae60048036038101906100a991906105e7565b61019d565b005b6100ca60048036038101906100c5919061067f565b610341565b6040516100d9939291906106cc565b60405180910390f35b6100ea61039f565b6040516100f79190610701565b60405180910390f35b61011a600480360381019061011591906105e7565b6103c4565b005b6101366004803603810190610131919061071a565b6104c9565b005b5f805f3373ffffffffffffffffffffffffffffffffffffffff1673ffffffffffffffffffffffffffffffffffffffff1681526020019081526020015f2082815481106101875761018661076a565b5b905f5260205f2090600302015f01549050919050565b60015f9054906101000a900473ffffffffffffffffffffffffffffffffffffffff1673ffffffffffffffffffffffffffffffffffffffff163373ffffffffffffffffffffffffffffffffffffffff161461022c576040517f08c379a0000000000000000000000000000000000000000000000000000000008152600401610223906107f1565b60405180910390fd5b805f803373ffffffffffffffffffffffffffffffffffffffff1673ffffffffffffffffffffffffffffffffffffffff1681526020019081526020015f20838154811061027b5761027a61076a565b5b905f5260205f2090600302015f015410156102cb576040517f08c379a00000000000000000000000000000000000000000000000000000000081526004016102c290610859565b60405180910390fd5b805f803373ffffffffffffffffffffffffffffffffffffffff1673ffffffffffffffffffffffffffffffffffffffff1681526020019081526020015f20838154811061031a5761031961076a565b5b905f5260205f2090600302015f015f82825461033691906108a4565b925050819055505050565b5f602052815f5260405f208181548110610359575f80fd5b905f5260205f2090600302015f9150915050805f015490806001015490806002015f9054906101000a900473ffffffffffffffffffffffffffffffffffffffff16905083565b60015f9054906101000a900473ffffffffffffffffffffffffffffffffffffffff1681565b60015f9054906101000a900473ffffffffffffffffffffffffffffffffffffffff1673ffffffffffffffffffffffffffffffffffffffff163373ffffffffffffffffffffffffffffffffffffffff1614610453576040517f08c379a000000000000000000000000000000000000000000000000000000000815260040161044a906107f1565b60405180910390fd5b805f803373ffffffffffffffffffffffffffffffffffffffff1673ffffffffffffffffffffffffffffffffffffffff1681526020019081526020015f2083815481106104a2576104a161076a565b5b905f5260205f2090600302015f015f8282546104be91906108d7565b925050819055505050565b60015f9054906101000a900473ffffffffffffffffffffffffffffffffffffffff1673ffffffffffffffffffffffffffffffffffffffff163373ffffffffffffffffffffffffffffffffffffffff1614610558576040517f08c379a000000000000000000000000000000000000000000000000000000000815260040161054f906107f1565b60405180910390fd5b505050565b5f80fd5b5f819050919050565b61057381610561565b811461057d575f80fd5b50565b5f8135905061058e8161056a565b92915050565b5f602082840312156105a9576105a861055d565b5b5f6105b684828501610580565b91505092915050565b6105c881610561565b82525050565b5f6020820190506105e15f8301846105bf565b92915050565b5f80604083850312156105fd576105fc61055d565b5b5f61060a85828601610580565b925050602061061b85828601610580565b9150509250929050565b5f73ffffffffffffffffffffffffffffffffffffffff82169050919050565b5f61064e82610625565b9050919050565b61065e81610644565b8114610668575f80fd5b50565b5f8135905061067981610655565b92915050565b5f80604083850312156106955761069461055d565b5b5f6106a28582860161066b565b92505060206106b385828601610580565b9150509250929050565b6106c681610644565b82525050565b5f6060820190506106df5f8301866105bf565b6106ec60208301856105bf565b6106f960408301846106bd565b949350505050565b5f6020820190506107145f8301846106bd565b92915050565b5f805f606084860312156107315761073061055d565b5b5f61073e86828701610580565b935050602061074f8682870161066b565b925050604061076086828701610580565b9150509250925092565b7f4e487b71000000000000000000000000000000000000000000000000000000005f52603260045260245ffd5b5f82825260208201905092915050565b7f4e6f74206f776e657200000000000000000000000000000000000000000000005f82015250565b5f6107db600983610797565b91506107e6826107a7565b602082019050919050565b5f6020820190508181035f830152610808816107cf565b9050919050565b7f496e7375666669656e742066756e6473000000000000000000000000000000005f82015250565b5f610843601083610797565b915061084e8261080f565b602082019050919050565b5f6020820190508181035f83015261087081610837565b9050919050565b7f4e487b71000000000000000000000000000000000000000000000000000000005f52601160045260245ffd5b5f6108ae82610561565b91506108b983610561565b92508282039050818111156108d1576108d0610877565b5b92915050565b5f6108e182610561565b91506108ec83610561565b925082820190508082111561090457610903610877565b5b9291505056fea2646970667358221220513638c37d28231833f0542818ae7ebd070a2a262c492c38016c2825314ea9da64736f6c634300081a0033",
					"opcodes": "PUSH1 0x80 PUSH1 0x40 MSTORE CALLVALUE DUP1 ISZERO PUSH1 0xE JUMPI PUSH0 DUP1 REVERT JUMPDEST POP CALLER PUSH20 0xFFFFFFFFFFFFFFFFFFFFFFFFFFFFFFFFFFFFFFFF AND PUSH1 0x1 PUSH0 SWAP1 SLOAD SWAP1 PUSH2 0x100 EXP SWAP1 POP POP POP PUSH2 0x940 DUP1 PUSH2 0x41 PUSH0 CODECOPY PUSH0 RETURN INVALID PUSH1 0x80 PUSH1 0x40 MSTORE CALLVALUE DUP1 ISZERO PUSH2 0xF JUMPI PUSH0 DUP1 REVERT JUMPDEST POP PUSH1 0x4 CALLDATASIZE LT PUSH2 0x60 JUMPI PUSH0 CALLDATALOAD PUSH1 0xE0 SHR DUP1 PUSH4 0x1E010439 EQ PUSH2 0x64 JUMPI DUP1 PUSH4 0x441A3E70 EQ PUSH2 0x94 JUMPI DUP1 PUSH4 0x87524581 EQ PUSH2 0xB0 JUMPI DUP1 PUSH4 0x8DA5CB5B EQ PUSH2 0xE2 JUMPI DUP1 PUSH4 0xE2BBB158 EQ PUSH2 0x100 JUMPI DUP1 PUSH4 0xF8548E36 EQ PUSH2 0x11C JUMPI JUMPDEST PUSH0 DUP1 REVERT JUMPDEST PUSH2 0x7E PUSH1 0x4 DUP1 CALLDATASIZE SUB DUP2 ADD SWAP1 PUSH2 0x79 SWAP2 SWAP1 PUSH2 0x594 JUMP JUMPDEST PUSH2 0x138 JUMP JUMPDEST PUSH1 0x40 MLOAD PUSH2 0x8B SWAP2 SWAP1 PUSH2 0x5CE JUMP JUMPDEST PUSH1 0x40 MLOAD DUP1 SWAP2 SUB SWAP1 RETURN JUMPDEST PUSH2 0xAE PUSH1 0x4 DUP1 CALLDATASIZE SUB DUP2 ADD SWAP1 PUSH2 0xA9 SWAP2 SWAP1 PUSH2 0x5E7 JUMP JUMPDEST PUSH2 0x19D JUMP JUMPDEST STOP JUMPDEST PUSH2 0xCA PUSH1 0x4 DUP1 CALLDATASIZE SUB DUP2 ADD SWAP1 PUSH2 0xC5 SWAP2 SWAP1 PUSH2 0x67F JUMP JUMPDEST PUSH2 0x341 JUMP JUMPDEST PUSH1 0x40 MLOAD PUSH2 0xD9 SWAP4 SWAP3 SWAP2 SWAP1 PUSH2 0x6CC JUMP JUMPDEST PUSH1 0x40 MLOAD DUP1 SWAP2 SUB SWAP1 RETURN JUMPDEST PUSH2 0xEA PUSH2 0x39F JUMP JUMPDEST PUSH1 0x40 MLOAD PUSH2 0xF7 SWAP2 SWAP1 PUSH2 0x701 JUMP JUMPDEST PUSH1 0x40 MLOAD DUP1 SWAP2 SUB SWAP1 RETURN JUMPDEST PUSH2 0x11A PUSH1 0x4 DUP1 CALLDATASIZE SUB DUP2 ADD SWAP1 PUSH2 0x115 SWAP2 SWAP1 PUSH2 0x5E7 JUMP JUMPDEST PUSH2 0x3C4 JUMP JUMPDEST STOP JUMPDEST PUSH2 0x136 PUSH1 0x4 DUP1 CALLDATASIZE SUB DUP2 ADD SWAP1 PUSH2 0x131 SWAP2 SWAP1 PUSH2 0x71A JUMP JUMPDEST PUSH2 0x4C9 JUMP JUMPDEST STOP JUMPDEST PUSH0 DUP1 PUSH0 CALLER PUSH20 0xFFFFFFFFFFFFFFFFFFFFFFFFFFFFFFFFFFFFFFFF AND PUSH20 0xFFFFFFFFFFFFFFFFFFFFFFFFFFFFFFFFFFFFFFFF AND DUP2 MSTORE PUSH1 0x20 ADD SWAP1 DUP2 MSTORE PUSH1 0x20 ADD PUSH0 KECCAK256 DUP3 DUP2 SLOAD DUP2 LT PUSH2 0x187 JUMPI PUSH2 0x186 PUSH2 0x76A JUMP JUMPDEST JUMPDEST SWAP1 PUSH0 MSTORE PUSH1 0x20 PUSH0 KECCAK256 SWAP1 PUSH1 0x3 MUL ADD PUSH0 ADD SLOAD SWAP1 POP SWAP2 SWAP1 POP JUMP JUMPDEST PUSH1 0x1 PUSH0 SWAP1 SLOAD SWAP1 PUSH2 0x100 EXP SWAP1 DIV PUSH20 0xFFFFFFFFFFFFFFFFFFFFFFFFFFFFFFFFFFFFFFFF AND PUSH20 0xFFFFFFFFFFFFFFFFFFFFFFFFFFFFFFFFFFFFFFFF AND CALLER PUSH20 0xFFFFFFFFFFFFFFFFFFFFFFFFFFFFFFFFFFFFFFFF AND EQ PUSH2 0x22C JUMPI PUSH1 0x40 MLOAD PUSH32 0x8C379A000000000000000000000000000000000000000000000000000000000 DUP2 MSTORE PUSH1 0x4 ADD PUSH2 0x223 SWAP1 PUSH2 0x7F1 JUMP JUMPDEST PUSH1 0x40 MLOAD DUP1 SWAP2 SUB SWAP1 REVERT JUMPDEST DUP1 PUSH0 DUP1 CALLER PUSH20 0xFFFFFFFFFFFFFFFFFFFFFFFFFFFFFFFFFFFFFFFF AND PUSH20 0xFFFFFFFFFFFFFFFFFFFFFFFFFFFFFFFFFFFFFFFF AND DUP2 MSTORE PUSH1 0x20 ADD SWAP1 DUP2 MSTORE PUSH1 0x20 ADD PUSH0 KECCAK256 DUP4 DUP2 SLOAD DUP2 LT PUSH2 0x27B JUMPI PUSH2 0x27A PUSH2 0x76A JUMP JUMPDEST JUMPDEST SWAP1 PUSH0 MSTORE PUSH1 0x20 PUSH0 KECCAK256 SWAP1 PUSH1 0x3 MUL ADD PUSH0 ADD SLOAD LT ISZERO PUSH2 0x2CB JUMPI PUSH1 0x40 MLOAD PUSH32 0x8C379A000000000000000000000000000000000000000000000000000000000 DUP2 MSTORE PUSH1 0x4 ADD PUSH2 0x2C2 SWAP1 PUSH2 0x859 JUMP JUMPDEST PUSH1 0x40 MLOAD DUP1 SWAP2 SUB SWAP1 REVERT JUMPDEST DUP1 PUSH0 DUP1 CALLER PUSH20 0xFFFFFFFFFFFFFFFFFFFFFFFFFFFFFFFFFFFFFFFF AND PUSH20 0xFFFFFFFFFFFFFFFFFFFFFFFFFFFFFFFFFFFFFFFF AND DUP2 MSTORE PUSH1 0x20 ADD SWAP1 DUP2 MSTORE PUSH1 0x20 ADD PUSH0 KECCAK256 DUP4 DUP2 SLOAD DUP2 LT PUSH2 0x31A JUMPI PUSH2 0x319 PUSH2 0x76A JUMP JUMPDEST JUMPDEST SWAP1 PUSH0 MSTORE PUSH1 0x20 PUSH0 KECCAK256 SWAP1 PUSH1 0x3 MUL ADD PUSH0 ADD PUSH0 DUP3 DUP3 SLOAD PUSH2 0x336 SWAP2 SWAP1 PUSH2 0x8A4 JUMP JUMPDEST SWAP3 POP POP DUP2 SWAP1 SSTORE POP POP POP JUMP JUMPDEST PUSH0 PUSH1 0x20 MSTORE DUP2 PUSH0 MSTORE PUSH1 0x40 PUSH0 KECCAK256 DUP2 DUP2 SLOAD DUP2 LT PUSH2 0x359 JUMPI PUSH0 DUP1 REVERT JUMPDEST SWAP1 PUSH0 MSTORE PUSH1 0x20 PUSH0 KECCAK256 SWAP1 PUSH1 0x3 MUL ADD PUSH0 SWAP2 POP SWAP2 POP POP DUP1 PUSH0 ADD SLOAD SWAP1 DUP1 PUSH1 0x1 ADD SLOAD SWAP1 DUP1 PUSH1 0x2 ADD PUSH0 SWAP1 SLOAD SWAP1 PUSH2 0x100 EXP SWAP1 DIV PUSH20 0xFFFFFFFFFFFFFFFFFFFFFFFFFFFFFFFFFFFFFFFF AND SWAP1 POP DUP4 JUMP JUMPDEST PUSH1 0x1 PUSH0 SWAP1 SLOAD SWAP1 PUSH2 0x100 EXP SWAP1 DIV PUSH20 0xFFFFFFFFFFFFFFFFFFFFFFFFFFFFFFFFFFFFFFFF AND DUP2 JUMP JUMPDEST PUSH1 0x1 PUSH0 SWAP1 SLOAD SWAP1 PUSH2 0x100 EXP SWAP1 DIV PUSH20 0xFFFFFFFFFFFFFFFFFFFFFFFFFFFFFFFFFFFFFFFF AND PUSH20 0xFFFFFFFFFFFFFFFFFFFFFFFFFFFFFFFFFFFFFFFF AND CALLER PUSH20 0xFFFFFFFFFFFFFFFFFFFFFFFFFFFFFFFFFFFFFFFF AND EQ PUSH2 0x453 JUMPI PUSH1 0x40 MLOAD PUSH32 0x8C379A000000000000000000000000000000000000000000000000000000000 DUP2 MSTORE PUSH1 0x4 ADD PUSH2 0x44A SWAP1 PUSH2 0x7F1 JUMP JUMPDEST PUSH1 0x40 MLOAD DUP1 SWAP2 SUB SWAP1 REVERT JUMPDEST DUP1 PUSH0 DUP1 CALLER PUSH20 0xFFFFFFFFFFFFFFFFFFFFFFFFFFFFFFFFFFFFFFFF AND PUSH20 0xFFFFFFFFFFFFFFFFFFFFFFFFFFFFFFFFFFFFFFFF AND DUP2 MSTORE PUSH1 0x20 ADD SWAP1 DUP2 MSTORE PUSH1 0x20 ADD PUSH0 KECCAK256 DUP4 DUP2 SLOAD DUP2 LT PUSH2 0x4A2 JUMPI PUSH2 0x4A1 PUSH2 0x76A JUMP JUMPDEST JUMPDEST SWAP1 PUSH0 MSTORE PUSH1 0x20 PUSH0 KECCAK256 SWAP1 PUSH1 0x3 MUL ADD PUSH0 ADD PUSH0 DUP3 DUP3 SLOAD PUSH2 0x4BE SWAP2 SWAP1 PUSH2 0x8D7 JUMP JUMPDEST SWAP3 POP POP DUP2 SWAP1 SSTORE POP POP POP JUMP JUMPDEST PUSH1 0x1 PUSH0 SWAP1 SLOAD SWAP1 PUSH2 0x100 EXP SWAP1 DIV PUSH20 0xFFFFFFFFFFFFFFFFFFFFFFFFFFFFFFFFFFFFFFFF AND PUSH20 0xFFFFFFFFFFFFFFFFFFFFFFFFFFFFFFFFFFFFFFFF AND CALLER PUSH20 0xFFFFFFFFFFFFFFFFFFFFFFFFFFFFFFFFFFFFFFFF AND EQ PUSH2 0x558 JUMPI PUSH1 0x40 MLOAD PUSH32 0x8C379A000000000000000000000000000000000000000000000000000000000 DUP2 MSTORE PUSH1 0x4 ADD PUSH2 0x54F SWAP1 PUSH2 0x7F1 JUMP JUMPDEST PUSH1 0x40 MLOAD DUP1 SWAP2 SUB SWAP1 REVERT JUMPDEST POP POP POP JUMP JUMPDEST PUSH0 DUP1 REVERT JUMPDEST PUSH0 DUP2 SWAP1 POP SWAP2 SWAP1 POP JUMP JUMPDEST PUSH2 0x573 DUP2 PUSH2 0x561 JUMP JUMPDEST DUP2 EQ PUSH2 0x57D JUMPI PUSH0 DUP1 REVERT JUMPDEST POP JUMP JUMPDEST PUSH0 DUP2 CALLDATALOAD SWAP1 POP PUSH2 0x58E DUP2 PUSH2 0x56A JUMP JUMPDEST SWAP3 SWAP2 POP POP JUMP JUMPDEST PUSH0 PUSH1 0x20 DUP3 DUP5 SUB SLT ISZERO PUSH2 0x5A9 JUMPI PUSH2 0x5A8 PUSH2 0x55D JUMP JUMPDEST JUMPDEST PUSH0 PUSH2 0x5B6 DUP5 DUP3 DUP6 ADD PUSH2 0x580 JUMP JUMPDEST SWAP2 POP POP SWAP3 SWAP2 POP POP JUMP JUMPDEST PUSH2 0x5C8 DUP2 PUSH2 0x561 JUMP JUMPDEST DUP3 MSTORE POP POP JUMP JUMPDEST PUSH0 PUSH1 0x20 DUP3 ADD SWAP1 POP PUSH2 0x5E1 PUSH0 DUP4 ADD DUP5 PUSH2 0x5BF JUMP JUMPDEST SWAP3 SWAP2 POP POP JUMP JUMPDEST PUSH0 DUP1 PUSH1 0x40 DUP4 DUP6 SUB SLT ISZERO PUSH2 0x5FD JUMPI PUSH2 0x5FC PUSH2 0x55D JUMP JUMPDEST JUMPDEST PUSH0 PUSH2 0x60A DUP6 DUP3 DUP7 ADD PUSH2 0x580 JUMP JUMPDEST SWAP3 POP POP PUSH1 0x20 PUSH2 0x61B DUP6 DUP3 DUP7 ADD PUSH2 0x580 JUMP JUMPDEST SWAP2 POP POP SWAP3 POP SWAP3 SWAP1 POP JUMP JUMPDEST PUSH0 PUSH20 0xFFFFFFFFFFFFFFFFFFFFFFFFFFFFFFFFFFFFFFFF DUP3 AND SWAP1 POP SWAP2 SWAP1 POP JUMP JUMPDEST PUSH0 PUSH2 0x64E DUP3 PUSH2 0x625 JUMP JUMPDEST SWAP1 POP SWAP2 SWAP1 POP JUMP JUMPDEST PUSH2 0x65E DUP2 PUSH2 0x644 JUMP JUMPDEST DUP2 EQ PUSH2 0x668 JUMPI PUSH0 DUP1 REVERT JUMPDEST POP JUMP JUMPDEST PUSH0 DUP2 CALLDATALOAD SWAP1 POP PUSH2 0x679 DUP2 PUSH2 0x655 JUMP JUMPDEST SWAP3 SWAP2 POP POP JUMP JUMPDEST PUSH0 DUP1 PUSH1 0x40 DUP4 DUP6 SUB SLT ISZERO PUSH2 0x695 JUMPI PUSH2 0x694 PUSH2 0x55D JUMP JUMPDEST JUMPDEST PUSH0 PUSH2 0x6A2 DUP6 DUP3 DUP7 ADD PUSH2 0x66B JUMP JUMPDEST SWAP3 POP POP PUSH1 0x20 PUSH2 0x6B3 DUP6 DUP3 DUP7 ADD PUSH2 0x580 JUMP JUMPDEST SWAP2 POP POP SWAP3 POP SWAP3 SWAP1 POP JUMP JUMPDEST PUSH2 0x6C6 DUP2 PUSH2 0x644 JUMP JUMPDEST DUP3 MSTORE POP POP JUMP JUMPDEST PUSH0 PUSH1 0x60 DUP3 ADD SWAP1 POP PUSH2 0x6DF PUSH0 DUP4 ADD DUP7 PUSH2 0x5BF JUMP JUMPDEST PUSH2 0x6EC PUSH1 0x20 DUP4 ADD DUP6 PUSH2 0x5BF JUMP JUMPDEST PUSH2 0x6F9 PUSH1 0x40 DUP4 ADD DUP5 PUSH2 0x6BD JUMP JUMPDEST SWAP5 SWAP4 POP POP POP POP JUMP JUMPDEST PUSH0 PUSH1 0x20 DUP3 ADD SWAP1 POP PUSH2 0x714 PUSH0 DUP4 ADD DUP5 PUSH2 0x6BD JUMP JUMPDEST SWAP3 SWAP2 POP POP JUMP JUMPDEST PUSH0 DUP1 PUSH0 PUSH1 0x60 DUP5 DUP7 SUB SLT ISZERO PUSH2 0x731 JUMPI PUSH2 0x730 PUSH2 0x55D JUMP JUMPDEST JUMPDEST PUSH0 PUSH2 0x73E DUP7 DUP3 DUP8 ADD PUSH2 0x580 JUMP JUMPDEST SWAP4 POP POP PUSH1 0x20 PUSH2 0x74F DUP7 DUP3 DUP8 ADD PUSH2 0x66B JUMP JUMPDEST SWAP3 POP POP PUSH1 0x40 PUSH2 0x760 DUP7 DUP3 DUP8 ADD PUSH2 0x580 JUMP JUMPDEST SWAP2 POP POP SWAP3 POP SWAP3 POP SWAP3 JUMP JUMPDEST PUSH32 0x4E487B7100000000000000000000000000000000000000000000000000000000 PUSH0 MSTORE PUSH1 0x32 PUSH1 0x4 MSTORE PUSH1 0x24 PUSH0 REVERT JUMPDEST PUSH0 DUP3 DUP3 MSTORE PUSH1 0x20 DUP3 ADD SWAP1 POP SWAP3 SWAP2 POP POP JUMP JUMPDEST PUSH32 0x4E6F74206F776E65720000000000000000000000000000000000000000000000 PUSH0 DUP3 ADD MSTORE POP JUMP JUMPDEST PUSH0 PUSH2 0x7DB PUSH1 0x9 DUP4 PUSH2 0x797 JUMP JUMPDEST SWAP2 POP PUSH2 0x7E6 DUP3 PUSH2 0x7A7 JUMP JUMPDEST PUSH1 0x20 DUP3 ADD SWAP1 POP SWAP2 SWAP1 POP JUMP JUMPDEST PUSH0 PUSH1 0x20 DUP3 ADD SWAP1 POP DUP2 DUP2 SUB PUSH0 DUP4 ADD MSTORE PUSH2 0x808 DUP2 PUSH2 0x7CF JUMP JUMPDEST SWAP1 POP SWAP2 SWAP1 POP JUMP JUMPDEST PUSH32 0x496E7375666669656E742066756E647300000000000000000000000000000000 PUSH0 DUP3 ADD MSTORE POP JUMP JUMPDEST PUSH0 PUSH2 0x843 PUSH1 0x10 DUP4 PUSH2 0x797 JUMP JUMPDEST SWAP2 POP PUSH2 0x84E DUP3 PUSH2 0x80F JUMP JUMPDEST PUSH1 0x20 DUP3 ADD SWAP1 POP SWAP2 SWAP1 POP JUMP JUMPDEST PUSH0 PUSH1 0x20 DUP3 ADD SWAP1 POP DUP2 DUP2 SUB PUSH0 DUP4 ADD MSTORE PUSH2 0x870 DUP2 PUSH2 0x837 JUMP JUMPDEST SWAP1 POP SWAP2 SWAP1 POP JUMP JUMPDEST PUSH32 0x4E487B7100000000000000000000000000000000000000000000000000000000 PUSH0 MSTORE PUSH1 0x11 PUSH1 0x4 MSTORE PUSH1 0x24 PUSH0 REVERT JUMPDEST PUSH0 PUSH2 0x8AE DUP3 PUSH2 0x561 JUMP JUMPDEST SWAP2 POP PUSH2 0x8B9 DUP4 PUSH2 0x561 JUMP JUMPDEST SWAP3 POP DUP3 DUP3 SUB SWAP1 POP DUP2 DUP2 GT ISZERO PUSH2 0x8D1 JUMPI PUSH2 0x8D0 PUSH2 0x877 JUMP JUMPDEST JUMPDEST SWAP3 SWAP2 POP POP JUMP JUMPDEST PUSH0 PUSH2 0x8E1 DUP3 PUSH2 0x561 JUMP JUMPDEST SWAP2 POP PUSH2 0x8EC DUP4 PUSH2 0x561 JUMP JUMPDEST SWAP3 POP DUP3 DUP3 ADD SWAP1 POP DUP1 DUP3 GT ISZERO PUSH2 0x904 JUMPI PUSH2 0x903 PUSH2 0x877 JUMP JUMPDEST JUMPDEST SWAP3 SWAP2 POP POP JUMP INVALID LOG2 PUSH5 0x6970667358 0x22 SLT KECCAK256 MLOAD CALLDATASIZE CODESIZE 0xC3 PUSH30 0x28231833F0542818AE7EBD070A2A262C492C38016C2825314EA9DA64736F PUSH13 0x634300081A0033000000000000 "
				},
				"gasEstimates": {
					"creation": {
						"codeDepositCost": "473600",
						"executionCost": "2644",
						"totalCost": "476244"
					},
					"external": {
						"accounts(address,uint256)": "infinite",
						"deposit(uint256,uint256)": "infinite",
						"getBalance(uint256)": "infinite",
						"owner()": "2552",
						"transfer(uint256,address,uint256)": "infinite",
						"withdraw(uint256,uint256)": "infinite"
					}
				},
				"methodIdentifiers": {
					"accounts(address,uint256)": "87524581",
					"deposit(uint256,uint256)": "e2bbb158",
					"getBalance(uint256)": "1e010439",
					"owner()": "8da5cb5b",
					"transfer(uint256,address,uint256)": "f8548e36",
					"withdraw(uint256,uint256)": "441a3e70"
				}
			},
			"storageLayout": {
				"storage": [
					{
						"astId": 14,
						"contract": "contracts/Banking-transactions.sol:Transactions",
						"label": "accounts",
						"offset": 0,
						"slot": "0",
						"type": "t_mapping(t_address,t_array(t_struct(Account)8_storage)dyn_storage)"
					},
					{
						"astId": 16,
						"contract": "contracts/Banking-transactions.sol:Transactions",
						"label": "owner",
						"offset": 0,
						"slot": "1",
						"type": "t_address"
					}
				],
				"types": {
					"t_address": {
						"encoding": "inplace",
						"label": "address",
						"numberOfBytes": "20"
					},
					"t_array(t_struct(Account)8_storage)dyn_storage": {
						"base": "t_struct(Account)8_storage",
						"encoding": "dynamic_array",
						"label": "struct Transactions.Account[]",
						"numberOfBytes": "32"
					},
					"t_mapping(t_address,t_array(t_struct(Account)8_storage)dyn_storage)": {
						"encoding": "mapping",
						"key": "t_address",
						"label": "mapping(address => struct Transactions.Account[])",
						"numberOfBytes": "32",
						"value": "t_array(t_struct(Account)8_storage)dyn_storage"
					},
					"t_struct(Account)8_storage": {
						"encoding": "inplace",
						"label": "struct Transactions.Account",
						"members": [
							{
								"astId": 3,
								"contract": "contracts/Banking-transactions.sol:Transactions",
								"label": "balance",
								"offset": 0,
								"slot": "0",
								"type": "t_uint256"
							},
							{
								"astId": 5,
								"contract": "contracts/Banking-transactions.sol:Transactions",
								"label": "timestamp",
								"offset": 0,
								"slot": "1",
								"type": "t_uint256"
							},
							{
								"astId": 7,
								"contract": "contracts/Banking-transactions.sol:Transactions",
								"label": "id",
								"offset": 0,
								"slot": "2",
								"type": "t_address"
							}
						],
						"numberOfBytes": "96"
					},
					"t_uint256": {
						"encoding": "inplace",
						"label": "uint256",
						"numberOfBytes": "32"
					}
				}
			},
			"userdoc": {
				"kind": "user",
				"methods": {},
				"version": 1
			}
		}
	}
}