{
	"contracts/Banking_customer.sol": {
		"Profile": {
			"abi": [
				{
					"inputs": [
						{
							"internalType": "address",
							"name": "_user",
							"type": "address"
						}
					],
					"name": "getProfile",
					"outputs": [
						{
							"components": [
								{
									"internalType": "address",
									"name": "userAddress",
									"type": "address"
								},
								{
									"internalType": "string",
									"name": "username",
									"type": "string"
								},
								{
									"internalType": "uint256",
									"name": "balance",
									"type": "uint256"
								},
								{
									"internalType": "uint256",
									"name": "creationTimestamp",
									"type": "uint256"
								}
							],
							"internalType": "struct Profile.CustomerProfile",
							"name": "",
							"type": "tuple"
						}
					],
					"stateMutability": "view",
					"type": "function"
				},
				{
					"inputs": [
						{
							"internalType": "address",
							"name": "",
							"type": "address"
						}
					],
					"name": "profiles",
					"outputs": [
						{
							"internalType": "address",
							"name": "userAddress",
							"type": "address"
						},
						{
							"internalType": "string",
							"name": "username",
							"type": "string"
						},
						{
							"internalType": "uint256",
							"name": "balance",
							"type": "uint256"
						},
						{
							"internalType": "uint256",
							"name": "creationTimestamp",
							"type": "uint256"
						}
					],
					"stateMutability": "view",
					"type": "function"
				},
				{
					"inputs": [
						{
							"internalType": "address",
							"name": "_userAddress",
							"type": "address"
						},
						{
							"internalType": "string",
							"name": "_username",
							"type": "string"
						}
					],
					"name": "setProfile",
					"outputs": [],
					"stateMutability": "nonpayable",
					"type": "function"
				}
			],
			"devdoc": {
				"kind": "dev",
				"methods": {},
				"version": 1
			},
			"evm": {
				"assembly": "    /* \"contracts/Banking_customer.sol\":59:597  contract Profile {... */\n  mstore(0x40, 0x80)\n  callvalue\n  dup1\n  iszero\n  tag_1\n  jumpi\n  0x00\n  dup1\n  revert\ntag_1:\n  pop\n  dataSize(sub_0)\n  dup1\n  dataOffset(sub_0)\n  0x00\n  codecopy\n  0x00\n  return\nstop\n\nsub_0: assembly {\n        /* \"contracts/Banking_customer.sol\":59:597  contract Profile {... */\n      mstore(0x40, 0x80)\n      callvalue\n      dup1\n      iszero\n      tag_1\n      jumpi\n      0x00\n      dup1\n      revert\n    tag_1:\n      pop\n      jumpi(tag_2, lt(calldatasize, 0x04))\n      shr(0xe0, calldataload(0x00))\n      dup1\n      0x0f53a470\n      eq\n      tag_3\n      jumpi\n      dup1\n      0x598e62b0\n      eq\n      tag_4\n      jumpi\n      dup1\n      0xbbe15627\n      eq\n      tag_5\n      jumpi\n    tag_2:\n      0x00\n      dup1\n      revert\n        /* \"contracts/Banking_customer.sol\":476:595  function getProfile(address _user) public view returns (CustomerProfile memory) {... */\n    tag_3:\n      tag_6\n      0x04\n      dup1\n      calldatasize\n      sub\n      dup2\n      add\n      swap1\n      tag_7\n      swap2\n      swap1\n      tag_8\n      jump\t// in\n    tag_7:\n      tag_9\n      jump\t// in\n    tag_6:\n      mload(0x40)\n      tag_10\n      swap2\n      swap1\n      tag_11\n      jump\t// in\n    tag_10:\n      mload(0x40)\n      dup1\n      swap2\n      sub\n      swap1\n      return\n        /* \"contracts/Banking_customer.sol\":290:470  function setProfile(address _userAddress, string memory _username) public {... */\n    tag_4:\n      tag_12\n      0x04\n      dup1\n      calldatasize\n      sub\n      dup2\n      add\n      swap1\n      tag_13\n      swap2\n      swap1\n      tag_14\n      jump\t// in\n    tag_13:\n      tag_15\n      jump\t// in\n    tag_12:\n      stop\n        /* \"contracts/Banking_customer.sol\":232:283  mapping(address => CustomerProfile) public profiles */\n    tag_5:\n      tag_16\n      0x04\n      dup1\n      calldatasize\n      sub\n      dup2\n      add\n      swap1\n      tag_17\n      swap2\n      swap1\n      tag_8\n      jump\t// in\n    tag_17:\n      tag_18\n      jump\t// in\n    tag_16:\n      mload(0x40)\n      tag_19\n      swap5\n      swap4\n      swap3\n      swap2\n      swap1\n      tag_20\n      jump\t// in\n    tag_19:\n      mload(0x40)\n      dup1\n      swap2\n      sub\n      swap1\n      return\n        /* \"contracts/Banking_customer.sol\":476:595  function getProfile(address _user) public view returns (CustomerProfile memory) {... */\n    tag_9:\n        /* \"contracts/Banking_customer.sol\":532:554  CustomerProfile memory */\n      tag_21\n      tag_22\n      jump\t// in\n    tag_21:\n        /* \"contracts/Banking_customer.sol\":573:581  profiles */\n      0x00\n        /* \"contracts/Banking_customer.sol\":573:588  profiles[_user] */\n      dup1\n        /* \"contracts/Banking_customer.sol\":582:587  _user */\n      dup4\n        /* \"contracts/Banking_customer.sol\":573:588  profiles[_user] */\n      0xffffffffffffffffffffffffffffffffffffffff\n      and\n      0xffffffffffffffffffffffffffffffffffffffff\n      and\n      dup2\n      mstore\n      0x20\n      add\n      swap1\n      dup2\n      mstore\n      0x20\n      add\n      0x00\n      keccak256\n        /* \"contracts/Banking_customer.sol\":566:588  return profiles[_user] */\n      mload(0x40)\n      dup1\n      0x80\n      add\n      0x40\n      mstore\n      swap1\n      dup2\n      0x00\n      dup3\n      add\n      0x00\n      swap1\n      sload\n      swap1\n      0x0100\n      exp\n      swap1\n      div\n      0xffffffffffffffffffffffffffffffffffffffff\n      and\n      0xffffffffffffffffffffffffffffffffffffffff\n      and\n      0xffffffffffffffffffffffffffffffffffffffff\n      and\n      dup2\n      mstore\n      0x20\n      add\n      0x01\n      dup3\n      add\n      dup1\n      sload\n      tag_24\n      swap1\n      tag_25\n      jump\t// in\n    tag_24:\n      dup1\n      0x1f\n      add\n      0x20\n      dup1\n      swap2\n      div\n      mul\n      0x20\n      add\n      mload(0x40)\n      swap1\n      dup2\n      add\n      0x40\n      mstore\n      dup1\n      swap3\n      swap2\n      swap1\n      dup2\n      dup2\n      mstore\n      0x20\n      add\n      dup3\n      dup1\n      sload\n      tag_26\n      swap1\n      tag_25\n      jump\t// in\n    tag_26:\n      dup1\n      iszero\n      tag_27\n      jumpi\n      dup1\n      0x1f\n      lt\n      tag_28\n      jumpi\n      0x0100\n      dup1\n      dup4\n      sload\n      div\n      mul\n      dup4\n      mstore\n      swap2\n      0x20\n      add\n      swap2\n      jump(tag_27)\n    tag_28:\n      dup3\n      add\n      swap2\n      swap1\n      0x00\n      mstore\n      keccak256(0x00, 0x20)\n      swap1\n    tag_29:\n      dup2\n      sload\n      dup2\n      mstore\n      swap1\n      0x01\n      add\n      swap1\n      0x20\n      add\n      dup1\n      dup4\n      gt\n      tag_29\n      jumpi\n      dup3\n      swap1\n      sub\n      0x1f\n      and\n      dup3\n      add\n      swap2\n    tag_27:\n      pop\n      pop\n      pop\n      pop\n      pop\n      dup2\n      mstore\n      0x20\n      add\n      0x02\n      dup3\n      add\n      sload\n      dup2\n      mstore\n      0x20\n      add\n      0x03\n      dup3\n      add\n      sload\n      dup2\n      mstore\n      pop\n      pop\n      swap1\n      pop\n        /* \"contracts/Banking_customer.sol\":476:595  function getProfile(address _user) public view returns (CustomerProfile memory) {... */\n      swap2\n      swap1\n      pop\n      jump\t// out\n        /* \"contracts/Banking_customer.sol\":290:470  function setProfile(address _userAddress, string memory _username) public {... */\n    tag_15:\n        /* \"contracts/Banking_customer.sol\":402:462  CustomerProfile(_userAddress, _username, 0, block.timestamp) */\n      mload(0x40)\n      dup1\n      0x80\n      add\n      0x40\n      mstore\n      dup1\n        /* \"contracts/Banking_customer.sol\":418:430  _userAddress */\n      dup4\n        /* \"contracts/Banking_customer.sol\":402:462  CustomerProfile(_userAddress, _username, 0, block.timestamp) */\n      0xffffffffffffffffffffffffffffffffffffffff\n      and\n      dup2\n      mstore\n      0x20\n      add\n        /* \"contracts/Banking_customer.sol\":432:441  _username */\n      dup3\n        /* \"contracts/Banking_customer.sol\":402:462  CustomerProfile(_userAddress, _username, 0, block.timestamp) */\n      dup2\n      mstore\n      0x20\n      add\n        /* \"contracts/Banking_customer.sol\":443:444  0 */\n      0x00\n        /* \"contracts/Banking_customer.sol\":402:462  CustomerProfile(_userAddress, _username, 0, block.timestamp) */\n      dup2\n      mstore\n      0x20\n      add\n        /* \"contracts/Banking_customer.sol\":446:461  block.timestamp */\n      timestamp\n        /* \"contracts/Banking_customer.sol\":402:462  CustomerProfile(_userAddress, _username, 0, block.timestamp) */\n      dup2\n      mstore\n      pop\n        /* \"contracts/Banking_customer.sol\":379:387  profiles */\n      0x00\n        /* \"contracts/Banking_customer.sol\":379:399  profiles[msg.sender] */\n      dup1\n        /* \"contracts/Banking_customer.sol\":388:398  msg.sender */\n      caller\n        /* \"contracts/Banking_customer.sol\":379:399  profiles[msg.sender] */\n      0xffffffffffffffffffffffffffffffffffffffff\n      and\n      0xffffffffffffffffffffffffffffffffffffffff\n      and\n      dup2\n      mstore\n      0x20\n      add\n      swap1\n      dup2\n      mstore\n      0x20\n      add\n      0x00\n      keccak256\n        /* \"contracts/Banking_customer.sol\":379:462  profiles[msg.sender] = CustomerProfile(_userAddress, _username, 0, block.timestamp) */\n      0x00\n      dup3\n      add\n      mload\n      dup2\n      0x00\n      add\n      exp(0x0100, 0x00)\n      dup2\n      sload\n      dup2\n      0xffffffffffffffffffffffffffffffffffffffff\n      mul\n      not\n      and\n      swap1\n      dup4\n      0xffffffffffffffffffffffffffffffffffffffff\n      and\n      mul\n      or\n      swap1\n      sstore\n      pop\n      0x20\n      dup3\n      add\n      mload\n      dup2\n      0x01\n      add\n      swap1\n      dup2\n      tag_31\n      swap2\n      swap1\n      tag_32\n      jump\t// in\n    tag_31:\n      pop\n      0x40\n      dup3\n      add\n      mload\n      dup2\n      0x02\n      add\n      sstore\n      0x60\n      dup3\n      add\n      mload\n      dup2\n      0x03\n      add\n      sstore\n      swap1\n      pop\n      pop\n        /* \"contracts/Banking_customer.sol\":290:470  function setProfile(address _userAddress, string memory _username) public {... */\n      pop\n      pop\n      jump\t// out\n        /* \"contracts/Banking_customer.sol\":232:283  mapping(address => CustomerProfile) public profiles */\n    tag_18:\n      mstore(0x20, 0x00)\n      dup1\n      0x00\n      mstore\n      keccak256(0x00, 0x40)\n      0x00\n      swap2\n      pop\n      swap1\n      pop\n      dup1\n      0x00\n      add\n      0x00\n      swap1\n      sload\n      swap1\n      0x0100\n      exp\n      swap1\n      div\n      0xffffffffffffffffffffffffffffffffffffffff\n      and\n      swap1\n      dup1\n      0x01\n      add\n      dup1\n      sload\n      tag_33\n      swap1\n      tag_25\n      jump\t// in\n    tag_33:\n      dup1\n      0x1f\n      add\n      0x20\n      dup1\n      swap2\n      div\n      mul\n      0x20\n      add\n      mload(0x40)\n      swap1\n      dup2\n      add\n      0x40\n      mstore\n      dup1\n      swap3\n      swap2\n      swap1\n      dup2\n      dup2\n      mstore\n      0x20\n      add\n      dup3\n      dup1\n      sload\n      tag_34\n      swap1\n      tag_25\n      jump\t// in\n    tag_34:\n      dup1\n      iszero\n      tag_35\n      jumpi\n      dup1\n      0x1f\n      lt\n      tag_36\n      jumpi\n      0x0100\n      dup1\n      dup4\n      sload\n      div\n      mul\n      dup4\n      mstore\n      swap2\n      0x20\n      add\n      swap2\n      jump(tag_35)\n    tag_36:\n      dup3\n      add\n      swap2\n      swap1\n      0x00\n      mstore\n      keccak256(0x00, 0x20)\n      swap1\n    tag_37:\n      dup2\n      sload\n      dup2\n      mstore\n      swap1\n      0x01\n      add\n      swap1\n      0x20\n      add\n      dup1\n      dup4\n      gt\n      tag_37\n      jumpi\n      dup3\n      swap1\n      sub\n      0x1f\n      and\n      dup3\n      add\n      swap2\n    tag_35:\n      pop\n      pop\n      pop\n      pop\n      pop\n      swap1\n      dup1\n      0x02\n      add\n      sload\n      swap1\n      dup1\n      0x03\n      add\n      sload\n      swap1\n      pop\n      dup5\n      jump\t// out\n    tag_22:\n      mload(0x40)\n      dup1\n      0x80\n      add\n      0x40\n      mstore\n      dup1\n      and(0xffffffffffffffffffffffffffffffffffffffff, 0x00)\n      dup2\n      mstore\n      0x20\n      add\n      0x60\n      dup2\n      mstore\n      0x20\n      add\n      0x00\n      dup2\n      mstore\n      0x20\n      add\n      0x00\n      dup2\n      mstore\n      pop\n      swap1\n      jump\t// out\n        /* \"#utility.yul\":7:82   */\n    tag_38:\n        /* \"#utility.yul\":40:46   */\n      0x00\n        /* \"#utility.yul\":73:75   */\n      0x40\n        /* \"#utility.yul\":67:76   */\n      mload\n        /* \"#utility.yul\":57:76   */\n      swap1\n      pop\n        /* \"#utility.yul\":7:82   */\n      swap1\n      jump\t// out\n        /* \"#utility.yul\":88:205   */\n    tag_39:\n        /* \"#utility.yul\":197:198   */\n      0x00\n        /* \"#utility.yul\":194:195   */\n      dup1\n        /* \"#utility.yul\":187:199   */\n      revert\n        /* \"#utility.yul\":211:328   */\n    tag_40:\n        /* \"#utility.yul\":320:321   */\n      0x00\n        /* \"#utility.yul\":317:318   */\n      dup1\n        /* \"#utility.yul\":310:322   */\n      revert\n        /* \"#utility.yul\":334:460   */\n    tag_41:\n        /* \"#utility.yul\":371:378   */\n      0x00\n        /* \"#utility.yul\":411:453   */\n      0xffffffffffffffffffffffffffffffffffffffff\n        /* \"#utility.yul\":404:409   */\n      dup3\n        /* \"#utility.yul\":400:454   */\n      and\n        /* \"#utility.yul\":389:454   */\n      swap1\n      pop\n        /* \"#utility.yul\":334:460   */\n      swap2\n      swap1\n      pop\n      jump\t// out\n        /* \"#utility.yul\":466:562   */\n    tag_42:\n        /* \"#utility.yul\":503:510   */\n      0x00\n        /* \"#utility.yul\":532:556   */\n      tag_89\n        /* \"#utility.yul\":550:555   */\n      dup3\n        /* \"#utility.yul\":532:556   */\n      tag_41\n      jump\t// in\n    tag_89:\n        /* \"#utility.yul\":521:556   */\n      swap1\n      pop\n        /* \"#utility.yul\":466:562   */\n      swap2\n      swap1\n      pop\n      jump\t// out\n        /* \"#utility.yul\":568:690   */\n    tag_43:\n        /* \"#utility.yul\":641:665   */\n      tag_91\n        /* \"#utility.yul\":659:664   */\n      dup2\n        /* \"#utility.yul\":641:665   */\n      tag_42\n      jump\t// in\n    tag_91:\n        /* \"#utility.yul\":634:639   */\n      dup2\n        /* \"#utility.yul\":631:666   */\n      eq\n        /* \"#utility.yul\":621:684   */\n      tag_92\n      jumpi\n        /* \"#utility.yul\":680:681   */\n      0x00\n        /* \"#utility.yul\":677:678   */\n      dup1\n        /* \"#utility.yul\":670:682   */\n      revert\n        /* \"#utility.yul\":621:684   */\n    tag_92:\n        /* \"#utility.yul\":568:690   */\n      pop\n      jump\t// out\n        /* \"#utility.yul\":696:835   */\n    tag_44:\n        /* \"#utility.yul\":742:747   */\n      0x00\n        /* \"#utility.yul\":780:786   */\n      dup2\n        /* \"#utility.yul\":767:787   */\n      calldataload\n        /* \"#utility.yul\":758:787   */\n      swap1\n      pop\n        /* \"#utility.yul\":796:829   */\n      tag_94\n        /* \"#utility.yul\":823:828   */\n      dup2\n        /* \"#utility.yul\":796:829   */\n      tag_43\n      jump\t// in\n    tag_94:\n        /* \"#utility.yul\":696:835   */\n      swap3\n      swap2\n      pop\n      pop\n      jump\t// out\n        /* \"#utility.yul\":841:1170   */\n    tag_8:\n        /* \"#utility.yul\":900:906   */\n      0x00\n        /* \"#utility.yul\":949:951   */\n      0x20\n        /* \"#utility.yul\":937:946   */\n      dup3\n        /* \"#utility.yul\":928:935   */\n      dup5\n        /* \"#utility.yul\":924:947   */\n      sub\n        /* \"#utility.yul\":920:952   */\n      slt\n        /* \"#utility.yul\":917:1036   */\n      iszero\n      tag_96\n      jumpi\n        /* \"#utility.yul\":955:1034   */\n      tag_97\n      tag_39\n      jump\t// in\n    tag_97:\n        /* \"#utility.yul\":917:1036   */\n    tag_96:\n        /* \"#utility.yul\":1075:1076   */\n      0x00\n        /* \"#utility.yul\":1100:1153   */\n      tag_98\n        /* \"#utility.yul\":1145:1152   */\n      dup5\n        /* \"#utility.yul\":1136:1142   */\n      dup3\n        /* \"#utility.yul\":1125:1134   */\n      dup6\n        /* \"#utility.yul\":1121:1143   */\n      add\n        /* \"#utility.yul\":1100:1153   */\n      tag_44\n      jump\t// in\n    tag_98:\n        /* \"#utility.yul\":1090:1153   */\n      swap2\n      pop\n        /* \"#utility.yul\":1046:1163   */\n      pop\n        /* \"#utility.yul\":841:1170   */\n      swap3\n      swap2\n      pop\n      pop\n      jump\t// out\n        /* \"#utility.yul\":1176:1284   */\n    tag_45:\n        /* \"#utility.yul\":1253:1277   */\n      tag_100\n        /* \"#utility.yul\":1271:1276   */\n      dup2\n        /* \"#utility.yul\":1253:1277   */\n      tag_42\n      jump\t// in\n    tag_100:\n        /* \"#utility.yul\":1248:1251   */\n      dup3\n        /* \"#utility.yul\":1241:1278   */\n      mstore\n        /* \"#utility.yul\":1176:1284   */\n      pop\n      pop\n      jump\t// out\n        /* \"#utility.yul\":1290:1389   */\n    tag_46:\n        /* \"#utility.yul\":1342:1348   */\n      0x00\n        /* \"#utility.yul\":1376:1381   */\n      dup2\n        /* \"#utility.yul\":1370:1382   */\n      mload\n        /* \"#utility.yul\":1360:1382   */\n      swap1\n      pop\n        /* \"#utility.yul\":1290:1389   */\n      swap2\n      swap1\n      pop\n      jump\t// out\n        /* \"#utility.yul\":1395:1554   */\n    tag_47:\n        /* \"#utility.yul\":1469:1480   */\n      0x00\n        /* \"#utility.yul\":1503:1509   */\n      dup3\n        /* \"#utility.yul\":1498:1501   */\n      dup3\n        /* \"#utility.yul\":1491:1510   */\n      mstore\n        /* \"#utility.yul\":1543:1547   */\n      0x20\n        /* \"#utility.yul\":1538:1541   */\n      dup3\n        /* \"#utility.yul\":1534:1548   */\n      add\n        /* \"#utility.yul\":1519:1548   */\n      swap1\n      pop\n        /* \"#utility.yul\":1395:1554   */\n      swap3\n      swap2\n      pop\n      pop\n      jump\t// out\n        /* \"#utility.yul\":1560:1699   */\n    tag_48:\n        /* \"#utility.yul\":1649:1655   */\n      dup3\n        /* \"#utility.yul\":1644:1647   */\n      dup2\n        /* \"#utility.yul\":1639:1642   */\n      dup4\n        /* \"#utility.yul\":1633:1656   */\n      mcopy\n        /* \"#utility.yul\":1690:1691   */\n      0x00\n        /* \"#utility.yul\":1681:1687   */\n      dup4\n        /* \"#utility.yul\":1676:1679   */\n      dup4\n        /* \"#utility.yul\":1672:1688   */\n      add\n        /* \"#utility.yul\":1665:1692   */\n      mstore\n        /* \"#utility.yul\":1560:1699   */\n      pop\n      pop\n      pop\n      jump\t// out\n        /* \"#utility.yul\":1705:1807   */\n    tag_49:\n        /* \"#utility.yul\":1746:1752   */\n      0x00\n        /* \"#utility.yul\":1797:1799   */\n      0x1f\n        /* \"#utility.yul\":1793:1800   */\n      not\n        /* \"#utility.yul\":1788:1790   */\n      0x1f\n        /* \"#utility.yul\":1781:1786   */\n      dup4\n        /* \"#utility.yul\":1777:1791   */\n      add\n        /* \"#utility.yul\":1773:1801   */\n      and\n        /* \"#utility.yul\":1763:1801   */\n      swap1\n      pop\n        /* \"#utility.yul\":1705:1807   */\n      swap2\n      swap1\n      pop\n      jump\t// out\n        /* \"#utility.yul\":1813:2170   */\n    tag_50:\n        /* \"#utility.yul\":1891:1894   */\n      0x00\n        /* \"#utility.yul\":1919:1958   */\n      tag_106\n        /* \"#utility.yul\":1952:1957   */\n      dup3\n        /* \"#utility.yul\":1919:1958   */\n      tag_46\n      jump\t// in\n    tag_106:\n        /* \"#utility.yul\":1974:2035   */\n      tag_107\n        /* \"#utility.yul\":2028:2034   */\n      dup2\n        /* \"#utility.yul\":2023:2026   */\n      dup6\n        /* \"#utility.yul\":1974:2035   */\n      tag_47\n      jump\t// in\n    tag_107:\n        /* \"#utility.yul\":1967:2035   */\n      swap4\n      pop\n        /* \"#utility.yul\":2044:2109   */\n      tag_108\n        /* \"#utility.yul\":2102:2108   */\n      dup2\n        /* \"#utility.yul\":2097:2100   */\n      dup6\n        /* \"#utility.yul\":2090:2094   */\n      0x20\n        /* \"#utility.yul\":2083:2088   */\n      dup7\n        /* \"#utility.yul\":2079:2095   */\n      add\n        /* \"#utility.yul\":2044:2109   */\n      tag_48\n      jump\t// in\n    tag_108:\n        /* \"#utility.yul\":2134:2163   */\n      tag_109\n        /* \"#utility.yul\":2156:2162   */\n      dup2\n        /* \"#utility.yul\":2134:2163   */\n      tag_49\n      jump\t// in\n    tag_109:\n        /* \"#utility.yul\":2129:2132   */\n      dup5\n        /* \"#utility.yul\":2125:2164   */\n      add\n        /* \"#utility.yul\":2118:2164   */\n      swap2\n      pop\n        /* \"#utility.yul\":1895:2170   */\n      pop\n        /* \"#utility.yul\":1813:2170   */\n      swap3\n      swap2\n      pop\n      pop\n      jump\t// out\n        /* \"#utility.yul\":2176:2253   */\n    tag_51:\n        /* \"#utility.yul\":2213:2220   */\n      0x00\n        /* \"#utility.yul\":2242:2247   */\n      dup2\n        /* \"#utility.yul\":2231:2247   */\n      swap1\n      pop\n        /* \"#utility.yul\":2176:2253   */\n      swap2\n      swap1\n      pop\n      jump\t// out\n        /* \"#utility.yul\":2259:2367   */\n    tag_52:\n        /* \"#utility.yul\":2336:2360   */\n      tag_112\n        /* \"#utility.yul\":2354:2359   */\n      dup2\n        /* \"#utility.yul\":2336:2360   */\n      tag_51\n      jump\t// in\n    tag_112:\n        /* \"#utility.yul\":2331:2334   */\n      dup3\n        /* \"#utility.yul\":2324:2361   */\n      mstore\n        /* \"#utility.yul\":2259:2367   */\n      pop\n      pop\n      jump\t// out\n        /* \"#utility.yul\":2445:3438   */\n    tag_53:\n        /* \"#utility.yul\":2576:2579   */\n      0x00\n        /* \"#utility.yul\":2612:2616   */\n      0x80\n        /* \"#utility.yul\":2607:2610   */\n      dup4\n        /* \"#utility.yul\":2603:2617   */\n      add\n        /* \"#utility.yul\":2706:2710   */\n      0x00\n        /* \"#utility.yul\":2699:2704   */\n      dup4\n        /* \"#utility.yul\":2695:2711   */\n      add\n        /* \"#utility.yul\":2689:2712   */\n      mload\n        /* \"#utility.yul\":2725:2788   */\n      tag_114\n        /* \"#utility.yul\":2782:2786   */\n      0x00\n        /* \"#utility.yul\":2777:2780   */\n      dup7\n        /* \"#utility.yul\":2773:2787   */\n      add\n        /* \"#utility.yul\":2759:2771   */\n      dup3\n        /* \"#utility.yul\":2725:2788   */\n      tag_45\n      jump\t// in\n    tag_114:\n        /* \"#utility.yul\":2627:2798   */\n      pop\n        /* \"#utility.yul\":2884:2888   */\n      0x20\n        /* \"#utility.yul\":2877:2882   */\n      dup4\n        /* \"#utility.yul\":2873:2889   */\n      add\n        /* \"#utility.yul\":2867:2890   */\n      mload\n        /* \"#utility.yul\":2937:2940   */\n      dup5\n        /* \"#utility.yul\":2931:2935   */\n      dup3\n        /* \"#utility.yul\":2927:2941   */\n      sub\n        /* \"#utility.yul\":2920:2924   */\n      0x20\n        /* \"#utility.yul\":2915:2918   */\n      dup7\n        /* \"#utility.yul\":2911:2925   */\n      add\n        /* \"#utility.yul\":2904:2942   */\n      mstore\n        /* \"#utility.yul\":2963:3036   */\n      tag_115\n        /* \"#utility.yul\":3031:3035   */\n      dup3\n        /* \"#utility.yul\":3017:3029   */\n      dup3\n        /* \"#utility.yul\":2963:3036   */\n      tag_50\n      jump\t// in\n    tag_115:\n        /* \"#utility.yul\":2955:3036   */\n      swap2\n      pop\n        /* \"#utility.yul\":2808:3047   */\n      pop\n        /* \"#utility.yul\":3132:3136   */\n      0x40\n        /* \"#utility.yul\":3125:3130   */\n      dup4\n        /* \"#utility.yul\":3121:3137   */\n      add\n        /* \"#utility.yul\":3115:3138   */\n      mload\n        /* \"#utility.yul\":3151:3214   */\n      tag_116\n        /* \"#utility.yul\":3208:3212   */\n      0x40\n        /* \"#utility.yul\":3203:3206   */\n      dup7\n        /* \"#utility.yul\":3199:3213   */\n      add\n        /* \"#utility.yul\":3185:3197   */\n      dup3\n        /* \"#utility.yul\":3151:3214   */\n      tag_52\n      jump\t// in\n    tag_116:\n        /* \"#utility.yul\":3057:3224   */\n      pop\n        /* \"#utility.yul\":3319:3323   */\n      0x60\n        /* \"#utility.yul\":3312:3317   */\n      dup4\n        /* \"#utility.yul\":3308:3324   */\n      add\n        /* \"#utility.yul\":3302:3325   */\n      mload\n        /* \"#utility.yul\":3338:3401   */\n      tag_117\n        /* \"#utility.yul\":3395:3399   */\n      0x60\n        /* \"#utility.yul\":3390:3393   */\n      dup7\n        /* \"#utility.yul\":3386:3400   */\n      add\n        /* \"#utility.yul\":3372:3384   */\n      dup3\n        /* \"#utility.yul\":3338:3401   */\n      tag_52\n      jump\t// in\n    tag_117:\n        /* \"#utility.yul\":3234:3411   */\n      pop\n        /* \"#utility.yul\":3428:3432   */\n      dup1\n        /* \"#utility.yul\":3421:3432   */\n      swap2\n      pop\n        /* \"#utility.yul\":2581:3438   */\n      pop\n        /* \"#utility.yul\":2445:3438   */\n      swap3\n      swap2\n      pop\n      pop\n      jump\t// out\n        /* \"#utility.yul\":3444:3841   */\n    tag_11:\n        /* \"#utility.yul\":3599:3603   */\n      0x00\n        /* \"#utility.yul\":3637:3639   */\n      0x20\n        /* \"#utility.yul\":3626:3635   */\n      dup3\n        /* \"#utility.yul\":3622:3640   */\n      add\n        /* \"#utility.yul\":3614:3640   */\n      swap1\n      pop\n        /* \"#utility.yul\":3686:3695   */\n      dup2\n        /* \"#utility.yul\":3680:3684   */\n      dup2\n        /* \"#utility.yul\":3676:3696   */\n      sub\n        /* \"#utility.yul\":3672:3673   */\n      0x00\n        /* \"#utility.yul\":3661:3670   */\n      dup4\n        /* \"#utility.yul\":3657:3674   */\n      add\n        /* \"#utility.yul\":3650:3697   */\n      mstore\n        /* \"#utility.yul\":3714:3834   */\n      tag_119\n        /* \"#utility.yul\":3829:3833   */\n      dup2\n        /* \"#utility.yul\":3820:3826   */\n      dup5\n        /* \"#utility.yul\":3714:3834   */\n      tag_53\n      jump\t// in\n    tag_119:\n        /* \"#utility.yul\":3706:3834   */\n      swap1\n      pop\n        /* \"#utility.yul\":3444:3841   */\n      swap3\n      swap2\n      pop\n      pop\n      jump\t// out\n        /* \"#utility.yul\":3847:3964   */\n    tag_54:\n        /* \"#utility.yul\":3956:3957   */\n      0x00\n        /* \"#utility.yul\":3953:3954   */\n      dup1\n        /* \"#utility.yul\":3946:3958   */\n      revert\n        /* \"#utility.yul\":3970:4087   */\n    tag_55:\n        /* \"#utility.yul\":4079:4080   */\n      0x00\n        /* \"#utility.yul\":4076:4077   */\n      dup1\n        /* \"#utility.yul\":4069:4081   */\n      revert\n        /* \"#utility.yul\":4093:4273   */\n    tag_56:\n        /* \"#utility.yul\":4141:4218   */\n      0x4e487b7100000000000000000000000000000000000000000000000000000000\n        /* \"#utility.yul\":4138:4139   */\n      0x00\n        /* \"#utility.yul\":4131:4219   */\n      mstore\n        /* \"#utility.yul\":4238:4242   */\n      0x41\n        /* \"#utility.yul\":4235:4236   */\n      0x04\n        /* \"#utility.yul\":4228:4243   */\n      mstore\n        /* \"#utility.yul\":4262:4266   */\n      0x24\n        /* \"#utility.yul\":4259:4260   */\n      0x00\n        /* \"#utility.yul\":4252:4267   */\n      revert\n        /* \"#utility.yul\":4279:4560   */\n    tag_57:\n        /* \"#utility.yul\":4362:4389   */\n      tag_124\n        /* \"#utility.yul\":4384:4388   */\n      dup3\n        /* \"#utility.yul\":4362:4389   */\n      tag_49\n      jump\t// in\n    tag_124:\n        /* \"#utility.yul\":4354:4360   */\n      dup2\n        /* \"#utility.yul\":4350:4390   */\n      add\n        /* \"#utility.yul\":4492:4498   */\n      dup2\n        /* \"#utility.yul\":4480:4490   */\n      dup2\n        /* \"#utility.yul\":4477:4499   */\n      lt\n        /* \"#utility.yul\":4456:4474   */\n      0xffffffffffffffff\n        /* \"#utility.yul\":4444:4454   */\n      dup3\n        /* \"#utility.yul\":4441:4475   */\n      gt\n        /* \"#utility.yul\":4438:4500   */\n      or\n        /* \"#utility.yul\":4435:4523   */\n      iszero\n      tag_125\n      jumpi\n        /* \"#utility.yul\":4503:4521   */\n      tag_126\n      tag_56\n      jump\t// in\n    tag_126:\n        /* \"#utility.yul\":4435:4523   */\n    tag_125:\n        /* \"#utility.yul\":4543:4553   */\n      dup1\n        /* \"#utility.yul\":4539:4541   */\n      0x40\n        /* \"#utility.yul\":4532:4554   */\n      mstore\n        /* \"#utility.yul\":4322:4560   */\n      pop\n        /* \"#utility.yul\":4279:4560   */\n      pop\n      pop\n      jump\t// out\n        /* \"#utility.yul\":4566:4695   */\n    tag_58:\n        /* \"#utility.yul\":4600:4606   */\n      0x00\n        /* \"#utility.yul\":4627:4647   */\n      tag_128\n      tag_38\n      jump\t// in\n    tag_128:\n        /* \"#utility.yul\":4617:4647   */\n      swap1\n      pop\n        /* \"#utility.yul\":4656:4689   */\n      tag_129\n        /* \"#utility.yul\":4684:4688   */\n      dup3\n        /* \"#utility.yul\":4676:4682   */\n      dup3\n        /* \"#utility.yul\":4656:4689   */\n      tag_57\n      jump\t// in\n    tag_129:\n        /* \"#utility.yul\":4566:4695   */\n      swap2\n      swap1\n      pop\n      jump\t// out\n        /* \"#utility.yul\":4701:5009   */\n    tag_59:\n        /* \"#utility.yul\":4763:4767   */\n      0x00\n        /* \"#utility.yul\":4853:4871   */\n      0xffffffffffffffff\n        /* \"#utility.yul\":4845:4851   */\n      dup3\n        /* \"#utility.yul\":4842:4872   */\n      gt\n        /* \"#utility.yul\":4839:4895   */\n      iszero\n      tag_131\n      jumpi\n        /* \"#utility.yul\":4875:4893   */\n      tag_132\n      tag_56\n      jump\t// in\n    tag_132:\n        /* \"#utility.yul\":4839:4895   */\n    tag_131:\n        /* \"#utility.yul\":4913:4942   */\n      tag_133\n        /* \"#utility.yul\":4935:4941   */\n      dup3\n        /* \"#utility.yul\":4913:4942   */\n      tag_49\n      jump\t// in\n    tag_133:\n        /* \"#utility.yul\":4905:4942   */\n      swap1\n      pop\n        /* \"#utility.yul\":4997:5001   */\n      0x20\n        /* \"#utility.yul\":4991:4995   */\n      dup2\n        /* \"#utility.yul\":4987:5002   */\n      add\n        /* \"#utility.yul\":4979:5002   */\n      swap1\n      pop\n        /* \"#utility.yul\":4701:5009   */\n      swap2\n      swap1\n      pop\n      jump\t// out\n        /* \"#utility.yul\":5015:5163   */\n    tag_60:\n        /* \"#utility.yul\":5113:5119   */\n      dup3\n        /* \"#utility.yul\":5108:5111   */\n      dup2\n        /* \"#utility.yul\":5103:5106   */\n      dup4\n        /* \"#utility.yul\":5090:5120   */\n      calldatacopy\n        /* \"#utility.yul\":5154:5155   */\n      0x00\n        /* \"#utility.yul\":5145:5151   */\n      dup4\n        /* \"#utility.yul\":5140:5143   */\n      dup4\n        /* \"#utility.yul\":5136:5152   */\n      add\n        /* \"#utility.yul\":5129:5156   */\n      mstore\n        /* \"#utility.yul\":5015:5163   */\n      pop\n      pop\n      pop\n      jump\t// out\n        /* \"#utility.yul\":5169:5594   */\n    tag_61:\n        /* \"#utility.yul\":5247:5252   */\n      0x00\n        /* \"#utility.yul\":5272:5338   */\n      tag_136\n        /* \"#utility.yul\":5288:5337   */\n      tag_137\n        /* \"#utility.yul\":5330:5336   */\n      dup5\n        /* \"#utility.yul\":5288:5337   */\n      tag_59\n      jump\t// in\n    tag_137:\n        /* \"#utility.yul\":5272:5338   */\n      tag_58\n      jump\t// in\n    tag_136:\n        /* \"#utility.yul\":5263:5338   */\n      swap1\n      pop\n        /* \"#utility.yul\":5361:5367   */\n      dup3\n        /* \"#utility.yul\":5354:5359   */\n      dup2\n        /* \"#utility.yul\":5347:5368   */\n      mstore\n        /* \"#utility.yul\":5399:5403   */\n      0x20\n        /* \"#utility.yul\":5392:5397   */\n      dup2\n        /* \"#utility.yul\":5388:5404   */\n      add\n        /* \"#utility.yul\":5437:5440   */\n      dup5\n        /* \"#utility.yul\":5428:5434   */\n      dup5\n        /* \"#utility.yul\":5423:5426   */\n      dup5\n        /* \"#utility.yul\":5419:5435   */\n      add\n        /* \"#utility.yul\":5416:5441   */\n      gt\n        /* \"#utility.yul\":5413:5525   */\n      iszero\n      tag_138\n      jumpi\n        /* \"#utility.yul\":5444:5523   */\n      tag_139\n      tag_55\n      jump\t// in\n    tag_139:\n        /* \"#utility.yul\":5413:5525   */\n    tag_138:\n        /* \"#utility.yul\":5534:5588   */\n      tag_140\n        /* \"#utility.yul\":5581:5587   */\n      dup5\n        /* \"#utility.yul\":5576:5579   */\n      dup3\n        /* \"#utility.yul\":5571:5574   */\n      dup6\n        /* \"#utility.yul\":5534:5588   */\n      tag_60\n      jump\t// in\n    tag_140:\n        /* \"#utility.yul\":5253:5594   */\n      pop\n        /* \"#utility.yul\":5169:5594   */\n      swap4\n      swap3\n      pop\n      pop\n      pop\n      jump\t// out\n        /* \"#utility.yul\":5614:5954   */\n    tag_62:\n        /* \"#utility.yul\":5670:5675   */\n      0x00\n        /* \"#utility.yul\":5719:5722   */\n      dup3\n        /* \"#utility.yul\":5712:5716   */\n      0x1f\n        /* \"#utility.yul\":5704:5710   */\n      dup4\n        /* \"#utility.yul\":5700:5717   */\n      add\n        /* \"#utility.yul\":5696:5723   */\n      slt\n        /* \"#utility.yul\":5686:5808   */\n      tag_142\n      jumpi\n        /* \"#utility.yul\":5727:5806   */\n      tag_143\n      tag_54\n      jump\t// in\n    tag_143:\n        /* \"#utility.yul\":5686:5808   */\n    tag_142:\n        /* \"#utility.yul\":5844:5850   */\n      dup2\n        /* \"#utility.yul\":5831:5851   */\n      calldataload\n        /* \"#utility.yul\":5869:5948   */\n      tag_144\n        /* \"#utility.yul\":5944:5947   */\n      dup5\n        /* \"#utility.yul\":5936:5942   */\n      dup3\n        /* \"#utility.yul\":5929:5933   */\n      0x20\n        /* \"#utility.yul\":5921:5927   */\n      dup7\n        /* \"#utility.yul\":5917:5934   */\n      add\n        /* \"#utility.yul\":5869:5948   */\n      tag_61\n      jump\t// in\n    tag_144:\n        /* \"#utility.yul\":5860:5948   */\n      swap2\n      pop\n        /* \"#utility.yul\":5676:5954   */\n      pop\n        /* \"#utility.yul\":5614:5954   */\n      swap3\n      swap2\n      pop\n      pop\n      jump\t// out\n        /* \"#utility.yul\":5960:6614   */\n    tag_14:\n        /* \"#utility.yul\":6038:6044   */\n      0x00\n        /* \"#utility.yul\":6046:6052   */\n      dup1\n        /* \"#utility.yul\":6095:6097   */\n      0x40\n        /* \"#utility.yul\":6083:6092   */\n      dup4\n        /* \"#utility.yul\":6074:6081   */\n      dup6\n        /* \"#utility.yul\":6070:6093   */\n      sub\n        /* \"#utility.yul\":6066:6098   */\n      slt\n        /* \"#utility.yul\":6063:6182   */\n      iszero\n      tag_146\n      jumpi\n        /* \"#utility.yul\":6101:6180   */\n      tag_147\n      tag_39\n      jump\t// in\n    tag_147:\n        /* \"#utility.yul\":6063:6182   */\n    tag_146:\n        /* \"#utility.yul\":6221:6222   */\n      0x00\n        /* \"#utility.yul\":6246:6299   */\n      tag_148\n        /* \"#utility.yul\":6291:6298   */\n      dup6\n        /* \"#utility.yul\":6282:6288   */\n      dup3\n        /* \"#utility.yul\":6271:6280   */\n      dup7\n        /* \"#utility.yul\":6267:6289   */\n      add\n        /* \"#utility.yul\":6246:6299   */\n      tag_44\n      jump\t// in\n    tag_148:\n        /* \"#utility.yul\":6236:6299   */\n      swap3\n      pop\n        /* \"#utility.yul\":6192:6309   */\n      pop\n        /* \"#utility.yul\":6376:6378   */\n      0x20\n        /* \"#utility.yul\":6365:6374   */\n      dup4\n        /* \"#utility.yul\":6361:6379   */\n      add\n        /* \"#utility.yul\":6348:6380   */\n      calldataload\n        /* \"#utility.yul\":6407:6425   */\n      0xffffffffffffffff\n        /* \"#utility.yul\":6399:6405   */\n      dup2\n        /* \"#utility.yul\":6396:6426   */\n      gt\n        /* \"#utility.yul\":6393:6510   */\n      iszero\n      tag_149\n      jumpi\n        /* \"#utility.yul\":6429:6508   */\n      tag_150\n      tag_40\n      jump\t// in\n    tag_150:\n        /* \"#utility.yul\":6393:6510   */\n    tag_149:\n        /* \"#utility.yul\":6534:6597   */\n      tag_151\n        /* \"#utility.yul\":6589:6596   */\n      dup6\n        /* \"#utility.yul\":6580:6586   */\n      dup3\n        /* \"#utility.yul\":6569:6578   */\n      dup7\n        /* \"#utility.yul\":6565:6587   */\n      add\n        /* \"#utility.yul\":6534:6597   */\n      tag_62\n      jump\t// in\n    tag_151:\n        /* \"#utility.yul\":6524:6597   */\n      swap2\n      pop\n        /* \"#utility.yul\":6319:6607   */\n      pop\n        /* \"#utility.yul\":5960:6614   */\n      swap3\n      pop\n      swap3\n      swap1\n      pop\n      jump\t// out\n        /* \"#utility.yul\":6620:6738   */\n    tag_63:\n        /* \"#utility.yul\":6707:6731   */\n      tag_153\n        /* \"#utility.yul\":6725:6730   */\n      dup2\n        /* \"#utility.yul\":6707:6731   */\n      tag_42\n      jump\t// in\n    tag_153:\n        /* \"#utility.yul\":6702:6705   */\n      dup3\n        /* \"#utility.yul\":6695:6732   */\n      mstore\n        /* \"#utility.yul\":6620:6738   */\n      pop\n      pop\n      jump\t// out\n        /* \"#utility.yul\":6744:6913   */\n    tag_64:\n        /* \"#utility.yul\":6828:6839   */\n      0x00\n        /* \"#utility.yul\":6862:6868   */\n      dup3\n        /* \"#utility.yul\":6857:6860   */\n      dup3\n        /* \"#utility.yul\":6850:6869   */\n      mstore\n        /* \"#utility.yul\":6902:6906   */\n      0x20\n        /* \"#utility.yul\":6897:6900   */\n      dup3\n        /* \"#utility.yul\":6893:6907   */\n      add\n        /* \"#utility.yul\":6878:6907   */\n      swap1\n      pop\n        /* \"#utility.yul\":6744:6913   */\n      swap3\n      swap2\n      pop\n      pop\n      jump\t// out\n        /* \"#utility.yul\":6919:7296   */\n    tag_65:\n        /* \"#utility.yul\":7007:7010   */\n      0x00\n        /* \"#utility.yul\":7035:7074   */\n      tag_156\n        /* \"#utility.yul\":7068:7073   */\n      dup3\n        /* \"#utility.yul\":7035:7074   */\n      tag_46\n      jump\t// in\n    tag_156:\n        /* \"#utility.yul\":7090:7161   */\n      tag_157\n        /* \"#utility.yul\":7154:7160   */\n      dup2\n        /* \"#utility.yul\":7149:7152   */\n      dup6\n        /* \"#utility.yul\":7090:7161   */\n      tag_64\n      jump\t// in\n    tag_157:\n        /* \"#utility.yul\":7083:7161   */\n      swap4\n      pop\n        /* \"#utility.yul\":7170:7235   */\n      tag_158\n        /* \"#utility.yul\":7228:7234   */\n      dup2\n        /* \"#utility.yul\":7223:7226   */\n      dup6\n        /* \"#utility.yul\":7216:7220   */\n      0x20\n        /* \"#utility.yul\":7209:7214   */\n      dup7\n        /* \"#utility.yul\":7205:7221   */\n      add\n        /* \"#utility.yul\":7170:7235   */\n      tag_48\n      jump\t// in\n    tag_158:\n        /* \"#utility.yul\":7260:7289   */\n      tag_159\n        /* \"#utility.yul\":7282:7288   */\n      dup2\n        /* \"#utility.yul\":7260:7289   */\n      tag_49\n      jump\t// in\n    tag_159:\n        /* \"#utility.yul\":7255:7258   */\n      dup5\n        /* \"#utility.yul\":7251:7290   */\n      add\n        /* \"#utility.yul\":7244:7290   */\n      swap2\n      pop\n        /* \"#utility.yul\":7011:7296   */\n      pop\n        /* \"#utility.yul\":6919:7296   */\n      swap3\n      swap2\n      pop\n      pop\n      jump\t// out\n        /* \"#utility.yul\":7302:7420   */\n    tag_66:\n        /* \"#utility.yul\":7389:7413   */\n      tag_161\n        /* \"#utility.yul\":7407:7412   */\n      dup2\n        /* \"#utility.yul\":7389:7413   */\n      tag_51\n      jump\t// in\n    tag_161:\n        /* \"#utility.yul\":7384:7387   */\n      dup3\n        /* \"#utility.yul\":7377:7414   */\n      mstore\n        /* \"#utility.yul\":7302:7420   */\n      pop\n      pop\n      jump\t// out\n        /* \"#utility.yul\":7426:8070   */\n    tag_20:\n        /* \"#utility.yul\":7623:7627   */\n      0x00\n        /* \"#utility.yul\":7661:7664   */\n      0x80\n        /* \"#utility.yul\":7650:7659   */\n      dup3\n        /* \"#utility.yul\":7646:7665   */\n      add\n        /* \"#utility.yul\":7638:7665   */\n      swap1\n      pop\n        /* \"#utility.yul\":7675:7746   */\n      tag_163\n        /* \"#utility.yul\":7743:7744   */\n      0x00\n        /* \"#utility.yul\":7732:7741   */\n      dup4\n        /* \"#utility.yul\":7728:7745   */\n      add\n        /* \"#utility.yul\":7719:7725   */\n      dup8\n        /* \"#utility.yul\":7675:7746   */\n      tag_63\n      jump\t// in\n    tag_163:\n        /* \"#utility.yul\":7793:7802   */\n      dup2\n        /* \"#utility.yul\":7787:7791   */\n      dup2\n        /* \"#utility.yul\":7783:7803   */\n      sub\n        /* \"#utility.yul\":7778:7780   */\n      0x20\n        /* \"#utility.yul\":7767:7776   */\n      dup4\n        /* \"#utility.yul\":7763:7781   */\n      add\n        /* \"#utility.yul\":7756:7804   */\n      mstore\n        /* \"#utility.yul\":7821:7899   */\n      tag_164\n        /* \"#utility.yul\":7894:7898   */\n      dup2\n        /* \"#utility.yul\":7885:7891   */\n      dup7\n        /* \"#utility.yul\":7821:7899   */\n      tag_65\n      jump\t// in\n    tag_164:\n        /* \"#utility.yul\":7813:7899   */\n      swap1\n      pop\n        /* \"#utility.yul\":7909:7981   */\n      tag_165\n        /* \"#utility.yul\":7977:7979   */\n      0x40\n        /* \"#utility.yul\":7966:7975   */\n      dup4\n        /* \"#utility.yul\":7962:7980   */\n      add\n        /* \"#utility.yul\":7953:7959   */\n      dup6\n        /* \"#utility.yul\":7909:7981   */\n      tag_66\n      jump\t// in\n    tag_165:\n        /* \"#utility.yul\":7991:8063   */\n      tag_166\n        /* \"#utility.yul\":8059:8061   */\n      0x60\n        /* \"#utility.yul\":8048:8057   */\n      dup4\n        /* \"#utility.yul\":8044:8062   */\n      add\n        /* \"#utility.yul\":8035:8041   */\n      dup5\n        /* \"#utility.yul\":7991:8063   */\n      tag_66\n      jump\t// in\n    tag_166:\n        /* \"#utility.yul\":7426:8070   */\n      swap6\n      swap5\n      pop\n      pop\n      pop\n      pop\n      pop\n      jump\t// out\n        /* \"#utility.yul\":8076:8256   */\n    tag_67:\n        /* \"#utility.yul\":8124:8201   */\n      0x4e487b7100000000000000000000000000000000000000000000000000000000\n        /* \"#utility.yul\":8121:8122   */\n      0x00\n        /* \"#utility.yul\":8114:8202   */\n      mstore\n        /* \"#utility.yul\":8221:8225   */\n      0x22\n        /* \"#utility.yul\":8218:8219   */\n      0x04\n        /* \"#utility.yul\":8211:8226   */\n      mstore\n        /* \"#utility.yul\":8245:8249   */\n      0x24\n        /* \"#utility.yul\":8242:8243   */\n      0x00\n        /* \"#utility.yul\":8235:8250   */\n      revert\n        /* \"#utility.yul\":8262:8582   */\n    tag_25:\n        /* \"#utility.yul\":8306:8312   */\n      0x00\n        /* \"#utility.yul\":8343:8344   */\n      0x02\n        /* \"#utility.yul\":8337:8341   */\n      dup3\n        /* \"#utility.yul\":8333:8345   */\n      div\n        /* \"#utility.yul\":8323:8345   */\n      swap1\n      pop\n        /* \"#utility.yul\":8390:8391   */\n      0x01\n        /* \"#utility.yul\":8384:8388   */\n      dup3\n        /* \"#utility.yul\":8380:8392   */\n      and\n        /* \"#utility.yul\":8411:8429   */\n      dup1\n        /* \"#utility.yul\":8401:8482   */\n      tag_169\n      jumpi\n        /* \"#utility.yul\":8467:8471   */\n      0x7f\n        /* \"#utility.yul\":8459:8465   */\n      dup3\n        /* \"#utility.yul\":8455:8472   */\n      and\n        /* \"#utility.yul\":8445:8472   */\n      swap2\n      pop\n        /* \"#utility.yul\":8401:8482   */\n    tag_169:\n        /* \"#utility.yul\":8529:8531   */\n      0x20\n        /* \"#utility.yul\":8521:8527   */\n      dup3\n        /* \"#utility.yul\":8518:8532   */\n      lt\n        /* \"#utility.yul\":8498:8516   */\n      dup2\n        /* \"#utility.yul\":8495:8533   */\n      sub\n        /* \"#utility.yul\":8492:8576   */\n      tag_170\n      jumpi\n        /* \"#utility.yul\":8548:8566   */\n      tag_171\n      tag_67\n      jump\t// in\n    tag_171:\n        /* \"#utility.yul\":8492:8576   */\n    tag_170:\n        /* \"#utility.yul\":8313:8582   */\n      pop\n        /* \"#utility.yul\":8262:8582   */\n      swap2\n      swap1\n      pop\n      jump\t// out\n        /* \"#utility.yul\":8588:8729   */\n    tag_68:\n        /* \"#utility.yul\":8637:8641   */\n      0x00\n        /* \"#utility.yul\":8660:8663   */\n      dup2\n        /* \"#utility.yul\":8652:8663   */\n      swap1\n      pop\n        /* \"#utility.yul\":8683:8686   */\n      dup2\n        /* \"#utility.yul\":8680:8681   */\n      0x00\n        /* \"#utility.yul\":8673:8687   */\n      mstore\n        /* \"#utility.yul\":8717:8721   */\n      0x20\n        /* \"#utility.yul\":8714:8715   */\n      0x00\n        /* \"#utility.yul\":8704:8722   */\n      keccak256\n        /* \"#utility.yul\":8696:8722   */\n      swap1\n      pop\n        /* \"#utility.yul\":8588:8729   */\n      swap2\n      swap1\n      pop\n      jump\t// out\n        /* \"#utility.yul\":8735:8828   */\n    tag_69:\n        /* \"#utility.yul\":8772:8778   */\n      0x00\n        /* \"#utility.yul\":8819:8821   */\n      0x20\n        /* \"#utility.yul\":8814:8816   */\n      0x1f\n        /* \"#utility.yul\":8807:8812   */\n      dup4\n        /* \"#utility.yul\":8803:8817   */\n      add\n        /* \"#utility.yul\":8799:8822   */\n      div\n        /* \"#utility.yul\":8789:8822   */\n      swap1\n      pop\n        /* \"#utility.yul\":8735:8828   */\n      swap2\n      swap1\n      pop\n      jump\t// out\n        /* \"#utility.yul\":8834:8941   */\n    tag_70:\n        /* \"#utility.yul\":8878:8886   */\n      0x00\n        /* \"#utility.yul\":8928:8933   */\n      dup3\n        /* \"#utility.yul\":8922:8926   */\n      dup3\n        /* \"#utility.yul\":8918:8934   */\n      shl\n        /* \"#utility.yul\":8897:8934   */\n      swap1\n      pop\n        /* \"#utility.yul\":8834:8941   */\n      swap3\n      swap2\n      pop\n      pop\n      jump\t// out\n        /* \"#utility.yul\":8947:9340   */\n    tag_71:\n        /* \"#utility.yul\":9016:9022   */\n      0x00\n        /* \"#utility.yul\":9066:9067   */\n      0x08\n        /* \"#utility.yul\":9054:9064   */\n      dup4\n        /* \"#utility.yul\":9050:9068   */\n      mul\n        /* \"#utility.yul\":9089:9186   */\n      tag_176\n        /* \"#utility.yul\":9119:9185   */\n      0xffffffffffffffffffffffffffffffffffffffffffffffffffffffffffffffff\n        /* \"#utility.yul\":9108:9117   */\n      dup3\n        /* \"#utility.yul\":9089:9186   */\n      tag_70\n      jump\t// in\n    tag_176:\n        /* \"#utility.yul\":9207:9246   */\n      tag_177\n        /* \"#utility.yul\":9237:9245   */\n      dup7\n        /* \"#utility.yul\":9226:9235   */\n      dup4\n        /* \"#utility.yul\":9207:9246   */\n      tag_70\n      jump\t// in\n    tag_177:\n        /* \"#utility.yul\":9195:9246   */\n      swap6\n      pop\n        /* \"#utility.yul\":9279:9283   */\n      dup1\n        /* \"#utility.yul\":9275:9284   */\n      not\n        /* \"#utility.yul\":9268:9273   */\n      dup5\n        /* \"#utility.yul\":9264:9285   */\n      and\n        /* \"#utility.yul\":9255:9285   */\n      swap4\n      pop\n        /* \"#utility.yul\":9328:9332   */\n      dup1\n        /* \"#utility.yul\":9318:9326   */\n      dup7\n        /* \"#utility.yul\":9314:9333   */\n      and\n        /* \"#utility.yul\":9307:9312   */\n      dup5\n        /* \"#utility.yul\":9304:9334   */\n      or\n        /* \"#utility.yul\":9294:9334   */\n      swap3\n      pop\n        /* \"#utility.yul\":9023:9340   */\n      pop\n      pop\n        /* \"#utility.yul\":8947:9340   */\n      swap4\n      swap3\n      pop\n      pop\n      pop\n      jump\t// out\n        /* \"#utility.yul\":9346:9406   */\n    tag_72:\n        /* \"#utility.yul\":9374:9377   */\n      0x00\n        /* \"#utility.yul\":9395:9400   */\n      dup2\n        /* \"#utility.yul\":9388:9400   */\n      swap1\n      pop\n        /* \"#utility.yul\":9346:9406   */\n      swap2\n      swap1\n      pop\n      jump\t// out\n        /* \"#utility.yul\":9412:9554   */\n    tag_73:\n        /* \"#utility.yul\":9462:9471   */\n      0x00\n        /* \"#utility.yul\":9495:9548   */\n      tag_180\n        /* \"#utility.yul\":9513:9547   */\n      tag_181\n        /* \"#utility.yul\":9522:9546   */\n      tag_182\n        /* \"#utility.yul\":9540:9545   */\n      dup5\n        /* \"#utility.yul\":9522:9546   */\n      tag_51\n      jump\t// in\n    tag_182:\n        /* \"#utility.yul\":9513:9547   */\n      tag_72\n      jump\t// in\n    tag_181:\n        /* \"#utility.yul\":9495:9548   */\n      tag_51\n      jump\t// in\n    tag_180:\n        /* \"#utility.yul\":9482:9548   */\n      swap1\n      pop\n        /* \"#utility.yul\":9412:9554   */\n      swap2\n      swap1\n      pop\n      jump\t// out\n        /* \"#utility.yul\":9560:9635   */\n    tag_74:\n        /* \"#utility.yul\":9603:9606   */\n      0x00\n        /* \"#utility.yul\":9624:9629   */\n      dup2\n        /* \"#utility.yul\":9617:9629   */\n      swap1\n      pop\n        /* \"#utility.yul\":9560:9635   */\n      swap2\n      swap1\n      pop\n      jump\t// out\n        /* \"#utility.yul\":9641:9910   */\n    tag_75:\n        /* \"#utility.yul\":9751:9790   */\n      tag_185\n        /* \"#utility.yul\":9782:9789   */\n      dup4\n        /* \"#utility.yul\":9751:9790   */\n      tag_73\n      jump\t// in\n    tag_185:\n        /* \"#utility.yul\":9812:9903   */\n      tag_186\n        /* \"#utility.yul\":9861:9902   */\n      tag_187\n        /* \"#utility.yul\":9885:9901   */\n      dup3\n        /* \"#utility.yul\":9861:9902   */\n      tag_74\n      jump\t// in\n    tag_187:\n        /* \"#utility.yul\":9853:9859   */\n      dup5\n        /* \"#utility.yul\":9846:9850   */\n      dup5\n        /* \"#utility.yul\":9840:9851   */\n      sload\n        /* \"#utility.yul\":9812:9903   */\n      tag_71\n      jump\t// in\n    tag_186:\n        /* \"#utility.yul\":9806:9810   */\n      dup3\n        /* \"#utility.yul\":9799:9904   */\n      sstore\n        /* \"#utility.yul\":9717:9910   */\n      pop\n        /* \"#utility.yul\":9641:9910   */\n      pop\n      pop\n      pop\n      jump\t// out\n        /* \"#utility.yul\":9916:9989   */\n    tag_76:\n        /* \"#utility.yul\":9961:9964   */\n      0x00\n        /* \"#utility.yul\":9916:9989   */\n      swap1\n      jump\t// out\n        /* \"#utility.yul\":9995:10184   */\n    tag_77:\n        /* \"#utility.yul\":10072:10104   */\n      tag_190\n      tag_76\n      jump\t// in\n    tag_190:\n        /* \"#utility.yul\":10113:10178   */\n      tag_191\n        /* \"#utility.yul\":10171:10177   */\n      dup2\n        /* \"#utility.yul\":10163:10169   */\n      dup5\n        /* \"#utility.yul\":10157:10161   */\n      dup5\n        /* \"#utility.yul\":10113:10178   */\n      tag_75\n      jump\t// in\n    tag_191:\n        /* \"#utility.yul\":10048:10184   */\n      pop\n        /* \"#utility.yul\":9995:10184   */\n      pop\n      pop\n      jump\t// out\n        /* \"#utility.yul\":10190:10376   */\n    tag_78:\n        /* \"#utility.yul\":10250:10370   */\n    tag_193:\n        /* \"#utility.yul\":10267:10270   */\n      dup2\n        /* \"#utility.yul\":10260:10265   */\n      dup2\n        /* \"#utility.yul\":10257:10271   */\n      lt\n        /* \"#utility.yul\":10250:10370   */\n      iszero\n      tag_195\n      jumpi\n        /* \"#utility.yul\":10321:10360   */\n      tag_196\n        /* \"#utility.yul\":10358:10359   */\n      0x00\n        /* \"#utility.yul\":10351:10356   */\n      dup3\n        /* \"#utility.yul\":10321:10360   */\n      tag_77\n      jump\t// in\n    tag_196:\n        /* \"#utility.yul\":10294:10295   */\n      0x01\n        /* \"#utility.yul\":10287:10292   */\n      dup2\n        /* \"#utility.yul\":10283:10296   */\n      add\n        /* \"#utility.yul\":10274:10296   */\n      swap1\n      pop\n        /* \"#utility.yul\":10250:10370   */\n      jump(tag_193)\n    tag_195:\n        /* \"#utility.yul\":10190:10376   */\n      pop\n      pop\n      jump\t// out\n        /* \"#utility.yul\":10382:10925   */\n    tag_79:\n        /* \"#utility.yul\":10483:10485   */\n      0x1f\n        /* \"#utility.yul\":10478:10481   */\n      dup3\n        /* \"#utility.yul\":10475:10486   */\n      gt\n        /* \"#utility.yul\":10472:10918   */\n      iszero\n      tag_198\n      jumpi\n        /* \"#utility.yul\":10517:10555   */\n      tag_199\n        /* \"#utility.yul\":10549:10554   */\n      dup2\n        /* \"#utility.yul\":10517:10555   */\n      tag_68\n      jump\t// in\n    tag_199:\n        /* \"#utility.yul\":10601:10630   */\n      tag_200\n        /* \"#utility.yul\":10619:10629   */\n      dup5\n        /* \"#utility.yul\":10601:10630   */\n      tag_69\n      jump\t// in\n    tag_200:\n        /* \"#utility.yul\":10591:10599   */\n      dup2\n        /* \"#utility.yul\":10587:10631   */\n      add\n        /* \"#utility.yul\":10784:10786   */\n      0x20\n        /* \"#utility.yul\":10772:10782   */\n      dup6\n        /* \"#utility.yul\":10769:10787   */\n      lt\n        /* \"#utility.yul\":10766:10815   */\n      iszero\n      tag_201\n      jumpi\n        /* \"#utility.yul\":10805:10813   */\n      dup2\n        /* \"#utility.yul\":10790:10813   */\n      swap1\n      pop\n        /* \"#utility.yul\":10766:10815   */\n    tag_201:\n        /* \"#utility.yul\":10828:10908   */\n      tag_202\n        /* \"#utility.yul\":10884:10906   */\n      tag_203\n        /* \"#utility.yul\":10902:10905   */\n      dup6\n        /* \"#utility.yul\":10884:10906   */\n      tag_69\n      jump\t// in\n    tag_203:\n        /* \"#utility.yul\":10874:10882   */\n      dup4\n        /* \"#utility.yul\":10870:10907   */\n      add\n        /* \"#utility.yul\":10857:10868   */\n      dup3\n        /* \"#utility.yul\":10828:10908   */\n      tag_78\n      jump\t// in\n    tag_202:\n        /* \"#utility.yul\":10487:10918   */\n      pop\n      pop\n        /* \"#utility.yul\":10472:10918   */\n    tag_198:\n        /* \"#utility.yul\":10382:10925   */\n      pop\n      pop\n      pop\n      jump\t// out\n        /* \"#utility.yul\":10931:11048   */\n    tag_80:\n        /* \"#utility.yul\":10985:10993   */\n      0x00\n        /* \"#utility.yul\":11035:11040   */\n      dup3\n        /* \"#utility.yul\":11029:11033   */\n      dup3\n        /* \"#utility.yul\":11025:11041   */\n      shr\n        /* \"#utility.yul\":11004:11041   */\n      swap1\n      pop\n        /* \"#utility.yul\":10931:11048   */\n      swap3\n      swap2\n      pop\n      pop\n      jump\t// out\n        /* \"#utility.yul\":11054:11223   */\n    tag_81:\n        /* \"#utility.yul\":11098:11104   */\n      0x00\n        /* \"#utility.yul\":11131:11182   */\n      tag_206\n        /* \"#utility.yul\":11179:11180   */\n      0x00\n        /* \"#utility.yul\":11175:11181   */\n      not\n        /* \"#utility.yul\":11167:11172   */\n      dup5\n        /* \"#utility.yul\":11164:11165   */\n      0x08\n        /* \"#utility.yul\":11160:11173   */\n      mul\n        /* \"#utility.yul\":11131:11182   */\n      tag_80\n      jump\t// in\n    tag_206:\n        /* \"#utility.yul\":11127:11183   */\n      not\n        /* \"#utility.yul\":11212:11216   */\n      dup1\n        /* \"#utility.yul\":11206:11210   */\n      dup4\n        /* \"#utility.yul\":11202:11217   */\n      and\n        /* \"#utility.yul\":11192:11217   */\n      swap2\n      pop\n        /* \"#utility.yul\":11105:11223   */\n      pop\n        /* \"#utility.yul\":11054:11223   */\n      swap3\n      swap2\n      pop\n      pop\n      jump\t// out\n        /* \"#utility.yul\":11228:11523   */\n    tag_82:\n        /* \"#utility.yul\":11304:11308   */\n      0x00\n        /* \"#utility.yul\":11450:11479   */\n      tag_208\n        /* \"#utility.yul\":11475:11478   */\n      dup4\n        /* \"#utility.yul\":11469:11473   */\n      dup4\n        /* \"#utility.yul\":11450:11479   */\n      tag_81\n      jump\t// in\n    tag_208:\n        /* \"#utility.yul\":11442:11479   */\n      swap2\n      pop\n        /* \"#utility.yul\":11512:11515   */\n      dup3\n        /* \"#utility.yul\":11509:11510   */\n      0x02\n        /* \"#utility.yul\":11505:11516   */\n      mul\n        /* \"#utility.yul\":11499:11503   */\n      dup3\n        /* \"#utility.yul\":11496:11517   */\n      or\n        /* \"#utility.yul\":11488:11517   */\n      swap1\n      pop\n        /* \"#utility.yul\":11228:11523   */\n      swap3\n      swap2\n      pop\n      pop\n      jump\t// out\n        /* \"#utility.yul\":11528:12923   */\n    tag_32:\n        /* \"#utility.yul\":11645:11682   */\n      tag_210\n        /* \"#utility.yul\":11678:11681   */\n      dup3\n        /* \"#utility.yul\":11645:11682   */\n      tag_46\n      jump\t// in\n    tag_210:\n        /* \"#utility.yul\":11747:11765   */\n      0xffffffffffffffff\n        /* \"#utility.yul\":11739:11745   */\n      dup2\n        /* \"#utility.yul\":11736:11766   */\n      gt\n        /* \"#utility.yul\":11733:11789   */\n      iszero\n      tag_211\n      jumpi\n        /* \"#utility.yul\":11769:11787   */\n      tag_212\n      tag_56\n      jump\t// in\n    tag_212:\n        /* \"#utility.yul\":11733:11789   */\n    tag_211:\n        /* \"#utility.yul\":11813:11851   */\n      tag_213\n        /* \"#utility.yul\":11845:11849   */\n      dup3\n        /* \"#utility.yul\":11839:11850   */\n      sload\n        /* \"#utility.yul\":11813:11851   */\n      tag_25\n      jump\t// in\n    tag_213:\n        /* \"#utility.yul\":11898:11965   */\n      tag_214\n        /* \"#utility.yul\":11958:11964   */\n      dup3\n        /* \"#utility.yul\":11950:11956   */\n      dup3\n        /* \"#utility.yul\":11944:11948   */\n      dup6\n        /* \"#utility.yul\":11898:11965   */\n      tag_79\n      jump\t// in\n    tag_214:\n        /* \"#utility.yul\":11992:11993   */\n      0x00\n        /* \"#utility.yul\":12016:12020   */\n      0x20\n        /* \"#utility.yul\":12003:12020   */\n      swap1\n      pop\n        /* \"#utility.yul\":12048:12050   */\n      0x1f\n        /* \"#utility.yul\":12040:12046   */\n      dup4\n        /* \"#utility.yul\":12037:12051   */\n      gt\n        /* \"#utility.yul\":12065:12066   */\n      0x01\n        /* \"#utility.yul\":12060:12678   */\n      dup2\n      eq\n      tag_216\n      jumpi\n        /* \"#utility.yul\":12722:12723   */\n      0x00\n        /* \"#utility.yul\":12739:12745   */\n      dup5\n        /* \"#utility.yul\":12736:12813   */\n      iszero\n      tag_217\n      jumpi\n        /* \"#utility.yul\":12788:12797   */\n      dup3\n        /* \"#utility.yul\":12783:12786   */\n      dup8\n        /* \"#utility.yul\":12779:12798   */\n      add\n        /* \"#utility.yul\":12773:12799   */\n      mload\n        /* \"#utility.yul\":12764:12799   */\n      swap1\n      pop\n        /* \"#utility.yul\":12736:12813   */\n    tag_217:\n        /* \"#utility.yul\":12839:12906   */\n      tag_218\n        /* \"#utility.yul\":12899:12905   */\n      dup6\n        /* \"#utility.yul\":12892:12897   */\n      dup3\n        /* \"#utility.yul\":12839:12906   */\n      tag_82\n      jump\t// in\n    tag_218:\n        /* \"#utility.yul\":12833:12837   */\n      dup7\n        /* \"#utility.yul\":12826:12907   */\n      sstore\n        /* \"#utility.yul\":12695:12917   */\n      pop\n        /* \"#utility.yul\":12030:12917   */\n      jump(tag_215)\n        /* \"#utility.yul\":12060:12678   */\n    tag_216:\n        /* \"#utility.yul\":12112:12116   */\n      0x1f\n        /* \"#utility.yul\":12108:12117   */\n      not\n        /* \"#utility.yul\":12100:12106   */\n      dup5\n        /* \"#utility.yul\":12096:12118   */\n      and\n        /* \"#utility.yul\":12146:12183   */\n      tag_219\n        /* \"#utility.yul\":12178:12182   */\n      dup7\n        /* \"#utility.yul\":12146:12183   */\n      tag_68\n      jump\t// in\n    tag_219:\n        /* \"#utility.yul\":12205:12206   */\n      0x00\n        /* \"#utility.yul\":12219:12427   */\n    tag_220:\n        /* \"#utility.yul\":12233:12240   */\n      dup3\n        /* \"#utility.yul\":12230:12231   */\n      dup2\n        /* \"#utility.yul\":12227:12241   */\n      lt\n        /* \"#utility.yul\":12219:12427   */\n      iszero\n      tag_222\n      jumpi\n        /* \"#utility.yul\":12312:12321   */\n      dup5\n        /* \"#utility.yul\":12307:12310   */\n      dup10\n        /* \"#utility.yul\":12303:12322   */\n      add\n        /* \"#utility.yul\":12297:12323   */\n      mload\n        /* \"#utility.yul\":12289:12295   */\n      dup3\n        /* \"#utility.yul\":12282:12324   */\n      sstore\n        /* \"#utility.yul\":12363:12364   */\n      0x01\n        /* \"#utility.yul\":12355:12361   */\n      dup3\n        /* \"#utility.yul\":12351:12365   */\n      add\n        /* \"#utility.yul\":12341:12365   */\n      swap2\n      pop\n        /* \"#utility.yul\":12410:12412   */\n      0x20\n        /* \"#utility.yul\":12399:12408   */\n      dup6\n        /* \"#utility.yul\":12395:12413   */\n      add\n        /* \"#utility.yul\":12382:12413   */\n      swap5\n      pop\n        /* \"#utility.yul\":12256:12260   */\n      0x20\n        /* \"#utility.yul\":12253:12254   */\n      dup2\n        /* \"#utility.yul\":12249:12261   */\n      add\n        /* \"#utility.yul\":12244:12261   */\n      swap1\n      pop\n        /* \"#utility.yul\":12219:12427   */\n      jump(tag_220)\n    tag_222:\n        /* \"#utility.yul\":12455:12461   */\n      dup7\n        /* \"#utility.yul\":12446:12453   */\n      dup4\n        /* \"#utility.yul\":12443:12462   */\n      lt\n        /* \"#utility.yul\":12440:12619   */\n      iszero\n      tag_223\n      jumpi\n        /* \"#utility.yul\":12513:12522   */\n      dup5\n        /* \"#utility.yul\":12508:12511   */\n      dup10\n        /* \"#utility.yul\":12504:12523   */\n      add\n        /* \"#utility.yul\":12498:12524   */\n      mload\n        /* \"#utility.yul\":12556:12604   */\n      tag_224\n        /* \"#utility.yul\":12598:12602   */\n      0x1f\n        /* \"#utility.yul\":12590:12596   */\n      dup10\n        /* \"#utility.yul\":12586:12603   */\n      and\n        /* \"#utility.yul\":12575:12584   */\n      dup3\n        /* \"#utility.yul\":12556:12604   */\n      tag_81\n      jump\t// in\n    tag_224:\n        /* \"#utility.yul\":12548:12554   */\n      dup4\n        /* \"#utility.yul\":12541:12605   */\n      sstore\n        /* \"#utility.yul\":12463:12619   */\n      pop\n        /* \"#utility.yul\":12440:12619   */\n    tag_223:\n        /* \"#utility.yul\":12665:12666   */\n      0x01\n        /* \"#utility.yul\":12661:12662   */\n      0x02\n        /* \"#utility.yul\":12653:12659   */\n      dup9\n        /* \"#utility.yul\":12649:12663   */\n      mul\n        /* \"#utility.yul\":12645:12667   */\n      add\n        /* \"#utility.yul\":12639:12643   */\n      dup9\n        /* \"#utility.yul\":12632:12668   */\n      sstore\n        /* \"#utility.yul\":12067:12678   */\n      pop\n      pop\n      pop\n        /* \"#utility.yul\":12030:12917   */\n    tag_215:\n      pop\n        /* \"#utility.yul\":11620:12923   */\n      pop\n      pop\n      pop\n        /* \"#utility.yul\":11528:12923   */\n      pop\n      pop\n      jump\t// out\n\n    auxdata: 0xa26469706673582212207b5f9e085f13ac6b78422f25267f016b2402ffa5d2844c5e492abc34878eef3964736f6c634300081a0033\n}\n",
				"bytecode": {
					"linkReferences": {},
					"object": "6080604052348015600e575f80fd5b50610ae58061001c5f395ff3fe608060405234801561000f575f80fd5b506004361061003f575f3560e01c80630f53a47014610043578063598e62b014610073578063bbe156271461008f575b5f80fd5b61005d6004803603810190610058919061046e565b6100c2565b60405161006a9190610590565b60405180910390f35b61008d600480360381019061008891906106dc565b610210565b005b6100a960048036038101906100a4919061046e565b6102f8565b6040516100b9949392919061079c565b60405180910390f35b6100ca6103c8565b5f808373ffffffffffffffffffffffffffffffffffffffff1673ffffffffffffffffffffffffffffffffffffffff1681526020019081526020015f206040518060800160405290815f82015f9054906101000a900473ffffffffffffffffffffffffffffffffffffffff1673ffffffffffffffffffffffffffffffffffffffff1673ffffffffffffffffffffffffffffffffffffffff16815260200160018201805461017590610813565b80601f01602080910402602001604051908101604052809291908181526020018280546101a190610813565b80156101ec5780601f106101c3576101008083540402835291602001916101ec565b820191905f5260205f20905b8154815290600101906020018083116101cf57829003601f168201915b50505050508152602001600282015481526020016003820154815250509050919050565b60405180608001604052808373ffffffffffffffffffffffffffffffffffffffff1681526020018281526020015f8152602001428152505f803373ffffffffffffffffffffffffffffffffffffffff1673ffffffffffffffffffffffffffffffffffffffff1681526020019081526020015f205f820151815f015f6101000a81548173ffffffffffffffffffffffffffffffffffffffff021916908373ffffffffffffffffffffffffffffffffffffffff16021790555060208201518160010190816102dc91906109e0565b5060408201518160020155606082015181600301559050505050565b5f602052805f5260405f205f91509050805f015f9054906101000a900473ffffffffffffffffffffffffffffffffffffffff169080600101805461033b90610813565b80601f016020809104026020016040519081016040528092919081815260200182805461036790610813565b80156103b25780601f10610389576101008083540402835291602001916103b2565b820191905f5260205f20905b81548152906001019060200180831161039557829003601f168201915b5050505050908060020154908060030154905084565b60405180608001604052805f73ffffffffffffffffffffffffffffffffffffffff168152602001606081526020015f81526020015f81525090565b5f604051905090565b5f80fd5b5f80fd5b5f73ffffffffffffffffffffffffffffffffffffffff82169050919050565b5f61043d82610414565b9050919050565b61044d81610433565b8114610457575f80fd5b50565b5f8135905061046881610444565b92915050565b5f602082840312156104835761048261040c565b5b5f6104908482850161045a565b91505092915050565b6104a281610433565b82525050565b5f81519050919050565b5f82825260208201905092915050565b8281835e5f83830152505050565b5f601f19601f8301169050919050565b5f6104ea826104a8565b6104f481856104b2565b93506105048185602086016104c2565b61050d816104d0565b840191505092915050565b5f819050919050565b61052a81610518565b82525050565b5f608083015f8301516105455f860182610499565b506020830151848203602086015261055d82826104e0565b91505060408301516105726040860182610521565b5060608301516105856060860182610521565b508091505092915050565b5f6020820190508181035f8301526105a88184610530565b905092915050565b5f80fd5b5f80fd5b7f4e487b71000000000000000000000000000000000000000000000000000000005f52604160045260245ffd5b6105ee826104d0565b810181811067ffffffffffffffff8211171561060d5761060c6105b8565b5b80604052505050565b5f61061f610403565b905061062b82826105e5565b919050565b5f67ffffffffffffffff82111561064a576106496105b8565b5b610653826104d0565b9050602081019050919050565b828183375f83830152505050565b5f61068061067b84610630565b610616565b90508281526020810184848401111561069c5761069b6105b4565b5b6106a7848285610660565b509392505050565b5f82601f8301126106c3576106c26105b0565b5b81356106d384826020860161066e565b91505092915050565b5f80604083850312156106f2576106f161040c565b5b5f6106ff8582860161045a565b925050602083013567ffffffffffffffff8111156107205761071f610410565b5b61072c858286016106af565b9150509250929050565b61073f81610433565b82525050565b5f82825260208201905092915050565b5f61075f826104a8565b6107698185610745565b93506107798185602086016104c2565b610782816104d0565b840191505092915050565b61079681610518565b82525050565b5f6080820190506107af5f830187610736565b81810360208301526107c18186610755565b90506107d0604083018561078d565b6107dd606083018461078d565b95945050505050565b7f4e487b71000000000000000000000000000000000000000000000000000000005f52602260045260245ffd5b5f600282049050600182168061082a57607f821691505b60208210810361083d5761083c6107e6565b5b50919050565b5f819050815f5260205f209050919050565b5f6020601f8301049050919050565b5f82821b905092915050565b5f6008830261089f7fffffffffffffffffffffffffffffffffffffffffffffffffffffffffffffffff82610864565b6108a98683610864565b95508019841693508086168417925050509392505050565b5f819050919050565b5f6108e46108df6108da84610518565b6108c1565b610518565b9050919050565b5f819050919050565b6108fd836108ca565b610911610909826108eb565b848454610870565b825550505050565b5f90565b610925610919565b6109308184846108f4565b505050565b5b81811015610953576109485f8261091d565b600181019050610936565b5050565b601f8211156109985761096981610843565b61097284610855565b81016020851015610981578190505b61099561098d85610855565b830182610935565b50505b505050565b5f82821c905092915050565b5f6109b85f198460080261099d565b1980831691505092915050565b5f6109d083836109a9565b9150826002028217905092915050565b6109e9826104a8565b67ffffffffffffffff811115610a0257610a016105b8565b5b610a0c8254610813565b610a17828285610957565b5f60209050601f831160018114610a48575f8415610a36578287015190505b610a4085826109c5565b865550610aa7565b601f198416610a5686610843565b5f5b82811015610a7d57848901518255600182019150602085019450602081019050610a58565b86831015610a9a5784890151610a96601f8916826109a9565b8355505b6001600288020188555050505b50505050505056fea26469706673582212207b5f9e085f13ac6b78422f25267f016b2402ffa5d2844c5e492abc34878eef3964736f6c634300081a0033",
					"opcodes": "PUSH1 0x80 PUSH1 0x40 MSTORE CALLVALUE DUP1 ISZERO PUSH1 0xE JUMPI PUSH0 DUP1 REVERT JUMPDEST POP PUSH2 0xAE5 DUP1 PUSH2 0x1C PUSH0 CODECOPY PUSH0 RETURN INVALID PUSH1 0x80 PUSH1 0x40 MSTORE CALLVALUE DUP1 ISZERO PUSH2 0xF JUMPI PUSH0 DUP1 REVERT JUMPDEST POP PUSH1 0x4 CALLDATASIZE LT PUSH2 0x3F JUMPI PUSH0 CALLDATALOAD PUSH1 0xE0 SHR DUP1 PUSH4 0xF53A470 EQ PUSH2 0x43 JUMPI DUP1 PUSH4 0x598E62B0 EQ PUSH2 0x73 JUMPI DUP1 PUSH4 0xBBE15627 EQ PUSH2 0x8F JUMPI JUMPDEST PUSH0 DUP1 REVERT JUMPDEST PUSH2 0x5D PUSH1 0x4 DUP1 CALLDATASIZE SUB DUP2 ADD SWAP1 PUSH2 0x58 SWAP2 SWAP1 PUSH2 0x46E JUMP JUMPDEST PUSH2 0xC2 JUMP JUMPDEST PUSH1 0x40 MLOAD PUSH2 0x6A SWAP2 SWAP1 PUSH2 0x590 JUMP JUMPDEST PUSH1 0x40 MLOAD DUP1 SWAP2 SUB SWAP1 RETURN JUMPDEST PUSH2 0x8D PUSH1 0x4 DUP1 CALLDATASIZE SUB DUP2 ADD SWAP1 PUSH2 0x88 SWAP2 SWAP1 PUSH2 0x6DC JUMP JUMPDEST PUSH2 0x210 JUMP JUMPDEST STOP JUMPDEST PUSH2 0xA9 PUSH1 0x4 DUP1 CALLDATASIZE SUB DUP2 ADD SWAP1 PUSH2 0xA4 SWAP2 SWAP1 PUSH2 0x46E JUMP JUMPDEST PUSH2 0x2F8 JUMP JUMPDEST PUSH1 0x40 MLOAD PUSH2 0xB9 SWAP5 SWAP4 SWAP3 SWAP2 SWAP1 PUSH2 0x79C JUMP JUMPDEST PUSH1 0x40 MLOAD DUP1 SWAP2 SUB SWAP1 RETURN JUMPDEST PUSH2 0xCA PUSH2 0x3C8 JUMP JUMPDEST PUSH0 DUP1 DUP4 PUSH20 0xFFFFFFFFFFFFFFFFFFFFFFFFFFFFFFFFFFFFFFFF AND PUSH20 0xFFFFFFFFFFFFFFFFFFFFFFFFFFFFFFFFFFFFFFFF AND DUP2 MSTORE PUSH1 0x20 ADD SWAP1 DUP2 MSTORE PUSH1 0x20 ADD PUSH0 KECCAK256 PUSH1 0x40 MLOAD DUP1 PUSH1 0x80 ADD PUSH1 0x40 MSTORE SWAP1 DUP2 PUSH0 DUP3 ADD PUSH0 SWAP1 SLOAD SWAP1 PUSH2 0x100 EXP SWAP1 DIV PUSH20 0xFFFFFFFFFFFFFFFFFFFFFFFFFFFFFFFFFFFFFFFF AND PUSH20 0xFFFFFFFFFFFFFFFFFFFFFFFFFFFFFFFFFFFFFFFF AND PUSH20 0xFFFFFFFFFFFFFFFFFFFFFFFFFFFFFFFFFFFFFFFF AND DUP2 MSTORE PUSH1 0x20 ADD PUSH1 0x1 DUP3 ADD DUP1 SLOAD PUSH2 0x175 SWAP1 PUSH2 0x813 JUMP JUMPDEST DUP1 PUSH1 0x1F ADD PUSH1 0x20 DUP1 SWAP2 DIV MUL PUSH1 0x20 ADD PUSH1 0x40 MLOAD SWAP1 DUP2 ADD PUSH1 0x40 MSTORE DUP1 SWAP3 SWAP2 SWAP1 DUP2 DUP2 MSTORE PUSH1 0x20 ADD DUP3 DUP1 SLOAD PUSH2 0x1A1 SWAP1 PUSH2 0x813 JUMP JUMPDEST DUP1 ISZERO PUSH2 0x1EC JUMPI DUP1 PUSH1 0x1F LT PUSH2 0x1C3 JUMPI PUSH2 0x100 DUP1 DUP4 SLOAD DIV MUL DUP4 MSTORE SWAP2 PUSH1 0x20 ADD SWAP2 PUSH2 0x1EC JUMP JUMPDEST DUP3 ADD SWAP2 SWAP1 PUSH0 MSTORE PUSH1 0x20 PUSH0 KECCAK256 SWAP1 JUMPDEST DUP2 SLOAD DUP2 MSTORE SWAP1 PUSH1 0x1 ADD SWAP1 PUSH1 0x20 ADD DUP1 DUP4 GT PUSH2 0x1CF JUMPI DUP3 SWAP1 SUB PUSH1 0x1F AND DUP3 ADD SWAP2 JUMPDEST POP POP POP POP POP DUP2 MSTORE PUSH1 0x20 ADD PUSH1 0x2 DUP3 ADD SLOAD DUP2 MSTORE PUSH1 0x20 ADD PUSH1 0x3 DUP3 ADD SLOAD DUP2 MSTORE POP POP SWAP1 POP SWAP2 SWAP1 POP JUMP JUMPDEST PUSH1 0x40 MLOAD DUP1 PUSH1 0x80 ADD PUSH1 0x40 MSTORE DUP1 DUP4 PUSH20 0xFFFFFFFFFFFFFFFFFFFFFFFFFFFFFFFFFFFFFFFF AND DUP2 MSTORE PUSH1 0x20 ADD DUP3 DUP2 MSTORE PUSH1 0x20 ADD PUSH0 DUP2 MSTORE PUSH1 0x20 ADD TIMESTAMP DUP2 MSTORE POP PUSH0 DUP1 CALLER PUSH20 0xFFFFFFFFFFFFFFFFFFFFFFFFFFFFFFFFFFFFFFFF AND PUSH20 0xFFFFFFFFFFFFFFFFFFFFFFFFFFFFFFFFFFFFFFFF AND DUP2 MSTORE PUSH1 0x20 ADD SWAP1 DUP2 MSTORE PUSH1 0x20 ADD PUSH0 KECCAK256 PUSH0 DUP3 ADD MLOAD DUP2 PUSH0 ADD PUSH0 PUSH2 0x100 EXP DUP2 SLOAD DUP2 PUSH20 0xFFFFFFFFFFFFFFFFFFFFFFFFFFFFFFFFFFFFFFFF MUL NOT AND SWAP1 DUP4 PUSH20 0xFFFFFFFFFFFFFFFFFFFFFFFFFFFFFFFFFFFFFFFF AND MUL OR SWAP1 SSTORE POP PUSH1 0x20 DUP3 ADD MLOAD DUP2 PUSH1 0x1 ADD SWAP1 DUP2 PUSH2 0x2DC SWAP2 SWAP1 PUSH2 0x9E0 JUMP JUMPDEST POP PUSH1 0x40 DUP3 ADD MLOAD DUP2 PUSH1 0x2 ADD SSTORE PUSH1 0x60 DUP3 ADD MLOAD DUP2 PUSH1 0x3 ADD SSTORE SWAP1 POP POP POP POP JUMP JUMPDEST PUSH0 PUSH1 0x20 MSTORE DUP1 PUSH0 MSTORE PUSH1 0x40 PUSH0 KECCAK256 PUSH0 SWAP2 POP SWAP1 POP DUP1 PUSH0 ADD PUSH0 SWAP1 SLOAD SWAP1 PUSH2 0x100 EXP SWAP1 DIV PUSH20 0xFFFFFFFFFFFFFFFFFFFFFFFFFFFFFFFFFFFFFFFF AND SWAP1 DUP1 PUSH1 0x1 ADD DUP1 SLOAD PUSH2 0x33B SWAP1 PUSH2 0x813 JUMP JUMPDEST DUP1 PUSH1 0x1F ADD PUSH1 0x20 DUP1 SWAP2 DIV MUL PUSH1 0x20 ADD PUSH1 0x40 MLOAD SWAP1 DUP2 ADD PUSH1 0x40 MSTORE DUP1 SWAP3 SWAP2 SWAP1 DUP2 DUP2 MSTORE PUSH1 0x20 ADD DUP3 DUP1 SLOAD PUSH2 0x367 SWAP1 PUSH2 0x813 JUMP JUMPDEST DUP1 ISZERO PUSH2 0x3B2 JUMPI DUP1 PUSH1 0x1F LT PUSH2 0x389 JUMPI PUSH2 0x100 DUP1 DUP4 SLOAD DIV MUL DUP4 MSTORE SWAP2 PUSH1 0x20 ADD SWAP2 PUSH2 0x3B2 JUMP JUMPDEST DUP3 ADD SWAP2 SWAP1 PUSH0 MSTORE PUSH1 0x20 PUSH0 KECCAK256 SWAP1 JUMPDEST DUP2 SLOAD DUP2 MSTORE SWAP1 PUSH1 0x1 ADD SWAP1 PUSH1 0x20 ADD DUP1 DUP4 GT PUSH2 0x395 JUMPI DUP3 SWAP1 SUB PUSH1 0x1F AND DUP3 ADD SWAP2 JUMPDEST POP POP POP POP POP SWAP1 DUP1 PUSH1 0x2 ADD SLOAD SWAP1 DUP1 PUSH1 0x3 ADD SLOAD SWAP1 POP DUP5 JUMP JUMPDEST PUSH1 0x40 MLOAD DUP1 PUSH1 0x80 ADD PUSH1 0x40 MSTORE DUP1 PUSH0 PUSH20 0xFFFFFFFFFFFFFFFFFFFFFFFFFFFFFFFFFFFFFFFF AND DUP2 MSTORE PUSH1 0x20 ADD PUSH1 0x60 DUP2 MSTORE PUSH1 0x20 ADD PUSH0 DUP2 MSTORE PUSH1 0x20 ADD PUSH0 DUP2 MSTORE POP SWAP1 JUMP JUMPDEST PUSH0 PUSH1 0x40 MLOAD SWAP1 POP SWAP1 JUMP JUMPDEST PUSH0 DUP1 REVERT JUMPDEST PUSH0 DUP1 REVERT JUMPDEST PUSH0 PUSH20 0xFFFFFFFFFFFFFFFFFFFFFFFFFFFFFFFFFFFFFFFF DUP3 AND SWAP1 POP SWAP2 SWAP1 POP JUMP JUMPDEST PUSH0 PUSH2 0x43D DUP3 PUSH2 0x414 JUMP JUMPDEST SWAP1 POP SWAP2 SWAP1 POP JUMP JUMPDEST PUSH2 0x44D DUP2 PUSH2 0x433 JUMP JUMPDEST DUP2 EQ PUSH2 0x457 JUMPI PUSH0 DUP1 REVERT JUMPDEST POP JUMP JUMPDEST PUSH0 DUP2 CALLDATALOAD SWAP1 POP PUSH2 0x468 DUP2 PUSH2 0x444 JUMP JUMPDEST SWAP3 SWAP2 POP POP JUMP JUMPDEST PUSH0 PUSH1 0x20 DUP3 DUP5 SUB SLT ISZERO PUSH2 0x483 JUMPI PUSH2 0x482 PUSH2 0x40C JUMP JUMPDEST JUMPDEST PUSH0 PUSH2 0x490 DUP5 DUP3 DUP6 ADD PUSH2 0x45A JUMP JUMPDEST SWAP2 POP POP SWAP3 SWAP2 POP POP JUMP JUMPDEST PUSH2 0x4A2 DUP2 PUSH2 0x433 JUMP JUMPDEST DUP3 MSTORE POP POP JUMP JUMPDEST PUSH0 DUP2 MLOAD SWAP1 POP SWAP2 SWAP1 POP JUMP JUMPDEST PUSH0 DUP3 DUP3 MSTORE PUSH1 0x20 DUP3 ADD SWAP1 POP SWAP3 SWAP2 POP POP JUMP JUMPDEST DUP3 DUP2 DUP4 MCOPY PUSH0 DUP4 DUP4 ADD MSTORE POP POP POP JUMP JUMPDEST PUSH0 PUSH1 0x1F NOT PUSH1 0x1F DUP4 ADD AND SWAP1 POP SWAP2 SWAP1 POP JUMP JUMPDEST PUSH0 PUSH2 0x4EA DUP3 PUSH2 0x4A8 JUMP JUMPDEST PUSH2 0x4F4 DUP2 DUP6 PUSH2 0x4B2 JUMP JUMPDEST SWAP4 POP PUSH2 0x504 DUP2 DUP6 PUSH1 0x20 DUP7 ADD PUSH2 0x4C2 JUMP JUMPDEST PUSH2 0x50D DUP2 PUSH2 0x4D0 JUMP JUMPDEST DUP5 ADD SWAP2 POP POP SWAP3 SWAP2 POP POP JUMP JUMPDEST PUSH0 DUP2 SWAP1 POP SWAP2 SWAP1 POP JUMP JUMPDEST PUSH2 0x52A DUP2 PUSH2 0x518 JUMP JUMPDEST DUP3 MSTORE POP POP JUMP JUMPDEST PUSH0 PUSH1 0x80 DUP4 ADD PUSH0 DUP4 ADD MLOAD PUSH2 0x545 PUSH0 DUP7 ADD DUP3 PUSH2 0x499 JUMP JUMPDEST POP PUSH1 0x20 DUP4 ADD MLOAD DUP5 DUP3 SUB PUSH1 0x20 DUP7 ADD MSTORE PUSH2 0x55D DUP3 DUP3 PUSH2 0x4E0 JUMP JUMPDEST SWAP2 POP POP PUSH1 0x40 DUP4 ADD MLOAD PUSH2 0x572 PUSH1 0x40 DUP7 ADD DUP3 PUSH2 0x521 JUMP JUMPDEST POP PUSH1 0x60 DUP4 ADD MLOAD PUSH2 0x585 PUSH1 0x60 DUP7 ADD DUP3 PUSH2 0x521 JUMP JUMPDEST POP DUP1 SWAP2 POP POP SWAP3 SWAP2 POP POP JUMP JUMPDEST PUSH0 PUSH1 0x20 DUP3 ADD SWAP1 POP DUP2 DUP2 SUB PUSH0 DUP4 ADD MSTORE PUSH2 0x5A8 DUP2 DUP5 PUSH2 0x530 JUMP JUMPDEST SWAP1 POP SWAP3 SWAP2 POP POP JUMP JUMPDEST PUSH0 DUP1 REVERT JUMPDEST PUSH0 DUP1 REVERT JUMPDEST PUSH32 0x4E487B7100000000000000000000000000000000000000000000000000000000 PUSH0 MSTORE PUSH1 0x41 PUSH1 0x4 MSTORE PUSH1 0x24 PUSH0 REVERT JUMPDEST PUSH2 0x5EE DUP3 PUSH2 0x4D0 JUMP JUMPDEST DUP2 ADD DUP2 DUP2 LT PUSH8 0xFFFFFFFFFFFFFFFF DUP3 GT OR ISZERO PUSH2 0x60D JUMPI PUSH2 0x60C PUSH2 0x5B8 JUMP JUMPDEST JUMPDEST DUP1 PUSH1 0x40 MSTORE POP POP POP JUMP JUMPDEST PUSH0 PUSH2 0x61F PUSH2 0x403 JUMP JUMPDEST SWAP1 POP PUSH2 0x62B DUP3 DUP3 PUSH2 0x5E5 JUMP JUMPDEST SWAP2 SWAP1 POP JUMP JUMPDEST PUSH0 PUSH8 0xFFFFFFFFFFFFFFFF DUP3 GT ISZERO PUSH2 0x64A JUMPI PUSH2 0x649 PUSH2 0x5B8 JUMP JUMPDEST JUMPDEST PUSH2 0x653 DUP3 PUSH2 0x4D0 JUMP JUMPDEST SWAP1 POP PUSH1 0x20 DUP2 ADD SWAP1 POP SWAP2 SWAP1 POP JUMP JUMPDEST DUP3 DUP2 DUP4 CALLDATACOPY PUSH0 DUP4 DUP4 ADD MSTORE POP POP POP JUMP JUMPDEST PUSH0 PUSH2 0x680 PUSH2 0x67B DUP5 PUSH2 0x630 JUMP JUMPDEST PUSH2 0x616 JUMP JUMPDEST SWAP1 POP DUP3 DUP2 MSTORE PUSH1 0x20 DUP2 ADD DUP5 DUP5 DUP5 ADD GT ISZERO PUSH2 0x69C JUMPI PUSH2 0x69B PUSH2 0x5B4 JUMP JUMPDEST JUMPDEST PUSH2 0x6A7 DUP5 DUP3 DUP6 PUSH2 0x660 JUMP JUMPDEST POP SWAP4 SWAP3 POP POP POP JUMP JUMPDEST PUSH0 DUP3 PUSH1 0x1F DUP4 ADD SLT PUSH2 0x6C3 JUMPI PUSH2 0x6C2 PUSH2 0x5B0 JUMP JUMPDEST JUMPDEST DUP2 CALLDATALOAD PUSH2 0x6D3 DUP5 DUP3 PUSH1 0x20 DUP7 ADD PUSH2 0x66E JUMP JUMPDEST SWAP2 POP POP SWAP3 SWAP2 POP POP JUMP JUMPDEST PUSH0 DUP1 PUSH1 0x40 DUP4 DUP6 SUB SLT ISZERO PUSH2 0x6F2 JUMPI PUSH2 0x6F1 PUSH2 0x40C JUMP JUMPDEST JUMPDEST PUSH0 PUSH2 0x6FF DUP6 DUP3 DUP7 ADD PUSH2 0x45A JUMP JUMPDEST SWAP3 POP POP PUSH1 0x20 DUP4 ADD CALLDATALOAD PUSH8 0xFFFFFFFFFFFFFFFF DUP2 GT ISZERO PUSH2 0x720 JUMPI PUSH2 0x71F PUSH2 0x410 JUMP JUMPDEST JUMPDEST PUSH2 0x72C DUP6 DUP3 DUP7 ADD PUSH2 0x6AF JUMP JUMPDEST SWAP2 POP POP SWAP3 POP SWAP3 SWAP1 POP JUMP JUMPDEST PUSH2 0x73F DUP2 PUSH2 0x433 JUMP JUMPDEST DUP3 MSTORE POP POP JUMP JUMPDEST PUSH0 DUP3 DUP3 MSTORE PUSH1 0x20 DUP3 ADD SWAP1 POP SWAP3 SWAP2 POP POP JUMP JUMPDEST PUSH0 PUSH2 0x75F DUP3 PUSH2 0x4A8 JUMP JUMPDEST PUSH2 0x769 DUP2 DUP6 PUSH2 0x745 JUMP JUMPDEST SWAP4 POP PUSH2 0x779 DUP2 DUP6 PUSH1 0x20 DUP7 ADD PUSH2 0x4C2 JUMP JUMPDEST PUSH2 0x782 DUP2 PUSH2 0x4D0 JUMP JUMPDEST DUP5 ADD SWAP2 POP POP SWAP3 SWAP2 POP POP JUMP JUMPDEST PUSH2 0x796 DUP2 PUSH2 0x518 JUMP JUMPDEST DUP3 MSTORE POP POP JUMP JUMPDEST PUSH0 PUSH1 0x80 DUP3 ADD SWAP1 POP PUSH2 0x7AF PUSH0 DUP4 ADD DUP8 PUSH2 0x736 JUMP JUMPDEST DUP2 DUP2 SUB PUSH1 0x20 DUP4 ADD MSTORE PUSH2 0x7C1 DUP2 DUP7 PUSH2 0x755 JUMP JUMPDEST SWAP1 POP PUSH2 0x7D0 PUSH1 0x40 DUP4 ADD DUP6 PUSH2 0x78D JUMP JUMPDEST PUSH2 0x7DD PUSH1 0x60 DUP4 ADD DUP5 PUSH2 0x78D JUMP JUMPDEST SWAP6 SWAP5 POP POP POP POP POP JUMP JUMPDEST PUSH32 0x4E487B7100000000000000000000000000000000000000000000000000000000 PUSH0 MSTORE PUSH1 0x22 PUSH1 0x4 MSTORE PUSH1 0x24 PUSH0 REVERT JUMPDEST PUSH0 PUSH1 0x2 DUP3 DIV SWAP1 POP PUSH1 0x1 DUP3 AND DUP1 PUSH2 0x82A JUMPI PUSH1 0x7F DUP3 AND SWAP2 POP JUMPDEST PUSH1 0x20 DUP3 LT DUP2 SUB PUSH2 0x83D JUMPI PUSH2 0x83C PUSH2 0x7E6 JUMP JUMPDEST JUMPDEST POP SWAP2 SWAP1 POP JUMP JUMPDEST PUSH0 DUP2 SWAP1 POP DUP2 PUSH0 MSTORE PUSH1 0x20 PUSH0 KECCAK256 SWAP1 POP SWAP2 SWAP1 POP JUMP JUMPDEST PUSH0 PUSH1 0x20 PUSH1 0x1F DUP4 ADD DIV SWAP1 POP SWAP2 SWAP1 POP JUMP JUMPDEST PUSH0 DUP3 DUP3 SHL SWAP1 POP SWAP3 SWAP2 POP POP JUMP JUMPDEST PUSH0 PUSH1 0x8 DUP4 MUL PUSH2 0x89F PUSH32 0xFFFFFFFFFFFFFFFFFFFFFFFFFFFFFFFFFFFFFFFFFFFFFFFFFFFFFFFFFFFFFFFF DUP3 PUSH2 0x864 JUMP JUMPDEST PUSH2 0x8A9 DUP7 DUP4 PUSH2 0x864 JUMP JUMPDEST SWAP6 POP DUP1 NOT DUP5 AND SWAP4 POP DUP1 DUP7 AND DUP5 OR SWAP3 POP POP POP SWAP4 SWAP3 POP POP POP JUMP JUMPDEST PUSH0 DUP2 SWAP1 POP SWAP2 SWAP1 POP JUMP JUMPDEST PUSH0 PUSH2 0x8E4 PUSH2 0x8DF PUSH2 0x8DA DUP5 PUSH2 0x518 JUMP JUMPDEST PUSH2 0x8C1 JUMP JUMPDEST PUSH2 0x518 JUMP JUMPDEST SWAP1 POP SWAP2 SWAP1 POP JUMP JUMPDEST PUSH0 DUP2 SWAP1 POP SWAP2 SWAP1 POP JUMP JUMPDEST PUSH2 0x8FD DUP4 PUSH2 0x8CA JUMP JUMPDEST PUSH2 0x911 PUSH2 0x909 DUP3 PUSH2 0x8EB JUMP JUMPDEST DUP5 DUP5 SLOAD PUSH2 0x870 JUMP JUMPDEST DUP3 SSTORE POP POP POP POP JUMP JUMPDEST PUSH0 SWAP1 JUMP JUMPDEST PUSH2 0x925 PUSH2 0x919 JUMP JUMPDEST PUSH2 0x930 DUP2 DUP5 DUP5 PUSH2 0x8F4 JUMP JUMPDEST POP POP POP JUMP JUMPDEST JUMPDEST DUP2 DUP2 LT ISZERO PUSH2 0x953 JUMPI PUSH2 0x948 PUSH0 DUP3 PUSH2 0x91D JUMP JUMPDEST PUSH1 0x1 DUP2 ADD SWAP1 POP PUSH2 0x936 JUMP JUMPDEST POP POP JUMP JUMPDEST PUSH1 0x1F DUP3 GT ISZERO PUSH2 0x998 JUMPI PUSH2 0x969 DUP2 PUSH2 0x843 JUMP JUMPDEST PUSH2 0x972 DUP5 PUSH2 0x855 JUMP JUMPDEST DUP2 ADD PUSH1 0x20 DUP6 LT ISZERO PUSH2 0x981 JUMPI DUP2 SWAP1 POP JUMPDEST PUSH2 0x995 PUSH2 0x98D DUP6 PUSH2 0x855 JUMP JUMPDEST DUP4 ADD DUP3 PUSH2 0x935 JUMP JUMPDEST POP POP JUMPDEST POP POP POP JUMP JUMPDEST PUSH0 DUP3 DUP3 SHR SWAP1 POP SWAP3 SWAP2 POP POP JUMP JUMPDEST PUSH0 PUSH2 0x9B8 PUSH0 NOT DUP5 PUSH1 0x8 MUL PUSH2 0x99D JUMP JUMPDEST NOT DUP1 DUP4 AND SWAP2 POP POP SWAP3 SWAP2 POP POP JUMP JUMPDEST PUSH0 PUSH2 0x9D0 DUP4 DUP4 PUSH2 0x9A9 JUMP JUMPDEST SWAP2 POP DUP3 PUSH1 0x2 MUL DUP3 OR SWAP1 POP SWAP3 SWAP2 POP POP JUMP JUMPDEST PUSH2 0x9E9 DUP3 PUSH2 0x4A8 JUMP JUMPDEST PUSH8 0xFFFFFFFFFFFFFFFF DUP2 GT ISZERO PUSH2 0xA02 JUMPI PUSH2 0xA01 PUSH2 0x5B8 JUMP JUMPDEST JUMPDEST PUSH2 0xA0C DUP3 SLOAD PUSH2 0x813 JUMP JUMPDEST PUSH2 0xA17 DUP3 DUP3 DUP6 PUSH2 0x957 JUMP JUMPDEST PUSH0 PUSH1 0x20 SWAP1 POP PUSH1 0x1F DUP4 GT PUSH1 0x1 DUP2 EQ PUSH2 0xA48 JUMPI PUSH0 DUP5 ISZERO PUSH2 0xA36 JUMPI DUP3 DUP8 ADD MLOAD SWAP1 POP JUMPDEST PUSH2 0xA40 DUP6 DUP3 PUSH2 0x9C5 JUMP JUMPDEST DUP7 SSTORE POP PUSH2 0xAA7 JUMP JUMPDEST PUSH1 0x1F NOT DUP5 AND PUSH2 0xA56 DUP7 PUSH2 0x843 JUMP JUMPDEST PUSH0 JUMPDEST DUP3 DUP2 LT ISZERO PUSH2 0xA7D JUMPI DUP5 DUP10 ADD MLOAD DUP3 SSTORE PUSH1 0x1 DUP3 ADD SWAP2 POP PUSH1 0x20 DUP6 ADD SWAP5 POP PUSH1 0x20 DUP2 ADD SWAP1 POP PUSH2 0xA58 JUMP JUMPDEST DUP7 DUP4 LT ISZERO PUSH2 0xA9A JUMPI DUP5 DUP10 ADD MLOAD PUSH2 0xA96 PUSH1 0x1F DUP10 AND DUP3 PUSH2 0x9A9 JUMP JUMPDEST DUP4 SSTORE POP JUMPDEST PUSH1 0x1 PUSH1 0x2 DUP9 MUL ADD DUP9 SSTORE POP POP POP JUMPDEST POP POP POP POP POP POP JUMP INVALID LOG2 PUSH5 0x6970667358 0x22 SLT KECCAK256 PUSH28 0x5F9E085F13AC6B78422F25267F016B2402FFA5D2844C5E492ABC3487 DUP15 0xEF CODECOPY PUSH5 0x736F6C6343 STOP ADDMOD BYTE STOP CALLER "
				},
				"gasEstimates": {
					"creation": {
						"codeDepositCost": "557800",
						"executionCost": "592",
						"totalCost": "558392"
					},
					"external": {
						"getProfile(address)": "infinite",
						"profiles(address)": "infinite",
						"setProfile(address,string)": "infinite"
					}
				},
				"methodIdentifiers": {
					"getProfile(address)": "0f53a470",
					"profiles(address)": "bbe15627",
					"setProfile(address,string)": "598e62b0"
				}
			},
			"storageLayout": {
				"storage": [
					{
						"astId": 15,
						"contract": "contracts/Banking_customer.sol:Profile",
						"label": "profiles",
						"offset": 0,
						"slot": "0",
						"type": "t_mapping(t_address,t_struct(CustomerProfile)10_storage)"
					}
				],
				"types": {
					"t_address": {
						"encoding": "inplace",
						"label": "address",
						"numberOfBytes": "20"
					},
					"t_mapping(t_address,t_struct(CustomerProfile)10_storage)": {
						"encoding": "mapping",
						"key": "t_address",
						"label": "mapping(address => struct Profile.CustomerProfile)",
						"numberOfBytes": "32",
						"value": "t_struct(CustomerProfile)10_storage"
					},
					"t_string_storage": {
						"encoding": "bytes",
						"label": "string",
						"numberOfBytes": "32"
					},
					"t_struct(CustomerProfile)10_storage": {
						"encoding": "inplace",
						"label": "struct Profile.CustomerProfile",
						"members": [
							{
								"astId": 3,
								"contract": "contracts/Banking_customer.sol:Profile",
								"label": "userAddress",
								"offset": 0,
								"slot": "0",
								"type": "t_address"
							},
							{
								"astId": 5,
								"contract": "contracts/Banking_customer.sol:Profile",
								"label": "username",
								"offset": 0,
								"slot": "1",
								"type": "t_string_storage"
							},
							{
								"astId": 7,
								"contract": "contracts/Banking_customer.sol:Profile",
								"label": "balance",
								"offset": 0,
								"slot": "2",
								"type": "t_uint256"
							},
							{
								"astId": 9,
								"contract": "contracts/Banking_customer.sol:Profile",
								"label": "creationTimestamp",
								"offset": 0,
								"slot": "3",
								"type": "t_uint256"
							}
						],
						"numberOfBytes": "128"
					},
					"t_uint256": {
						"encoding": "inplace",
						"label": "uint256",
						"numberOfBytes": "32"
					}
				}
			},
			"userdoc": {
				"kind": "user",
				"methods": {},
				"version": 1
			}
		}
	}
}