{
	"contracts/Banking-transactions.sol": {
		"Transactions": {
			"abi": [
				{
					"inputs": [],
					"stateMutability": "nonpayable",
					"type": "constructor"
				},
				{
					"anonymous": false,
					"inputs": [
						{
							"indexed": true,
							"internalType": "address",
							"name": "from",
							"type": "address"
						},
						{
							"indexed": true,
							"internalType": "address",
							"name": "to",
							"type": "address"
						},
						{
							"indexed": false,
							"internalType": "string",
							"name": "message",
							"type": "string"
						},
						{
							"indexed": false,
							"internalType": "uint256",
							"name": "amount",
							"type": "uint256"
						},
						{
							"indexed": false,
							"internalType": "uint256",
							"name": "timestamp",
							"type": "uint256"
						}
					],
					"name": "TranserComplete",
					"type": "event"
				},
				{
					"inputs": [
						{
							"internalType": "address",
							"name": "",
							"type": "address"
						},
						{
							"internalType": "uint256",
							"name": "",
							"type": "uint256"
						}
					],
					"name": "accounts",
					"outputs": [
						{
							"internalType": "uint256",
							"name": "balance",
							"type": "uint256"
						},
						{
							"internalType": "uint256",
							"name": "timestamp",
							"type": "uint256"
						},
						{
							"internalType": "address",
							"name": "id",
							"type": "address"
						}
					],
					"stateMutability": "view",
					"type": "function"
				},
				{
					"inputs": [
						{
							"internalType": "uint256",
							"name": "i",
							"type": "uint256"
						},
						{
							"internalType": "uint256",
							"name": "amount",
							"type": "uint256"
						}
					],
					"name": "deposit",
					"outputs": [],
					"stateMutability": "nonpayable",
					"type": "function"
				},
				{
					"inputs": [
						{
							"internalType": "uint256",
							"name": "i",
							"type": "uint256"
						}
					],
					"name": "getBalance",
					"outputs": [
						{
							"internalType": "uint256",
							"name": "",
							"type": "uint256"
						}
					],
					"stateMutability": "view",
					"type": "function"
				},
				{
					"inputs": [],
					"name": "owner",
					"outputs": [
						{
							"internalType": "address",
							"name": "",
							"type": "address"
						}
					],
					"stateMutability": "view",
					"type": "function"
				},
				{
					"inputs": [
						{
							"internalType": "uint256",
							"name": "i",
							"type": "uint256"
						},
						{
							"internalType": "address",
							"name": "receiver",
							"type": "address"
						},
						{
							"internalType": "uint256",
							"name": "amount",
							"type": "uint256"
						},
						{
							"internalType": "string",
							"name": "message",
							"type": "string"
						}
					],
					"name": "transfer",
					"outputs": [],
					"stateMutability": "nonpayable",
					"type": "function"
				},
				{
					"inputs": [
						{
							"internalType": "uint256",
							"name": "i",
							"type": "uint256"
						},
						{
							"internalType": "uint256",
							"name": "amount",
							"type": "uint256"
						}
					],
					"name": "withdraw",
					"outputs": [],
					"stateMutability": "nonpayable",
					"type": "function"
				}
			],
			"devdoc": {
				"kind": "dev",
				"methods": {},
				"version": 1
			},
			"evm": {
				"assembly": "    /* \"contracts/Banking-transactions.sol\":58:1648  contract Transactions{... */\n  mstore(0x40, 0x80)\n    /* \"contracts/Banking-transactions.sol\":387:436  constructor (){... */\n  callvalue\n  dup1\n  iszero\n  tag_1\n  jumpi\n  0x00\n  dup1\n  revert\ntag_1:\n  pop\n    /* \"contracts/Banking-transactions.sol\":419:429  msg.sender */\n  caller\n    /* \"contracts/Banking-transactions.sol\":411:416  owner */\n  0x01\n  0x00\n    /* \"contracts/Banking-transactions.sol\":411:429  owner = msg.sender */\n  0x0100\n  exp\n  dup2\n  sload\n  dup2\n  0xffffffffffffffffffffffffffffffffffffffff\n  mul\n  not\n  and\n  swap1\n  dup4\n  0xffffffffffffffffffffffffffffffffffffffff\n  and\n  mul\n  or\n  swap1\n  sstore\n  pop\n    /* \"contracts/Banking-transactions.sol\":58:1648  contract Transactions{... */\n  dataSize(sub_0)\n  dup1\n  dataOffset(sub_0)\n  0x00\n  codecopy\n  0x00\n  return\nstop\n\nsub_0: assembly {\n        /* \"contracts/Banking-transactions.sol\":58:1648  contract Transactions{... */\n      mstore(0x40, 0x80)\n      callvalue\n      dup1\n      iszero\n      tag_1\n      jumpi\n      0x00\n      dup1\n      revert\n    tag_1:\n      pop\n      jumpi(tag_2, lt(calldatasize, 0x04))\n      shr(0xe0, calldataload(0x00))\n      dup1\n      0x1e010439\n      eq\n      tag_3\n      jumpi\n      dup1\n      0x441a3e70\n      eq\n      tag_4\n      jumpi\n      dup1\n      0x87524581\n      eq\n      tag_5\n      jumpi\n      dup1\n      0x8da5cb5b\n      eq\n      tag_6\n      jumpi\n      dup1\n      0xd1eafb23\n      eq\n      tag_7\n      jumpi\n      dup1\n      0xe2bbb158\n      eq\n      tag_8\n      jumpi\n    tag_2:\n      0x00\n      dup1\n      revert\n        /* \"contracts/Banking-transactions.sol\":1537:1645  function getBalance(uint i) public view returns(uint){... */\n    tag_3:\n      tag_9\n      0x04\n      dup1\n      calldatasize\n      sub\n      dup2\n      add\n      swap1\n      tag_10\n      swap2\n      swap1\n      tag_11\n      jump\t// in\n    tag_10:\n      tag_12\n      jump\t// in\n    tag_9:\n      mload(0x40)\n      tag_13\n      swap2\n      swap1\n      tag_14\n      jump\t// in\n    tag_13:\n      mload(0x40)\n      dup1\n      swap2\n      sub\n      swap1\n      return\n        /* \"contracts/Banking-transactions.sol\":726:992  function withdraw(uint i, uint amount) public OnlyOwner{... */\n    tag_4:\n      tag_15\n      0x04\n      dup1\n      calldatasize\n      sub\n      dup2\n      add\n      swap1\n      tag_16\n      swap2\n      swap1\n      tag_17\n      jump\t// in\n    tag_16:\n      tag_18\n      jump\t// in\n    tag_15:\n      stop\n        /* \"contracts/Banking-transactions.sol\":179:225  mapping (address => Account[]) public accounts */\n    tag_5:\n      tag_19\n      0x04\n      dup1\n      calldatasize\n      sub\n      dup2\n      add\n      swap1\n      tag_20\n      swap2\n      swap1\n      tag_21\n      jump\t// in\n    tag_20:\n      tag_22\n      jump\t// in\n    tag_19:\n      mload(0x40)\n      tag_23\n      swap4\n      swap3\n      swap2\n      swap1\n      tag_24\n      jump\t// in\n    tag_23:\n      mload(0x40)\n      dup1\n      swap2\n      sub\n      swap1\n      return\n        /* \"contracts/Banking-transactions.sol\":231:251  address public owner */\n    tag_6:\n      tag_25\n      tag_26\n      jump\t// in\n    tag_25:\n      mload(0x40)\n      tag_27\n      swap2\n      swap1\n      tag_28\n      jump\t// in\n    tag_27:\n      mload(0x40)\n      dup1\n      swap2\n      sub\n      swap1\n      return\n        /* \"contracts/Banking-transactions.sol\":998:1531  function transfer(uint i, address receiver, uint amount, string memory message) public OnlyOwner{... */\n    tag_7:\n      tag_29\n      0x04\n      dup1\n      calldatasize\n      sub\n      dup2\n      add\n      swap1\n      tag_30\n      swap2\n      swap1\n      tag_31\n      jump\t// in\n    tag_30:\n      tag_32\n      jump\t// in\n    tag_29:\n      stop\n        /* \"contracts/Banking-transactions.sol\":537:720  function deposit(uint i, uint amount) public OnlyOwner{... */\n    tag_8:\n      tag_33\n      0x04\n      dup1\n      calldatasize\n      sub\n      dup2\n      add\n      swap1\n      tag_34\n      swap2\n      swap1\n      tag_17\n      jump\t// in\n    tag_34:\n      tag_35\n      jump\t// in\n    tag_33:\n      stop\n        /* \"contracts/Banking-transactions.sol\":1537:1645  function getBalance(uint i) public view returns(uint){... */\n    tag_12:\n        /* \"contracts/Banking-transactions.sol\":1585:1589  uint */\n      0x00\n        /* \"contracts/Banking-transactions.sol\":1607:1615  accounts */\n      dup1\n        /* \"contracts/Banking-transactions.sol\":1607:1627  accounts[msg.sender] */\n      0x00\n        /* \"contracts/Banking-transactions.sol\":1616:1626  msg.sender */\n      caller\n        /* \"contracts/Banking-transactions.sol\":1607:1627  accounts[msg.sender] */\n      0xffffffffffffffffffffffffffffffffffffffff\n      and\n      0xffffffffffffffffffffffffffffffffffffffff\n      and\n      dup2\n      mstore\n      0x20\n      add\n      swap1\n      dup2\n      mstore\n      0x20\n      add\n      0x00\n      keccak256\n        /* \"contracts/Banking-transactions.sol\":1628:1629  i */\n      dup3\n        /* \"contracts/Banking-transactions.sol\":1607:1630  accounts[msg.sender][i] */\n      dup2\n      sload\n      dup2\n      lt\n      tag_37\n      jumpi\n      tag_38\n      tag_39\n      jump\t// in\n    tag_38:\n    tag_37:\n      swap1\n      0x00\n      mstore\n      keccak256(0x00, 0x20)\n      swap1\n      0x03\n      mul\n      add\n        /* \"contracts/Banking-transactions.sol\":1607:1638  accounts[msg.sender][i].balance */\n      0x00\n      add\n      sload\n        /* \"contracts/Banking-transactions.sol\":1600:1638  return accounts[msg.sender][i].balance */\n      swap1\n      pop\n        /* \"contracts/Banking-transactions.sol\":1537:1645  function getBalance(uint i) public view returns(uint){... */\n      swap2\n      swap1\n      pop\n      jump\t// out\n        /* \"contracts/Banking-transactions.sol\":726:992  function withdraw(uint i, uint amount) public OnlyOwner{... */\n    tag_18:\n        /* \"contracts/Banking-transactions.sol\":494:499  owner */\n      0x01\n      0x00\n      swap1\n      sload\n      swap1\n      0x0100\n      exp\n      swap1\n      div\n      0xffffffffffffffffffffffffffffffffffffffff\n      and\n        /* \"contracts/Banking-transactions.sol\":480:499  msg.sender == owner */\n      0xffffffffffffffffffffffffffffffffffffffff\n      and\n        /* \"contracts/Banking-transactions.sol\":480:490  msg.sender */\n      caller\n        /* \"contracts/Banking-transactions.sol\":480:499  msg.sender == owner */\n      0xffffffffffffffffffffffffffffffffffffffff\n      and\n      eq\n        /* \"contracts/Banking-transactions.sol\":472:513  require(msg.sender == owner, \"Not owner\") */\n      tag_42\n      jumpi\n      mload(0x40)\n      0x08c379a000000000000000000000000000000000000000000000000000000000\n      dup2\n      mstore\n      0x04\n      add\n      tag_43\n      swap1\n      tag_44\n      jump\t// in\n    tag_43:\n      mload(0x40)\n      dup1\n      swap2\n      sub\n      swap1\n      revert\n    tag_42:\n        /* \"contracts/Banking-transactions.sol\":803:811  accounts */\n      0x00\n        /* \"contracts/Banking-transactions.sol\":803:823  accounts[msg.sender] */\n      dup1\n        /* \"contracts/Banking-transactions.sol\":812:822  msg.sender */\n      caller\n        /* \"contracts/Banking-transactions.sol\":803:823  accounts[msg.sender] */\n      0xffffffffffffffffffffffffffffffffffffffff\n      and\n      0xffffffffffffffffffffffffffffffffffffffff\n      and\n      dup2\n      mstore\n      0x20\n      add\n      swap1\n      dup2\n      mstore\n      0x20\n      add\n      0x00\n      keccak256\n        /* \"contracts/Banking-transactions.sol\":803:830  accounts[msg.sender].length */\n      dup1\n      sload\n      swap1\n      pop\n        /* \"contracts/Banking-transactions.sol\":799:800  i */\n      dup3\n        /* \"contracts/Banking-transactions.sol\":799:830  i < accounts[msg.sender].length */\n      lt\n        /* \"contracts/Banking-transactions.sol\":791:853  require(i < accounts[msg.sender].length, \"Accound id invalid\") */\n      tag_46\n      jumpi\n      mload(0x40)\n      0x08c379a000000000000000000000000000000000000000000000000000000000\n      dup2\n      mstore\n      0x04\n      add\n      tag_47\n      swap1\n      tag_48\n      jump\t// in\n    tag_47:\n      mload(0x40)\n      dup1\n      swap2\n      sub\n      swap1\n      revert\n    tag_46:\n        /* \"contracts/Banking-transactions.sol\":906:912  amount */\n      dup1\n        /* \"contracts/Banking-transactions.sol\":871:879  accounts */\n      0x00\n        /* \"contracts/Banking-transactions.sol\":871:891  accounts[msg.sender] */\n      dup1\n        /* \"contracts/Banking-transactions.sol\":880:890  msg.sender */\n      caller\n        /* \"contracts/Banking-transactions.sol\":871:891  accounts[msg.sender] */\n      0xffffffffffffffffffffffffffffffffffffffff\n      and\n      0xffffffffffffffffffffffffffffffffffffffff\n      and\n      dup2\n      mstore\n      0x20\n      add\n      swap1\n      dup2\n      mstore\n      0x20\n      add\n      0x00\n      keccak256\n        /* \"contracts/Banking-transactions.sol\":892:893  i */\n      dup4\n        /* \"contracts/Banking-transactions.sol\":871:894  accounts[msg.sender][i] */\n      dup2\n      sload\n      dup2\n      lt\n      tag_49\n      jumpi\n      tag_50\n      tag_39\n      jump\t// in\n    tag_50:\n    tag_49:\n      swap1\n      0x00\n      mstore\n      keccak256(0x00, 0x20)\n      swap1\n      0x03\n      mul\n      add\n        /* \"contracts/Banking-transactions.sol\":871:902  accounts[msg.sender][i].balance */\n      0x00\n      add\n      sload\n        /* \"contracts/Banking-transactions.sol\":871:912  accounts[msg.sender][i].balance >= amount */\n      lt\n      iszero\n        /* \"contracts/Banking-transactions.sol\":863:934  require(accounts[msg.sender][i].balance >= amount, \"Insufficent funds\") */\n      tag_52\n      jumpi\n      mload(0x40)\n      0x08c379a000000000000000000000000000000000000000000000000000000000\n      dup2\n      mstore\n      0x04\n      add\n      tag_53\n      swap1\n      tag_54\n      jump\t// in\n    tag_53:\n      mload(0x40)\n      dup1\n      swap2\n      sub\n      swap1\n      revert\n    tag_52:\n        /* \"contracts/Banking-transactions.sol\":979:985  amount */\n      dup1\n        /* \"contracts/Banking-transactions.sol\":944:952  accounts */\n      0x00\n        /* \"contracts/Banking-transactions.sol\":944:964  accounts[msg.sender] */\n      dup1\n        /* \"contracts/Banking-transactions.sol\":953:963  msg.sender */\n      caller\n        /* \"contracts/Banking-transactions.sol\":944:964  accounts[msg.sender] */\n      0xffffffffffffffffffffffffffffffffffffffff\n      and\n      0xffffffffffffffffffffffffffffffffffffffff\n      and\n      dup2\n      mstore\n      0x20\n      add\n      swap1\n      dup2\n      mstore\n      0x20\n      add\n      0x00\n      keccak256\n        /* \"contracts/Banking-transactions.sol\":965:966  i */\n      dup4\n        /* \"contracts/Banking-transactions.sol\":944:967  accounts[msg.sender][i] */\n      dup2\n      sload\n      dup2\n      lt\n      tag_55\n      jumpi\n      tag_56\n      tag_39\n      jump\t// in\n    tag_56:\n    tag_55:\n      swap1\n      0x00\n      mstore\n      keccak256(0x00, 0x20)\n      swap1\n      0x03\n      mul\n      add\n        /* \"contracts/Banking-transactions.sol\":944:975  accounts[msg.sender][i].balance */\n      0x00\n      add\n      0x00\n        /* \"contracts/Banking-transactions.sol\":944:985  accounts[msg.sender][i].balance -= amount */\n      dup3\n      dup3\n      sload\n      tag_58\n      swap2\n      swap1\n      tag_59\n      jump\t// in\n    tag_58:\n      swap3\n      pop\n      pop\n      dup2\n      swap1\n      sstore\n      pop\n        /* \"contracts/Banking-transactions.sol\":726:992  function withdraw(uint i, uint amount) public OnlyOwner{... */\n      pop\n      pop\n      jump\t// out\n        /* \"contracts/Banking-transactions.sol\":179:225  mapping (address => Account[]) public accounts */\n    tag_22:\n      mstore(0x20, 0x00)\n      dup2\n      0x00\n      mstore\n      keccak256(0x00, 0x40)\n      dup2\n      dup2\n      sload\n      dup2\n      lt\n      tag_60\n      jumpi\n      0x00\n      dup1\n      revert\n    tag_60:\n      swap1\n      0x00\n      mstore\n      keccak256(0x00, 0x20)\n      swap1\n      0x03\n      mul\n      add\n      0x00\n      swap2\n      pop\n      swap2\n      pop\n      pop\n      dup1\n      0x00\n      add\n      sload\n      swap1\n      dup1\n      0x01\n      add\n      sload\n      swap1\n      dup1\n      0x02\n      add\n      0x00\n      swap1\n      sload\n      swap1\n      0x0100\n      exp\n      swap1\n      div\n      0xffffffffffffffffffffffffffffffffffffffff\n      and\n      swap1\n      pop\n      dup4\n      jump\t// out\n        /* \"contracts/Banking-transactions.sol\":231:251  address public owner */\n    tag_26:\n      0x01\n      0x00\n      swap1\n      sload\n      swap1\n      0x0100\n      exp\n      swap1\n      div\n      0xffffffffffffffffffffffffffffffffffffffff\n      and\n      dup2\n      jump\t// out\n        /* \"contracts/Banking-transactions.sol\":998:1531  function transfer(uint i, address receiver, uint amount, string memory message) public OnlyOwner{... */\n    tag_32:\n        /* \"contracts/Banking-transactions.sol\":494:499  owner */\n      0x01\n      0x00\n      swap1\n      sload\n      swap1\n      0x0100\n      exp\n      swap1\n      div\n      0xffffffffffffffffffffffffffffffffffffffff\n      and\n        /* \"contracts/Banking-transactions.sol\":480:499  msg.sender == owner */\n      0xffffffffffffffffffffffffffffffffffffffff\n      and\n        /* \"contracts/Banking-transactions.sol\":480:490  msg.sender */\n      caller\n        /* \"contracts/Banking-transactions.sol\":480:499  msg.sender == owner */\n      0xffffffffffffffffffffffffffffffffffffffff\n      and\n      eq\n        /* \"contracts/Banking-transactions.sol\":472:513  require(msg.sender == owner, \"Not owner\") */\n      tag_63\n      jumpi\n      mload(0x40)\n      0x08c379a000000000000000000000000000000000000000000000000000000000\n      dup2\n      mstore\n      0x04\n      add\n      tag_64\n      swap1\n      tag_44\n      jump\t// in\n    tag_64:\n      mload(0x40)\n      dup1\n      swap2\n      sub\n      swap1\n      revert\n    tag_63:\n        /* \"contracts/Banking-transactions.sol\":1116:1124  accounts */\n      0x00\n        /* \"contracts/Banking-transactions.sol\":1116:1136  accounts[msg.sender] */\n      dup1\n        /* \"contracts/Banking-transactions.sol\":1125:1135  msg.sender */\n      caller\n        /* \"contracts/Banking-transactions.sol\":1116:1136  accounts[msg.sender] */\n      0xffffffffffffffffffffffffffffffffffffffff\n      and\n      0xffffffffffffffffffffffffffffffffffffffff\n      and\n      dup2\n      mstore\n      0x20\n      add\n      swap1\n      dup2\n      mstore\n      0x20\n      add\n      0x00\n      keccak256\n        /* \"contracts/Banking-transactions.sol\":1116:1143  accounts[msg.sender].length */\n      dup1\n      sload\n      swap1\n      pop\n        /* \"contracts/Banking-transactions.sol\":1112:1113  i */\n      dup5\n        /* \"contracts/Banking-transactions.sol\":1112:1143  i < accounts[msg.sender].length */\n      lt\n        /* \"contracts/Banking-transactions.sol\":1104:1166  require(i < accounts[msg.sender].length, \"Accound id invalid\") */\n      tag_66\n      jumpi\n      mload(0x40)\n      0x08c379a000000000000000000000000000000000000000000000000000000000\n      dup2\n      mstore\n      0x04\n      add\n      tag_67\n      swap1\n      tag_48\n      jump\t// in\n    tag_67:\n      mload(0x40)\n      dup1\n      swap2\n      sub\n      swap1\n      revert\n    tag_66:\n        /* \"contracts/Banking-transactions.sol\":1219:1225  amount */\n      dup2\n        /* \"contracts/Banking-transactions.sol\":1184:1192  accounts */\n      0x00\n        /* \"contracts/Banking-transactions.sol\":1184:1204  accounts[msg.sender] */\n      dup1\n        /* \"contracts/Banking-transactions.sol\":1193:1203  msg.sender */\n      caller\n        /* \"contracts/Banking-transactions.sol\":1184:1204  accounts[msg.sender] */\n      0xffffffffffffffffffffffffffffffffffffffff\n      and\n      0xffffffffffffffffffffffffffffffffffffffff\n      and\n      dup2\n      mstore\n      0x20\n      add\n      swap1\n      dup2\n      mstore\n      0x20\n      add\n      0x00\n      keccak256\n        /* \"contracts/Banking-transactions.sol\":1205:1206  i */\n      dup6\n        /* \"contracts/Banking-transactions.sol\":1184:1207  accounts[msg.sender][i] */\n      dup2\n      sload\n      dup2\n      lt\n      tag_68\n      jumpi\n      tag_69\n      tag_39\n      jump\t// in\n    tag_69:\n    tag_68:\n      swap1\n      0x00\n      mstore\n      keccak256(0x00, 0x20)\n      swap1\n      0x03\n      mul\n      add\n        /* \"contracts/Banking-transactions.sol\":1184:1215  accounts[msg.sender][i].balance */\n      0x00\n      add\n      sload\n        /* \"contracts/Banking-transactions.sol\":1184:1225  accounts[msg.sender][i].balance >= amount */\n      lt\n      iszero\n        /* \"contracts/Banking-transactions.sol\":1176:1248  require(accounts[msg.sender][i].balance >= amount, \"Insufficient funds\") */\n      tag_71\n      jumpi\n      mload(0x40)\n      0x08c379a000000000000000000000000000000000000000000000000000000000\n      dup2\n      mstore\n      0x04\n      add\n      tag_72\n      swap1\n      tag_73\n      jump\t// in\n    tag_72:\n      mload(0x40)\n      dup1\n      swap2\n      sub\n      swap1\n      revert\n    tag_71:\n        /* \"contracts/Banking-transactions.sol\":1278:1288  msg.sender */\n      caller\n        /* \"contracts/Banking-transactions.sol\":1266:1288  receiver != msg.sender */\n      0xffffffffffffffffffffffffffffffffffffffff\n      and\n        /* \"contracts/Banking-transactions.sol\":1266:1274  receiver */\n      dup4\n        /* \"contracts/Banking-transactions.sol\":1266:1288  receiver != msg.sender */\n      0xffffffffffffffffffffffffffffffffffffffff\n      and\n      sub\n        /* \"contracts/Banking-transactions.sol\":1258:1308  require(receiver != msg.sender, \"Invalid account\") */\n      tag_74\n      jumpi\n      mload(0x40)\n      0x08c379a000000000000000000000000000000000000000000000000000000000\n      dup2\n      mstore\n      0x04\n      add\n      tag_75\n      swap1\n      tag_76\n      jump\t// in\n    tag_75:\n      mload(0x40)\n      dup1\n      swap2\n      sub\n      swap1\n      revert\n    tag_74:\n        /* \"contracts/Banking-transactions.sol\":1319:1338  withdraw(i, amount) */\n      tag_77\n        /* \"contracts/Banking-transactions.sol\":1328:1329  i */\n      dup5\n        /* \"contracts/Banking-transactions.sol\":1331:1337  amount */\n      dup4\n        /* \"contracts/Banking-transactions.sol\":1319:1327  withdraw */\n      tag_18\n        /* \"contracts/Banking-transactions.sol\":1319:1338  withdraw(i, amount) */\n      jump\t// in\n    tag_77:\n        /* \"contracts/Banking-transactions.sol\":1381:1387  amount */\n      dup2\n        /* \"contracts/Banking-transactions.sol\":1348:1356  accounts */\n      0x00\n        /* \"contracts/Banking-transactions.sol\":1348:1366  accounts[receiver] */\n      dup1\n        /* \"contracts/Banking-transactions.sol\":1357:1365  receiver */\n      dup6\n        /* \"contracts/Banking-transactions.sol\":1348:1366  accounts[receiver] */\n      0xffffffffffffffffffffffffffffffffffffffff\n      and\n      0xffffffffffffffffffffffffffffffffffffffff\n      and\n      dup2\n      mstore\n      0x20\n      add\n      swap1\n      dup2\n      mstore\n      0x20\n      add\n      0x00\n      keccak256\n        /* \"contracts/Banking-transactions.sol\":1367:1368  i */\n      dup6\n        /* \"contracts/Banking-transactions.sol\":1348:1369  accounts[receiver][i] */\n      dup2\n      sload\n      dup2\n      lt\n      tag_78\n      jumpi\n      tag_79\n      tag_39\n      jump\t// in\n    tag_79:\n    tag_78:\n      swap1\n      0x00\n      mstore\n      keccak256(0x00, 0x20)\n      swap1\n      0x03\n      mul\n      add\n        /* \"contracts/Banking-transactions.sol\":1348:1377  accounts[receiver][i].balance */\n      0x00\n      add\n      0x00\n        /* \"contracts/Banking-transactions.sol\":1348:1387  accounts[receiver][i].balance += amount */\n      dup3\n      dup3\n      sload\n      tag_81\n      swap2\n      swap1\n      tag_82\n      jump\t// in\n    tag_81:\n      swap3\n      pop\n      pop\n      dup2\n      swap1\n      sstore\n      pop\n        /* \"contracts/Banking-transactions.sol\":1446:1454  accounts */\n      0x00\n        /* \"contracts/Banking-transactions.sol\":1446:1464  accounts[receiver] */\n      dup1\n        /* \"contracts/Banking-transactions.sol\":1455:1463  receiver */\n      dup5\n        /* \"contracts/Banking-transactions.sol\":1446:1464  accounts[receiver] */\n      0xffffffffffffffffffffffffffffffffffffffff\n      and\n      0xffffffffffffffffffffffffffffffffffffffff\n      and\n      dup2\n      mstore\n      0x20\n      add\n      swap1\n      dup2\n      mstore\n      0x20\n      add\n      0x00\n      keccak256\n        /* \"contracts/Banking-transactions.sol\":1465:1466  i */\n      dup5\n        /* \"contracts/Banking-transactions.sol\":1446:1467  accounts[receiver][i] */\n      dup2\n      sload\n      dup2\n      lt\n      tag_83\n      jumpi\n      tag_84\n      tag_39\n      jump\t// in\n    tag_84:\n    tag_83:\n      swap1\n      0x00\n      mstore\n      keccak256(0x00, 0x20)\n      swap1\n      0x03\n      mul\n      add\n        /* \"contracts/Banking-transactions.sol\":1446:1470  accounts[receiver][i].id */\n      0x02\n      add\n      0x00\n      swap1\n      sload\n      swap1\n      0x0100\n      exp\n      swap1\n      div\n      0xffffffffffffffffffffffffffffffffffffffff\n      and\n        /* \"contracts/Banking-transactions.sol\":1402:1523  TranserComplete(accounts[msg.sender][i].id, accounts[receiver][i].id, message, amount, accounts[msg.sender][i].timestamp) */\n      0xffffffffffffffffffffffffffffffffffffffff\n      and\n        /* \"contracts/Banking-transactions.sol\":1418:1426  accounts */\n      0x00\n        /* \"contracts/Banking-transactions.sol\":1418:1438  accounts[msg.sender] */\n      dup1\n        /* \"contracts/Banking-transactions.sol\":1427:1437  msg.sender */\n      caller\n        /* \"contracts/Banking-transactions.sol\":1418:1438  accounts[msg.sender] */\n      0xffffffffffffffffffffffffffffffffffffffff\n      and\n      0xffffffffffffffffffffffffffffffffffffffff\n      and\n      dup2\n      mstore\n      0x20\n      add\n      swap1\n      dup2\n      mstore\n      0x20\n      add\n      0x00\n      keccak256\n        /* \"contracts/Banking-transactions.sol\":1439:1440  i */\n      dup6\n        /* \"contracts/Banking-transactions.sol\":1418:1441  accounts[msg.sender][i] */\n      dup2\n      sload\n      dup2\n      lt\n      tag_86\n      jumpi\n      tag_87\n      tag_39\n      jump\t// in\n    tag_87:\n    tag_86:\n      swap1\n      0x00\n      mstore\n      keccak256(0x00, 0x20)\n      swap1\n      0x03\n      mul\n      add\n        /* \"contracts/Banking-transactions.sol\":1418:1444  accounts[msg.sender][i].id */\n      0x02\n      add\n      0x00\n      swap1\n      sload\n      swap1\n      0x0100\n      exp\n      swap1\n      div\n      0xffffffffffffffffffffffffffffffffffffffff\n      and\n        /* \"contracts/Banking-transactions.sol\":1402:1523  TranserComplete(accounts[msg.sender][i].id, accounts[receiver][i].id, message, amount, accounts[msg.sender][i].timestamp) */\n      0xffffffffffffffffffffffffffffffffffffffff\n      and\n      0x651e25d1d5e28ea3d46c1e231de2f939b587f24374b637685abaf09e0598de64\n        /* \"contracts/Banking-transactions.sol\":1472:1479  message */\n      dup4\n        /* \"contracts/Banking-transactions.sol\":1481:1487  amount */\n      dup6\n        /* \"contracts/Banking-transactions.sol\":1489:1497  accounts */\n      0x00\n        /* \"contracts/Banking-transactions.sol\":1489:1509  accounts[msg.sender] */\n      dup1\n        /* \"contracts/Banking-transactions.sol\":1498:1508  msg.sender */\n      caller\n        /* \"contracts/Banking-transactions.sol\":1489:1509  accounts[msg.sender] */\n      0xffffffffffffffffffffffffffffffffffffffff\n      and\n      0xffffffffffffffffffffffffffffffffffffffff\n      and\n      dup2\n      mstore\n      0x20\n      add\n      swap1\n      dup2\n      mstore\n      0x20\n      add\n      0x00\n      keccak256\n        /* \"contracts/Banking-transactions.sol\":1510:1511  i */\n      dup10\n        /* \"contracts/Banking-transactions.sol\":1489:1512  accounts[msg.sender][i] */\n      dup2\n      sload\n      dup2\n      lt\n      tag_89\n      jumpi\n      tag_90\n      tag_39\n      jump\t// in\n    tag_90:\n    tag_89:\n      swap1\n      0x00\n      mstore\n      keccak256(0x00, 0x20)\n      swap1\n      0x03\n      mul\n      add\n        /* \"contracts/Banking-transactions.sol\":1489:1522  accounts[msg.sender][i].timestamp */\n      0x01\n      add\n      sload\n        /* \"contracts/Banking-transactions.sol\":1402:1523  TranserComplete(accounts[msg.sender][i].id, accounts[receiver][i].id, message, amount, accounts[msg.sender][i].timestamp) */\n      mload(0x40)\n      tag_92\n      swap4\n      swap3\n      swap2\n      swap1\n      tag_93\n      jump\t// in\n    tag_92:\n      mload(0x40)\n      dup1\n      swap2\n      sub\n      swap1\n      log3\n        /* \"contracts/Banking-transactions.sol\":998:1531  function transfer(uint i, address receiver, uint amount, string memory message) public OnlyOwner{... */\n      pop\n      pop\n      pop\n      pop\n      jump\t// out\n        /* \"contracts/Banking-transactions.sol\":537:720  function deposit(uint i, uint amount) public OnlyOwner{... */\n    tag_35:\n        /* \"contracts/Banking-transactions.sol\":494:499  owner */\n      0x01\n      0x00\n      swap1\n      sload\n      swap1\n      0x0100\n      exp\n      swap1\n      div\n      0xffffffffffffffffffffffffffffffffffffffff\n      and\n        /* \"contracts/Banking-transactions.sol\":480:499  msg.sender == owner */\n      0xffffffffffffffffffffffffffffffffffffffff\n      and\n        /* \"contracts/Banking-transactions.sol\":480:490  msg.sender */\n      caller\n        /* \"contracts/Banking-transactions.sol\":480:499  msg.sender == owner */\n      0xffffffffffffffffffffffffffffffffffffffff\n      and\n      eq\n        /* \"contracts/Banking-transactions.sol\":472:513  require(msg.sender == owner, \"Not owner\") */\n      tag_95\n      jumpi\n      mload(0x40)\n      0x08c379a000000000000000000000000000000000000000000000000000000000\n      dup2\n      mstore\n      0x04\n      add\n      tag_96\n      swap1\n      tag_44\n      jump\t// in\n    tag_96:\n      mload(0x40)\n      dup1\n      swap2\n      sub\n      swap1\n      revert\n    tag_95:\n        /* \"contracts/Banking-transactions.sol\":613:621  accounts */\n      0x00\n        /* \"contracts/Banking-transactions.sol\":613:633  accounts[msg.sender] */\n      dup1\n        /* \"contracts/Banking-transactions.sol\":622:632  msg.sender */\n      caller\n        /* \"contracts/Banking-transactions.sol\":613:633  accounts[msg.sender] */\n      0xffffffffffffffffffffffffffffffffffffffff\n      and\n      0xffffffffffffffffffffffffffffffffffffffff\n      and\n      dup2\n      mstore\n      0x20\n      add\n      swap1\n      dup2\n      mstore\n      0x20\n      add\n      0x00\n      keccak256\n        /* \"contracts/Banking-transactions.sol\":613:640  accounts[msg.sender].length */\n      dup1\n      sload\n      swap1\n      pop\n        /* \"contracts/Banking-transactions.sol\":609:610  i */\n      dup3\n        /* \"contracts/Banking-transactions.sol\":609:640  i < accounts[msg.sender].length */\n      lt\n        /* \"contracts/Banking-transactions.sol\":601:663  require(i < accounts[msg.sender].length, \"Accound id invalid\") */\n      tag_98\n      jumpi\n      mload(0x40)\n      0x08c379a000000000000000000000000000000000000000000000000000000000\n      dup2\n      mstore\n      0x04\n      add\n      tag_99\n      swap1\n      tag_48\n      jump\t// in\n    tag_99:\n      mload(0x40)\n      dup1\n      swap2\n      sub\n      swap1\n      revert\n    tag_98:\n        /* \"contracts/Banking-transactions.sol\":707:713  amount */\n      dup1\n        /* \"contracts/Banking-transactions.sol\":672:680  accounts */\n      0x00\n        /* \"contracts/Banking-transactions.sol\":672:692  accounts[msg.sender] */\n      dup1\n        /* \"contracts/Banking-transactions.sol\":681:691  msg.sender */\n      caller\n        /* \"contracts/Banking-transactions.sol\":672:692  accounts[msg.sender] */\n      0xffffffffffffffffffffffffffffffffffffffff\n      and\n      0xffffffffffffffffffffffffffffffffffffffff\n      and\n      dup2\n      mstore\n      0x20\n      add\n      swap1\n      dup2\n      mstore\n      0x20\n      add\n      0x00\n      keccak256\n        /* \"contracts/Banking-transactions.sol\":693:694  i */\n      dup4\n        /* \"contracts/Banking-transactions.sol\":672:695  accounts[msg.sender][i] */\n      dup2\n      sload\n      dup2\n      lt\n      tag_100\n      jumpi\n      tag_101\n      tag_39\n      jump\t// in\n    tag_101:\n    tag_100:\n      swap1\n      0x00\n      mstore\n      keccak256(0x00, 0x20)\n      swap1\n      0x03\n      mul\n      add\n        /* \"contracts/Banking-transactions.sol\":672:703  accounts[msg.sender][i].balance */\n      0x00\n      add\n      0x00\n        /* \"contracts/Banking-transactions.sol\":672:713  accounts[msg.sender][i].balance += amount */\n      dup3\n      dup3\n      sload\n      tag_103\n      swap2\n      swap1\n      tag_82\n      jump\t// in\n    tag_103:\n      swap3\n      pop\n      pop\n      dup2\n      swap1\n      sstore\n      pop\n        /* \"contracts/Banking-transactions.sol\":537:720  function deposit(uint i, uint amount) public OnlyOwner{... */\n      pop\n      pop\n      jump\t// out\n        /* \"#utility.yul\":7:82   */\n    tag_104:\n        /* \"#utility.yul\":40:46   */\n      0x00\n        /* \"#utility.yul\":73:75   */\n      0x40\n        /* \"#utility.yul\":67:76   */\n      mload\n        /* \"#utility.yul\":57:76   */\n      swap1\n      pop\n        /* \"#utility.yul\":7:82   */\n      swap1\n      jump\t// out\n        /* \"#utility.yul\":88:205   */\n    tag_105:\n        /* \"#utility.yul\":197:198   */\n      0x00\n        /* \"#utility.yul\":194:195   */\n      dup1\n        /* \"#utility.yul\":187:199   */\n      revert\n        /* \"#utility.yul\":211:328   */\n    tag_106:\n        /* \"#utility.yul\":320:321   */\n      0x00\n        /* \"#utility.yul\":317:318   */\n      dup1\n        /* \"#utility.yul\":310:322   */\n      revert\n        /* \"#utility.yul\":334:411   */\n    tag_107:\n        /* \"#utility.yul\":371:378   */\n      0x00\n        /* \"#utility.yul\":400:405   */\n      dup2\n        /* \"#utility.yul\":389:405   */\n      swap1\n      pop\n        /* \"#utility.yul\":334:411   */\n      swap2\n      swap1\n      pop\n      jump\t// out\n        /* \"#utility.yul\":417:539   */\n    tag_108:\n        /* \"#utility.yul\":490:514   */\n      tag_147\n        /* \"#utility.yul\":508:513   */\n      dup2\n        /* \"#utility.yul\":490:514   */\n      tag_107\n      jump\t// in\n    tag_147:\n        /* \"#utility.yul\":483:488   */\n      dup2\n        /* \"#utility.yul\":480:515   */\n      eq\n        /* \"#utility.yul\":470:533   */\n      tag_148\n      jumpi\n        /* \"#utility.yul\":529:530   */\n      0x00\n        /* \"#utility.yul\":526:527   */\n      dup1\n        /* \"#utility.yul\":519:531   */\n      revert\n        /* \"#utility.yul\":470:533   */\n    tag_148:\n        /* \"#utility.yul\":417:539   */\n      pop\n      jump\t// out\n        /* \"#utility.yul\":545:684   */\n    tag_109:\n        /* \"#utility.yul\":591:596   */\n      0x00\n        /* \"#utility.yul\":629:635   */\n      dup2\n        /* \"#utility.yul\":616:636   */\n      calldataload\n        /* \"#utility.yul\":607:636   */\n      swap1\n      pop\n        /* \"#utility.yul\":645:678   */\n      tag_150\n        /* \"#utility.yul\":672:677   */\n      dup2\n        /* \"#utility.yul\":645:678   */\n      tag_108\n      jump\t// in\n    tag_150:\n        /* \"#utility.yul\":545:684   */\n      swap3\n      swap2\n      pop\n      pop\n      jump\t// out\n        /* \"#utility.yul\":690:1019   */\n    tag_11:\n        /* \"#utility.yul\":749:755   */\n      0x00\n        /* \"#utility.yul\":798:800   */\n      0x20\n        /* \"#utility.yul\":786:795   */\n      dup3\n        /* \"#utility.yul\":777:784   */\n      dup5\n        /* \"#utility.yul\":773:796   */\n      sub\n        /* \"#utility.yul\":769:801   */\n      slt\n        /* \"#utility.yul\":766:885   */\n      iszero\n      tag_152\n      jumpi\n        /* \"#utility.yul\":804:883   */\n      tag_153\n      tag_105\n      jump\t// in\n    tag_153:\n        /* \"#utility.yul\":766:885   */\n    tag_152:\n        /* \"#utility.yul\":924:925   */\n      0x00\n        /* \"#utility.yul\":949:1002   */\n      tag_154\n        /* \"#utility.yul\":994:1001   */\n      dup5\n        /* \"#utility.yul\":985:991   */\n      dup3\n        /* \"#utility.yul\":974:983   */\n      dup6\n        /* \"#utility.yul\":970:992   */\n      add\n        /* \"#utility.yul\":949:1002   */\n      tag_109\n      jump\t// in\n    tag_154:\n        /* \"#utility.yul\":939:1002   */\n      swap2\n      pop\n        /* \"#utility.yul\":895:1012   */\n      pop\n        /* \"#utility.yul\":690:1019   */\n      swap3\n      swap2\n      pop\n      pop\n      jump\t// out\n        /* \"#utility.yul\":1025:1143   */\n    tag_110:\n        /* \"#utility.yul\":1112:1136   */\n      tag_156\n        /* \"#utility.yul\":1130:1135   */\n      dup2\n        /* \"#utility.yul\":1112:1136   */\n      tag_107\n      jump\t// in\n    tag_156:\n        /* \"#utility.yul\":1107:1110   */\n      dup3\n        /* \"#utility.yul\":1100:1137   */\n      mstore\n        /* \"#utility.yul\":1025:1143   */\n      pop\n      pop\n      jump\t// out\n        /* \"#utility.yul\":1149:1371   */\n    tag_14:\n        /* \"#utility.yul\":1242:1246   */\n      0x00\n        /* \"#utility.yul\":1280:1282   */\n      0x20\n        /* \"#utility.yul\":1269:1278   */\n      dup3\n        /* \"#utility.yul\":1265:1283   */\n      add\n        /* \"#utility.yul\":1257:1283   */\n      swap1\n      pop\n        /* \"#utility.yul\":1293:1364   */\n      tag_158\n        /* \"#utility.yul\":1361:1362   */\n      0x00\n        /* \"#utility.yul\":1350:1359   */\n      dup4\n        /* \"#utility.yul\":1346:1363   */\n      add\n        /* \"#utility.yul\":1337:1343   */\n      dup5\n        /* \"#utility.yul\":1293:1364   */\n      tag_110\n      jump\t// in\n    tag_158:\n        /* \"#utility.yul\":1149:1371   */\n      swap3\n      swap2\n      pop\n      pop\n      jump\t// out\n        /* \"#utility.yul\":1377:1851   */\n    tag_17:\n        /* \"#utility.yul\":1445:1451   */\n      0x00\n        /* \"#utility.yul\":1453:1459   */\n      dup1\n        /* \"#utility.yul\":1502:1504   */\n      0x40\n        /* \"#utility.yul\":1490:1499   */\n      dup4\n        /* \"#utility.yul\":1481:1488   */\n      dup6\n        /* \"#utility.yul\":1477:1500   */\n      sub\n        /* \"#utility.yul\":1473:1505   */\n      slt\n        /* \"#utility.yul\":1470:1589   */\n      iszero\n      tag_160\n      jumpi\n        /* \"#utility.yul\":1508:1587   */\n      tag_161\n      tag_105\n      jump\t// in\n    tag_161:\n        /* \"#utility.yul\":1470:1589   */\n    tag_160:\n        /* \"#utility.yul\":1628:1629   */\n      0x00\n        /* \"#utility.yul\":1653:1706   */\n      tag_162\n        /* \"#utility.yul\":1698:1705   */\n      dup6\n        /* \"#utility.yul\":1689:1695   */\n      dup3\n        /* \"#utility.yul\":1678:1687   */\n      dup7\n        /* \"#utility.yul\":1674:1696   */\n      add\n        /* \"#utility.yul\":1653:1706   */\n      tag_109\n      jump\t// in\n    tag_162:\n        /* \"#utility.yul\":1643:1706   */\n      swap3\n      pop\n        /* \"#utility.yul\":1599:1716   */\n      pop\n        /* \"#utility.yul\":1755:1757   */\n      0x20\n        /* \"#utility.yul\":1781:1834   */\n      tag_163\n        /* \"#utility.yul\":1826:1833   */\n      dup6\n        /* \"#utility.yul\":1817:1823   */\n      dup3\n        /* \"#utility.yul\":1806:1815   */\n      dup7\n        /* \"#utility.yul\":1802:1824   */\n      add\n        /* \"#utility.yul\":1781:1834   */\n      tag_109\n      jump\t// in\n    tag_163:\n        /* \"#utility.yul\":1771:1834   */\n      swap2\n      pop\n        /* \"#utility.yul\":1726:1844   */\n      pop\n        /* \"#utility.yul\":1377:1851   */\n      swap3\n      pop\n      swap3\n      swap1\n      pop\n      jump\t// out\n        /* \"#utility.yul\":1857:1983   */\n    tag_111:\n        /* \"#utility.yul\":1894:1901   */\n      0x00\n        /* \"#utility.yul\":1934:1976   */\n      0xffffffffffffffffffffffffffffffffffffffff\n        /* \"#utility.yul\":1927:1932   */\n      dup3\n        /* \"#utility.yul\":1923:1977   */\n      and\n        /* \"#utility.yul\":1912:1977   */\n      swap1\n      pop\n        /* \"#utility.yul\":1857:1983   */\n      swap2\n      swap1\n      pop\n      jump\t// out\n        /* \"#utility.yul\":1989:2085   */\n    tag_112:\n        /* \"#utility.yul\":2026:2033   */\n      0x00\n        /* \"#utility.yul\":2055:2079   */\n      tag_166\n        /* \"#utility.yul\":2073:2078   */\n      dup3\n        /* \"#utility.yul\":2055:2079   */\n      tag_111\n      jump\t// in\n    tag_166:\n        /* \"#utility.yul\":2044:2079   */\n      swap1\n      pop\n        /* \"#utility.yul\":1989:2085   */\n      swap2\n      swap1\n      pop\n      jump\t// out\n        /* \"#utility.yul\":2091:2213   */\n    tag_113:\n        /* \"#utility.yul\":2164:2188   */\n      tag_168\n        /* \"#utility.yul\":2182:2187   */\n      dup2\n        /* \"#utility.yul\":2164:2188   */\n      tag_112\n      jump\t// in\n    tag_168:\n        /* \"#utility.yul\":2157:2162   */\n      dup2\n        /* \"#utility.yul\":2154:2189   */\n      eq\n        /* \"#utility.yul\":2144:2207   */\n      tag_169\n      jumpi\n        /* \"#utility.yul\":2203:2204   */\n      0x00\n        /* \"#utility.yul\":2200:2201   */\n      dup1\n        /* \"#utility.yul\":2193:2205   */\n      revert\n        /* \"#utility.yul\":2144:2207   */\n    tag_169:\n        /* \"#utility.yul\":2091:2213   */\n      pop\n      jump\t// out\n        /* \"#utility.yul\":2219:2358   */\n    tag_114:\n        /* \"#utility.yul\":2265:2270   */\n      0x00\n        /* \"#utility.yul\":2303:2309   */\n      dup2\n        /* \"#utility.yul\":2290:2310   */\n      calldataload\n        /* \"#utility.yul\":2281:2310   */\n      swap1\n      pop\n        /* \"#utility.yul\":2319:2352   */\n      tag_171\n        /* \"#utility.yul\":2346:2351   */\n      dup2\n        /* \"#utility.yul\":2319:2352   */\n      tag_113\n      jump\t// in\n    tag_171:\n        /* \"#utility.yul\":2219:2358   */\n      swap3\n      swap2\n      pop\n      pop\n      jump\t// out\n        /* \"#utility.yul\":2364:2838   */\n    tag_21:\n        /* \"#utility.yul\":2432:2438   */\n      0x00\n        /* \"#utility.yul\":2440:2446   */\n      dup1\n        /* \"#utility.yul\":2489:2491   */\n      0x40\n        /* \"#utility.yul\":2477:2486   */\n      dup4\n        /* \"#utility.yul\":2468:2475   */\n      dup6\n        /* \"#utility.yul\":2464:2487   */\n      sub\n        /* \"#utility.yul\":2460:2492   */\n      slt\n        /* \"#utility.yul\":2457:2576   */\n      iszero\n      tag_173\n      jumpi\n        /* \"#utility.yul\":2495:2574   */\n      tag_174\n      tag_105\n      jump\t// in\n    tag_174:\n        /* \"#utility.yul\":2457:2576   */\n    tag_173:\n        /* \"#utility.yul\":2615:2616   */\n      0x00\n        /* \"#utility.yul\":2640:2693   */\n      tag_175\n        /* \"#utility.yul\":2685:2692   */\n      dup6\n        /* \"#utility.yul\":2676:2682   */\n      dup3\n        /* \"#utility.yul\":2665:2674   */\n      dup7\n        /* \"#utility.yul\":2661:2683   */\n      add\n        /* \"#utility.yul\":2640:2693   */\n      tag_114\n      jump\t// in\n    tag_175:\n        /* \"#utility.yul\":2630:2693   */\n      swap3\n      pop\n        /* \"#utility.yul\":2586:2703   */\n      pop\n        /* \"#utility.yul\":2742:2744   */\n      0x20\n        /* \"#utility.yul\":2768:2821   */\n      tag_176\n        /* \"#utility.yul\":2813:2820   */\n      dup6\n        /* \"#utility.yul\":2804:2810   */\n      dup3\n        /* \"#utility.yul\":2793:2802   */\n      dup7\n        /* \"#utility.yul\":2789:2811   */\n      add\n        /* \"#utility.yul\":2768:2821   */\n      tag_109\n      jump\t// in\n    tag_176:\n        /* \"#utility.yul\":2758:2821   */\n      swap2\n      pop\n        /* \"#utility.yul\":2713:2831   */\n      pop\n        /* \"#utility.yul\":2364:2838   */\n      swap3\n      pop\n      swap3\n      swap1\n      pop\n      jump\t// out\n        /* \"#utility.yul\":2844:2962   */\n    tag_115:\n        /* \"#utility.yul\":2931:2955   */\n      tag_178\n        /* \"#utility.yul\":2949:2954   */\n      dup2\n        /* \"#utility.yul\":2931:2955   */\n      tag_112\n      jump\t// in\n    tag_178:\n        /* \"#utility.yul\":2926:2929   */\n      dup3\n        /* \"#utility.yul\":2919:2956   */\n      mstore\n        /* \"#utility.yul\":2844:2962   */\n      pop\n      pop\n      jump\t// out\n        /* \"#utility.yul\":2968:3410   */\n    tag_24:\n        /* \"#utility.yul\":3117:3121   */\n      0x00\n        /* \"#utility.yul\":3155:3157   */\n      0x60\n        /* \"#utility.yul\":3144:3153   */\n      dup3\n        /* \"#utility.yul\":3140:3158   */\n      add\n        /* \"#utility.yul\":3132:3158   */\n      swap1\n      pop\n        /* \"#utility.yul\":3168:3239   */\n      tag_180\n        /* \"#utility.yul\":3236:3237   */\n      0x00\n        /* \"#utility.yul\":3225:3234   */\n      dup4\n        /* \"#utility.yul\":3221:3238   */\n      add\n        /* \"#utility.yul\":3212:3218   */\n      dup7\n        /* \"#utility.yul\":3168:3239   */\n      tag_110\n      jump\t// in\n    tag_180:\n        /* \"#utility.yul\":3249:3321   */\n      tag_181\n        /* \"#utility.yul\":3317:3319   */\n      0x20\n        /* \"#utility.yul\":3306:3315   */\n      dup4\n        /* \"#utility.yul\":3302:3320   */\n      add\n        /* \"#utility.yul\":3293:3299   */\n      dup6\n        /* \"#utility.yul\":3249:3321   */\n      tag_110\n      jump\t// in\n    tag_181:\n        /* \"#utility.yul\":3331:3403   */\n      tag_182\n        /* \"#utility.yul\":3399:3401   */\n      0x40\n        /* \"#utility.yul\":3388:3397   */\n      dup4\n        /* \"#utility.yul\":3384:3402   */\n      add\n        /* \"#utility.yul\":3375:3381   */\n      dup5\n        /* \"#utility.yul\":3331:3403   */\n      tag_115\n      jump\t// in\n    tag_182:\n        /* \"#utility.yul\":2968:3410   */\n      swap5\n      swap4\n      pop\n      pop\n      pop\n      pop\n      jump\t// out\n        /* \"#utility.yul\":3416:3638   */\n    tag_28:\n        /* \"#utility.yul\":3509:3513   */\n      0x00\n        /* \"#utility.yul\":3547:3549   */\n      0x20\n        /* \"#utility.yul\":3536:3545   */\n      dup3\n        /* \"#utility.yul\":3532:3550   */\n      add\n        /* \"#utility.yul\":3524:3550   */\n      swap1\n      pop\n        /* \"#utility.yul\":3560:3631   */\n      tag_184\n        /* \"#utility.yul\":3628:3629   */\n      0x00\n        /* \"#utility.yul\":3617:3626   */\n      dup4\n        /* \"#utility.yul\":3613:3630   */\n      add\n        /* \"#utility.yul\":3604:3610   */\n      dup5\n        /* \"#utility.yul\":3560:3631   */\n      tag_115\n      jump\t// in\n    tag_184:\n        /* \"#utility.yul\":3416:3638   */\n      swap3\n      swap2\n      pop\n      pop\n      jump\t// out\n        /* \"#utility.yul\":3644:3761   */\n    tag_116:\n        /* \"#utility.yul\":3753:3754   */\n      0x00\n        /* \"#utility.yul\":3750:3751   */\n      dup1\n        /* \"#utility.yul\":3743:3755   */\n      revert\n        /* \"#utility.yul\":3767:3884   */\n    tag_117:\n        /* \"#utility.yul\":3876:3877   */\n      0x00\n        /* \"#utility.yul\":3873:3874   */\n      dup1\n        /* \"#utility.yul\":3866:3878   */\n      revert\n        /* \"#utility.yul\":3890:3992   */\n    tag_118:\n        /* \"#utility.yul\":3931:3937   */\n      0x00\n        /* \"#utility.yul\":3982:3984   */\n      0x1f\n        /* \"#utility.yul\":3978:3985   */\n      not\n        /* \"#utility.yul\":3973:3975   */\n      0x1f\n        /* \"#utility.yul\":3966:3971   */\n      dup4\n        /* \"#utility.yul\":3962:3976   */\n      add\n        /* \"#utility.yul\":3958:3986   */\n      and\n        /* \"#utility.yul\":3948:3986   */\n      swap1\n      pop\n        /* \"#utility.yul\":3890:3992   */\n      swap2\n      swap1\n      pop\n      jump\t// out\n        /* \"#utility.yul\":3998:4178   */\n    tag_119:\n        /* \"#utility.yul\":4046:4123   */\n      0x4e487b7100000000000000000000000000000000000000000000000000000000\n        /* \"#utility.yul\":4043:4044   */\n      0x00\n        /* \"#utility.yul\":4036:4124   */\n      mstore\n        /* \"#utility.yul\":4143:4147   */\n      0x41\n        /* \"#utility.yul\":4140:4141   */\n      0x04\n        /* \"#utility.yul\":4133:4148   */\n      mstore\n        /* \"#utility.yul\":4167:4171   */\n      0x24\n        /* \"#utility.yul\":4164:4165   */\n      0x00\n        /* \"#utility.yul\":4157:4172   */\n      revert\n        /* \"#utility.yul\":4184:4465   */\n    tag_120:\n        /* \"#utility.yul\":4267:4294   */\n      tag_190\n        /* \"#utility.yul\":4289:4293   */\n      dup3\n        /* \"#utility.yul\":4267:4294   */\n      tag_118\n      jump\t// in\n    tag_190:\n        /* \"#utility.yul\":4259:4265   */\n      dup2\n        /* \"#utility.yul\":4255:4295   */\n      add\n        /* \"#utility.yul\":4397:4403   */\n      dup2\n        /* \"#utility.yul\":4385:4395   */\n      dup2\n        /* \"#utility.yul\":4382:4404   */\n      lt\n        /* \"#utility.yul\":4361:4379   */\n      0xffffffffffffffff\n        /* \"#utility.yul\":4349:4359   */\n      dup3\n        /* \"#utility.yul\":4346:4380   */\n      gt\n        /* \"#utility.yul\":4343:4405   */\n      or\n        /* \"#utility.yul\":4340:4428   */\n      iszero\n      tag_191\n      jumpi\n        /* \"#utility.yul\":4408:4426   */\n      tag_192\n      tag_119\n      jump\t// in\n    tag_192:\n        /* \"#utility.yul\":4340:4428   */\n    tag_191:\n        /* \"#utility.yul\":4448:4458   */\n      dup1\n        /* \"#utility.yul\":4444:4446   */\n      0x40\n        /* \"#utility.yul\":4437:4459   */\n      mstore\n        /* \"#utility.yul\":4227:4465   */\n      pop\n        /* \"#utility.yul\":4184:4465   */\n      pop\n      pop\n      jump\t// out\n        /* \"#utility.yul\":4471:4600   */\n    tag_121:\n        /* \"#utility.yul\":4505:4511   */\n      0x00\n        /* \"#utility.yul\":4532:4552   */\n      tag_194\n      tag_104\n      jump\t// in\n    tag_194:\n        /* \"#utility.yul\":4522:4552   */\n      swap1\n      pop\n        /* \"#utility.yul\":4561:4594   */\n      tag_195\n        /* \"#utility.yul\":4589:4593   */\n      dup3\n        /* \"#utility.yul\":4581:4587   */\n      dup3\n        /* \"#utility.yul\":4561:4594   */\n      tag_120\n      jump\t// in\n    tag_195:\n        /* \"#utility.yul\":4471:4600   */\n      swap2\n      swap1\n      pop\n      jump\t// out\n        /* \"#utility.yul\":4606:4914   */\n    tag_122:\n        /* \"#utility.yul\":4668:4672   */\n      0x00\n        /* \"#utility.yul\":4758:4776   */\n      0xffffffffffffffff\n        /* \"#utility.yul\":4750:4756   */\n      dup3\n        /* \"#utility.yul\":4747:4777   */\n      gt\n        /* \"#utility.yul\":4744:4800   */\n      iszero\n      tag_197\n      jumpi\n        /* \"#utility.yul\":4780:4798   */\n      tag_198\n      tag_119\n      jump\t// in\n    tag_198:\n        /* \"#utility.yul\":4744:4800   */\n    tag_197:\n        /* \"#utility.yul\":4818:4847   */\n      tag_199\n        /* \"#utility.yul\":4840:4846   */\n      dup3\n        /* \"#utility.yul\":4818:4847   */\n      tag_118\n      jump\t// in\n    tag_199:\n        /* \"#utility.yul\":4810:4847   */\n      swap1\n      pop\n        /* \"#utility.yul\":4902:4906   */\n      0x20\n        /* \"#utility.yul\":4896:4900   */\n      dup2\n        /* \"#utility.yul\":4892:4907   */\n      add\n        /* \"#utility.yul\":4884:4907   */\n      swap1\n      pop\n        /* \"#utility.yul\":4606:4914   */\n      swap2\n      swap1\n      pop\n      jump\t// out\n        /* \"#utility.yul\":4920:5068   */\n    tag_123:\n        /* \"#utility.yul\":5018:5024   */\n      dup3\n        /* \"#utility.yul\":5013:5016   */\n      dup2\n        /* \"#utility.yul\":5008:5011   */\n      dup4\n        /* \"#utility.yul\":4995:5025   */\n      calldatacopy\n        /* \"#utility.yul\":5059:5060   */\n      0x00\n        /* \"#utility.yul\":5050:5056   */\n      dup4\n        /* \"#utility.yul\":5045:5048   */\n      dup4\n        /* \"#utility.yul\":5041:5057   */\n      add\n        /* \"#utility.yul\":5034:5061   */\n      mstore\n        /* \"#utility.yul\":4920:5068   */\n      pop\n      pop\n      pop\n      jump\t// out\n        /* \"#utility.yul\":5074:5499   */\n    tag_124:\n        /* \"#utility.yul\":5152:5157   */\n      0x00\n        /* \"#utility.yul\":5177:5243   */\n      tag_202\n        /* \"#utility.yul\":5193:5242   */\n      tag_203\n        /* \"#utility.yul\":5235:5241   */\n      dup5\n        /* \"#utility.yul\":5193:5242   */\n      tag_122\n      jump\t// in\n    tag_203:\n        /* \"#utility.yul\":5177:5243   */\n      tag_121\n      jump\t// in\n    tag_202:\n        /* \"#utility.yul\":5168:5243   */\n      swap1\n      pop\n        /* \"#utility.yul\":5266:5272   */\n      dup3\n        /* \"#utility.yul\":5259:5264   */\n      dup2\n        /* \"#utility.yul\":5252:5273   */\n      mstore\n        /* \"#utility.yul\":5304:5308   */\n      0x20\n        /* \"#utility.yul\":5297:5302   */\n      dup2\n        /* \"#utility.yul\":5293:5309   */\n      add\n        /* \"#utility.yul\":5342:5345   */\n      dup5\n        /* \"#utility.yul\":5333:5339   */\n      dup5\n        /* \"#utility.yul\":5328:5331   */\n      dup5\n        /* \"#utility.yul\":5324:5340   */\n      add\n        /* \"#utility.yul\":5321:5346   */\n      gt\n        /* \"#utility.yul\":5318:5430   */\n      iszero\n      tag_204\n      jumpi\n        /* \"#utility.yul\":5349:5428   */\n      tag_205\n      tag_117\n      jump\t// in\n    tag_205:\n        /* \"#utility.yul\":5318:5430   */\n    tag_204:\n        /* \"#utility.yul\":5439:5493   */\n      tag_206\n        /* \"#utility.yul\":5486:5492   */\n      dup5\n        /* \"#utility.yul\":5481:5484   */\n      dup3\n        /* \"#utility.yul\":5476:5479   */\n      dup6\n        /* \"#utility.yul\":5439:5493   */\n      tag_123\n      jump\t// in\n    tag_206:\n        /* \"#utility.yul\":5158:5499   */\n      pop\n        /* \"#utility.yul\":5074:5499   */\n      swap4\n      swap3\n      pop\n      pop\n      pop\n      jump\t// out\n        /* \"#utility.yul\":5519:5859   */\n    tag_125:\n        /* \"#utility.yul\":5575:5580   */\n      0x00\n        /* \"#utility.yul\":5624:5627   */\n      dup3\n        /* \"#utility.yul\":5617:5621   */\n      0x1f\n        /* \"#utility.yul\":5609:5615   */\n      dup4\n        /* \"#utility.yul\":5605:5622   */\n      add\n        /* \"#utility.yul\":5601:5628   */\n      slt\n        /* \"#utility.yul\":5591:5713   */\n      tag_208\n      jumpi\n        /* \"#utility.yul\":5632:5711   */\n      tag_209\n      tag_116\n      jump\t// in\n    tag_209:\n        /* \"#utility.yul\":5591:5713   */\n    tag_208:\n        /* \"#utility.yul\":5749:5755   */\n      dup2\n        /* \"#utility.yul\":5736:5756   */\n      calldataload\n        /* \"#utility.yul\":5774:5853   */\n      tag_210\n        /* \"#utility.yul\":5849:5852   */\n      dup5\n        /* \"#utility.yul\":5841:5847   */\n      dup3\n        /* \"#utility.yul\":5834:5838   */\n      0x20\n        /* \"#utility.yul\":5826:5832   */\n      dup7\n        /* \"#utility.yul\":5822:5839   */\n      add\n        /* \"#utility.yul\":5774:5853   */\n      tag_124\n      jump\t// in\n    tag_210:\n        /* \"#utility.yul\":5765:5853   */\n      swap2\n      pop\n        /* \"#utility.yul\":5581:5859   */\n      pop\n        /* \"#utility.yul\":5519:5859   */\n      swap3\n      swap2\n      pop\n      pop\n      jump\t// out\n        /* \"#utility.yul\":5865:6810   */\n    tag_31:\n        /* \"#utility.yul\":5961:5967   */\n      0x00\n        /* \"#utility.yul\":5969:5975   */\n      dup1\n        /* \"#utility.yul\":5977:5983   */\n      0x00\n        /* \"#utility.yul\":5985:5991   */\n      dup1\n        /* \"#utility.yul\":6034:6037   */\n      0x80\n        /* \"#utility.yul\":6022:6031   */\n      dup6\n        /* \"#utility.yul\":6013:6020   */\n      dup8\n        /* \"#utility.yul\":6009:6032   */\n      sub\n        /* \"#utility.yul\":6005:6038   */\n      slt\n        /* \"#utility.yul\":6002:6122   */\n      iszero\n      tag_212\n      jumpi\n        /* \"#utility.yul\":6041:6120   */\n      tag_213\n      tag_105\n      jump\t// in\n    tag_213:\n        /* \"#utility.yul\":6002:6122   */\n    tag_212:\n        /* \"#utility.yul\":6161:6162   */\n      0x00\n        /* \"#utility.yul\":6186:6239   */\n      tag_214\n        /* \"#utility.yul\":6231:6238   */\n      dup8\n        /* \"#utility.yul\":6222:6228   */\n      dup3\n        /* \"#utility.yul\":6211:6220   */\n      dup9\n        /* \"#utility.yul\":6207:6229   */\n      add\n        /* \"#utility.yul\":6186:6239   */\n      tag_109\n      jump\t// in\n    tag_214:\n        /* \"#utility.yul\":6176:6239   */\n      swap5\n      pop\n        /* \"#utility.yul\":6132:6249   */\n      pop\n        /* \"#utility.yul\":6288:6290   */\n      0x20\n        /* \"#utility.yul\":6314:6367   */\n      tag_215\n        /* \"#utility.yul\":6359:6366   */\n      dup8\n        /* \"#utility.yul\":6350:6356   */\n      dup3\n        /* \"#utility.yul\":6339:6348   */\n      dup9\n        /* \"#utility.yul\":6335:6357   */\n      add\n        /* \"#utility.yul\":6314:6367   */\n      tag_114\n      jump\t// in\n    tag_215:\n        /* \"#utility.yul\":6304:6367   */\n      swap4\n      pop\n        /* \"#utility.yul\":6259:6377   */\n      pop\n        /* \"#utility.yul\":6416:6418   */\n      0x40\n        /* \"#utility.yul\":6442:6495   */\n      tag_216\n        /* \"#utility.yul\":6487:6494   */\n      dup8\n        /* \"#utility.yul\":6478:6484   */\n      dup3\n        /* \"#utility.yul\":6467:6476   */\n      dup9\n        /* \"#utility.yul\":6463:6485   */\n      add\n        /* \"#utility.yul\":6442:6495   */\n      tag_109\n      jump\t// in\n    tag_216:\n        /* \"#utility.yul\":6432:6495   */\n      swap3\n      pop\n        /* \"#utility.yul\":6387:6505   */\n      pop\n        /* \"#utility.yul\":6572:6574   */\n      0x60\n        /* \"#utility.yul\":6561:6570   */\n      dup6\n        /* \"#utility.yul\":6557:6575   */\n      add\n        /* \"#utility.yul\":6544:6576   */\n      calldataload\n        /* \"#utility.yul\":6603:6621   */\n      0xffffffffffffffff\n        /* \"#utility.yul\":6595:6601   */\n      dup2\n        /* \"#utility.yul\":6592:6622   */\n      gt\n        /* \"#utility.yul\":6589:6706   */\n      iszero\n      tag_217\n      jumpi\n        /* \"#utility.yul\":6625:6704   */\n      tag_218\n      tag_106\n      jump\t// in\n    tag_218:\n        /* \"#utility.yul\":6589:6706   */\n    tag_217:\n        /* \"#utility.yul\":6730:6793   */\n      tag_219\n        /* \"#utility.yul\":6785:6792   */\n      dup8\n        /* \"#utility.yul\":6776:6782   */\n      dup3\n        /* \"#utility.yul\":6765:6774   */\n      dup9\n        /* \"#utility.yul\":6761:6783   */\n      add\n        /* \"#utility.yul\":6730:6793   */\n      tag_125\n      jump\t// in\n    tag_219:\n        /* \"#utility.yul\":6720:6793   */\n      swap2\n      pop\n        /* \"#utility.yul\":6515:6803   */\n      pop\n        /* \"#utility.yul\":5865:6810   */\n      swap3\n      swap6\n      swap2\n      swap5\n      pop\n      swap3\n      pop\n      jump\t// out\n        /* \"#utility.yul\":6816:6996   */\n    tag_39:\n        /* \"#utility.yul\":6864:6941   */\n      0x4e487b7100000000000000000000000000000000000000000000000000000000\n        /* \"#utility.yul\":6861:6862   */\n      0x00\n        /* \"#utility.yul\":6854:6942   */\n      mstore\n        /* \"#utility.yul\":6961:6965   */\n      0x32\n        /* \"#utility.yul\":6958:6959   */\n      0x04\n        /* \"#utility.yul\":6951:6966   */\n      mstore\n        /* \"#utility.yul\":6985:6989   */\n      0x24\n        /* \"#utility.yul\":6982:6983   */\n      0x00\n        /* \"#utility.yul\":6975:6990   */\n      revert\n        /* \"#utility.yul\":7002:7171   */\n    tag_126:\n        /* \"#utility.yul\":7086:7097   */\n      0x00\n        /* \"#utility.yul\":7120:7126   */\n      dup3\n        /* \"#utility.yul\":7115:7118   */\n      dup3\n        /* \"#utility.yul\":7108:7127   */\n      mstore\n        /* \"#utility.yul\":7160:7164   */\n      0x20\n        /* \"#utility.yul\":7155:7158   */\n      dup3\n        /* \"#utility.yul\":7151:7165   */\n      add\n        /* \"#utility.yul\":7136:7165   */\n      swap1\n      pop\n        /* \"#utility.yul\":7002:7171   */\n      swap3\n      swap2\n      pop\n      pop\n      jump\t// out\n        /* \"#utility.yul\":7177:7336   */\n    tag_127:\n        /* \"#utility.yul\":7317:7328   */\n      0x4e6f74206f776e65720000000000000000000000000000000000000000000000\n        /* \"#utility.yul\":7313:7314   */\n      0x00\n        /* \"#utility.yul\":7305:7311   */\n      dup3\n        /* \"#utility.yul\":7301:7315   */\n      add\n        /* \"#utility.yul\":7294:7329   */\n      mstore\n        /* \"#utility.yul\":7177:7336   */\n      pop\n      jump\t// out\n        /* \"#utility.yul\":7342:7707   */\n    tag_128:\n        /* \"#utility.yul\":7484:7487   */\n      0x00\n        /* \"#utility.yul\":7505:7571   */\n      tag_224\n        /* \"#utility.yul\":7569:7570   */\n      0x09\n        /* \"#utility.yul\":7564:7567   */\n      dup4\n        /* \"#utility.yul\":7505:7571   */\n      tag_126\n      jump\t// in\n    tag_224:\n        /* \"#utility.yul\":7498:7571   */\n      swap2\n      pop\n        /* \"#utility.yul\":7580:7673   */\n      tag_225\n        /* \"#utility.yul\":7669:7672   */\n      dup3\n        /* \"#utility.yul\":7580:7673   */\n      tag_127\n      jump\t// in\n    tag_225:\n        /* \"#utility.yul\":7698:7700   */\n      0x20\n        /* \"#utility.yul\":7693:7696   */\n      dup3\n        /* \"#utility.yul\":7689:7701   */\n      add\n        /* \"#utility.yul\":7682:7701   */\n      swap1\n      pop\n        /* \"#utility.yul\":7342:7707   */\n      swap2\n      swap1\n      pop\n      jump\t// out\n        /* \"#utility.yul\":7713:8132   */\n    tag_44:\n        /* \"#utility.yul\":7879:7883   */\n      0x00\n        /* \"#utility.yul\":7917:7919   */\n      0x20\n        /* \"#utility.yul\":7906:7915   */\n      dup3\n        /* \"#utility.yul\":7902:7920   */\n      add\n        /* \"#utility.yul\":7894:7920   */\n      swap1\n      pop\n        /* \"#utility.yul\":7966:7975   */\n      dup2\n        /* \"#utility.yul\":7960:7964   */\n      dup2\n        /* \"#utility.yul\":7956:7976   */\n      sub\n        /* \"#utility.yul\":7952:7953   */\n      0x00\n        /* \"#utility.yul\":7941:7950   */\n      dup4\n        /* \"#utility.yul\":7937:7954   */\n      add\n        /* \"#utility.yul\":7930:7977   */\n      mstore\n        /* \"#utility.yul\":7994:8125   */\n      tag_227\n        /* \"#utility.yul\":8120:8124   */\n      dup2\n        /* \"#utility.yul\":7994:8125   */\n      tag_128\n      jump\t// in\n    tag_227:\n        /* \"#utility.yul\":7986:8125   */\n      swap1\n      pop\n        /* \"#utility.yul\":7713:8132   */\n      swap2\n      swap1\n      pop\n      jump\t// out\n        /* \"#utility.yul\":8138:8306   */\n    tag_129:\n        /* \"#utility.yul\":8278:8298   */\n      0x4163636f756e6420696420696e76616c69640000000000000000000000000000\n        /* \"#utility.yul\":8274:8275   */\n      0x00\n        /* \"#utility.yul\":8266:8272   */\n      dup3\n        /* \"#utility.yul\":8262:8276   */\n      add\n        /* \"#utility.yul\":8255:8299   */\n      mstore\n        /* \"#utility.yul\":8138:8306   */\n      pop\n      jump\t// out\n        /* \"#utility.yul\":8312:8678   */\n    tag_130:\n        /* \"#utility.yul\":8454:8457   */\n      0x00\n        /* \"#utility.yul\":8475:8542   */\n      tag_230\n        /* \"#utility.yul\":8539:8541   */\n      0x12\n        /* \"#utility.yul\":8534:8537   */\n      dup4\n        /* \"#utility.yul\":8475:8542   */\n      tag_126\n      jump\t// in\n    tag_230:\n        /* \"#utility.yul\":8468:8542   */\n      swap2\n      pop\n        /* \"#utility.yul\":8551:8644   */\n      tag_231\n        /* \"#utility.yul\":8640:8643   */\n      dup3\n        /* \"#utility.yul\":8551:8644   */\n      tag_129\n      jump\t// in\n    tag_231:\n        /* \"#utility.yul\":8669:8671   */\n      0x20\n        /* \"#utility.yul\":8664:8667   */\n      dup3\n        /* \"#utility.yul\":8660:8672   */\n      add\n        /* \"#utility.yul\":8653:8672   */\n      swap1\n      pop\n        /* \"#utility.yul\":8312:8678   */\n      swap2\n      swap1\n      pop\n      jump\t// out\n        /* \"#utility.yul\":8684:9103   */\n    tag_48:\n        /* \"#utility.yul\":8850:8854   */\n      0x00\n        /* \"#utility.yul\":8888:8890   */\n      0x20\n        /* \"#utility.yul\":8877:8886   */\n      dup3\n        /* \"#utility.yul\":8873:8891   */\n      add\n        /* \"#utility.yul\":8865:8891   */\n      swap1\n      pop\n        /* \"#utility.yul\":8937:8946   */\n      dup2\n        /* \"#utility.yul\":8931:8935   */\n      dup2\n        /* \"#utility.yul\":8927:8947   */\n      sub\n        /* \"#utility.yul\":8923:8924   */\n      0x00\n        /* \"#utility.yul\":8912:8921   */\n      dup4\n        /* \"#utility.yul\":8908:8925   */\n      add\n        /* \"#utility.yul\":8901:8948   */\n      mstore\n        /* \"#utility.yul\":8965:9096   */\n      tag_233\n        /* \"#utility.yul\":9091:9095   */\n      dup2\n        /* \"#utility.yul\":8965:9096   */\n      tag_130\n      jump\t// in\n    tag_233:\n        /* \"#utility.yul\":8957:9096   */\n      swap1\n      pop\n        /* \"#utility.yul\":8684:9103   */\n      swap2\n      swap1\n      pop\n      jump\t// out\n        /* \"#utility.yul\":9109:9276   */\n    tag_131:\n        /* \"#utility.yul\":9249:9268   */\n      0x496e737566666963656e742066756e6473000000000000000000000000000000\n        /* \"#utility.yul\":9245:9246   */\n      0x00\n        /* \"#utility.yul\":9237:9243   */\n      dup3\n        /* \"#utility.yul\":9233:9247   */\n      add\n        /* \"#utility.yul\":9226:9269   */\n      mstore\n        /* \"#utility.yul\":9109:9276   */\n      pop\n      jump\t// out\n        /* \"#utility.yul\":9282:9648   */\n    tag_132:\n        /* \"#utility.yul\":9424:9427   */\n      0x00\n        /* \"#utility.yul\":9445:9512   */\n      tag_236\n        /* \"#utility.yul\":9509:9511   */\n      0x11\n        /* \"#utility.yul\":9504:9507   */\n      dup4\n        /* \"#utility.yul\":9445:9512   */\n      tag_126\n      jump\t// in\n    tag_236:\n        /* \"#utility.yul\":9438:9512   */\n      swap2\n      pop\n        /* \"#utility.yul\":9521:9614   */\n      tag_237\n        /* \"#utility.yul\":9610:9613   */\n      dup3\n        /* \"#utility.yul\":9521:9614   */\n      tag_131\n      jump\t// in\n    tag_237:\n        /* \"#utility.yul\":9639:9641   */\n      0x20\n        /* \"#utility.yul\":9634:9637   */\n      dup3\n        /* \"#utility.yul\":9630:9642   */\n      add\n        /* \"#utility.yul\":9623:9642   */\n      swap1\n      pop\n        /* \"#utility.yul\":9282:9648   */\n      swap2\n      swap1\n      pop\n      jump\t// out\n        /* \"#utility.yul\":9654:10073   */\n    tag_54:\n        /* \"#utility.yul\":9820:9824   */\n      0x00\n        /* \"#utility.yul\":9858:9860   */\n      0x20\n        /* \"#utility.yul\":9847:9856   */\n      dup3\n        /* \"#utility.yul\":9843:9861   */\n      add\n        /* \"#utility.yul\":9835:9861   */\n      swap1\n      pop\n        /* \"#utility.yul\":9907:9916   */\n      dup2\n        /* \"#utility.yul\":9901:9905   */\n      dup2\n        /* \"#utility.yul\":9897:9917   */\n      sub\n        /* \"#utility.yul\":9893:9894   */\n      0x00\n        /* \"#utility.yul\":9882:9891   */\n      dup4\n        /* \"#utility.yul\":9878:9895   */\n      add\n        /* \"#utility.yul\":9871:9918   */\n      mstore\n        /* \"#utility.yul\":9935:10066   */\n      tag_239\n        /* \"#utility.yul\":10061:10065   */\n      dup2\n        /* \"#utility.yul\":9935:10066   */\n      tag_132\n      jump\t// in\n    tag_239:\n        /* \"#utility.yul\":9927:10066   */\n      swap1\n      pop\n        /* \"#utility.yul\":9654:10073   */\n      swap2\n      swap1\n      pop\n      jump\t// out\n        /* \"#utility.yul\":10079:10259   */\n    tag_133:\n        /* \"#utility.yul\":10127:10204   */\n      0x4e487b7100000000000000000000000000000000000000000000000000000000\n        /* \"#utility.yul\":10124:10125   */\n      0x00\n        /* \"#utility.yul\":10117:10205   */\n      mstore\n        /* \"#utility.yul\":10224:10228   */\n      0x11\n        /* \"#utility.yul\":10221:10222   */\n      0x04\n        /* \"#utility.yul\":10214:10229   */\n      mstore\n        /* \"#utility.yul\":10248:10252   */\n      0x24\n        /* \"#utility.yul\":10245:10246   */\n      0x00\n        /* \"#utility.yul\":10238:10253   */\n      revert\n        /* \"#utility.yul\":10265:10459   */\n    tag_59:\n        /* \"#utility.yul\":10305:10309   */\n      0x00\n        /* \"#utility.yul\":10325:10345   */\n      tag_242\n        /* \"#utility.yul\":10343:10344   */\n      dup3\n        /* \"#utility.yul\":10325:10345   */\n      tag_107\n      jump\t// in\n    tag_242:\n        /* \"#utility.yul\":10320:10345   */\n      swap2\n      pop\n        /* \"#utility.yul\":10359:10379   */\n      tag_243\n        /* \"#utility.yul\":10377:10378   */\n      dup4\n        /* \"#utility.yul\":10359:10379   */\n      tag_107\n      jump\t// in\n    tag_243:\n        /* \"#utility.yul\":10354:10379   */\n      swap3\n      pop\n        /* \"#utility.yul\":10403:10404   */\n      dup3\n        /* \"#utility.yul\":10400:10401   */\n      dup3\n        /* \"#utility.yul\":10396:10405   */\n      sub\n        /* \"#utility.yul\":10388:10405   */\n      swap1\n      pop\n        /* \"#utility.yul\":10427:10428   */\n      dup2\n        /* \"#utility.yul\":10421:10425   */\n      dup2\n        /* \"#utility.yul\":10418:10429   */\n      gt\n        /* \"#utility.yul\":10415:10452   */\n      iszero\n      tag_244\n      jumpi\n        /* \"#utility.yul\":10432:10450   */\n      tag_245\n      tag_133\n      jump\t// in\n    tag_245:\n        /* \"#utility.yul\":10415:10452   */\n    tag_244:\n        /* \"#utility.yul\":10265:10459   */\n      swap3\n      swap2\n      pop\n      pop\n      jump\t// out\n        /* \"#utility.yul\":10465:10633   */\n    tag_134:\n        /* \"#utility.yul\":10605:10625   */\n      0x496e73756666696369656e742066756e64730000000000000000000000000000\n        /* \"#utility.yul\":10601:10602   */\n      0x00\n        /* \"#utility.yul\":10593:10599   */\n      dup3\n        /* \"#utility.yul\":10589:10603   */\n      add\n        /* \"#utility.yul\":10582:10626   */\n      mstore\n        /* \"#utility.yul\":10465:10633   */\n      pop\n      jump\t// out\n        /* \"#utility.yul\":10639:11005   */\n    tag_135:\n        /* \"#utility.yul\":10781:10784   */\n      0x00\n        /* \"#utility.yul\":10802:10869   */\n      tag_248\n        /* \"#utility.yul\":10866:10868   */\n      0x12\n        /* \"#utility.yul\":10861:10864   */\n      dup4\n        /* \"#utility.yul\":10802:10869   */\n      tag_126\n      jump\t// in\n    tag_248:\n        /* \"#utility.yul\":10795:10869   */\n      swap2\n      pop\n        /* \"#utility.yul\":10878:10971   */\n      tag_249\n        /* \"#utility.yul\":10967:10970   */\n      dup3\n        /* \"#utility.yul\":10878:10971   */\n      tag_134\n      jump\t// in\n    tag_249:\n        /* \"#utility.yul\":10996:10998   */\n      0x20\n        /* \"#utility.yul\":10991:10994   */\n      dup3\n        /* \"#utility.yul\":10987:10999   */\n      add\n        /* \"#utility.yul\":10980:10999   */\n      swap1\n      pop\n        /* \"#utility.yul\":10639:11005   */\n      swap2\n      swap1\n      pop\n      jump\t// out\n        /* \"#utility.yul\":11011:11430   */\n    tag_73:\n        /* \"#utility.yul\":11177:11181   */\n      0x00\n        /* \"#utility.yul\":11215:11217   */\n      0x20\n        /* \"#utility.yul\":11204:11213   */\n      dup3\n        /* \"#utility.yul\":11200:11218   */\n      add\n        /* \"#utility.yul\":11192:11218   */\n      swap1\n      pop\n        /* \"#utility.yul\":11264:11273   */\n      dup2\n        /* \"#utility.yul\":11258:11262   */\n      dup2\n        /* \"#utility.yul\":11254:11274   */\n      sub\n        /* \"#utility.yul\":11250:11251   */\n      0x00\n        /* \"#utility.yul\":11239:11248   */\n      dup4\n        /* \"#utility.yul\":11235:11252   */\n      add\n        /* \"#utility.yul\":11228:11275   */\n      mstore\n        /* \"#utility.yul\":11292:11423   */\n      tag_251\n        /* \"#utility.yul\":11418:11422   */\n      dup2\n        /* \"#utility.yul\":11292:11423   */\n      tag_135\n      jump\t// in\n    tag_251:\n        /* \"#utility.yul\":11284:11423   */\n      swap1\n      pop\n        /* \"#utility.yul\":11011:11430   */\n      swap2\n      swap1\n      pop\n      jump\t// out\n        /* \"#utility.yul\":11436:11601   */\n    tag_136:\n        /* \"#utility.yul\":11576:11593   */\n      0x496e76616c6964206163636f756e740000000000000000000000000000000000\n        /* \"#utility.yul\":11572:11573   */\n      0x00\n        /* \"#utility.yul\":11564:11570   */\n      dup3\n        /* \"#utility.yul\":11560:11574   */\n      add\n        /* \"#utility.yul\":11553:11594   */\n      mstore\n        /* \"#utility.yul\":11436:11601   */\n      pop\n      jump\t// out\n        /* \"#utility.yul\":11607:11973   */\n    tag_137:\n        /* \"#utility.yul\":11749:11752   */\n      0x00\n        /* \"#utility.yul\":11770:11837   */\n      tag_254\n        /* \"#utility.yul\":11834:11836   */\n      0x0f\n        /* \"#utility.yul\":11829:11832   */\n      dup4\n        /* \"#utility.yul\":11770:11837   */\n      tag_126\n      jump\t// in\n    tag_254:\n        /* \"#utility.yul\":11763:11837   */\n      swap2\n      pop\n        /* \"#utility.yul\":11846:11939   */\n      tag_255\n        /* \"#utility.yul\":11935:11938   */\n      dup3\n        /* \"#utility.yul\":11846:11939   */\n      tag_136\n      jump\t// in\n    tag_255:\n        /* \"#utility.yul\":11964:11966   */\n      0x20\n        /* \"#utility.yul\":11959:11962   */\n      dup3\n        /* \"#utility.yul\":11955:11967   */\n      add\n        /* \"#utility.yul\":11948:11967   */\n      swap1\n      pop\n        /* \"#utility.yul\":11607:11973   */\n      swap2\n      swap1\n      pop\n      jump\t// out\n        /* \"#utility.yul\":11979:12398   */\n    tag_76:\n        /* \"#utility.yul\":12145:12149   */\n      0x00\n        /* \"#utility.yul\":12183:12185   */\n      0x20\n        /* \"#utility.yul\":12172:12181   */\n      dup3\n        /* \"#utility.yul\":12168:12186   */\n      add\n        /* \"#utility.yul\":12160:12186   */\n      swap1\n      pop\n        /* \"#utility.yul\":12232:12241   */\n      dup2\n        /* \"#utility.yul\":12226:12230   */\n      dup2\n        /* \"#utility.yul\":12222:12242   */\n      sub\n        /* \"#utility.yul\":12218:12219   */\n      0x00\n        /* \"#utility.yul\":12207:12216   */\n      dup4\n        /* \"#utility.yul\":12203:12220   */\n      add\n        /* \"#utility.yul\":12196:12243   */\n      mstore\n        /* \"#utility.yul\":12260:12391   */\n      tag_257\n        /* \"#utility.yul\":12386:12390   */\n      dup2\n        /* \"#utility.yul\":12260:12391   */\n      tag_137\n      jump\t// in\n    tag_257:\n        /* \"#utility.yul\":12252:12391   */\n      swap1\n      pop\n        /* \"#utility.yul\":11979:12398   */\n      swap2\n      swap1\n      pop\n      jump\t// out\n        /* \"#utility.yul\":12404:12595   */\n    tag_82:\n        /* \"#utility.yul\":12444:12447   */\n      0x00\n        /* \"#utility.yul\":12463:12483   */\n      tag_259\n        /* \"#utility.yul\":12481:12482   */\n      dup3\n        /* \"#utility.yul\":12463:12483   */\n      tag_107\n      jump\t// in\n    tag_259:\n        /* \"#utility.yul\":12458:12483   */\n      swap2\n      pop\n        /* \"#utility.yul\":12497:12517   */\n      tag_260\n        /* \"#utility.yul\":12515:12516   */\n      dup4\n        /* \"#utility.yul\":12497:12517   */\n      tag_107\n      jump\t// in\n    tag_260:\n        /* \"#utility.yul\":12492:12517   */\n      swap3\n      pop\n        /* \"#utility.yul\":12540:12541   */\n      dup3\n        /* \"#utility.yul\":12537:12538   */\n      dup3\n        /* \"#utility.yul\":12533:12542   */\n      add\n        /* \"#utility.yul\":12526:12542   */\n      swap1\n      pop\n        /* \"#utility.yul\":12561:12564   */\n      dup1\n        /* \"#utility.yul\":12558:12559   */\n      dup3\n        /* \"#utility.yul\":12555:12565   */\n      gt\n        /* \"#utility.yul\":12552:12588   */\n      iszero\n      tag_261\n      jumpi\n        /* \"#utility.yul\":12568:12586   */\n      tag_262\n      tag_133\n      jump\t// in\n    tag_262:\n        /* \"#utility.yul\":12552:12588   */\n    tag_261:\n        /* \"#utility.yul\":12404:12595   */\n      swap3\n      swap2\n      pop\n      pop\n      jump\t// out\n        /* \"#utility.yul\":12601:12700   */\n    tag_138:\n        /* \"#utility.yul\":12653:12659   */\n      0x00\n        /* \"#utility.yul\":12687:12692   */\n      dup2\n        /* \"#utility.yul\":12681:12693   */\n      mload\n        /* \"#utility.yul\":12671:12693   */\n      swap1\n      pop\n        /* \"#utility.yul\":12601:12700   */\n      swap2\n      swap1\n      pop\n      jump\t// out\n        /* \"#utility.yul\":12706:12845   */\n    tag_139:\n        /* \"#utility.yul\":12795:12801   */\n      dup3\n        /* \"#utility.yul\":12790:12793   */\n      dup2\n        /* \"#utility.yul\":12785:12788   */\n      dup4\n        /* \"#utility.yul\":12779:12802   */\n      mcopy\n        /* \"#utility.yul\":12836:12837   */\n      0x00\n        /* \"#utility.yul\":12827:12833   */\n      dup4\n        /* \"#utility.yul\":12822:12825   */\n      dup4\n        /* \"#utility.yul\":12818:12834   */\n      add\n        /* \"#utility.yul\":12811:12838   */\n      mstore\n        /* \"#utility.yul\":12706:12845   */\n      pop\n      pop\n      pop\n      jump\t// out\n        /* \"#utility.yul\":12851:13228   */\n    tag_140:\n        /* \"#utility.yul\":12939:12942   */\n      0x00\n        /* \"#utility.yul\":12967:13006   */\n      tag_266\n        /* \"#utility.yul\":13000:13005   */\n      dup3\n        /* \"#utility.yul\":12967:13006   */\n      tag_138\n      jump\t// in\n    tag_266:\n        /* \"#utility.yul\":13022:13093   */\n      tag_267\n        /* \"#utility.yul\":13086:13092   */\n      dup2\n        /* \"#utility.yul\":13081:13084   */\n      dup6\n        /* \"#utility.yul\":13022:13093   */\n      tag_126\n      jump\t// in\n    tag_267:\n        /* \"#utility.yul\":13015:13093   */\n      swap4\n      pop\n        /* \"#utility.yul\":13102:13167   */\n      tag_268\n        /* \"#utility.yul\":13160:13166   */\n      dup2\n        /* \"#utility.yul\":13155:13158   */\n      dup6\n        /* \"#utility.yul\":13148:13152   */\n      0x20\n        /* \"#utility.yul\":13141:13146   */\n      dup7\n        /* \"#utility.yul\":13137:13153   */\n      add\n        /* \"#utility.yul\":13102:13167   */\n      tag_139\n      jump\t// in\n    tag_268:\n        /* \"#utility.yul\":13192:13221   */\n      tag_269\n        /* \"#utility.yul\":13214:13220   */\n      dup2\n        /* \"#utility.yul\":13192:13221   */\n      tag_118\n      jump\t// in\n    tag_269:\n        /* \"#utility.yul\":13187:13190   */\n      dup5\n        /* \"#utility.yul\":13183:13222   */\n      add\n        /* \"#utility.yul\":13176:13222   */\n      swap2\n      pop\n        /* \"#utility.yul\":12943:13228   */\n      pop\n        /* \"#utility.yul\":12851:13228   */\n      swap3\n      swap2\n      pop\n      pop\n      jump\t// out\n        /* \"#utility.yul\":13234:13767   */\n    tag_93:\n        /* \"#utility.yul\":13403:13407   */\n      0x00\n        /* \"#utility.yul\":13441:13443   */\n      0x60\n        /* \"#utility.yul\":13430:13439   */\n      dup3\n        /* \"#utility.yul\":13426:13444   */\n      add\n        /* \"#utility.yul\":13418:13444   */\n      swap1\n      pop\n        /* \"#utility.yul\":13490:13499   */\n      dup2\n        /* \"#utility.yul\":13484:13488   */\n      dup2\n        /* \"#utility.yul\":13480:13500   */\n      sub\n        /* \"#utility.yul\":13476:13477   */\n      0x00\n        /* \"#utility.yul\":13465:13474   */\n      dup4\n        /* \"#utility.yul\":13461:13478   */\n      add\n        /* \"#utility.yul\":13454:13501   */\n      mstore\n        /* \"#utility.yul\":13518:13596   */\n      tag_271\n        /* \"#utility.yul\":13591:13595   */\n      dup2\n        /* \"#utility.yul\":13582:13588   */\n      dup7\n        /* \"#utility.yul\":13518:13596   */\n      tag_140\n      jump\t// in\n    tag_271:\n        /* \"#utility.yul\":13510:13596   */\n      swap1\n      pop\n        /* \"#utility.yul\":13606:13678   */\n      tag_272\n        /* \"#utility.yul\":13674:13676   */\n      0x20\n        /* \"#utility.yul\":13663:13672   */\n      dup4\n        /* \"#utility.yul\":13659:13677   */\n      add\n        /* \"#utility.yul\":13650:13656   */\n      dup6\n        /* \"#utility.yul\":13606:13678   */\n      tag_110\n      jump\t// in\n    tag_272:\n        /* \"#utility.yul\":13688:13760   */\n      tag_273\n        /* \"#utility.yul\":13756:13758   */\n      0x40\n        /* \"#utility.yul\":13745:13754   */\n      dup4\n        /* \"#utility.yul\":13741:13759   */\n      add\n        /* \"#utility.yul\":13732:13738   */\n      dup5\n        /* \"#utility.yul\":13688:13760   */\n      tag_110\n      jump\t// in\n    tag_273:\n        /* \"#utility.yul\":13234:13767   */\n      swap5\n      swap4\n      pop\n      pop\n      pop\n      pop\n      jump\t// out\n\n    auxdata: 0xa264697066735822122047a2c5a6c7e15c01fd819bc733e911693f9e27557fd422ff34c0b54c4689a74664736f6c634300081a0033\n}\n",
				"bytecode": {
					"linkReferences": {},
					"object": "6080604052348015600e575f80fd5b503360015f6101000a81548173ffffffffffffffffffffffffffffffffffffffff021916908373ffffffffffffffffffffffffffffffffffffffff1602179055506111488061005c5f395ff3fe608060405234801561000f575f80fd5b5060043610610060575f3560e01c80631e01043914610064578063441a3e701461009457806387524581146100b05780638da5cb5b146100e2578063d1eafb2314610100578063e2bbb1581461011c575b5f80fd5b61007e60048036038101906100799190610a6c565b610138565b60405161008b9190610aa6565b60405180910390f35b6100ae60048036038101906100a99190610abf565b61019d565b005b6100ca60048036038101906100c59190610b57565b6103c2565b6040516100d993929190610ba4565b60405180910390f35b6100ea610420565b6040516100f79190610bd9565b60405180910390f35b61011a60048036038101906101159190610d2e565b610445565b005b61013660048036038101906101319190610abf565b6108a2565b005b5f805f3373ffffffffffffffffffffffffffffffffffffffff1673ffffffffffffffffffffffffffffffffffffffff1681526020019081526020015f20828154811061018757610186610dae565b5b905f5260205f2090600302015f01549050919050565b60015f9054906101000a900473ffffffffffffffffffffffffffffffffffffffff1673ffffffffffffffffffffffffffffffffffffffff163373ffffffffffffffffffffffffffffffffffffffff161461022c576040517f08c379a000000000000000000000000000000000000000000000000000000000815260040161022390610e35565b60405180910390fd5b5f803373ffffffffffffffffffffffffffffffffffffffff1673ffffffffffffffffffffffffffffffffffffffff1681526020019081526020015f208054905082106102ad576040517f08c379a00000000000000000000000000000000000000000000000000000000081526004016102a490610e9d565b60405180910390fd5b805f803373ffffffffffffffffffffffffffffffffffffffff1673ffffffffffffffffffffffffffffffffffffffff1681526020019081526020015f2083815481106102fc576102fb610dae565b5b905f5260205f2090600302015f0154101561034c576040517f08c379a000000000000000000000000000000000000000000000000000000000815260040161034390610f05565b60405180910390fd5b805f803373ffffffffffffffffffffffffffffffffffffffff1673ffffffffffffffffffffffffffffffffffffffff1681526020019081526020015f20838154811061039b5761039a610dae565b5b905f5260205f2090600302015f015f8282546103b79190610f50565b925050819055505050565b5f602052815f5260405f2081815481106103da575f80fd5b905f5260205f2090600302015f9150915050805f015490806001015490806002015f9054906101000a900473ffffffffffffffffffffffffffffffffffffffff16905083565b60015f9054906101000a900473ffffffffffffffffffffffffffffffffffffffff1681565b60015f9054906101000a900473ffffffffffffffffffffffffffffffffffffffff1673ffffffffffffffffffffffffffffffffffffffff163373ffffffffffffffffffffffffffffffffffffffff16146104d4576040517f08c379a00000000000000000000000000000000000000000000000000000000081526004016104cb90610e35565b60405180910390fd5b5f803373ffffffffffffffffffffffffffffffffffffffff1673ffffffffffffffffffffffffffffffffffffffff1681526020019081526020015f20805490508410610555576040517f08c379a000000000000000000000000000000000000000000000000000000000815260040161054c90610e9d565b60405180910390fd5b815f803373ffffffffffffffffffffffffffffffffffffffff1673ffffffffffffffffffffffffffffffffffffffff1681526020019081526020015f2085815481106105a4576105a3610dae565b5b905f5260205f2090600302015f015410156105f4576040517f08c379a00000000000000000000000000000000000000000000000000000000081526004016105eb90610fcd565b60405180910390fd5b3373ffffffffffffffffffffffffffffffffffffffff168373ffffffffffffffffffffffffffffffffffffffff1603610662576040517f08c379a000000000000000000000000000000000000000000000000000000000815260040161065990611035565b60405180910390fd5b61066c848361019d565b815f808573ffffffffffffffffffffffffffffffffffffffff1673ffffffffffffffffffffffffffffffffffffffff1681526020019081526020015f2085815481106106bb576106ba610dae565b5b905f5260205f2090600302015f015f8282546106d79190611053565b925050819055505f808473ffffffffffffffffffffffffffffffffffffffff1673ffffffffffffffffffffffffffffffffffffffff1681526020019081526020015f20848154811061072c5761072b610dae565b5b905f5260205f2090600302016002015f9054906101000a900473ffffffffffffffffffffffffffffffffffffffff1673ffffffffffffffffffffffffffffffffffffffff165f803373ffffffffffffffffffffffffffffffffffffffff1673ffffffffffffffffffffffffffffffffffffffff1681526020019081526020015f2085815481106107bf576107be610dae565b5b905f5260205f2090600302016002015f9054906101000a900473ffffffffffffffffffffffffffffffffffffffff1673ffffffffffffffffffffffffffffffffffffffff167f651e25d1d5e28ea3d46c1e231de2f939b587f24374b637685abaf09e0598de6483855f803373ffffffffffffffffffffffffffffffffffffffff1673ffffffffffffffffffffffffffffffffffffffff1681526020019081526020015f20898154811061087557610874610dae565b5b905f5260205f20906003020160010154604051610894939291906110d6565b60405180910390a350505050565b60015f9054906101000a900473ffffffffffffffffffffffffffffffffffffffff1673ffffffffffffffffffffffffffffffffffffffff163373ffffffffffffffffffffffffffffffffffffffff1614610931576040517f08c379a000000000000000000000000000000000000000000000000000000000815260040161092890610e35565b60405180910390fd5b5f803373ffffffffffffffffffffffffffffffffffffffff1673ffffffffffffffffffffffffffffffffffffffff1681526020019081526020015f208054905082106109b2576040517f08c379a00000000000000000000000000000000000000000000000000000000081526004016109a990610e9d565b60405180910390fd5b805f803373ffffffffffffffffffffffffffffffffffffffff1673ffffffffffffffffffffffffffffffffffffffff1681526020019081526020015f208381548110610a0157610a00610dae565b5b905f5260205f2090600302015f015f828254610a1d9190611053565b925050819055505050565b5f604051905090565b5f80fd5b5f80fd5b5f819050919050565b610a4b81610a39565b8114610a55575f80fd5b50565b5f81359050610a6681610a42565b92915050565b5f60208284031215610a8157610a80610a31565b5b5f610a8e84828501610a58565b91505092915050565b610aa081610a39565b82525050565b5f602082019050610ab95f830184610a97565b92915050565b5f8060408385031215610ad557610ad4610a31565b5b5f610ae285828601610a58565b9250506020610af385828601610a58565b9150509250929050565b5f73ffffffffffffffffffffffffffffffffffffffff82169050919050565b5f610b2682610afd565b9050919050565b610b3681610b1c565b8114610b40575f80fd5b50565b5f81359050610b5181610b2d565b92915050565b5f8060408385031215610b6d57610b6c610a31565b5b5f610b7a85828601610b43565b9250506020610b8b85828601610a58565b9150509250929050565b610b9e81610b1c565b82525050565b5f606082019050610bb75f830186610a97565b610bc46020830185610a97565b610bd16040830184610b95565b949350505050565b5f602082019050610bec5f830184610b95565b92915050565b5f80fd5b5f80fd5b5f601f19601f8301169050919050565b7f4e487b71000000000000000000000000000000000000000000000000000000005f52604160045260245ffd5b610c4082610bfa565b810181811067ffffffffffffffff82111715610c5f57610c5e610c0a565b5b80604052505050565b5f610c71610a28565b9050610c7d8282610c37565b919050565b5f67ffffffffffffffff821115610c9c57610c9b610c0a565b5b610ca582610bfa565b9050602081019050919050565b828183375f83830152505050565b5f610cd2610ccd84610c82565b610c68565b905082815260208101848484011115610cee57610ced610bf6565b5b610cf9848285610cb2565b509392505050565b5f82601f830112610d1557610d14610bf2565b5b8135610d25848260208601610cc0565b91505092915050565b5f805f8060808587031215610d4657610d45610a31565b5b5f610d5387828801610a58565b9450506020610d6487828801610b43565b9350506040610d7587828801610a58565b925050606085013567ffffffffffffffff811115610d9657610d95610a35565b5b610da287828801610d01565b91505092959194509250565b7f4e487b71000000000000000000000000000000000000000000000000000000005f52603260045260245ffd5b5f82825260208201905092915050565b7f4e6f74206f776e657200000000000000000000000000000000000000000000005f82015250565b5f610e1f600983610ddb565b9150610e2a82610deb565b602082019050919050565b5f6020820190508181035f830152610e4c81610e13565b9050919050565b7f4163636f756e6420696420696e76616c696400000000000000000000000000005f82015250565b5f610e87601283610ddb565b9150610e9282610e53565b602082019050919050565b5f6020820190508181035f830152610eb481610e7b565b9050919050565b7f496e737566666963656e742066756e64730000000000000000000000000000005f82015250565b5f610eef601183610ddb565b9150610efa82610ebb565b602082019050919050565b5f6020820190508181035f830152610f1c81610ee3565b9050919050565b7f4e487b71000000000000000000000000000000000000000000000000000000005f52601160045260245ffd5b5f610f5a82610a39565b9150610f6583610a39565b9250828203905081811115610f7d57610f7c610f23565b5b92915050565b7f496e73756666696369656e742066756e647300000000000000000000000000005f82015250565b5f610fb7601283610ddb565b9150610fc282610f83565b602082019050919050565b5f6020820190508181035f830152610fe481610fab565b9050919050565b7f496e76616c6964206163636f756e7400000000000000000000000000000000005f82015250565b5f61101f600f83610ddb565b915061102a82610feb565b602082019050919050565b5f6020820190508181035f83015261104c81611013565b9050919050565b5f61105d82610a39565b915061106883610a39565b92508282019050808211156110805761107f610f23565b5b92915050565b5f81519050919050565b8281835e5f83830152505050565b5f6110a882611086565b6110b28185610ddb565b93506110c2818560208601611090565b6110cb81610bfa565b840191505092915050565b5f6060820190508181035f8301526110ee818661109e565b90506110fd6020830185610a97565b61110a6040830184610a97565b94935050505056fea264697066735822122047a2c5a6c7e15c01fd819bc733e911693f9e27557fd422ff34c0b54c4689a74664736f6c634300081a0033",
					"opcodes": "PUSH1 0x80 PUSH1 0x40 MSTORE CALLVALUE DUP1 ISZERO PUSH1 0xE JUMPI PUSH0 DUP1 REVERT JUMPDEST POP CALLER PUSH1 0x1 PUSH0 PUSH2 0x100 EXP DUP2 SLOAD DUP2 PUSH20 0xFFFFFFFFFFFFFFFFFFFFFFFFFFFFFFFFFFFFFFFF MUL NOT AND SWAP1 DUP4 PUSH20 0xFFFFFFFFFFFFFFFFFFFFFFFFFFFFFFFFFFFFFFFF AND MUL OR SWAP1 SSTORE POP PUSH2 0x1148 DUP1 PUSH2 0x5C PUSH0 CODECOPY PUSH0 RETURN INVALID PUSH1 0x80 PUSH1 0x40 MSTORE CALLVALUE DUP1 ISZERO PUSH2 0xF JUMPI PUSH0 DUP1 REVERT JUMPDEST POP PUSH1 0x4 CALLDATASIZE LT PUSH2 0x60 JUMPI PUSH0 CALLDATALOAD PUSH1 0xE0 SHR DUP1 PUSH4 0x1E010439 EQ PUSH2 0x64 JUMPI DUP1 PUSH4 0x441A3E70 EQ PUSH2 0x94 JUMPI DUP1 PUSH4 0x87524581 EQ PUSH2 0xB0 JUMPI DUP1 PUSH4 0x8DA5CB5B EQ PUSH2 0xE2 JUMPI DUP1 PUSH4 0xD1EAFB23 EQ PUSH2 0x100 JUMPI DUP1 PUSH4 0xE2BBB158 EQ PUSH2 0x11C JUMPI JUMPDEST PUSH0 DUP1 REVERT JUMPDEST PUSH2 0x7E PUSH1 0x4 DUP1 CALLDATASIZE SUB DUP2 ADD SWAP1 PUSH2 0x79 SWAP2 SWAP1 PUSH2 0xA6C JUMP JUMPDEST PUSH2 0x138 JUMP JUMPDEST PUSH1 0x40 MLOAD PUSH2 0x8B SWAP2 SWAP1 PUSH2 0xAA6 JUMP JUMPDEST PUSH1 0x40 MLOAD DUP1 SWAP2 SUB SWAP1 RETURN JUMPDEST PUSH2 0xAE PUSH1 0x4 DUP1 CALLDATASIZE SUB DUP2 ADD SWAP1 PUSH2 0xA9 SWAP2 SWAP1 PUSH2 0xABF JUMP JUMPDEST PUSH2 0x19D JUMP JUMPDEST STOP JUMPDEST PUSH2 0xCA PUSH1 0x4 DUP1 CALLDATASIZE SUB DUP2 ADD SWAP1 PUSH2 0xC5 SWAP2 SWAP1 PUSH2 0xB57 JUMP JUMPDEST PUSH2 0x3C2 JUMP JUMPDEST PUSH1 0x40 MLOAD PUSH2 0xD9 SWAP4 SWAP3 SWAP2 SWAP1 PUSH2 0xBA4 JUMP JUMPDEST PUSH1 0x40 MLOAD DUP1 SWAP2 SUB SWAP1 RETURN JUMPDEST PUSH2 0xEA PUSH2 0x420 JUMP JUMPDEST PUSH1 0x40 MLOAD PUSH2 0xF7 SWAP2 SWAP1 PUSH2 0xBD9 JUMP JUMPDEST PUSH1 0x40 MLOAD DUP1 SWAP2 SUB SWAP1 RETURN JUMPDEST PUSH2 0x11A PUSH1 0x4 DUP1 CALLDATASIZE SUB DUP2 ADD SWAP1 PUSH2 0x115 SWAP2 SWAP1 PUSH2 0xD2E JUMP JUMPDEST PUSH2 0x445 JUMP JUMPDEST STOP JUMPDEST PUSH2 0x136 PUSH1 0x4 DUP1 CALLDATASIZE SUB DUP2 ADD SWAP1 PUSH2 0x131 SWAP2 SWAP1 PUSH2 0xABF JUMP JUMPDEST PUSH2 0x8A2 JUMP JUMPDEST STOP JUMPDEST PUSH0 DUP1 PUSH0 CALLER PUSH20 0xFFFFFFFFFFFFFFFFFFFFFFFFFFFFFFFFFFFFFFFF AND PUSH20 0xFFFFFFFFFFFFFFFFFFFFFFFFFFFFFFFFFFFFFFFF AND DUP2 MSTORE PUSH1 0x20 ADD SWAP1 DUP2 MSTORE PUSH1 0x20 ADD PUSH0 KECCAK256 DUP3 DUP2 SLOAD DUP2 LT PUSH2 0x187 JUMPI PUSH2 0x186 PUSH2 0xDAE JUMP JUMPDEST JUMPDEST SWAP1 PUSH0 MSTORE PUSH1 0x20 PUSH0 KECCAK256 SWAP1 PUSH1 0x3 MUL ADD PUSH0 ADD SLOAD SWAP1 POP SWAP2 SWAP1 POP JUMP JUMPDEST PUSH1 0x1 PUSH0 SWAP1 SLOAD SWAP1 PUSH2 0x100 EXP SWAP1 DIV PUSH20 0xFFFFFFFFFFFFFFFFFFFFFFFFFFFFFFFFFFFFFFFF AND PUSH20 0xFFFFFFFFFFFFFFFFFFFFFFFFFFFFFFFFFFFFFFFF AND CALLER PUSH20 0xFFFFFFFFFFFFFFFFFFFFFFFFFFFFFFFFFFFFFFFF AND EQ PUSH2 0x22C JUMPI PUSH1 0x40 MLOAD PUSH32 0x8C379A000000000000000000000000000000000000000000000000000000000 DUP2 MSTORE PUSH1 0x4 ADD PUSH2 0x223 SWAP1 PUSH2 0xE35 JUMP JUMPDEST PUSH1 0x40 MLOAD DUP1 SWAP2 SUB SWAP1 REVERT JUMPDEST PUSH0 DUP1 CALLER PUSH20 0xFFFFFFFFFFFFFFFFFFFFFFFFFFFFFFFFFFFFFFFF AND PUSH20 0xFFFFFFFFFFFFFFFFFFFFFFFFFFFFFFFFFFFFFFFF AND DUP2 MSTORE PUSH1 0x20 ADD SWAP1 DUP2 MSTORE PUSH1 0x20 ADD PUSH0 KECCAK256 DUP1 SLOAD SWAP1 POP DUP3 LT PUSH2 0x2AD JUMPI PUSH1 0x40 MLOAD PUSH32 0x8C379A000000000000000000000000000000000000000000000000000000000 DUP2 MSTORE PUSH1 0x4 ADD PUSH2 0x2A4 SWAP1 PUSH2 0xE9D JUMP JUMPDEST PUSH1 0x40 MLOAD DUP1 SWAP2 SUB SWAP1 REVERT JUMPDEST DUP1 PUSH0 DUP1 CALLER PUSH20 0xFFFFFFFFFFFFFFFFFFFFFFFFFFFFFFFFFFFFFFFF AND PUSH20 0xFFFFFFFFFFFFFFFFFFFFFFFFFFFFFFFFFFFFFFFF AND DUP2 MSTORE PUSH1 0x20 ADD SWAP1 DUP2 MSTORE PUSH1 0x20 ADD PUSH0 KECCAK256 DUP4 DUP2 SLOAD DUP2 LT PUSH2 0x2FC JUMPI PUSH2 0x2FB PUSH2 0xDAE JUMP JUMPDEST JUMPDEST SWAP1 PUSH0 MSTORE PUSH1 0x20 PUSH0 KECCAK256 SWAP1 PUSH1 0x3 MUL ADD PUSH0 ADD SLOAD LT ISZERO PUSH2 0x34C JUMPI PUSH1 0x40 MLOAD PUSH32 0x8C379A000000000000000000000000000000000000000000000000000000000 DUP2 MSTORE PUSH1 0x4 ADD PUSH2 0x343 SWAP1 PUSH2 0xF05 JUMP JUMPDEST PUSH1 0x40 MLOAD DUP1 SWAP2 SUB SWAP1 REVERT JUMPDEST DUP1 PUSH0 DUP1 CALLER PUSH20 0xFFFFFFFFFFFFFFFFFFFFFFFFFFFFFFFFFFFFFFFF AND PUSH20 0xFFFFFFFFFFFFFFFFFFFFFFFFFFFFFFFFFFFFFFFF AND DUP2 MSTORE PUSH1 0x20 ADD SWAP1 DUP2 MSTORE PUSH1 0x20 ADD PUSH0 KECCAK256 DUP4 DUP2 SLOAD DUP2 LT PUSH2 0x39B JUMPI PUSH2 0x39A PUSH2 0xDAE JUMP JUMPDEST JUMPDEST SWAP1 PUSH0 MSTORE PUSH1 0x20 PUSH0 KECCAK256 SWAP1 PUSH1 0x3 MUL ADD PUSH0 ADD PUSH0 DUP3 DUP3 SLOAD PUSH2 0x3B7 SWAP2 SWAP1 PUSH2 0xF50 JUMP JUMPDEST SWAP3 POP POP DUP2 SWAP1 SSTORE POP POP POP JUMP JUMPDEST PUSH0 PUSH1 0x20 MSTORE DUP2 PUSH0 MSTORE PUSH1 0x40 PUSH0 KECCAK256 DUP2 DUP2 SLOAD DUP2 LT PUSH2 0x3DA JUMPI PUSH0 DUP1 REVERT JUMPDEST SWAP1 PUSH0 MSTORE PUSH1 0x20 PUSH0 KECCAK256 SWAP1 PUSH1 0x3 MUL ADD PUSH0 SWAP2 POP SWAP2 POP POP DUP1 PUSH0 ADD SLOAD SWAP1 DUP1 PUSH1 0x1 ADD SLOAD SWAP1 DUP1 PUSH1 0x2 ADD PUSH0 SWAP1 SLOAD SWAP1 PUSH2 0x100 EXP SWAP1 DIV PUSH20 0xFFFFFFFFFFFFFFFFFFFFFFFFFFFFFFFFFFFFFFFF AND SWAP1 POP DUP4 JUMP JUMPDEST PUSH1 0x1 PUSH0 SWAP1 SLOAD SWAP1 PUSH2 0x100 EXP SWAP1 DIV PUSH20 0xFFFFFFFFFFFFFFFFFFFFFFFFFFFFFFFFFFFFFFFF AND DUP2 JUMP JUMPDEST PUSH1 0x1 PUSH0 SWAP1 SLOAD SWAP1 PUSH2 0x100 EXP SWAP1 DIV PUSH20 0xFFFFFFFFFFFFFFFFFFFFFFFFFFFFFFFFFFFFFFFF AND PUSH20 0xFFFFFFFFFFFFFFFFFFFFFFFFFFFFFFFFFFFFFFFF AND CALLER PUSH20 0xFFFFFFFFFFFFFFFFFFFFFFFFFFFFFFFFFFFFFFFF AND EQ PUSH2 0x4D4 JUMPI PUSH1 0x40 MLOAD PUSH32 0x8C379A000000000000000000000000000000000000000000000000000000000 DUP2 MSTORE PUSH1 0x4 ADD PUSH2 0x4CB SWAP1 PUSH2 0xE35 JUMP JUMPDEST PUSH1 0x40 MLOAD DUP1 SWAP2 SUB SWAP1 REVERT JUMPDEST PUSH0 DUP1 CALLER PUSH20 0xFFFFFFFFFFFFFFFFFFFFFFFFFFFFFFFFFFFFFFFF AND PUSH20 0xFFFFFFFFFFFFFFFFFFFFFFFFFFFFFFFFFFFFFFFF AND DUP2 MSTORE PUSH1 0x20 ADD SWAP1 DUP2 MSTORE PUSH1 0x20 ADD PUSH0 KECCAK256 DUP1 SLOAD SWAP1 POP DUP5 LT PUSH2 0x555 JUMPI PUSH1 0x40 MLOAD PUSH32 0x8C379A000000000000000000000000000000000000000000000000000000000 DUP2 MSTORE PUSH1 0x4 ADD PUSH2 0x54C SWAP1 PUSH2 0xE9D JUMP JUMPDEST PUSH1 0x40 MLOAD DUP1 SWAP2 SUB SWAP1 REVERT JUMPDEST DUP2 PUSH0 DUP1 CALLER PUSH20 0xFFFFFFFFFFFFFFFFFFFFFFFFFFFFFFFFFFFFFFFF AND PUSH20 0xFFFFFFFFFFFFFFFFFFFFFFFFFFFFFFFFFFFFFFFF AND DUP2 MSTORE PUSH1 0x20 ADD SWAP1 DUP2 MSTORE PUSH1 0x20 ADD PUSH0 KECCAK256 DUP6 DUP2 SLOAD DUP2 LT PUSH2 0x5A4 JUMPI PUSH2 0x5A3 PUSH2 0xDAE JUMP JUMPDEST JUMPDEST SWAP1 PUSH0 MSTORE PUSH1 0x20 PUSH0 KECCAK256 SWAP1 PUSH1 0x3 MUL ADD PUSH0 ADD SLOAD LT ISZERO PUSH2 0x5F4 JUMPI PUSH1 0x40 MLOAD PUSH32 0x8C379A000000000000000000000000000000000000000000000000000000000 DUP2 MSTORE PUSH1 0x4 ADD PUSH2 0x5EB SWAP1 PUSH2 0xFCD JUMP JUMPDEST PUSH1 0x40 MLOAD DUP1 SWAP2 SUB SWAP1 REVERT JUMPDEST CALLER PUSH20 0xFFFFFFFFFFFFFFFFFFFFFFFFFFFFFFFFFFFFFFFF AND DUP4 PUSH20 0xFFFFFFFFFFFFFFFFFFFFFFFFFFFFFFFFFFFFFFFF AND SUB PUSH2 0x662 JUMPI PUSH1 0x40 MLOAD PUSH32 0x8C379A000000000000000000000000000000000000000000000000000000000 DUP2 MSTORE PUSH1 0x4 ADD PUSH2 0x659 SWAP1 PUSH2 0x1035 JUMP JUMPDEST PUSH1 0x40 MLOAD DUP1 SWAP2 SUB SWAP1 REVERT JUMPDEST PUSH2 0x66C DUP5 DUP4 PUSH2 0x19D JUMP JUMPDEST DUP2 PUSH0 DUP1 DUP6 PUSH20 0xFFFFFFFFFFFFFFFFFFFFFFFFFFFFFFFFFFFFFFFF AND PUSH20 0xFFFFFFFFFFFFFFFFFFFFFFFFFFFFFFFFFFFFFFFF AND DUP2 MSTORE PUSH1 0x20 ADD SWAP1 DUP2 MSTORE PUSH1 0x20 ADD PUSH0 KECCAK256 DUP6 DUP2 SLOAD DUP2 LT PUSH2 0x6BB JUMPI PUSH2 0x6BA PUSH2 0xDAE JUMP JUMPDEST JUMPDEST SWAP1 PUSH0 MSTORE PUSH1 0x20 PUSH0 KECCAK256 SWAP1 PUSH1 0x3 MUL ADD PUSH0 ADD PUSH0 DUP3 DUP3 SLOAD PUSH2 0x6D7 SWAP2 SWAP1 PUSH2 0x1053 JUMP JUMPDEST SWAP3 POP POP DUP2 SWAP1 SSTORE POP PUSH0 DUP1 DUP5 PUSH20 0xFFFFFFFFFFFFFFFFFFFFFFFFFFFFFFFFFFFFFFFF AND PUSH20 0xFFFFFFFFFFFFFFFFFFFFFFFFFFFFFFFFFFFFFFFF AND DUP2 MSTORE PUSH1 0x20 ADD SWAP1 DUP2 MSTORE PUSH1 0x20 ADD PUSH0 KECCAK256 DUP5 DUP2 SLOAD DUP2 LT PUSH2 0x72C JUMPI PUSH2 0x72B PUSH2 0xDAE JUMP JUMPDEST JUMPDEST SWAP1 PUSH0 MSTORE PUSH1 0x20 PUSH0 KECCAK256 SWAP1 PUSH1 0x3 MUL ADD PUSH1 0x2 ADD PUSH0 SWAP1 SLOAD SWAP1 PUSH2 0x100 EXP SWAP1 DIV PUSH20 0xFFFFFFFFFFFFFFFFFFFFFFFFFFFFFFFFFFFFFFFF AND PUSH20 0xFFFFFFFFFFFFFFFFFFFFFFFFFFFFFFFFFFFFFFFF AND PUSH0 DUP1 CALLER PUSH20 0xFFFFFFFFFFFFFFFFFFFFFFFFFFFFFFFFFFFFFFFF AND PUSH20 0xFFFFFFFFFFFFFFFFFFFFFFFFFFFFFFFFFFFFFFFF AND DUP2 MSTORE PUSH1 0x20 ADD SWAP1 DUP2 MSTORE PUSH1 0x20 ADD PUSH0 KECCAK256 DUP6 DUP2 SLOAD DUP2 LT PUSH2 0x7BF JUMPI PUSH2 0x7BE PUSH2 0xDAE JUMP JUMPDEST JUMPDEST SWAP1 PUSH0 MSTORE PUSH1 0x20 PUSH0 KECCAK256 SWAP1 PUSH1 0x3 MUL ADD PUSH1 0x2 ADD PUSH0 SWAP1 SLOAD SWAP1 PUSH2 0x100 EXP SWAP1 DIV PUSH20 0xFFFFFFFFFFFFFFFFFFFFFFFFFFFFFFFFFFFFFFFF AND PUSH20 0xFFFFFFFFFFFFFFFFFFFFFFFFFFFFFFFFFFFFFFFF AND PUSH32 0x651E25D1D5E28EA3D46C1E231DE2F939B587F24374B637685ABAF09E0598DE64 DUP4 DUP6 PUSH0 DUP1 CALLER PUSH20 0xFFFFFFFFFFFFFFFFFFFFFFFFFFFFFFFFFFFFFFFF AND PUSH20 0xFFFFFFFFFFFFFFFFFFFFFFFFFFFFFFFFFFFFFFFF AND DUP2 MSTORE PUSH1 0x20 ADD SWAP1 DUP2 MSTORE PUSH1 0x20 ADD PUSH0 KECCAK256 DUP10 DUP2 SLOAD DUP2 LT PUSH2 0x875 JUMPI PUSH2 0x874 PUSH2 0xDAE JUMP JUMPDEST JUMPDEST SWAP1 PUSH0 MSTORE PUSH1 0x20 PUSH0 KECCAK256 SWAP1 PUSH1 0x3 MUL ADD PUSH1 0x1 ADD SLOAD PUSH1 0x40 MLOAD PUSH2 0x894 SWAP4 SWAP3 SWAP2 SWAP1 PUSH2 0x10D6 JUMP JUMPDEST PUSH1 0x40 MLOAD DUP1 SWAP2 SUB SWAP1 LOG3 POP POP POP POP JUMP JUMPDEST PUSH1 0x1 PUSH0 SWAP1 SLOAD SWAP1 PUSH2 0x100 EXP SWAP1 DIV PUSH20 0xFFFFFFFFFFFFFFFFFFFFFFFFFFFFFFFFFFFFFFFF AND PUSH20 0xFFFFFFFFFFFFFFFFFFFFFFFFFFFFFFFFFFFFFFFF AND CALLER PUSH20 0xFFFFFFFFFFFFFFFFFFFFFFFFFFFFFFFFFFFFFFFF AND EQ PUSH2 0x931 JUMPI PUSH1 0x40 MLOAD PUSH32 0x8C379A000000000000000000000000000000000000000000000000000000000 DUP2 MSTORE PUSH1 0x4 ADD PUSH2 0x928 SWAP1 PUSH2 0xE35 JUMP JUMPDEST PUSH1 0x40 MLOAD DUP1 SWAP2 SUB SWAP1 REVERT JUMPDEST PUSH0 DUP1 CALLER PUSH20 0xFFFFFFFFFFFFFFFFFFFFFFFFFFFFFFFFFFFFFFFF AND PUSH20 0xFFFFFFFFFFFFFFFFFFFFFFFFFFFFFFFFFFFFFFFF AND DUP2 MSTORE PUSH1 0x20 ADD SWAP1 DUP2 MSTORE PUSH1 0x20 ADD PUSH0 KECCAK256 DUP1 SLOAD SWAP1 POP DUP3 LT PUSH2 0x9B2 JUMPI PUSH1 0x40 MLOAD PUSH32 0x8C379A000000000000000000000000000000000000000000000000000000000 DUP2 MSTORE PUSH1 0x4 ADD PUSH2 0x9A9 SWAP1 PUSH2 0xE9D JUMP JUMPDEST PUSH1 0x40 MLOAD DUP1 SWAP2 SUB SWAP1 REVERT JUMPDEST DUP1 PUSH0 DUP1 CALLER PUSH20 0xFFFFFFFFFFFFFFFFFFFFFFFFFFFFFFFFFFFFFFFF AND PUSH20 0xFFFFFFFFFFFFFFFFFFFFFFFFFFFFFFFFFFFFFFFF AND DUP2 MSTORE PUSH1 0x20 ADD SWAP1 DUP2 MSTORE PUSH1 0x20 ADD PUSH0 KECCAK256 DUP4 DUP2 SLOAD DUP2 LT PUSH2 0xA01 JUMPI PUSH2 0xA00 PUSH2 0xDAE JUMP JUMPDEST JUMPDEST SWAP1 PUSH0 MSTORE PUSH1 0x20 PUSH0 KECCAK256 SWAP1 PUSH1 0x3 MUL ADD PUSH0 ADD PUSH0 DUP3 DUP3 SLOAD PUSH2 0xA1D SWAP2 SWAP1 PUSH2 0x1053 JUMP JUMPDEST SWAP3 POP POP DUP2 SWAP1 SSTORE POP POP POP JUMP JUMPDEST PUSH0 PUSH1 0x40 MLOAD SWAP1 POP SWAP1 JUMP JUMPDEST PUSH0 DUP1 REVERT JUMPDEST PUSH0 DUP1 REVERT JUMPDEST PUSH0 DUP2 SWAP1 POP SWAP2 SWAP1 POP JUMP JUMPDEST PUSH2 0xA4B DUP2 PUSH2 0xA39 JUMP JUMPDEST DUP2 EQ PUSH2 0xA55 JUMPI PUSH0 DUP1 REVERT JUMPDEST POP JUMP JUMPDEST PUSH0 DUP2 CALLDATALOAD SWAP1 POP PUSH2 0xA66 DUP2 PUSH2 0xA42 JUMP JUMPDEST SWAP3 SWAP2 POP POP JUMP JUMPDEST PUSH0 PUSH1 0x20 DUP3 DUP5 SUB SLT ISZERO PUSH2 0xA81 JUMPI PUSH2 0xA80 PUSH2 0xA31 JUMP JUMPDEST JUMPDEST PUSH0 PUSH2 0xA8E DUP5 DUP3 DUP6 ADD PUSH2 0xA58 JUMP JUMPDEST SWAP2 POP POP SWAP3 SWAP2 POP POP JUMP JUMPDEST PUSH2 0xAA0 DUP2 PUSH2 0xA39 JUMP JUMPDEST DUP3 MSTORE POP POP JUMP JUMPDEST PUSH0 PUSH1 0x20 DUP3 ADD SWAP1 POP PUSH2 0xAB9 PUSH0 DUP4 ADD DUP5 PUSH2 0xA97 JUMP JUMPDEST SWAP3 SWAP2 POP POP JUMP JUMPDEST PUSH0 DUP1 PUSH1 0x40 DUP4 DUP6 SUB SLT ISZERO PUSH2 0xAD5 JUMPI PUSH2 0xAD4 PUSH2 0xA31 JUMP JUMPDEST JUMPDEST PUSH0 PUSH2 0xAE2 DUP6 DUP3 DUP7 ADD PUSH2 0xA58 JUMP JUMPDEST SWAP3 POP POP PUSH1 0x20 PUSH2 0xAF3 DUP6 DUP3 DUP7 ADD PUSH2 0xA58 JUMP JUMPDEST SWAP2 POP POP SWAP3 POP SWAP3 SWAP1 POP JUMP JUMPDEST PUSH0 PUSH20 0xFFFFFFFFFFFFFFFFFFFFFFFFFFFFFFFFFFFFFFFF DUP3 AND SWAP1 POP SWAP2 SWAP1 POP JUMP JUMPDEST PUSH0 PUSH2 0xB26 DUP3 PUSH2 0xAFD JUMP JUMPDEST SWAP1 POP SWAP2 SWAP1 POP JUMP JUMPDEST PUSH2 0xB36 DUP2 PUSH2 0xB1C JUMP JUMPDEST DUP2 EQ PUSH2 0xB40 JUMPI PUSH0 DUP1 REVERT JUMPDEST POP JUMP JUMPDEST PUSH0 DUP2 CALLDATALOAD SWAP1 POP PUSH2 0xB51 DUP2 PUSH2 0xB2D JUMP JUMPDEST SWAP3 SWAP2 POP POP JUMP JUMPDEST PUSH0 DUP1 PUSH1 0x40 DUP4 DUP6 SUB SLT ISZERO PUSH2 0xB6D JUMPI PUSH2 0xB6C PUSH2 0xA31 JUMP JUMPDEST JUMPDEST PUSH0 PUSH2 0xB7A DUP6 DUP3 DUP7 ADD PUSH2 0xB43 JUMP JUMPDEST SWAP3 POP POP PUSH1 0x20 PUSH2 0xB8B DUP6 DUP3 DUP7 ADD PUSH2 0xA58 JUMP JUMPDEST SWAP2 POP POP SWAP3 POP SWAP3 SWAP1 POP JUMP JUMPDEST PUSH2 0xB9E DUP2 PUSH2 0xB1C JUMP JUMPDEST DUP3 MSTORE POP POP JUMP JUMPDEST PUSH0 PUSH1 0x60 DUP3 ADD SWAP1 POP PUSH2 0xBB7 PUSH0 DUP4 ADD DUP7 PUSH2 0xA97 JUMP JUMPDEST PUSH2 0xBC4 PUSH1 0x20 DUP4 ADD DUP6 PUSH2 0xA97 JUMP JUMPDEST PUSH2 0xBD1 PUSH1 0x40 DUP4 ADD DUP5 PUSH2 0xB95 JUMP JUMPDEST SWAP5 SWAP4 POP POP POP POP JUMP JUMPDEST PUSH0 PUSH1 0x20 DUP3 ADD SWAP1 POP PUSH2 0xBEC PUSH0 DUP4 ADD DUP5 PUSH2 0xB95 JUMP JUMPDEST SWAP3 SWAP2 POP POP JUMP JUMPDEST PUSH0 DUP1 REVERT JUMPDEST PUSH0 DUP1 REVERT JUMPDEST PUSH0 PUSH1 0x1F NOT PUSH1 0x1F DUP4 ADD AND SWAP1 POP SWAP2 SWAP1 POP JUMP JUMPDEST PUSH32 0x4E487B7100000000000000000000000000000000000000000000000000000000 PUSH0 MSTORE PUSH1 0x41 PUSH1 0x4 MSTORE PUSH1 0x24 PUSH0 REVERT JUMPDEST PUSH2 0xC40 DUP3 PUSH2 0xBFA JUMP JUMPDEST DUP2 ADD DUP2 DUP2 LT PUSH8 0xFFFFFFFFFFFFFFFF DUP3 GT OR ISZERO PUSH2 0xC5F JUMPI PUSH2 0xC5E PUSH2 0xC0A JUMP JUMPDEST JUMPDEST DUP1 PUSH1 0x40 MSTORE POP POP POP JUMP JUMPDEST PUSH0 PUSH2 0xC71 PUSH2 0xA28 JUMP JUMPDEST SWAP1 POP PUSH2 0xC7D DUP3 DUP3 PUSH2 0xC37 JUMP JUMPDEST SWAP2 SWAP1 POP JUMP JUMPDEST PUSH0 PUSH8 0xFFFFFFFFFFFFFFFF DUP3 GT ISZERO PUSH2 0xC9C JUMPI PUSH2 0xC9B PUSH2 0xC0A JUMP JUMPDEST JUMPDEST PUSH2 0xCA5 DUP3 PUSH2 0xBFA JUMP JUMPDEST SWAP1 POP PUSH1 0x20 DUP2 ADD SWAP1 POP SWAP2 SWAP1 POP JUMP JUMPDEST DUP3 DUP2 DUP4 CALLDATACOPY PUSH0 DUP4 DUP4 ADD MSTORE POP POP POP JUMP JUMPDEST PUSH0 PUSH2 0xCD2 PUSH2 0xCCD DUP5 PUSH2 0xC82 JUMP JUMPDEST PUSH2 0xC68 JUMP JUMPDEST SWAP1 POP DUP3 DUP2 MSTORE PUSH1 0x20 DUP2 ADD DUP5 DUP5 DUP5 ADD GT ISZERO PUSH2 0xCEE JUMPI PUSH2 0xCED PUSH2 0xBF6 JUMP JUMPDEST JUMPDEST PUSH2 0xCF9 DUP5 DUP3 DUP6 PUSH2 0xCB2 JUMP JUMPDEST POP SWAP4 SWAP3 POP POP POP JUMP JUMPDEST PUSH0 DUP3 PUSH1 0x1F DUP4 ADD SLT PUSH2 0xD15 JUMPI PUSH2 0xD14 PUSH2 0xBF2 JUMP JUMPDEST JUMPDEST DUP2 CALLDATALOAD PUSH2 0xD25 DUP5 DUP3 PUSH1 0x20 DUP7 ADD PUSH2 0xCC0 JUMP JUMPDEST SWAP2 POP POP SWAP3 SWAP2 POP POP JUMP JUMPDEST PUSH0 DUP1 PUSH0 DUP1 PUSH1 0x80 DUP6 DUP8 SUB SLT ISZERO PUSH2 0xD46 JUMPI PUSH2 0xD45 PUSH2 0xA31 JUMP JUMPDEST JUMPDEST PUSH0 PUSH2 0xD53 DUP8 DUP3 DUP9 ADD PUSH2 0xA58 JUMP JUMPDEST SWAP5 POP POP PUSH1 0x20 PUSH2 0xD64 DUP8 DUP3 DUP9 ADD PUSH2 0xB43 JUMP JUMPDEST SWAP4 POP POP PUSH1 0x40 PUSH2 0xD75 DUP8 DUP3 DUP9 ADD PUSH2 0xA58 JUMP JUMPDEST SWAP3 POP POP PUSH1 0x60 DUP6 ADD CALLDATALOAD PUSH8 0xFFFFFFFFFFFFFFFF DUP2 GT ISZERO PUSH2 0xD96 JUMPI PUSH2 0xD95 PUSH2 0xA35 JUMP JUMPDEST JUMPDEST PUSH2 0xDA2 DUP8 DUP3 DUP9 ADD PUSH2 0xD01 JUMP JUMPDEST SWAP2 POP POP SWAP3 SWAP6 SWAP2 SWAP5 POP SWAP3 POP JUMP JUMPDEST PUSH32 0x4E487B7100000000000000000000000000000000000000000000000000000000 PUSH0 MSTORE PUSH1 0x32 PUSH1 0x4 MSTORE PUSH1 0x24 PUSH0 REVERT JUMPDEST PUSH0 DUP3 DUP3 MSTORE PUSH1 0x20 DUP3 ADD SWAP1 POP SWAP3 SWAP2 POP POP JUMP JUMPDEST PUSH32 0x4E6F74206F776E65720000000000000000000000000000000000000000000000 PUSH0 DUP3 ADD MSTORE POP JUMP JUMPDEST PUSH0 PUSH2 0xE1F PUSH1 0x9 DUP4 PUSH2 0xDDB JUMP JUMPDEST SWAP2 POP PUSH2 0xE2A DUP3 PUSH2 0xDEB JUMP JUMPDEST PUSH1 0x20 DUP3 ADD SWAP1 POP SWAP2 SWAP1 POP JUMP JUMPDEST PUSH0 PUSH1 0x20 DUP3 ADD SWAP1 POP DUP2 DUP2 SUB PUSH0 DUP4 ADD MSTORE PUSH2 0xE4C DUP2 PUSH2 0xE13 JUMP JUMPDEST SWAP1 POP SWAP2 SWAP1 POP JUMP JUMPDEST PUSH32 0x4163636F756E6420696420696E76616C69640000000000000000000000000000 PUSH0 DUP3 ADD MSTORE POP JUMP JUMPDEST PUSH0 PUSH2 0xE87 PUSH1 0x12 DUP4 PUSH2 0xDDB JUMP JUMPDEST SWAP2 POP PUSH2 0xE92 DUP3 PUSH2 0xE53 JUMP JUMPDEST PUSH1 0x20 DUP3 ADD SWAP1 POP SWAP2 SWAP1 POP JUMP JUMPDEST PUSH0 PUSH1 0x20 DUP3 ADD SWAP1 POP DUP2 DUP2 SUB PUSH0 DUP4 ADD MSTORE PUSH2 0xEB4 DUP2 PUSH2 0xE7B JUMP JUMPDEST SWAP1 POP SWAP2 SWAP1 POP JUMP JUMPDEST PUSH32 0x496E737566666963656E742066756E6473000000000000000000000000000000 PUSH0 DUP3 ADD MSTORE POP JUMP JUMPDEST PUSH0 PUSH2 0xEEF PUSH1 0x11 DUP4 PUSH2 0xDDB JUMP JUMPDEST SWAP2 POP PUSH2 0xEFA DUP3 PUSH2 0xEBB JUMP JUMPDEST PUSH1 0x20 DUP3 ADD SWAP1 POP SWAP2 SWAP1 POP JUMP JUMPDEST PUSH0 PUSH1 0x20 DUP3 ADD SWAP1 POP DUP2 DUP2 SUB PUSH0 DUP4 ADD MSTORE PUSH2 0xF1C DUP2 PUSH2 0xEE3 JUMP JUMPDEST SWAP1 POP SWAP2 SWAP1 POP JUMP JUMPDEST PUSH32 0x4E487B7100000000000000000000000000000000000000000000000000000000 PUSH0 MSTORE PUSH1 0x11 PUSH1 0x4 MSTORE PUSH1 0x24 PUSH0 REVERT JUMPDEST PUSH0 PUSH2 0xF5A DUP3 PUSH2 0xA39 JUMP JUMPDEST SWAP2 POP PUSH2 0xF65 DUP4 PUSH2 0xA39 JUMP JUMPDEST SWAP3 POP DUP3 DUP3 SUB SWAP1 POP DUP2 DUP2 GT ISZERO PUSH2 0xF7D JUMPI PUSH2 0xF7C PUSH2 0xF23 JUMP JUMPDEST JUMPDEST SWAP3 SWAP2 POP POP JUMP JUMPDEST PUSH32 0x496E73756666696369656E742066756E64730000000000000000000000000000 PUSH0 DUP3 ADD MSTORE POP JUMP JUMPDEST PUSH0 PUSH2 0xFB7 PUSH1 0x12 DUP4 PUSH2 0xDDB JUMP JUMPDEST SWAP2 POP PUSH2 0xFC2 DUP3 PUSH2 0xF83 JUMP JUMPDEST PUSH1 0x20 DUP3 ADD SWAP1 POP SWAP2 SWAP1 POP JUMP JUMPDEST PUSH0 PUSH1 0x20 DUP3 ADD SWAP1 POP DUP2 DUP2 SUB PUSH0 DUP4 ADD MSTORE PUSH2 0xFE4 DUP2 PUSH2 0xFAB JUMP JUMPDEST SWAP1 POP SWAP2 SWAP1 POP JUMP JUMPDEST PUSH32 0x496E76616C6964206163636F756E740000000000000000000000000000000000 PUSH0 DUP3 ADD MSTORE POP JUMP JUMPDEST PUSH0 PUSH2 0x101F PUSH1 0xF DUP4 PUSH2 0xDDB JUMP JUMPDEST SWAP2 POP PUSH2 0x102A DUP3 PUSH2 0xFEB JUMP JUMPDEST PUSH1 0x20 DUP3 ADD SWAP1 POP SWAP2 SWAP1 POP JUMP JUMPDEST PUSH0 PUSH1 0x20 DUP3 ADD SWAP1 POP DUP2 DUP2 SUB PUSH0 DUP4 ADD MSTORE PUSH2 0x104C DUP2 PUSH2 0x1013 JUMP JUMPDEST SWAP1 POP SWAP2 SWAP1 POP JUMP JUMPDEST PUSH0 PUSH2 0x105D DUP3 PUSH2 0xA39 JUMP JUMPDEST SWAP2 POP PUSH2 0x1068 DUP4 PUSH2 0xA39 JUMP JUMPDEST SWAP3 POP DUP3 DUP3 ADD SWAP1 POP DUP1 DUP3 GT ISZERO PUSH2 0x1080 JUMPI PUSH2 0x107F PUSH2 0xF23 JUMP JUMPDEST JUMPDEST SWAP3 SWAP2 POP POP JUMP JUMPDEST PUSH0 DUP2 MLOAD SWAP1 POP SWAP2 SWAP1 POP JUMP JUMPDEST DUP3 DUP2 DUP4 MCOPY PUSH0 DUP4 DUP4 ADD MSTORE POP POP POP JUMP JUMPDEST PUSH0 PUSH2 0x10A8 DUP3 PUSH2 0x1086 JUMP JUMPDEST PUSH2 0x10B2 DUP2 DUP6 PUSH2 0xDDB JUMP JUMPDEST SWAP4 POP PUSH2 0x10C2 DUP2 DUP6 PUSH1 0x20 DUP7 ADD PUSH2 0x1090 JUMP JUMPDEST PUSH2 0x10CB DUP2 PUSH2 0xBFA JUMP JUMPDEST DUP5 ADD SWAP2 POP POP SWAP3 SWAP2 POP POP JUMP JUMPDEST PUSH0 PUSH1 0x60 DUP3 ADD SWAP1 POP DUP2 DUP2 SUB PUSH0 DUP4 ADD MSTORE PUSH2 0x10EE DUP2 DUP7 PUSH2 0x109E JUMP JUMPDEST SWAP1 POP PUSH2 0x10FD PUSH1 0x20 DUP4 ADD DUP6 PUSH2 0xA97 JUMP JUMPDEST PUSH2 0x110A PUSH1 0x40 DUP4 ADD DUP5 PUSH2 0xA97 JUMP JUMPDEST SWAP5 SWAP4 POP POP POP POP JUMP INVALID LOG2 PUSH5 0x6970667358 0x22 SLT KECCAK256 SELFBALANCE LOG2 0xC5 0xA6 0xC7 0xE1 TLOAD ADD REVERT DUP2 SWAP12 0xC7 CALLER 0xE9 GT PUSH10 0x3F9E27557FD422FF34C0 0xB5 0x4C CHAINID DUP10 0xA7 CHAINID PUSH5 0x736F6C6343 STOP ADDMOD BYTE STOP CALLER "
				},
				"gasEstimates": {
					"creation": {
						"codeDepositCost": "884800",
						"executionCost": "25185",
						"totalCost": "909985"
					},
					"external": {
						"accounts(address,uint256)": "infinite",
						"deposit(uint256,uint256)": "infinite",
						"getBalance(uint256)": "infinite",
						"owner()": "2552",
						"transfer(uint256,address,uint256,string)": "infinite",
						"withdraw(uint256,uint256)": "infinite"
					}
				},
				"methodIdentifiers": {
					"accounts(address,uint256)": "87524581",
					"deposit(uint256,uint256)": "e2bbb158",
					"getBalance(uint256)": "1e010439",
					"owner()": "8da5cb5b",
					"transfer(uint256,address,uint256,string)": "d1eafb23",
					"withdraw(uint256,uint256)": "441a3e70"
				}
			},
			"storageLayout": {
				"storage": [
					{
						"astId": 14,
						"contract": "contracts/Banking-transactions.sol:Transactions",
						"label": "accounts",
						"offset": 0,
						"slot": "0",
						"type": "t_mapping(t_address,t_array(t_struct(Account)8_storage)dyn_storage)"
					},
					{
						"astId": 16,
						"contract": "contracts/Banking-transactions.sol:Transactions",
						"label": "owner",
						"offset": 0,
						"slot": "1",
						"type": "t_address"
					}
				],
				"types": {
					"t_address": {
						"encoding": "inplace",
						"label": "address",
						"numberOfBytes": "20"
					},
					"t_array(t_struct(Account)8_storage)dyn_storage": {
						"base": "t_struct(Account)8_storage",
						"encoding": "dynamic_array",
						"label": "struct Transactions.Account[]",
						"numberOfBytes": "32"
					},
					"t_mapping(t_address,t_array(t_struct(Account)8_storage)dyn_storage)": {
						"encoding": "mapping",
						"key": "t_address",
						"label": "mapping(address => struct Transactions.Account[])",
						"numberOfBytes": "32",
						"value": "t_array(t_struct(Account)8_storage)dyn_storage"
					},
					"t_struct(Account)8_storage": {
						"encoding": "inplace",
						"label": "struct Transactions.Account",
						"members": [
							{
								"astId": 3,
								"contract": "contracts/Banking-transactions.sol:Transactions",
								"label": "balance",
								"offset": 0,
								"slot": "0",
								"type": "t_uint256"
							},
							{
								"astId": 5,
								"contract": "contracts/Banking-transactions.sol:Transactions",
								"label": "timestamp",
								"offset": 0,
								"slot": "1",
								"type": "t_uint256"
							},
							{
								"astId": 7,
								"contract": "contracts/Banking-transactions.sol:Transactions",
								"label": "id",
								"offset": 0,
								"slot": "2",
								"type": "t_address"
							}
						],
						"numberOfBytes": "96"
					},
					"t_uint256": {
						"encoding": "inplace",
						"label": "uint256",
						"numberOfBytes": "32"
					}
				}
			},
			"userdoc": {
				"kind": "user",
				"methods": {},
				"version": 1
			}
		}
	}
}